:100000000C94B6020C9419270C94FD020C94FD027A
:100010000C94FD020C94FD020C94FD020C94FD0264
:100020000C94FD020C94FD020C94752E0C94472F39
:100030000C949A290C94FD020C94FD020C94FD0280
:100040000C94FD020C94FD020C94FD020C94FD0234
:100050000C94FD020C940F2A0C94FD020C94FD02EA
:100060000C94FD020C94FD020C94FD020C94FD0214
:100070000C94FD020C94FD020C94FD020C94FD0204
:100080000C94FD020C94FD020C94FD020C94FD02F4
:100090000C94FD020C94FD020C94FD020C94FD02E4
:1000A0000C94FD020C94FD020C94FD0240054005E9
:1000B0006C056C05D4050C070C070C07F2058706C8
:1000C00098069806FC060C070C070507AC07AC075A
:1000D000BE07BE07B507BE07BE07BE07AC07AC0725
:1000E000BA07BE07BE07BA07B42FDB2FD330DB2F0A
:1000F000D33027304A30D330A130B03029001E0031
:100100001F002000210022002B0014001A0008000C
:1001100015001700E30004001600070009000A009C
:10012000E1001D001B000600190005000000000092
:10013000E0002D00015102512A0027002600250071
:10014000240023003100130012000C0018001C00D2
:10015000340033000F000E000D000B0028003800A3
:10016000370036001000110000000000F3002C00E2
:10017000F100F20035000100010001000100010062
:100180003A003B003C003D003E003F004000410083
:100190004200430044004500E1000100010001006D
:1001A000010001000000000000000000000000004D
:1001B0002E000100010049000100010030002F0065
:1001C0004F08520050084B00010001004F00510041
:1001D00050004E000100010001000100010001007B
:1001E000000000000000000000000000C35CCE5CC6
:1001F00000000000000000000000C45CC65CC85C99
:10020000CA5CCC5C0000C55CC75CC95CCB5CCD5CE7
:1002100000000000000000000000000000000000DE
:1002200000000000000000004C00000056005500D7
:1002300054002A00000000005700610060005F00C9
:100240005800580085005E005D005C0058005800B2
:1002500067005B005A005900000000006300620064
:10026000000000001E0F0500047F3F1F643214646D
:100270003214783C1E1E140A052223252628292A1A
:100280002C2D2F3032333536383A3B3D3E404243F9
:100290004547494A4C4E5051535557595A5C5E6038
:1002A00062646668696B6D6F71737577797B7D7F4A
:1002B00081838587898A8C8E90929496989A9C9E49
:1002C0009FA1A3A5A7A8AAACAEAFB1B3B4B6B8B965
:1002D000BBBCBEBFC1C2C3C5C6C7C9CACBCCCDCECD
:1002E000D0D1D2D2D3D4D5D6D7D7D8D9D9DADADBB0
:1002F000DBDBDCDCDCDCDCDDDDDDDDDCDCDCDCDC3C
:10030000DBDBDBDADAD9D9D8D7D7D6D5D4D3D2D27A
:10031000D1D0CECDCCCBCAC9C7C6C5C3C2C1BFBE62
:10032000BCBBB9B8B6B4B3B1AFAEACAAA8A7A5A3CD
:10033000A19F9E9C9A98969492908E8C8A8987858C
:1003400083817F7D7B79777573716F6D6B6968666B
:100350006462605E5C5A5957555351504E4C4A493D
:1003600047454342403E3D3B3A3836353332302FE5
:100370002D2C2A292826252322FFAA7F554000015B
:100380000101010101010101020202020202020255
:100390000203030303030303030404040404040427
:1003A00005050505050606060606070707070708EB
:1003B000080808090909090A0A0A0B0B0B0C0C0C9E
:1003C0000D0D0D0E0E0E0F0F0F1010111111121238
:1003D00013131414151516161717181819191A1AB5
:1003E0001B1B1C1D1D1E1E1F202021222223242416
:1003F000252626272829292A2B2C2D2D2E2F303152
:100400003232333435363738393A3B3C3D3E3F4063
:100410004142434445464748494A4C4D4E4F50514E
:100420005354555658595A5B5D5E5F616264656608
:1004300068696B6C6D6F7072737577787A7B7D7E8F
:100440008082838587888A8C8E8F91939596989ADF
:100450009C9EA0A2A3A5A7A9ABADAFB1B3B5B7BAF7
:10046000BCBEC0C2C4C6C9CBCDCFD1D4D6D8DBDDCB
:10047000DFE2E4E7E9EBEEF0F3F5F8FAFDFF18034D
:100480004900720069007300200052006500760088
:100490002E002000350000000E034B0065006500B3
:1004A000620069006F0000000403090409023B00B8
:1004B000020100A0FA090400000103010100092162
:1004C000110100012240000705810308000A090408
:1004D0000100010300000009211101000122320086
:1004E0000705820320000A12010002000000081024
:1004F000CB565200050102000105010980A10185CA
:100500000319012AB700150126B70095017510815E
:1005100000C0050C0901A101850419012AA00215DA
:100520000126A002950175108100C005010906A1F0
:1005300001050719E029E7150025019508750181D6
:10054000029501750881010507190029FF1500268C
:10055000FF00950675088100050819012905950514
:1005600075019102950175039101C00011241FBE10
:10057000CFEFDAE0DEBFCDBF04B603FE27C0809127
:10058000B4039091B503A091B603B091B70387303F
:10059000904BA740B04BD1F41092B4031092B50326
:1005A0001092B6031092B70314BE84B7877F84BF3E
:1005B0000FB6F894A89580916000886180936000E0
:1005C000109260000FBEE0E0F8E3099512E0A0E0B1
:1005D000B1E0E8E5F5E602C005900D92A632B1075C
:1005E000D9F723E0A6E2B2E001C01D92A43BB20716
:1005F000E1F70E9409180C94AA320C940000CF93E2
:10060000DF93D82FC62F0E946524882389F0D1114B
:1006100006C0CC2311F089EA09C08AEA07C0D130AC
:1006200039F4CC2311F08EE401C08BE40E94F20473
:1006300080E0DF91CF91089581E0089581E00895F1
:100640000C941E0308950C9422031F93CF93DF9301
:1006500000D000D01F92CDB7DEB749835A836B8399
:100660003091280289819A81311114C0662359F092
:10067000222349F00E945209182F682F89819A81FC
:100680000E94F90803C00E942509182F69817A8108
:10069000812F04C00E94520969817A810F900F90C6
:1006A0000F900F900F90DF91CF911F910C940A1033
:1006B000FC01262F408151816281738184810C94D9
:1006C000250381E00895CF93DF93EC0160E00E9461
:1006D0005803BE01DF91CF910C9423030E94631253
:1006E0000E9407040E94D9220C949D120C94991226
:1006F00008950C9478030C9479030E947B0380E0A6
:100700000E94232280E00C9408040C9478030E9439
:100710009A070E9485032FEF84E39CE021508040DC
:100720009040E1F700C000000C94352A0F931F930E
:10073000CF93DF938C0161E00E945803EC01B80174
:100740000E942003882309F44BC0B801CE010E9407
:10075000EE21882309F444C0B801CE010E94262668
:100760008823F1F1B801CE010E942C238823C1F126
:10077000B801CE010E948225882391F1B801CE01F3
:100780000E942A20882361F1F8018281882309F1DF
:10079000CB358DE5D807C1F050F4C115FCE5DF0776
:1007A00081F0CF3DDC45A9F40E94000F19C0CC3583
:1007B000EDE5DE0761F0CD35DD4559F40E94490EC7
:1007C00008C00E9487030CC00E94520E02C00E9403
:1007D000550EC801DF91CF911F910F910C941C030E
:1007E00080E0DF91CF911F910F9108950C947803D1
:1007F0000E9412210E94A2280E9408040C94F60371
:1008000008950C94000481E008950C940304089565
:10081000CF93C82F0E9401048C2F0E940504CF9112
:100820000895CF93DF93CDB7DEB72B970FB6F8942B
:10083000DEBF0FBECDBF4F83588769877A878B870E
:1008400061110E94950D9E012F5F3F4F86E0F901D7
:1008500011928A95E9F785E0FE013796D90101905A
:100860000D928A95E1F789819A814C815D81452BB2
:1008700031F09F3F31F491E08F3F19F403C091E0D4
:1008800001C090E090FF09C049815A816B817C8151
:100890008D819E810E94B60C05C0C9010E94610332
:1008A0008111F2CF2B960FB6F894DEBF0FBECDBFED
:1008B000DF91CF910895FC01808191810E9494097C
:1008C0000895CF93882309F448C0C82F8CEF8C0F6C
:1008D000813AD0F46C2F80910601909107010E941B
:1008E000F828882349F06C2F809106019091070128
:1008F0000E9430290E94C70D6C2F809106019091B3
:1009000007010E942E290CC080E28C0F883058F419
:10091000C77081E001C0880FCA95EAF70E94780D80
:10092000CF910C94C70DEBE5EC0FE33040F4F0E011
:10093000EB54FE4F808190E0CF910C94C028C85AB0
:10094000C73158F4EC2FF0E0EE0FFF1FE957FE4FD0
:1009500080819181CF910C94D628CF9108958823DE
:1009600049F1682F8CEF860F813A38F480910601A7
:10097000909107010E9430290CC080E2860F8830D8
:1009800050F4677081E001C0880F6A95EAF70E9411
:100990007E0D0C94C70D8BE5860F833020F480E02C
:1009A00090E00C94C028685A673120F480E090E011
:1009B0000C94D62808951F93CF93DF93182FEB0143
:1009C0000E946104209741F08FE99FE00197F1F7C1
:1009D00000C000002197F6CF812FDF91CF911F91AA
:1009E0000C94AF04893319F060E070E002C060E558
:1009F00070E00C94DB04882321F00E94780D0C94A5
:100A0000C70D0895882321F00E947E0D0C94C70D18
:100A10000895CF92DF92EF92FF920F931F93CF939F
:100A2000DF937C01162FC72FFC01D281058102952F
:100A30000F700E946E0D8823B9F0DD23A9F08C2F72
:100A4000807F803421F080E2810F883068F08091CF
:100A5000610382FD09C082E00E94170E0E946E0DA4
:100A600091E0D82ED92601C0D12CCC2EC2948FE093
:100A7000C8228C2D90E0FC01EA5AFF4F0C948D3176
:100A80008C2F807FCF70882311F0C295C07FDD232B
:100A900099F0CC2309F49BC180E2810F883010F0DB
:100AA000111104C08C2F0E94780D03C08C2F0E945E
:100AB000880D0E94C70D8BC1812F0E94AF04CC23EB
:100AC00009F4AAC180E2810F883038F1112329F19D
:100AD0008C2F0E948E0D24C08C2F807FCF7080328F
:100AE00011F0C295C07F112319F01130A1F13DC062
:100AF0008091610382FF17C0DD2349F0CC2329F0E8
:100B00008C2F0E94780D0E94C70D80E061C180E0AB
:100B10000E94AF04CC2309F47FC18C2F0E947E0D6C
:100B20000E94C70D79C1DD2371F0002341F001302F
:100B300031F40E94A80D8C2B0E94B00D6DC10E9453
:100B4000A80D8C2B1DC0002319F0013009F464C1DD
:100B50000E94BD0D25C0DD2321F0063008F05CC1E8
:100B60000EC0053008F058C11BC0DD2361F0002322
:100B700031F0F701858180FF2AC18F7085838C2F2A
:100B80000E94FB0449C1002359F0193309F030C118
:100B9000FFEF27EE83E0F15020408040E1F726C1CF
:100BA0008C2F0E94020538C18C2F86958695837004
:100BB00019F0813061F030C1DD2321F0812F9C2FAD
:100BC000937002C080E090E00E94C0282DC1DD2318
:100BD00021F0812F9C2F937002C080E090E00E9452
:100BE000D62822C18C2F837009F045C0D11118C1BD
:100BF000412F429546954770440F440F612F6F7007
:100C0000862F90E0A0E0B0E0042E04C0880F991F6A
:100C1000AA1FBB1F0A94D2F714FF10C00FE010E008
:100C200020E030E004C0000F111F221F331F4A953F
:100C3000D2F7009510952095309503C000E010E0A4
:100C40009801C695C695C370BC01CD01602B712B70
:100C5000822B932BC23049F058F4C13019F00E9416
:100C60000F08DEC00E94FD07DBC00E942108D8C02B
:100C70000E94FB07D5C0DD2319F08C2F817001C0C5
:100C80008695882309F4CCC0412F4295469547703C
:100C9000440F440F612F6F70862F90E0A0E0B0E00A
:100CA000042E04C0880F991FAA1FBB1F0A94D2F7F5
:100CB00014FF10C00FE010E020E030E004C0000F8F
:100CC000111F221F331F4A95D2F7009510952095CA
:100CD000309503C000E010E09801C695C695C3703A
:100CE000BC01CD01602B712B822B932BC23049F0BC
:100CF00058F4C13019F00E94D40892C00E94C20872
:100D00008FC00E94E6088CC00E94350889C0CF7051
:100D1000DD2339F08C2F0E945B08812F0E94FB0499
:100D20007FC0812F0E9402058C2F0E947C0878C012
:100D3000123F21F128F4103F41F0113FC1F043C0B0
:100D4000133F19F1143F79F03EC0DD2341F0053027
:100D500008F062C08C2F8F710E94A1085DC0063020
:100D600008F05AC0F7CF8091610382FF18C0DD23DD
:100D700039F08C2F8F710E945B084EC0DD23C9F3C0
:100D80008C2F8F710E947C0847C0DD2329F08C2FA7
:100D90008F710E94460840C00E9441083DC0DD237B
:100DA00049F0CF718C2F0E945B0863E08C2F0E946A
:100DB000FC0D32C081E00E94170E023068F182E023
:100DC0000E94170E29C0DD2331F0002391F2812FFC
:100DD0000E94610421C0002399F2193349F49FEF66
:100DE000E7EEF3E09150E040F040E1F700C0000092
:100DF000812F0E94AF0410C04C2F4F70612FC7018C
:100E00000E9406100E94C2090FC04C2F4F70612F24
:100E1000C7010E94091008C088EF8C0D843020F4AF
:100E20000E94A2280E940804DD20C9F00E946A0DD9
:100E300080FD15C0F70112820E94640D0E945B08BC
:100E4000C7010E9450070E94640DDF91CF911F914E
:100E50000F91FF90EF90DF90CF900C947C08DF9182
:100E6000CF911F910F91FF90EF90DF90CF90089559
:100E70000F931F93CF93DF93EC01688179818A816F
:100E80000E949F098C010E94F8080E94E907B8019E
:100E9000CE010E940905DF91CF911F910F91089516
:100EA000CF93DF93EC01988189812B813C81232BA7
:100EB00031F08F3F31F481E09F3F19F403C081E0AE
:100EC00001C080E080FD1DC0CE010E94960381110B
:100ED00010C00E946E0D8823A1F08A81882389F0BA
:100EE0008091610382FD0DC082E0DF91CF910C946F
:100EF000170ECE010E943807CE01DF91CF910C94DE
:100F00006303DF91CF91089580E090E00E94C028B4
:100F100080E090E00E94D6280E94950D0E94A50DC9
:100F20000C94C70D80910601909107010E9432290F
:100F30000C9484070E94850D0C949207E92FE2958A
:100F4000EF704E2F50E0FA013297EE30F105B0F419
:100F5000EA59FF4F0C948D31803F91F018F4883E90
:100F600068F40EC0843F51F40BC0883E48F0813FC6
:100F700029F406C093FB882780F9089580E008953E
:100F800081E00895FC01808191810E9494090E9472
:100F90009E070895CF93DF9300D000D01F92CDB766
:100FA000DEB70F900F900F900F900F90DF91CF91C1
:100FB0000895CF93DF9300D000D000D0CDB7DEB737
:100FC00026960FB6F894DEBF0FBECDBFDF91CF914E
:100FD0000895089508950C94EA070C94EB070E9475
:100FE000ED076093550270935602809357029093D9
:100FF00058020C9484070C94EF070F931F930091F1
:101000005502109156022091570230915802602BE0
:10101000712B822B932B1F910F910C94EF070F9341
:101020001F93009155021091560220915702309162
:10103000580260237123822393231F910F910C94F4
:10104000EF070F931F9300915502109156022091C4
:1010500057023091580260277127822793271F91EA
:101060000F910C94EF070C94EA070E9433086093E9
:1010700051027093520280935302909354020C9445
:10108000840760E070E0CB010C9435080F931F9348
:1010900041E050E060E070E08A019B0104C0000F75
:1010A000111F221F331F8A95D2F7C901B8011F9162
:1010B0000F910C9435080F931F9341E050E060E0CE
:1010C00070E004C0440F551F661F771F8A95D2F742
:1010D0008091510290915202A0915302B09154021A
:1010E0008A019B01082B192B2A2B3B2BC901B80124
:1010F0001F910F910C9435080F931F9341E050E01E
:1011000060E070E004C0440F551F661F771F8A958A
:10111000D2F74095509560957095809151029091CD
:101120005202A0915302B09154028A019B010823FC
:1011300019232A233B23C901B8011F910F910C9455
:1011400035080F931F9341E050E060E070E004C069
:10115000440F551F661F771F8A95D2F78091510261
:1011600090915202A0915302B09154028A019B01C6
:10117000082719272A273B27C901B8011F910F917A
:101180000C9435080F931F93009151021091520255
:101190002091530230915402602B712B822B932BA0
:1011A0001F910F910C9435080F931F9300915102DA
:1011B0001091520220915302309154026023712306
:1011C000822393231F910F910C9435080F931F9343
:1011D0000091510210915202209153023091540219
:1011E00060277127822793271F910F910C94350850
:1011F0000895292F220F920F990F890FE82FE69556
:10120000E695E695877051E001C0550F8A95EAF79B
:1012100085E0E89FF0011124E75DFD4F20E030E01C
:1012200070E04081CB01022E02C0969587950A940A
:10123000E2F78170819584278523842781932F5F2E
:101240003F4F2530310569F70895292F220F920F5E
:10125000990F890F682F669566956695982F9770F8
:1012600085E0689FB001112440E050E080E0FB0180
:10127000E40FF51FE75DFD4F208130E0092E02C02D
:10128000369527950A94E2F721703327042E01C082
:10129000220F0A94EAF7822B4F5F5F4F45305105CA
:1012A00031F70895BF92CF92DF92EF92FF920F93A2
:1012B0001F93CF93DF938C01C0905102D0905202C4
:1012C000E0905302F09054028091550290915602A2
:1012D000A0915702B0915802C82AD92AEA2AFB2ABB
:1012E000CFE1D0E0D701C6010C2E04C0B695A7957A
:1012F000979587950A94D2F780FD04C0219790F7BF
:10130000B12C07C0BC2EB8018C2F0E943A11019756
:10131000A9F38B2DDF91CF911F910F91FF90EF904B
:10132000DF90CF90BF900895CF93DF93EC010E94A0
:101330005209BE010E943A11DF91CF9108951F9387
:10134000CF93DF93EB0190912802992321F0CB01F9
:101350000E94940913C0882349F0CB010E945209CE
:10136000182F682FCE010E94F90804C0CB010E94FB
:101370002509182FBE01812F0E943A11DF91CF91CC
:101380001F910895EF92FF920F931F93CF93DF93D6
:101390008C01892B09F46CC0F12CEE24E394E80154
:1013A0002196F8018491843740F4843008F051C0CC
:1013B000813081F0823019F15BC0853709F444C077
:1013C000A8F19CE7980F903708F052C08F770E94E1
:1013D000AF0441C00E5F1F4FFE01849190E2980F51
:1013E000983050F48770FE2D01C0FF0F8A95EAF700
:1013F0008F2F0E94980D14C00E9461042DC00E5FB3
:101400001F4FFE01849190E2980F983060F487702E
:10141000FE2D01C0FF0F8A95EAF78F2F0E949E0DC7
:101420000E94C70D19C00E94AF0416C00E5F1F4F67
:10143000FE01C491CC2381F08FE99FE00197F1F781
:1014400000C00000C150F6CF0E5F1F4FFE01F490A8
:1014500003C00E9461048E018F2D882309F49FCF61
:10146000EFE9FFE03197F1F700C000008150F5CFC0
:10147000DF91CF911F910F91FF90EF9008951F93EF
:10148000CF93DF93C091590216E080915A02C8179A
:1014900099F0D0E01C9FF0011D9FF00D1124E55A3A
:1014A000FD4F4081518162817381848195810E94C9
:1014B000D9072196C770E9CFDF91CF911F91089589
:1014C00040918B0250918C0260918D0270918E023E
:1014D00080918F02909190020C94D907EF92FF9225
:1014E0000F931F93CF93DF938091900282958F701B
:1014F00009F065C080918D02882309F460C0809155
:101500005902F0905A0210918B0200918C02609166
:101510008E0270918F0291E01F3F09F090E0C09120
:101520000401D0910501292F96E0E92E8F1509F4C9
:1015300046C06115710521F00F3F21F030E003C076
:1015400031E001C0322F90E030FD36C0E89EF0015E
:10155000E99EF00D1124DF01A55ABD4F11963C9173
:101560001197301329C03C91311326C012963C913B
:101570001297311121C013964D915C911497461B1F
:10158000570B4C175D07C0F4809190028F708061FB
:1015900080939002E05AFD4F80818F70806180833C
:1015A0008BE892E00E945007DF91CF911F910F913D
:1015B000FF90EF900C943F0A01968770B7CFDF91B0
:1015C000CF911F910F91FF90EF9008959F92AF924E
:1015D000BF92CF92DF92EF92FF920F931F93CF9320
:1015E000DF93CDB7DEB761970FB6F894DEBF0FBEBD
:1015F000CDBF8C0185E0F801DE011D9601900D92B2
:101600008A95E1F7D8011296EC9090918B02E091C7
:101610008C0220918E0230918F022115310531F01C
:10162000EF3F31F481E09F3F19F403C081E001C036
:1016300080E0B82FB1709B2E80FD47C1D8014C913E
:1016400011965C9111971396AD90BC9014978BE80E
:10165000C82E82E0D82EF0908D02B501621B730B6C
:101660002091040130910501FF2009F4D9C0809137
:1016700090026217730708F095C0282F207F09F0A9
:1016800052C05E1313C0491311C0FE2CE1100EC0EE
:101690008F708061809390020E94600AC6010E9450
:1016A000500780919002F80185834DC1AB2831F03D
:1016B0005F3F31F481E04F3F19F403C081E001C086
:1016C00080E080FD03C081E08E2502C080E090E0D4
:1016D000F82FF170FF2E80FF1CC0809159022091DD
:1016E0005A0236E0821709F40BC190E0389FF001EE
:1016F000399FF00D1124E55AFD4F6181561306C044
:101700006081461303C06281E61203C001968770B0
:10171000E9CFFE2CEE2009F416C180919002816081
:101720008093900254C05E1306C0491304C0E110B8
:1017300002C0F80199C0C8010E94C207882361F164
:10174000EE2051F120919002822F82958F7090E0CF
:10175000029774F080918B0290918C0298878F830E
:101760001986BB86AA862C87CE0107960E94500751
:1017700086E0F801ABE8B2E001900D928A95E1F7BE
:101780000E946E0A0E94600A0AC05E1711F1C80129
:101790000E94C20781112CC0C8010E945007FF247B
:1017A000F394D1C0282F207F81F77A2DB98AA88A97
:1017B0006E2D89890E94CA078BE892E00E9450072B
:1017C00086E0D6011D928A95E9F70E94600AF12C05
:1017D000BAC04913DCCFE110DACFF8018583C80124
:1017E0000E94500786E0D6011D928A95E9F7ABC0AA
:1017F000EE2091F220919002822F82958F7090E0DE
:1018000002970CF4B5CF80918B0290918C029A8351
:1018100089831B82BD82AC822E83CE010196A6CF26
:101820006217730708F044C0FE2CEE2009F4B4CF11
:101830005E1330C049132EC02091900220FD21C0BC
:10184000822F82958F70482F50E041155105C9F0C5
:10185000F80125834F30510541F08F5F982F929505
:10186000907F822F8F70892B8583C8010E9450073B
:1018700086E0F801ABE8B2E001900D928A95E1F7BD
:101880003CC086E0F801ABE8B2E001900D928A9589
:10189000E1F759C0C8010E94C207811169CF809148
:1018A0009002816080939002C8010E9450074BC053
:1018B0007A2DB98AA88A6E2D89890E94CA0786E086
:1018C000D6011D928A95E9F718C0EE2009F464CF7D
:1018D000C8010E94C207F82E882309F45DCF86E074
:1018E000F801ABE8B2E001900D928A95E1F78BE840
:1018F00092E00E945B040E946E0A0E94600A23C06C
:101900004D875E878D859E850E949409292F22959B
:101910002F70223028F49F7039F0811105C00BC060
:10192000243028F49F7049F4805E883020F0C8018C
:101930000E9450079F2CF92C06C0D80115969C9147
:10194000907F91F7F8CF8F2D61960FB6F894DEBF98
:101950000FBECDBFDF91CF911F910F91FF90EF9000
:10196000DF90CF90BF90AF909F9008951F93CF933B
:10197000DF93CDB7DEB72C970FB6F894DEBF0FBE5E
:10198000CDBF4F83588769877A878B879C87CE0125
:1019900007960E94E60A8823D1F09F8188852A85D0
:1019A0003B85232B31F08F3F31F481E09F3F19F4C9
:1019B00003C081E001C080E080FD47C04F815885B1
:1019C00069857A858B859C850E94D9073EC086E013
:1019D000FE013796DE01119601900D928A95E1F78E
:1019E000FF81E8856A857B856115710531F0EF3FE0
:1019F00031F481E0FF3F19F403C081E001C080E0D1
:101A000080FD23C020915A0230E0C9010196877001
:101A100099274091590250E084179507F1F1F98315
:101A2000EA837D836C8396E0929FD001939FB00DF3
:101A30001124A55ABD4FFE01319601900D929A9541
:101A4000E1F780935A020E943F0A16E08091590202
:101A500090915A02891771F1189FC0011124855A7B
:101A60009D4F0E94E60A882329F1E09159021E9FAA
:101A7000F0011124E55AFD4F40815181628173814B
:101A8000848195810E94D9078091590290E0019646
:101A90008770992780935902D9CF0E949A07109294
:101AA0005A0210925902EBE8F2E086E0DF011D9243
:101AB0008A95E9F72C960FB6F894DEBF0FBECDBF1E
:101AC000DF91CF911F910895809191028595859521
:101AD0008595089580919102877008959091910263
:101AE000977081E009F480E0089580919D02089547
:101AF00090919D02892B80939D02089580959091ED
:101B00009D02892380939D02089510929D0208955D
:101B100090919C02892B80939C02089580959091CE
:101B20009C02892380939C02089510929C02089540
:101B300090919B02892B80939B02089580959091B0
:101B40009B02892380939B02089510929B02089523
:101B500080919202089508950C94AB0D0C94AC0DF5
:101B60009091610392FD08C090919202981721F024
:101B7000809392020C94AE0D089580919202882376
:101B800029F01092920280E00C94AE0D0895E0913D
:101B90000601F091070180919D028083E09106018A
:101BA000F0910701908180919C02892B8083E091C4
:101BB0000601F0910701908180919B02892B80831F
:101BC00080919202882381F0E0910601F091070153
:101BD0009081892B808380910601909107010E945A
:101BE000EC2881110E94BD0D8091060190910701A2
:101BF0000C94B5280C94AB0D9091610392FD10C02C
:101C000098E0899F90011124262B209391020E9435
:101C10005B08809191028595859585950C94FA0DC8
:101C20000C945B081092910280E00C94FA0D2091C4
:101C300091028095822380939102982F977099F456
:101C400030E0482F082E000C550B2417350759F0AB
:101C50009091610392FD07C08595859585950E94B9
:101C60007C080C94120E08959091610392FB222738
:101C700020F9281769F080FB92F990936103809115
:101C80006003909161030E947C0E82E00C94170E19
:101C900008958091610382FB882780F991E089276C
:101CA0000C94340E81E00C94340E80E00C94340ECD
:101CB00080E090E00E94513221E0893E9E4F09F081
:101CC00020E0822F089582E090E00C94433283E07C
:101CD00090E00C944332CF9384E090E00E94433232
:101CE000C82F82E290E00E9443322C2F30E0A901FD
:101CF000582BCA01CF910895CF93C92F682F84E044
:101D000090E00E9457326C2F82E290E0CF910C94C9
:101D10005732AB01BC018FE090E00C946932AB010B
:101D2000BC0183E190E00C94693260E070E0CB018B
:101D30000C948F0E60E070E0CB010E94890E0C9431
:101D4000950E69EE7EEF80E090E00E94753260E0D3
:101D500082E090E00E94573260E083E090E00E94D1
:101D6000573210925502109256021092570210925A
:101D7000580260E084E090E00E94573260E082E226
:101D800090E00E94573260E085E090E00E94573278
:101D900060E086E090E00E9457326FEF87E090E0CD
:101DA0000E94573240E050E0BA0188E090E00E9483
:101DB000693260E08DE090E00E94573240E050E0F0
:101DC000BA0188E190E00E94693260E087E190E02A
:101DD0000E94573240E050E0BA018CE190E00E944E
:101DE000693260E070E080E290E00E94753240E08D
:101DF00050E0BA0188E190E00E9469320C949A0E9A
:101E00000C94A10E682F8EE090E00C9457320E9443
:101E1000D8296093B1027093B2028093B302909379
:101E2000B4026093AD027093AE028093AF029093C0
:101E3000B00208950E94D8296093B1027093B20253
:101E40008093B3029093B4026093A9027093AA02A4
:101E50008093AB029093AC02089585B7806885BFEC
:101E600085B7806885BF08950C94A21408950C94DA
:101E7000360F0C94360F0C94390F0C94360F0C94CB
:101E80003D0F0C94360F0E942D0F80E692E10E94C8
:101E900098280E94410F0C943F0F0E94370F0C941A
:101EA000360F0E94C3290E9416120E943D130E9401
:101EB00014230E9412210E940A1F0E9467240C947E
:101EC0003B0F9F92AF92BF92CF92DF92EF92FF9221
:101ED0000F931F93CF93DF93CDB7DEB72A970FB63B
:101EE000F894DEBF0FBECDBF0E94101481110E9476
:101EF000070F8FE9A82E82E0B82E00E010E0902EA8
:101F0000802F0E948712D82EF501C1905F01C8264C
:101F1000B1F40F5F1F4F0A30110589F78FEF8983E6
:101F20008A831B820E94CC298160782F9D838C83B9
:101F300049815A816B818D810E9411042FC080914B
:101F4000B50281FD0E948D12E12CFF24F3948C2DAB
:101F50008F21F1F00E94340F882399F0EE829F8246
:101F6000DF2081E009F480E088870E94CC2981602D
:101F7000782F9A8789874E815F8168858A850E943C
:101F80001104F801E156FD4F8081F826F08206C069
:101F9000E394FF0CF6E0EF12DACFBBCF0E94421FB2
:101FA0000E94D8220E94D02481110E941A0F0E9400
:101FB000A22890919E028917B9F00E94A2288093CE
:101FC0009E022A960FB6F894DEBF0FBECDBFDF91FA
:101FD000CF911F910F91FF90EF90DF90CF90BF9026
:101FE000AF909F900C9408042A960FB6F894DEBF29
:101FF0000FBECDBFDF91CF911F910F91FF90EF905A
:10200000DF90CF90BF90AF909F90089580E090E0D8
:10201000089508952CE3829FC0011124FC0126E05D
:10202000729FE00DF11D1124E60FF11DEE0FFF1F51
:10203000E450FF4F859194910895880F991FFC01FA
:10204000EC59FD4F859194910895CF93DF930E94B1
:102050003F11EC01811520E5920708F041C0811580
:1020600040E4940708F0CBC0803E910520F5803C09
:10207000910508F0B8C0883A910570F4853A910549
:1020800008F0A8C08130910509F4A1C008F4EBC0A4
:10209000049708F0EBC0E7C08F3B910508F0E3C060
:1020A000885AC82FD0E0CC0FDD1FC854DE4F88817E
:1020B00099819464DCC0811550E2950750F4C115F4
:1020C00081E0D80708F0D2C0C83ED10508F4CEC0E0
:1020D000CAC0811520E3920708F08AC09F7085C0AE
:1020E000811545E5940708F046C0811554E595072C
:1020F00008F09DC0C11582E5D80718F5C11521E586
:10210000D20708F07FC0CE01F4E096958795FA9546
:10211000E1F7282F23703C2F337081E090E002C05C
:10212000880F991F3A95E2F79C68922B2C2F2F70FD
:102130002695269540E2249F90011124822B932B13
:1021400096C09E01237033279C2F96959695C115B6
:10215000D34508F05CC041E050E002C0440F551F79
:102160002A95E2F780E2989F90011124CA01822B00
:10217000932B9C687CC0811559E5950798F4C1158F
:1021800088E5D80708F058C0C11526E5D20708F041
:102190006AC08C2F0E94D3118F7190E0982F8827EE
:1021A000906265C081154AE5940708F44AC09056CC
:1021B0008115904208F057C08D2F8F710E94D31166
:1021C0009E01332730628F71A901582B4AC081E0EC
:1021D00090E04DC0855AC82FD0E0CA51DE4F8881AB
:1021E00090E0906444C0805C91090E941D103FC043
:1021F0009927D3FF02C0986C3AC0906C38C09F708A
:10220000906A35C09C2F8827816F906A30C041E06A
:1022100050E002C0440F551F2A95E2F780E2989FD4
:1022200090011124CA01822B932B9A6820C0982F09
:102230008827846F906A1BC09C2F8827806F906AC4
:1022400016C08F700E94D3119E0194E03695279599
:102250009A95E1F72F7030E0322F22273069A901DB
:10226000482BCA0104C080E090E001C0CE01DF919C
:10227000CF9108950E940A100E9425100895823877
:10228000910569F1B0F48133910509F46DC048F40A
:102290008932910509F463C08A32910509F469C055
:1022A00008958533910509F455C089339105B9F036
:1022B0000895833E910569F138F4803E9105B1F0AF
:1022C000823E910509F10895863E9105A9F1873E68
:1022D0009105B9F1843E910509F064C023C02091B5
:1022E000600320FD4FC021FD4DC008958091600323
:1022F00080FD44C08091610380FF44C080916003F1
:1023000084FD42C083EE4DC08091600382FF38C0DF
:10231000F5CF8091600382FD33C08091610380FD21
:1023200031C0ECCF8091610381FF32C080916003A6
:1023300084FD2AC087EE35C08091600383FF26C0EC
:10234000F5CF8091600383FD21C08091610381FD01
:102350001FC0ECCF8091600385FD1CC01DC0809123
:10236000600385FD19C016C08091600386FD16C00C
:1023700017C08091600386FD13C010C089E311C0AF
:1023800082EE0FC080EE0DC080E00BC086EE09C06B
:1023900084EE07C089E205C085E303C08AE201C07C
:1023A00081E390E008959091600392FF0DC0282F83
:1023B0002871283019F4877F846006C0282F247183
:1023C000243011F48B7F886093FF0DC0282F287173
:1023D000283119F4877E846106C0282F24712431A6
:1023E00011F48B7E88612091610320FF0DC0382F8E
:1023F0003871383019F4877F816006C0382F317109
:10240000313011F48E7F886021FF0DC0282F287194
:10241000283119F4877E816106C0282F217121316E
:1024200011F48E7E886194FD877E089510925C037E
:1024300010925D0310925E0310925F030895CF9295
:10244000DF92EF92FF926B017C010E94A214811136
:102450000EC00E94D829C61AD70AE80AF90AC09203
:102460005C03D0925D03E0925E03F0925F03FF9005
:10247000EF90DF90CF9008950F931F930E94A214C6
:10248000882321F01F910F910C94D8290E94D829FC
:1024900000915C0310915D0320915E0330915F0316
:1024A000600F711F821F931F1F910F9108950E944B
:1024B000A21481110C94CC290E943C12CB010895E6
:1024C00080E0089508950E94580E811102C00E9474
:1024D000000F0E94630E8093B5020E946B0E9093D2
:1024E0006103809360030E9462120E94670E682F4E
:1024F00070E080E090E00E94FB07609151027091D3
:10250000520280915302909154020C943308E82FA8
:10251000F0E0E459FC4F80810895089580EA8A959F
:10252000F1F7089500C008950C948E1208950C944C
:1025300096120C9497120C9496120C949B12F89489
:10254000E82FE295EF70F0E031A1282F2F7081E0A5
:1025500090E001C0880F2A95EAF7982F9095932371
:1025600091A392A1892B82A37894089508950C9445
:10257000B6120F931F93CF93DF93CEE0D1E08991F2
:102580008F3F11F00E949F1281E0C331D807B9F745
:10259000C8E0D1E00EE011E089918F3F11F00E9478
:1025A0009F120C171D07C1F7DF91CF911F910F915B
:1025B0000895CF92DF92EF92FF920F931F93CF93E4
:1025C000DF938C01C62FD0E0CE01825F9E4F7C014D
:1025D000FC0190819F3F09F447C0D62EF894E92F63
:1025E000E295EF70F0E081A19F7021E030E001C042
:1025F000220F9A95EAF7822B81A382A120952823A6
:1026000022A378940E949212E8E0F1E04EE051E0BB
:1026100031E0C12C21912F3F89F0A22FA295AF70FC
:10262000B0E090968C9190E02F7002C095958795C0
:102630002A95E2F780FD02C0832F01C080E0C82AFE
:10264000330F4E175F0731F7F70180818F3F11F08D
:102650000E949F1261E0C11001C060E08D2D0E94B8
:102660009412C00FD11FC882DF91CF911F910F919B
:10267000FF90EF90DF90CF900895CF93DF93CDB789
:10268000DEB760970FB6F894DEBF0FBECDBF0E94D5
:10269000BA1480911801811131C0FE0131962AE0EF
:1026A000DF011D922A95E9F721E3298322E32A839A
:1026B00022E92B8321EF2C8324EF2D83CF01EEE041
:1026C000F1E09E01255F3F4FDC014D91CD0141932B
:1026D000A217B307C9F726E0E1E8F1E0DE011B9697
:1026E00001900D922A95E1F7FC01A8E0B1E0CE013E
:1026F000419621912D93E817F907D9F78091180198
:10270000811102C095E001C090E09093770385E0CD
:10271000891B809376030E94B9128AE0ECE6F3E00D
:10272000DF01982F1D929A95E9F7E2E6F3E0DF01C9
:102730001D928A95E9F785E00E9464140E946E0359
:1027400060960FB6F894DEBF0FBECDBFDF91CF917C
:102750000C94CE14FF920F931F93CF93DF9300D06E
:1027600000D01F92CDB7DEB70E94A214609177030C
:102770008823E9F185E0F82E8E010F5F1F4FF801E5
:102780008F2D11928A95E9F7862F90E0B801845930
:102790009C4F0E94DC14882389F08091760390E09E
:1027A00045E050E0B80184599C4F0E942D3221E051
:1027B0002093B602892B61F410E016C08091B60216
:1027C0008823D1F3F8011192FA94E9F71092B60236
:1027D000A0917603B0E0A459BC4F85E0F8010190C8
:1027E0000D928A95E1F711E00E9476030DC070E02A
:1027F00064597C4F8091760390E084599C4F0E94ED
:102800006C150E94B71210E0812F0F900F900F905F
:102810000F900F90DF91CF911F910F91FF9008952E
:10282000EF92FF920F931F93CF93DF93CDB7DEB755
:102830002A970FB6F894DEBF0FBECDBF8E010F5F93
:102840001F4F8AE0F80111928A95E9F7F12C6F2D5C
:10285000C8010E94D912F394F5E0FF12F8CF4AE0C4
:1028600050E0B80182E693E00E942D327C0121E025
:10287000892B09F420E0E114F10441F08AE0F80129
:10288000A2E6B3E001900D928A95E1F7609177039B
:1028900070E064597C4F45E082E693E00E94651445
:1028A000EF2819F40E94AA1302C081E090E02A9652
:1028B0000FB6F894DEBF0FBECDBFDF91CF911F9151
:1028C0000F91FF90EF9008950895FF920F931F933B
:1028D000CF93DF938C01F62ED72FC42F222349F0FC
:1028E00081E08093B9020E94CC299093B802809332
:1028F000B7028091B9028823C1F08091B70290910C
:10290000B8020E94E429059780F0EF2DFD2FD80131
:102910004C2F50E0CD01801B910B841795071CF4C0
:102920008D918193F7CF1092B902DF91CF911F91D2
:102930000F91FF90089555985D9889B185FB882780
:1029400080F908958091BC0281110DC00E940C3164
:10295000811102C082E001C081E08093BC0282301C
:1029600011F40E94073181E09091BC02913009F08E
:1029700080E008950E949B148093180180911801B3
:1029800066E0882311F080E001C086E00E94AB1869
:102990000E94A21481110C94141508950E94A2148F
:1029A000811102C00C941615089581E09091BD022A
:1029B0009A3008F080E008950F931F93CF93DF9330
:1029C000EC018B018091BD028A3038F4B801CE0150
:1029D0000E946A1581111DC00AC08091BA029091AF
:1029E000BB020E94E429843F914080F715C080918A
:1029F000BD028F3F19F08F5F8093BD028091BD02B1
:102A00008A3060F00E94CC299093BB028093BA0276
:102A100003C01092BD0202C080E001C081E0DF91DE
:102A2000CF911F910F9108950C94D3260C94D62624
:102A3000EF92FF920F931F93CF93DF937901C82FEB
:102A4000880FDD0B41155105A9F08AE08C9FF0013C
:102A50008D9FF00D1124E75EFE4F83819481825497
:102A60009D4F228130E04217530708F49A01A901D3
:102A70000E943A32CE010E94E027892B09F5011508
:102A8000110501F18AE08C9FF0018D9FF00D11245A
:102A9000E75EFE4F458150E00417150708F4A801D2
:102AA0008AE08C9FF0018D9FF00D1124E75EFE4FB0
:102AB0006681778162547D4FC7010E943A3202C01D
:102AC00080E001C081E0DF91CF911F910F91FF90D5
:102AD000EF9008950C945E170C949217AF92BF92EA
:102AE000CF92DF92EF92FF920F931F93CF93DF93DA
:102AF000C82F7B01D42F69015801FB0160817181CE
:102B0000828193810E94F3296436710581059105C4
:102B100010F4DD23A1F000E010E020E030E0A5019A
:102B2000B6018C2F0E941815C82F882349F00E94E7
:102B3000D829F701608371838283938301C0C1E048
:102B40008C2FDF91CF911F910F91FF90EF90DF902D
:102B5000CF90BF90AF9008950F931F93CF93DF93C3
:102B6000CDB7DEB728970FB6F894DEBF0FBECDBF46
:102B7000CE0101960E94FD1D41E08885811101C0B2
:102B800040E008E010E09E012F5F3F4F6CEE72E0E6
:102B900086E00E946E15182F81110E94FA1D812F68
:102BA00028960FB6F894DEBF0FBECDBFDF91CF9150
:102BB0001F910F9108950F931F93CF93DF931F924F
:102BC000CDB7DEB70E94F720882319F00E940C21B0
:102BD00001C080E08983E091E901F091EA0141E0E0
:102BE0009485981301C040E001E010E09E012F5F42
:102BF0003F4F68EE72E085E00E946E150F90DF9106
:102C0000CF911F910F9108950F931F93CF93DF934F
:102C100000D000D0CDB7DEB76091E4027091E5023C
:102C20008091E6029091E7020E94F32964367105D3
:102C30008105910528F10E943C12DC01CB0102962E
:102C4000A11DB11D89839A83AB83BC8300E010E092
:102C500020E030E044E050E0BE016F5F7F4F84E051
:102C60000E941815182F882361F00E94D8296093BC
:102C7000E4027093E5028093E6029093E70201C0BC
:102C800011E0812F0F900F900F900F90DF91CF9157
:102C90001F910F9108957F928F929F92AF92BF9252
:102CA000CF92DF92EF92FF920F931F93CF93DF9318
:102CB0001F92CDB7DEB7762E4A015901680101E0B7
:102CC00010E09E012F5F3F4F40E050E060E070E079
:102CD0000E941815182F882379F1F4016081718101
:102CE000828193810E94F3296436710581059105E3
:102CF000E0F08701950140E050E060E070E0872D52
:102D00000E941815182FB701C6010E94152391E0E3
:102D10002981281390E01923A1F00E94D829F401F9
:102D200060837183828393830CC0B701C6010E94C4
:102D3000152399818913DDCFA701B601C5010E9432
:102D40003A32812F0F90DF91CF911F910F91FF9019
:102D5000EF90DF90CF90BF90AF909F908F907F903B
:102D60000895EF92FF920F931F93CF93DF931F92DB
:102D7000CDB7DEB70091E9011091EA01095F1F4F5D
:102D8000EE24E394F12C9E012F5F3F4F40EE52E082
:102D900063E082E00E944B16182F882321F0CE01B9
:102DA00001960E944325812F0F90DF91CF911F91B3
:102DB0000F91FF90EF900895CF92DF92EF92FF92E4
:102DC0000F931F93CF93DF9300D000D01F92CDB706
:102DD000DEB76B010091E9011091EA010F5F1F4F0F
:102DE00085E0E82EF12C9E012F5F3F4F4CED52E025
:102DF00061E080E00E944B16882349F095E0FE01D7
:102E00003196A7EDB2E001900D929A95E1F795E029
:102E1000E7EDF2E0D60101900D929A95E1F70F905F
:102E20000F900F900F900F90DF91CF911F910F9106
:102E3000FF90EF90DF90CF900895AF92BF92CF9226
:102E4000DF92EF92FF920F931F93CF93DF937C015A
:102E50005B016A010E94D514811103C001E010E0FA
:102E600002C00AE010E0C1E0D0E0F894B501C7016B
:102E7000F60109957894811115C021960C171D074C
:102E800094F0CC9F9001CD9F300D300D112480E047
:102E900090E045E34A95F1F7000001968217930709
:102EA000C1F7E3CF81E0DF91CF911F910F91FF90A8
:102EB000EF90DF90CF90BF90AF9008950F931F9346
:102EC000CF93DF93EC018B014CED56E10E941D176F
:102ED000882311F141EB56E1B801CE010E941D1784
:102EE0008823D1F044E056E1B801CE010E941D17BD
:102EF000882391F04BED55E1B801CE010E941D17DA
:102F0000882351F04CEA55E1B801CE01DF91CF9111
:102F10001F910F910C941D1780E0DF91CF911F91AD
:102F20000F910895CF92DF92EF92FF920F931F932C
:102F3000CF93DF931F92CDB7DEB7F8940091E901EC
:102F40001091EA01C801019625E0FB01DC01019026
:102F50000D922A95E1F765E070E00E941523F801D3
:102F600080837894F894CE0101960E943A25898155
:102F7000F801878361E070E0CE0101960E9415237D
:102F8000F80186837894F8946085718582859385AD
:102F9000C090D302D090D402E090D502F090D60237
:102FA0006C157D058E059F0551F06093D3027093DB
:102FB000D4028093D5029093D6020E941F12789477
:102FC000F894F80184850E9423227894F894F801FB
:102FD0008489882339F060E0C8010D960E94D51ECF
:102FE000F801148A78940F90DF91CF911F910F917F
:102FF000FF90EF90DF90CF9008950E94CD2B0E941C
:10300000510F0C94D92B0E94DD2B0E94610F0C9460
:10301000F72B0E9453290E94B42B0E94430F0E9459
:10302000FD170E9403180E944D0FFBCFEF92FF92F5
:103030000F931F93CF93DF938B01682F11110AC059
:10304000442329F0E82FF0E0E258FC4F6491762FFA
:10305000862F75C0212F30E0E82FF0E0442321F0C7
:10306000E258FC4FE491F0E046E0049FC0011124D7
:10307000CFEFD0E0BE010E9443314BEA4603C001CE
:10308000479F900D1124800F911D800F911D982F47
:10309000990F890FAE01421B530B4E9FD0014F9FDA
:1030A000B00D5E9FB00D11249B2F189FA00111241D
:1030B000452F55278E01041B150B0E9FA0010F9F56
:1030C000500D1E9F500D11247E01E81AF108E29E5A
:1030D0008001E39E100DF29E100D1124212F332745
:1030E000C21BD30BCE9F9001CF9F300DDE9F300DC2
:1030F000112462307105A9F048F46115710569F079
:1031000061307105C9F48B2F752F0DC064307105C6
:1031100081F058F06630710579F47E2F8B2F932F54
:103120000DC0832F7B2F9E2F09C08E2F7B2F952FB5
:1031300005C08E2F732F02C07E2F852F692FDF9140
:10314000CF911F910F91FF90EF90089541E00E9461
:10315000161808950895E2E6F1E0808361830895EA
:103160000E94A6180895CF93DF93762FE901682F68
:10317000842F0E94B018798368838A83DF91CF916E
:10318000089580917903282F269530E02115310587
:1031900019F48170826005C02B32310524F08170F2
:1031A000846580937903089588E090E00C944B3215
:1031B000CF92DF92EF92FF926B017C010E94C118C7
:1031C000B701A60188E090E0FF90EF90DF90CF90EC
:1031D0000C946932E9E7F3E087E1808311828FEF95
:1031E000828380E883831482A9E3B3E012968C91F2
:1031F0001297836012968C93608171818281938192
:103200000C94D8188091790380FF02C086950895A8
:1032100080E0089590917D03933018F49F5F909320
:103220007D03882351F06091790370917A03809136
:103230007B0390917C030C94D818089581E00C9442
:103240000A1990917D03992319F0915090937D0371
:10325000882351F06091790370917A0380917B0308
:1032600090917C030C94D818089581E00C94211956
:1032700070E00C94E922609163018091790380FFF2
:103280000AC08091620123E0829FC001112482580C
:103290009C4F0C94381980916401909165018917B5
:1032A00080F7E82FF0E09F01220F331FE20FF31F9A
:1032B000E258FC4F1182108212828F5FF0CF909102
:1032C000790390FF16C090916401209165019217D7
:1032D00070F4E92FF0E0DF01AA0FBB1FEA0FFB1F1C
:1032E000E258FC4F8183608342839F5FF0CF0C9450
:1032F0003B190895CF93DF9300D01F92CDB7DEB76F
:103300009091790390FF0AC09E012F5F3F4F0E946A
:10331000B3184B8169818A810E945F190F900F90C9
:103320000F90DF91CF910895CF93DF93EC01EC8163
:10333000F0E0E758FD4F4491E9E7F3E062818181D5
:103340000E947A198C818F5F8C83DF91CF910895D1
:10335000CF93DF93EC01E9E7F3E0438162818C8155
:103360000E947A198C818F5F8C83DF91CF910895B1
:103370000F931F93CF93DF9300D01F92CDB7DEB78B
:103380008C018091F00281110AC09E012F5F3F4F96
:103390004FEF6FEF0E94B3188A818093F002F8011B
:1033A0008481813051F028F0823061F44091F00244
:1033B0000AC08091F00240E007C06091F00240E056
:1033C00080E003C040E080E060E00E945F19F80107
:1033D000848190E0019663E070E00E94573184831D
:1033E0000F900F900F90DF91CF911F910F91089543
:1033F000AF92BF92CF92DF92EF92FF920F931F9303
:10340000CF93DF9300D01F92CDB7DEB7182FF62EE3
:10341000042FE22E9091790390FF7EC0E92FE6956C
:10342000AE2FB0E0A551BE4F8C91809339039E7FA3
:10343000923061F49E012F5F3F4F812F0E94B3189D
:103440004B8169818A810E945F1943C0823019F4DF
:1034500000917C033EC0863019F410917A0339C084
:103460008930D9F38931A9F5E9518E2F8170D82E91
:10347000E695F0E0E758FC4FA590B490C12CBB2432
:1034800060916601C61618F52C2D30E0A29EC00191
:10349000A39E900DB29E900D112470E00E944331C6
:1034A000812FD11002C0860F01C0861B909164014C
:1034B000290F311DA901440F551F240F351F225814
:1034C0003C4F402F6F2D0E94B318C394D9CF0E9458
:1034D0003B1980917A03181308C080917B03F8127E
:1034E00004C080917C03081729F080913B0382601F
:1034F00080933B0310937A03F0927B0300937C0349
:10350000EE2051F06091790370917A0380917B03F2
:1035100090917C030E94D8180F900F900F90DF912C
:10352000CF911F910F91FF90EF90DF90CF90BF90C0
:10353000AF900895E9E7F3E09181282F43816281FC
:1035400088E0890F0C94F81981E00C949A1AE9E745
:10355000F3E09181282F4381628188EF890F0C94D9
:10356000F81981E00C94A71AE9E7F3E0628121E100
:10357000620F08F46FEF282F438181810C94F819B2
:1035800081E00C94B41AE9E7F3E0628121E1621B67
:1035900008F460E0282F438181810C94F81981E0C0
:1035A0000C94C31AE9E7F3E0438121E1420F08F4E8
:1035B0004FEF282F628181810C94F81981E00C94DF
:1035C000D21AE9E7F3E0438121E1421B08F440E02D
:1035D000282F628181810C94F81981E00C94E11A02
:1035E00020E00C94F819FF920F931F93CF93DF9371
:1035F000EC01F12C0FEF10E060916601F616F0F48B
:10360000809164012F2D30E0280F311DC901880FF2
:10361000991F280F391F22583C4F70E0C8010E94A3
:103620005731962F8C8140917C0360917B03F99EEA
:10363000800D11240E94B318F394DECF0E943B1931
:103640009A818C8190FF02C08F5F01C081508C8372
:10365000DF91CF911F910F91FF9008958F929F92CC
:10366000AF92BF92CF92DF92EF92FF920F931F9390
:10367000CF93DF93EC018A8180FF03C0BB24BA940F
:1036800002C0BB24B3948C8181110DC081E0B812BB
:1036900006C08091660181508093F20202C01092B0
:1036A000F20281E08C83A12C4CE0942E8091660183
:1036B000A81608F044C080916401CA2CD12C860160
:1036C000080F111DC801880F991F080F191F0258F4
:1036D0001C4FF80111821082128234E0E32EF12C8B
:1036E000812C8091F202880D8D302CF0692D0E9482
:1036F0003531892F05C087FF03C090916601890F7E
:10370000082E000C990BC816D90691F480917C0301
:103710008E9DA0018F9D500D11245595479555956F
:103720004795980160917B0380917A030E94B318BA
:103730008B0CF1E0EF1AF108A1F6A394B7CF0E9429
:103740003B198091F20291E0B9120EC0811107C0BD
:103750008091660181508093F2021C820FC08150DB
:103760008093F202BC820AC090E0019660916601EB
:1037700070E00E9457318093F2028C83DF91CF91E9
:103780001F910F91FF90EF90DF90CF90BF90AF907F
:103790009F908F9008951F93CF93DF93EC018C81BE
:1037A000811109C081E08C831092F10292E0909324
:1037B0006101809360018091640190916501891796
:1037C00070F4E82FF0E09F01220F331FE20FF31F88
:1037D000E258FC4F1182108212828F5FF0CF10E00E
:1037E000609166011617C0F5E12FF0E070E0CF019F
:1037F0000E94573120916401820F2091F102022E24
:10380000000C330B90E0E217F307CCF0209161013C
:10381000022E000C330B2E173F078CF09C01220F59
:10382000331F820F931F9C0122583C4F40917C0311
:1038300060917B0380917A030E94B3180BC0FC0156
:10384000EE0FFF1F8E0F9F1FFC01E258FC4F1182ED
:10385000108212821F5FC4CF0E943B1980916001C9
:103860002091F102280F2093F10290916101980FAD
:103870009093610119165CF4022E000C330B4091F9
:10388000660150E0415051092417350734F0819505
:1038900080936001813009F41C82DF91CF911F91E8
:1038A00008958F929F92AF92BF92CF92DF92EF9244
:1038B000FF920F931F93CF93DF938C01FC01448100
:1038C000C42FD0E09E01DE010E949B319B01AC0120
:1038D0000E94B1316B017C01E0E2F0E0EC1BFD0BDA
:1038E000A5E5B0E09B01AC010E94B1314B015C0148
:1038F0009F01DF010E9493319B01AC010E94BC310A
:103900009B01AC012C0D3D1D4E1D5F1DC501B40179
:103910000E946B31C22FD22F2A3228F4F3E02F9F5E
:10392000900111240DC025E530E02C1B3109C9019F
:10393000880F991F280F391F37FF02C02F5F3F4F95
:1039400035952795C22FC095F12C85E5E82EED1A07
:1039500080916601F816C8F4F1FC02C08E2D01C0FA
:103960008D2F909164012F2D30E0290F311DA90179
:10397000440F551F240F351F22583C4F4C2F609188
:103980007B030E94B318F394E3CF0E943B19F80124
:103990008481811102C091E003C0803219F49FEF4D
:1039A00090935F0190915F01890FF8018483DF910B
:1039B000CF911F910F91FF90EF90DF90CF90BF902C
:1039C000AF909F908F9008950F931F93CF93DF93A5
:1039D000EC0100E010E080916601282F30E0021732
:1039E000130724F5909164019801290F311DA90155
:1039F000440F551F240F351F22583C4F869590E0E9
:103A00004C81081719071CF4442331F002C04111FE
:103A100003C040917C0301C040E060917B03809132
:103A20007A030E94B3180F5F1F4FD5CF0E943B1936
:103A30008C8190E00196817099278C83DF91CF91E2
:103A40001F910F9108957F928F929F92AF92BF9294
:103A5000CF92DF92EF92FF920F931F93CF93DF935A
:103A6000FC018280748081E08483E9E7F2E0949035
:103A7000E8EFF2E0E491A12CF5E0BF2ECC24CA944B
:103A8000D12CE9190E2F10E080916601A81608F0DC
:103A9000A2C0EA2CF12C22E0281568F0BE9CF001AF
:103AA000BF9CF00D1124EA50FD4F80917A03808372
:103AB00080917B03818371100AC0BE9CF001BF9C82
:103AC000F00D1124EA50FD4F138212826AC0BE9C91
:103AD000E001BF9CD00D1124CA50DD4F8B8188239B
:103AE000F9F081508B832FEF829FC00111246C81EC
:103AF00070E00E944331FB01FF27E758FD4F84919E
:103B0000E82FE9192FEFE29FC0011124B8010E94AC
:103B1000433180917C03689FB00111247A8341C0B6
:103B20000E94103220917C032695215830E0A90193
:103B3000440F551F322F2227240F351F232F3327E1
:103B40008217930774F582E0881588F40E9410327A
:103B5000B6010E94573188830E94103220917B0366
:103B60002695622F70E00E945731280F2983BE9C52
:103B7000F001BF9CF00D1124EA50FD4F128280919C
:103B80007C03843120F0893C18F088EC01C084E18A
:103B9000BE9CF001BF9CF00D1124EA50FD4F8483C0
:103BA0008383809164019701280F311DC901880F1B
:103BB000991F280F391F22583C4FBE9CF001BF9C13
:103BC000F00D1124EA50FD4F4281618180810E94F5
:103BD000B318A39459CFDF91CF911F910F91FF900C
:103BE000EF90DF90CF90BF90AF909F908F907F909D
:103BF0000C943B1910923B03089525E0E9E7F3E0AC
:103C0000DC0101900D922A95E1F720913903309162
:103C10003A0340913B03FC01258336834783089593
:103C200060917903669570E04BE050E087E691E0A3
:103C30000E942032892B19F481E080933A030E947C
:103C40005712909333038093320380913B03846037
:103C500080933B030895E9E3F3E01182828184605D
:103C6000828308959091790390FF3AC091708111F9
:103C700002C0926006C08B3210F0946502C0880FBB
:103C8000982B9093790380913B03816080933B0351
:103C9000662351F06091790370917A0380917B03E0
:103CA00090917C030E94D81860917903669570E02A
:103CB0004BE050E087E691E00E942032892B19F01A
:103CC0000E942B1E02C00E94101E81E080933503CB
:103CD00040917C0360917B0380917A030C94F01AED
:103CE0000895682F90917903969581E0890F8B3222
:103CF00008F081E00C94321E81E00C94711E682F54
:103D00009091790396958FEF890F09F48AE20C94CC
:103D1000321E81E00C947F1E61E00C94321EE9E7B4
:103D2000F3E080818160808386950C948C1E60E036
:103D30000C94321EE9E7F3E080818E7F80836081FE
:103D40007181828193810E94D8180E942B1EE9E321
:103D5000F3E08281816082832FEF80E792E021503F
:103D600080409040E1F700C000000C943B19809126
:103D7000790380FD0C949A1E0C948F1EE9E7F3E002
:103D800080818E7F80830E942B1EE9E3F3E0828195
:103D9000816082832FEF80E792E021508040904045
:103DA000E1F700C000000C943B191F93CF93DF9301
:103DB000EC01162F8F8180FF0FC0888180FF0AC021
:103DC00080917903816080937903888186950E9430
:103DD000321E02C00E94BE1E8F8181FF06C0212FAD
:103DE0004B816A8189810E94F8198F8182FF08C006
:103DF0008E81882319F00E94101E02C00E942B1E83
:103E00008F8183FF03C081E080933503DF91CF91E1
:103E10001F91089580913803811133C00E94580E7C
:103E2000811104C00E94000F0E94EA180E94D41859
:103E30006093790370937A0380937B0390937C0360
:103E400080913B03836080933B036E7F61F40E940B
:103E5000EA180E94D4186093790370937A038093D0
:103E60007B0390937C030E94C1180E942B1E8091BB
:103E7000790380FF03C086950E94971E81E080939E
:103E800038030895EF92FF920F931F93CF93DF9320
:103E900080913A03882309F4BBC080913903E091F3
:103EA0007903E695E81BE0933403823049F4F0E0AF
:103EB000EB58FD4FE491CE2FD0E004E919E159C051
:103EC000863049F4F0E0EE58FD4FE491CE2FD0E07B
:103ED00008EA19E14EC0893051F4E695F0E0E15965
:103EE000FD4FE491CE2FD0E003EF1AE142C08F30B6
:103EF00051F4E695F0E0E459FD4FE491CE2FD0E087
:103F00000EE21BE136C0853149F4F0E0E759FD4F80
:103F1000E491CE2FD0E00BEC1BE12BC08831D9F01F
:103F2000833239F4E7E6F2E0C591D49108EB19E168
:103F300020C08432A9F08532C1F48E2F63E00E9444
:103F40002931E92FF0E0EC59FD4FE491CE2FD0E07C
:103F500003E21DE10EC0C8E2D0E001E51CE109C0AA
:103F6000C4EFD1E004EE1CE104C0C0EDD7E00AEAE2
:103F700018E180913503882361F0109235030E9487
:103F800057129093330380933203109237031092A9
:103F900036030E945712E0913203F09133039C01E3
:103FA0002E1B3F0B2F3F3F4798F52091F502222310
:103FB000B1F01092F5022091F3023091F402821BCD
:103FC000930B8F3F9F4758F4205D3A483093F4029B
:103FD0002093F30280913B03886080933B03E09041
:103FE0003603F0903703EC0FFD1FF0933303E0939B
:103FF000320382E393E0F8010995809136039091B2
:104000003703892B29F4EF2819F081E08093F5021A
:10401000DF91CF911F910F91FF90EF90089588232A
:1040200011F0FA0101C0FB010994CF93DF93C82F6F
:10403000D62F0E9402198C1740F00E9402198D178A
:1040400020F4DF91CF910C947C1E8C2FDF91CF91C7
:104050000C948C1E1F93CF93DF93FB0112811111DF
:10406000C1C0EC010E94750D8272CD3CFCE5DF07FA
:1040700009F49AC008F043C0C73CECE5DE0709F438
:104080007FC0D8F4C43C9CE5D90709F46DC038F46E
:10409000C33CDC4509F0A5C00E94B71EA3C0C53CC7
:1040A0009CE5D90709F465C0C63CDC4509F099C018
:1040B00041EB5AE164EA7AE160C0CA3CFCE5DF0703
:1040C00009F468C070F4C83CECE5DE0709F45DC093
:1040D000C93CDC4509F085C040EC5AE16FEC7AE15F
:1040E0004CC0CB3C9CE5D90709F459C0CC3CDC451D
:1040F00009F077C045E359E16EE179E13EC0C23D88
:10410000FCE5DF0709F45DC098F4CF3C9CE5D907D6
:1041100009F451C008F44DC0C03DFCE5DF0709F4C7
:104120004DC0C13DDC4509F05CC06EE089E056C081
:10413000C53D9CE5D90709F44AC058F4C33DFCE5E8
:10414000DF0709F441C0C43DDC4509F04AC088E1FD
:1041500042C0C63D9CE5D907E9F1CE35DD4509F001
:1041600040C06AE285E23AC049E85EE16CE77EE180
:1041700004C04CE75EE169E87EE10E940F2032C096
:1041800044EA5AE161EB7AE1F8CF4FEC5AE160EC96
:104190007AE1F3CF4DEE5AE16EED7AE1EECF4EEDDE
:1041A0005AE16DEE7AE1E9CF4EE159E165E379E15B
:1041B000E4CF81E010C065E082E010C068E086E0F6
:1041C0000DC064E18FE00AC067E185E107C062E2EB
:1041D00089E104C083E20E948C1E04C00E94152065
:1041E00001C011E0812FDF91CF911F91089580913F
:1041F000A2038170089586E090E00C944332682F0A
:1042000086E090E00C9457328091A203847089611B
:104210008093A2030C94FF208091A203869586953B
:10422000869508950E94580E811104C00E94000FC7
:104230000E9404210E94FB208093A203282F269530
:104240002695269530E02630310524F08770886267
:104250008093A2038091A20380FF04C08695869577
:10426000869501C080E00C9423222091A203822F26
:10427000869586958695482F50E04530510554F433
:104280008F5F982F990F990F990F822F8770892B25
:104290008093A2038091A20381608093A2030E9475
:1042A000FF208091A2038695869586950C94232203
:1042B0008091A203982F969596959695A1F0915E80
:1042C000990F990F990F8770892B8093A203887F8C
:1042D00091E009F490E08091A20390FB80F9809333
:1042E000A2030E94FF208091A20386958695869561
:1042F0000C9423228091A20380FD13C081608093DF
:10430000A203813019F489E08093A2038091A20373
:104310000E94FF208091A2038695869586950C9435
:10432000232208958091A20380FF08C08E7F80938E
:10433000A2030E94FF2080E00C9423220895809124
:10434000A20380FD0C9492210C947A219091A203F7
:10435000892F8695869586958F5F8F7197708630A9
:1043600038F4880F880F880F892B8093A20302C02E
:104370009093A2038091A203887F91E009F490E0DA
:104380008091A20390FB80F98093A2030E94FF20FA
:104390008091A2038695869586950C94232286307B
:1043A00008F085E09091A2039770282F220F220F2A
:1043B000220F922B9093A203987F21E009F420E032
:1043C0009091A20320FB90F99093A2030C942322D6
:1043D0000E94CF218091A2030C94FF209C01FB013D
:1043E0008281882349F12E3BFCE53F07C9F040F468
:1043F0002C3BECE53E0769F02D3B3C4561F0089510
:10440000203C9CE5390791F070F0213C3C4589F057
:10441000089585E001C080E00E94E82180E00895D1
:104420000E945821FBCF0E943521F8CF0E949F2186
:10443000F5CF0E94A621F2CF81E00895259A2D980C
:1044400008952D9808958F929F92AF92BF92CF9228
:10445000DF92EF92FF920F931F93CF93DF93C82FBA
:10446000863050F4811109C0809180008F7780934D
:1044700080000E94212206C0C5E0809180008068F3
:1044800080938000A0918600B09187002C2F30E0AF
:104490000E949B3125E030E040E050E00E946B310B
:1044A0000027122F232F342F012F122F232F3327D2
:1044B00080918600909187006CE070E00E9443310B
:1044C0006017710730F0C80169E070E00E94433165
:1044D0005EC08091860090918700E0908600F09009
:1044E0008700E0918600F0918700C6E0D0E0BE0131
:1044F0000E944331060F171F211D311D480159012C
:1045000085E0880C991CAA1CBB1C8A95D1F7C701B1
:10451000BE010E9443316F01E12CF12CA7019601ED
:10452000260F371F411D511DC501B4010E946B317B
:1045300069017A01E0918600F0918700CA01B90112
:104540000E9419319B01AC01DF010E94B1319B0136
:10455000AC01C701B6010E941931DC01CB012FE08B
:10456000B695A795979587952A95D1F700918600DE
:104570001091870020E030E0081719072A073B0751
:1045800028F46091860070918700CB01BC01709384
:10459000890060938800DF91CF911F910F91FF9068
:1045A000EF90DF90CF90BF90AF909F908F90089545
:1045B00008950E941E2282E88093800089E1809302
:1045C00081008FEF9FEF90938700809386000C947B
:1045D0001221569A2BB12F7B3BB130644FB7F89420
:1045E000FC01CB01880F991F680F791F6E0F7F1F89
:1045F000E617F70789F0819198E03BB9000000C009
:1046000087FF2BB9880F000000C000C000C02BB985
:1046100000C09A9591F7ECCF4FBF8FE594E00197DA
:10462000F1F700C0000008950895FC01680F791F9C
:104630008FEF91E3E617F70771F02191822728E0C9
:1046400030E087FF03C0880F892701C0880F215001
:104650003109B9F7EFCF0895CF93DF93EC01FB0158
:104660008281882309F426C1C430FDE5DF0760F4A8
:10467000CB3F9CE5D90768F49E0122503C4524318C
:10468000310508F018C105C0C236EDE5DE0709F0B6
:1046900012C10E946B0E9093610380936003C0313E
:1046A000FCE5DF0709F4CAC008F041C0C8309CE54A
:1046B000D90709F4A4C0F0F4C430FCE5DF0709F41D
:1046C0008CC068F4C2309CE5D90709F482C0C330BD
:1046D000DC4509F0E5C0809160038260DFC0C63030
:1046E000FCE5DF0709F483C008F085C08091600312
:1046F0008860D4C0CC309CE5D90709F490C068F438
:10470000CA30FCE5DF0709F47EC008F084C00E94CF
:104710009A07809160038068C1C0CE309CE5D907BC
:1047200009F481C008F086C08091600394C0CD3F39
:10473000FCE5DF0709F47BC038F5C4319CE5D907F7
:1047400009F49AC058F4C231FCE5DF0709F47AC0D5
:1047500008F07EC0809160038F7BA0C0CB3F9CE5BA
:10476000D907F1F108F03FC0C531DC4509F098C028
:104770008091600382FB222720F991E0922790FB31
:1047800082F990FB83F98AC0C1308DE5D80709F41E
:1047900067C050F480916103CF3FECE5DE07C1F1C3
:1047A00008F05BC08D7F65C0C3308DE5D80709F484
:1047B00071C008F46DC0C236DD4509F071C080914A
:1047C000600384FB222720F991E0922790FB84F973
:1047D00065C080916003816061C08091600316C0F4
:1047E0008091610316C080916103826042C0809114
:1047F0006003806153C08091600380624FC08091EC
:10480000600380644BC0809160038860846046C010
:10481000826081602EC0809160038E7F3FC0809156
:1048200060038D7F3BC080916003877F37C080919C
:10483000610314C0809160038F7E30C0809160035B
:104840008F7D2CC00E949A07809160038F7726C0CD
:1048500080916003877F8B7F21C08D7F8E7F09C011
:1048600080916103982F909591708E7F892B90FB9A
:1048700081F98093610314C00E949A0780916003BC
:1048800087FB222720F991E0922790FB87F906C049
:1048900081E001C080E00E94020F02C080936003AB
:1048A00080916003909161030E947C0E0E949A07A0
:1048B00080E001C081E0DF91CF9108958FE891E021
:1048C0000197F1F700C00000089581E008958091FC
:1048D0001801882309F44FC080917301E82FE295F5
:1048E000EF70F0E041A1282F2F7081E090E0BC0133
:1048F00002C0660F771F2A95E2F79B01362F30958D
:10490000342331A332A1232B22A320917201E22F61
:10491000E295EF70F0E031A12F7001C0880F2A9569
:10492000EAF7982F9095932391A392A1892B82A3C4
:104930000E945E2420917301E22FE295EF70F0E077
:1049400080A190E02F7002C0959587952A95E2F797
:10495000817090917201E92FE295EF70F0E020A153
:1049600030E09F7002C0359527959A95E2F720FDBB
:1049700009C090E008C087EF8093730186EF8093B1
:104980007201AACF92E0892B809341039091180184
:1049900081E0982790933D03891B80933C03089501
:1049A000CF93E09141035E2F550F550F2091730176
:1049B000E22FE295EF70F0E080A190E02F7002C04E
:1049C000959587952A95E2F7817099274091720114
:1049D000E42FE295EF70F0E020A130E04F7002C0CC
:1049E000359527954A95E2F7F901E170FF2720FFF9
:1049F00002C0E2E0F0E0E82BF92BE52BE093410365
:104A0000C0913D03EF70F0E0EA5EFD4F9081809130
:104A10004003890F8093400384306CF0EC2FF0E06A
:104A2000E25CFC4F80818F5F808360E08C2F0E946E
:104A3000FF0221E001C020E0809140038D3F64F43B
:104A4000EC2FF0E0E25CFC4F80818150808361E0DC
:104A50008C2F0E94FF0221E080914003082E000C61
:104A6000990B64E070E00E94573180934003822FDD
:104A7000CF910895E0913D03F0E0E25CFC4F20818E
:104A8000FC0120830895FF920F931F93CF93DF9330
:104A9000D0913C030D2F10E0025C1C4FFC01C08143
:104AA000F8018081C81BFC2E80E01F145CF4FA948E
:104AB000F80180818F5F808360E08D2F0E94FF026C
:104AC00081E0F3CF9C2FC7FD90E0C91BCC2359F0A8
:104AD000CF5FF80180818150808361E08D2F0E943B
:104AE000FF0281E0F3CF882339F0DF91CF911F914E
:104AF0000F91FF900C941A0FDF91CF911F910F919E
:104B0000FF900895CF93DF9386319C4541F5EB01EB
:104B10000E94750D982F8A8120910601309107011E
:104B2000882379F09A7A81E009F480E08093420347
:104B3000911102C069E201C065E3C9010E942E29FA
:104B40000AC080914203811102C069E201C065E39D
:104B5000C9010E9430290E94C70D80E001C081E098
:104B6000DF91CF9108950F931F93CF93DF93C42FBD
:104B7000D22FFC0182818823C9F0409345030E9413
:104B8000CC29909344038093430380E28C0F8830B8
:104B900008F057C0C77081E001C0880FCA95EAF7D6
:104BA000DF91CF911F910F910C94FB0480914503ED
:104BB000481330C080914303909144030E94E4293C
:104BC000883C910538F510E21D0FCD17B9F080E251
:104BD0008C0F883040F4C77081E001C0880FCA95FF
:104BE000EAF70E940205183028F581E09D2F9770A2
:104BF00001C0880F9A95EAF70E94FB04802F0E945B
:104C0000F2041830F0F4D77081E001C0880FDA9513
:104C1000EAF70AC080E28C0F883098F4C77081E010
:104C200001C0880FCA95EAF7DF91CF911F910F91CC
:104C30000C940205802FDF91CF911F910F910C945E
:104C4000F204DF91CF911F910F9108950F939C0172
:104C5000CB01243F4CE5340731F188F4293DFCE5D4
:104C60003F07D9F02A3D4CE5340779F1283D3C4512
:104C7000A9F506E221EE41EE68ED7CE52BC0263F6A
:104C8000FCE53F07E1F0A8F0273F3C4539F507E296
:104C900025EE46EE67EF7CE51DC007E225EE45EE0A
:104CA00069ED7CE517C006E221EE40EE64EF7CE59D
:104CB00011C007E225EE44EE65EF7CE50BC006E28D
:104CC00021EE42EE66EF7CE505C008E221E045EE0C
:104CD0006AED7CE50E94B32580E008C0FC0182817A
:104CE000882319F01092450301C081E00F910895C7
:104CF0008EE1489B02C08150E1F7489BFECF0895AA
:104D0000589880E28A95F1F7589A0895FC012AE0B4
:104D10002A95F1F728E090E080E031E040E14A9503
:104D2000F1F7880F489B02C08160932700C0000004
:104D300040E14A95F1F7215089F720E12A95F1F7F2
:104D400029B100C0000030E13A95F1F721709227B7
:104D50002081920F90830895EF92FF920F931F93FB
:104D6000CF93DF931F92CDB7DEB719828C017C0100
:104D7000E60EF11C0E151F0551F00E947826CE019B
:104D800001960E948626F80181938F01F3CF81E07E
:104D90009981911180E00F90DF91CF911F910F9138
:104DA000FF90EF900895509A589A08955098589A05
:104DB000E89AE9E6F0E080818C7F80830895615075
:104DC00091E001C0990F6A95EAF720E031E099235C
:104DD00061F0492F482319F0589A232701C05898A9
:104DE00040E24A95F1F79695F2CF222311F0589AB6
:104DF00001C0589880E28A95F1F758980895FF927B
:104E00000F931F93CF93DF93EC018C01060F111DBD
:104E1000C017D10741F0F9900E94802668E08F2DDD
:104E20000E94DF26F5CFDF91CF911F910F91FF9068
:104E300008951F920F920FB60F921124EF92FF92D6
:104E40000F931F932F933F934F935F936F937F9392
:104E50008F939F93AF93BF93EF93FF93CF93DF9382
:104E60001F92CDB7DEB719820E947826CE01019637
:104E70000E948626A82FA695A695A6959A2F969568
:104E800095702A2F2570920F292F2370969596954D
:104E9000920F877089137CC08981811179C0A830F5
:104EA00008F076C080E18A95F1F7589A509AB2E0FE
:104EB000BA95F1F700C05898EA2EF12CEAE0AE9FBF
:104EC000D0011124A75EBE4F1896ED91FC91199761
:104ED0003097B1F06091E9017091EA0116962D9139
:104EE0003C911797260F371F13968D919C9114971D
:104EF000680F791F15964C91159712968C9109950C
:104F00008AE08E9DF0018F9DF00D1124E75EFE4F2B
:104F10006581662351F08091E9019091EA01268133
:104F20003781820F931F0E94FF260E948026F0E1A6
:104F3000FA95F1F758985098589A80E18A95F1F7C8
:104F40008AE08E9D80018F9D100D1124075E1E4FFB
:104F5000D80112966C911297662399F08091E9011D
:104F60009091EA0113962D913C911497820F931F13
:104F70000E94AC26D801ED91FC91811105C082E020
:104F800004C0D801ED91FC9188E080830E947826CE
:104F90000F90DF91CF91FF91EF91BF91AF919F91D2
:104FA0008F917F916F915F914F913F912F911F91C1
:104FB0000F91FF90EF900F900FBE0F901F901895DC
:104FC0000F931F93CF93DF93883091050CF0A9C006
:104FD0002AE0289FF001299FF00D1124E75EFE4F83
:104FE00020813181232B09F49CC0EC01F894509A64
:104FF000589885E08A95F1F700008C2F869585708A
:105000009C2F9570890F982F9370869586958E01A9
:1050100023E0000F111F2A95E1F7890F082B0E944A
:105020008026A4E0AA95F1F700C068E0802F0E94D6
:10503000DF26B0E1BA95F1F75098589A489902C026
:1050400000C0FCCF87E090E0489B17C0019799F41F
:10505000509A589A8AE08C9FF0018D9FF00D112490
:10506000E75EFE4F0190F081E02D81E0808378942F
:1050700081E090E058C000C0E7CF8AE08C9F8001BB
:105080008D9F100D1124075E1E4FF8016581662368
:10509000B9F08091E9019091EA0126813781820F70
:1050A000931F0E94AC2681110BC0509A589AD801C8
:1050B000ED91FC9182E08083789482E090E033C0AF
:1050C0000E947826B0E2BA95F1F75898509AE0E13C
:1050D000EA95F1F78AE08C9FF0018D9FF00D112485
:1050E000E75EFE4F6281662351F08091E901909165
:1050F000EA0123813481820F931F0E94FF260E94C0
:1051000080268AE08C9FF0018D9FF00D1124E75ED0
:10511000FE4F0190F081E02D1082789480E090E0C5
:1051200002C084E090E0DF91CF911F910F9108952C
:105130009093270280932602089590934C038093C6
:105140004B0308950E94A214811103C0809146036D
:105150000895E0914B03F0914C03309721F00190BA
:10516000F081E02D099480E00895E0914B03F091E7
:105170004C03309721F00280F381E02D09940895CB
:105180002091490330914A032817390771F0909311
:105190004A0380934903E0914B03F0914C0330970D
:1051A00021F00680F781E02D0994089520914703AE
:1051B000309148032817390771F090934803809382
:1051C0004703E0914B03F0914C03309721F00084AA
:1051D000F185E02D09940895FC01329697E080E076
:1051E000915029F021912223D9F38F5FF9CF0895AF
:1051F000662349F0FC01329608962191621729F046
:10520000E817F907D1F780E0089581E008959C013F
:10521000FC0132969FEF80E04191461789F09F3F55
:1052200019F4411101C0982F8F5F8630A9F79F3F75
:1052300039F0F901E90FF11D97FDFA9562830895A0
:1052400008959C012A5F3F4FFC014281461301C033
:105250001282019682179307B9F708950C940729D3
:105260000C942129029626E0FC0111922A95E9F777
:10527000089508950C94392983E080934D030C948C
:105280003A29811102C081E001C082E080934D0380
:105290000C943A290C94412981E080934D030C949D
:1052A0003A290C944C2908958091AB03843031F154
:1052B0000E947D0310924E0320E488E190E00FB637
:1052C000F894A895809360000FBE2093600083B788
:1052D000817F846083BF83B7816083BF7894889522
:1052E00083B78E7F83BF0FB6F894A8958091600036
:1052F000886180936000109260000FBE0895089549
:105300000C947F29CF930E9480290E9410140E9440
:105310007F29C0E08C2F0E948712811104C0CF5FCB
:10532000CA30C1F701C081E0CF9108950E949A0769
:105330000C94F8031F920F920FB60F9211248F93C3
:105340009F93AF93BF9380914E03811113C08091BF
:10535000A3039091A403A091A503B091A603419645
:10536000A11DB11D8093A3039093A403A093A50353
:10537000B093A603BF91AF919F918F910F900FBEF5
:105380000F901F90189582E084BD93E095BD9AEF31
:1053900097BD80936E0008952FB7F8948091A30372
:1053A0009091A403A091A503B091A6032FBF0895E7
:1053B0002FB7F8946091A3037091A4038091A50383
:1053C0009091A6032FBF08959C014FB7F894809148
:1053D000A3039091A403A091A503B091A6034FBF8E
:1053E000821B930B0895CF92DF92EF92FF922FB71B
:1053F000F894C090A303D090A403E090A503F0908C
:10540000A6032FBFA7019601261B370B480B590B8C
:10541000CA01B901FF90EF90DF90CF900895789482
:105420001F920F920FB60F9211248F939F93AF93F9
:10543000BF938091A3039091A403A091A503B09181
:10544000A6030196A11DB11D8093A3039093A4030D
:10545000A093A503B093A603BF91AF919F918F91A5
:105460000F900FBE0F901F90189581E08093E00081
:1054700080E28093D8001092C9008FE19EE40197EA
:10548000F1F700C0000087E090EBDC018093B403EB
:105490009093B503A093B603B093B7039CE088E163
:1054A0000FB6F894A895809360000FBE90936000AB
:1054B000FFCF80915A0308950895CF93DF9321E0A1
:1054C0002093E9002FEF3091E800215035FD06C010
:1054D00035ED3A95F1F700002111F5CF2091E80064
:1054E00025FF14C0EC0140E050E068E070E00E944D
:1054F000692C8091E8008E778093E80088E0FE01B7
:10550000A2E5B3E001900D928A95E1F7DF91CF918A
:10551000089580934F0370935103609350038091DB
:10552000AB03843001F582E08093E9008FEF909126
:10553000E800815095FD06C095ED9A95F1F70000C1
:105540008111F5CF8091E80085FF0DC040E050E06B
:1055500063E070E08FE493E00E94692C8091E800A2
:105560008E778093E8000895BC0184E00C94892A2A
:10557000BC0183E00C94892A08958091AA038111CB
:1055800009C00E94FA2D0E94572E8091E20084608B
:105590008093E20008951092AA0308950C94512973
:1055A0006091A70381E0611101C080E00C943C2967
:1055B0009091AB0381E0943009F080E06091A70303
:1055C0000C94412942E061EC81E00E94732D42E29B
:1055D00061EC82E00E94732D9091AB0381E09430E6
:1055E00009F080E06091A7030C944A298091AD03F3
:1055F000833009F461C030F4813071F0823009F4F5
:105600009AC008958A3009F486C08B3009F46CC0C2
:10561000893009F0A8C020C08091AC03813A09F01C
:10562000A2C08091E800877F8093E8008091B0035A
:105630009091B103892B21F468E082E593E003C0E7
:1056400060E080E090E070E00E94B42C8091E8007F
:105650008B778093E80008958091AC03813209F044
:1056600082C08091B0039091B103029708F07BC093
:105670008091E800877F8093E8008091E80082FDB8
:1056800005C08091AB038111F8CF6DC02091F3006C
:105690008091F20090E0922B029731F48091F1001A
:1056A000813011F0863021F48091F10080935A030B
:1056B0008091E8008B7753C08091AC03813A09F068
:1056C00052C08091B0039091B103892B09F04BC077
:1056D0008091E800877F8093E8008091E80080FF58
:1056E000FCCF8091800136C08091AC038132D9F526
:1056F0008091B0039091B103892BA9F58091E800C6
:10570000877F8093E8000E94A82D8091AE0380934C
:1057100080010C949A078091AC03813221F580912D
:10572000E800877F8093E8000E94A82D8091AF0356
:1057300080935B0308958091AC03813AA1F480913A
:10574000E800877F8093E8008091E80080FFFCCF2D
:1057500080915B038093F1008091E8008E778093C5
:10576000E8000C94A82D089584B7877F84BF0FB6F6
:10577000F894A895809160008861809360001092F1
:1057800060000FBE90E080E80FB6F894809361004F
:10579000909361000FBE0C944C290E94FA2D0E9438
:1057A000572EE2EEF0E080818460808378940C9440
:1057B000EC3084E791E00C949D288091AB03853018
:1057C000A9F48091AB03853079F40E94542980912B
:1057D000A9038823B1F30E948229882391F30E94B0
:1057E000532C0E949A07EDCF0C94962908950895A2
:1057F0000C94FA2B292F332723303105C9F060F49C
:105800002130310581F02230310509F044C08BE3AD
:1058100090E02CEA34E043C021323105E1F022323D
:10582000310549F138C082E190E027EE34E037C01D
:1058300099278130910549F028F0029761F5EEE74C
:10584000F4E005C0E8EAF4E002C0E8E9F4E084919D
:1058500090E09F0124C06115710541F06130710530
:10586000D1F489E090E027ED34E019C089E090E0C0
:105870002EEB34E014C06115710541F06130710503
:1058800051F482E390E029EF34E009C080E490E035
:105890002BE235E004C080E090E020E030E0FA0147
:1058A00031832083089580E189BD82E189BD09B4F7
:1058B00000FEFDCF8091D8008F7D8093D80080912D
:1058C000E00082608093E0008091E00081FDFCCFE9
:1058D0000895CF92DF92EF92FF920F931F93CF9391
:1058E000DF93EC018B017A010E94C72D811133C037
:1058F000E114F10439F0F70180819181081B190B43
:10590000C80FD91FC12CD12C0115110519F1809197
:10591000E80085FD16C08091E8008E778093E8004E
:10592000E114F10449F0F70180819181C80ED91E7C
:10593000D182C08285E00FC00E94C72D882321F349
:105940000AC089918093F10001501109FFEFCF1A2D
:10595000DF0ADACF80E0DF91CF911F910F91FF90A6
:10596000EF90DF90CF9008952091B2033091B30370
:105970002617370748F06115710539F42091E800C2
:105980002E772093E80001C0B901FC0120E06115E9
:10599000710579F18091AB038823F1F18530F1F144
:1059A0008091E80083FD3CC08091E80082FD2EC01C
:1059B0008091E80080FFEBCF2091F3008091F2000E
:1059C00090E0922B6115710551F08830910538F403
:1059D00021912093F100615071090196F3CF21E0EC
:1059E000089709F020E08091E8008E778093E80026
:1059F000CECF2111CFCF0AC08091AB03882361F0B5
:105A0000853061F08091E80083FD0AC08091E80054
:105A100082FFF2CF80E0089582E0089583E0089548
:105A200081E008952091B2033091B3032617370720
:105A300048F06115710539F42091E8002E77209324
:105A4000E80001C0B901FC0120E06115710591F188
:105A50008091AB03882309F440C0853009F43FC02E
:105A60008091E80083FD3DC08091E80082FD2FC059
:105A70008091E80080FFE9CF2091F3008091F2004F
:105A800090E0922B6115710559F08830910540F432
:105A900024912093F1003196615071090196F2CF63
:105AA00021E0089709F020E08091E8008E7780934C
:105AB000E800CBCF2111CCCF0AC08091AB03882363
:105AC00061F0853061F08091E80083FD0AC080912B
:105AD000E80082FFF2CF80E0089582E0089583E03D
