:100000000C948E020C94AA240C94C6020C94C60282
:100010000C94C6020C94C6020C94C6020C94C60240
:100020000C94C6020C94C6020C94CD2B0C94A12CFB
:100030000C94B5260C94C6020C94C6020C94C6020D
:100040000C94C6020C94C6020C94C6020C94C60210
:100050000C94C6020C9458270C94C6020C94C60249
:100060000C94C6020C94C6020C94C6020C94C602F0
:100070000C94C6020C94C6020C94C6020C94C602E0
:100080000C94C6020C94C6020C94C6020C94C602D0
:100090000C94C6020C94C6020C94C6020C94C602C0
:1000A0000C94C6020C94C6020C94C60229001E00D1
:1000B0001F002000210022002B0014001A0008005D
:1000C00015001700E30004001600070009000A00ED
:1000D000E1001D001B0006001900050000000000E3
:1000E000E0002D00015102512A00270026002500C2
:1000F000240023003100130012000C0018001C0023
:10010000340033000F000E000D000B0028003800F3
:10011000370036001000110000000000F3002C0032
:10012000F100F20035003A003B003C003D003E008B
:1001300001003F0040004100420043000100440034
:100140004500010001000100E10001000100010083
:1001500001000100000000000100E20000000000BA
:100160002E000100010049000100010030002F00B5
:100170004F08520050084B00010001004F00510091
:1001800050004E00010001000100010001000100CB
:100190000000000000000000F100F200C35CCE5C33
:1001A00000000000000000000000C45CC65CC85CE9
:1001B000CA5CCC5C0000C55CC75CC95CCB5CCD5C38
:1001C000000000000000000000000000000000002F
:1001D00000000000000000004C00540061006000BE
:1001E0005F005800000055005E005D005C00580094
:1001F000000056005B005A005900580000005700EC
:1002000000006300620000000000000053000000D6
:10021000F100F2001E0F0500047F3F1F64321464DA
:100220003214783C1E1E140A052223252628292A6A
:100230002C2D2F3032333536383A3B3D3E40424349
:100240004547494A4C4E5051535557595A5C5E6088
:1002500062646668696B6D6F71737577797B7D7F9A
:1002600081838587898A8C8E90929496989A9C9E99
:100270009FA1A3A5A7A8AAACAEAFB1B3B4B6B8B9B5
:10028000BBBCBEBFC1C2C3C5C6C7C9CACBCCCDCE1D
:10029000D0D1D2D2D3D4D5D6D7D7D8D9D9DADADB00
:1002A000DBDBDCDCDCDCDCDDDDDDDDDCDCDCDCDC8C
:1002B000DBDBDBDADAD9D9D8D7D7D6D5D4D3D2D2CB
:1002C000D1D0CECDCCCBCAC9C7C6C5C3C2C1BFBEB3
:1002D000BCBBB9B8B6B4B3B1AFAEACAAA8A7A5A31E
:1002E000A19F9E9C9A98969492908E8C8A898785DD
:1002F00083817F7D7B79777573716F6D6B696866BC
:100300006462605E5C5A5957555351504E4C4A498D
:1003100047454342403E3D3B3A3836353332302F35
:100320002D2C2A292826252322FFAA7F55400001AB
:1003300001010101010101010202020202020202A5
:100340000203030303030303030404040404040477
:10035000050505050506060606060707070707083B
:10036000080808090909090A0A0A0B0B0B0C0C0CEE
:100370000D0D0D0E0E0E0F0F0F1010111111121288
:1003800013131414151516161717181819191A1A05
:100390001B1B1C1D1D1E1E1F202021222223242466
:1003A000252626272829292A2B2C2D2D2E2F3031A2
:1003B0003232333435363738393A3B3C3D3E3F40B4
:1003C0004142434445464748494A4C4D4E4F50519F
:1003D0005354555658595A5B5D5E5F616264656659
:1003E00068696B6C6D6F7072737577787A7B7D7EE0
:1003F0008082838587888A8C8E8F91939596989A30
:100400009C9EA0A2A3A5A7A9ABADAFB1B3B5B7BA47
:10041000BCBEC0C2C4C6C9CBCDCFD1D4D6D8DBDD1B
:10042000DFE2E4E7E9EBEEF0F3F5F8FAFDFF18039D
:1004300049007200690073002000520065007600D8
:100440002E002000350000000E034B006500650003
:10045000620069006F0000000403090409023B0008
:10046000020100A0FA0904000001030101000921B2
:100470001101000122400007058103080001090461
:1004800001000103000000092111010001223200D6
:10049000070582032000011201000200000008107D
:1004A000CB565200050102000105010980A101851A
:1004B0000319012AB700150126B7009501751081AF
:1004C00000C0050C0901A101850419012AA002152B
:1004D0000126A002950175108100C005010906A141
:1004E00001050719E029E715002501950875018127
:1004F000029501750881010507190029FF150026DD
:10050000FF00950675088100050819012905950564
:1005100075019102950175039101C00011241FBE60
:10052000CFEFDAE0DEBFCDBF04B603FE18C0809186
:10053000AE039091AF03A091B003B091B1038730A7
:10054000904BA740B04B59F41092AE031092AF03FA
:100550001092B0031092B103E0E0F8E3099512E0C5
:10056000A0E0B1E0E4E7F0E602C005900D92A6310C
:10057000B107D9F723E0A6E1B2E001C01D92AE3A7F
:10058000B207E1F70E94B6150C9422300C940000DB
:10059000CF93DF93D82FC62F0E94D221882341F01A
:1005A000D1110AC089EAC11101C08AEA0E94A804D7
:1005B00080E0DF91CF910895D130D1F78EE4C11161
:1005C000F5CF8BE4F3CF81E0089581E008950E9498
:1005D000E502089508950E94EA020895A5E0B0E0BA
:1005E000E4EFF2E00C94142F49835A8330911902FE
:1005F00089819A81311119C0662399F0222389F0EB
:100600000E94F008182F682F89819A810E94CC08D7
:1006100069817A81812F0E947C0F2596E3E00C94FA
:10062000302F0E94DE08182FF3CF0E94F008698156
:100630007A81F1CFFC01262F408151816281738143
:1006400084810E94EE02089581E00895CF93DF93A4
:10065000EC0160E00E941A03BE010E94EB02DF91F0
:10066000CF9108950E94EA1008950E94EE10089517
:1006700008950E941B070E9438032FEF84E39CE03B
:10068000215080409040E1F700C0000008950E9492
:1006900039030E947C2708950E9439030E94A027F5
:1006A00008950F931F93CF93DF938C0161E00E9415
:1006B0001A03EC01B8010E94E702811106C080E034
:1006C000DF91CF911F910F910895B801CE010E9443
:1006D0005D1F8823A1F3B801CE010E94BA238823AD
:1006E00071F3B801CE010E948E20882341F3B80136
:1006F000CE010E942C23882311F3B801CE010E9461
:10070000A11D8823E1F2F8018281882361F0CB35B5
:10071000FDE5DF0701F158F4C115ECE5DE0791F0C6
:10072000CF3DDC4591F0C8010E94E302C9CFCD3531
:100730008DE5D80769F090F0C83ADD45A1F70E9431
:100740004C03BDCF0E944703BACF0E94AF0DF7CF35
:100750000E94F00CE8CF0E94FA0CE5CF0E94FE0C3C
:10076000E2CF0E94922680E00E94921F0E94D30353
:1007700008950E94891E0E94D7030E94972608951B
:1007800008950E94C003089581E008950E94C40363
:1007900008950895CF93C82F0E94C1038C2F0E9403
:1007A000C603CF91089580E00E94CA0308950E9475
:1007B000D0250E94CA0308950E94D0259091180266
:1007C000981721F0809318020E94CA030895ABE0A5
:1007D000B0E0EDEEF3E00C94152F4F835887698756
:1007E0007A878B8761110E943B0C1E821D8285E0F7
:1007F000FE013796DE01119601900D928A95E1F780
:100800008C819D81892B61F449815A816B817C8126
:100810008D819E810E94640B2B96E2E00C94312F17
:1008200089819A8189238F3F79F3CE0101960E94B5
:1008300024038111E9CFF0CFFC01808191810E94D6
:100840002A090895CF93C82F8823B9F08CEF8C0F15
:10085000813AA8F46C2F80910401909105010E94C7
:100860002D26882329F08C2F0E94FB0B0E945C0C04
:100870008C2F0E94F30B0E945C0CCF91089580E2B4
:100880008C0F883048F4C77081E001C0880FCA958A
:10089000EAF70E941E0CEFCFEBE5EC0FE33040F4DB
:1008A000F0E0EB55FE4F808190E00E94EF25E5CF10
:1008B000C85AC73110F7EC2FF0E0EE0FFF1FE958D0
:1008C000FE4F808191810E940526D7CF882339F180
:1008D0009CEF980F913A28F40E94FB0B0E945C0C4D
:1008E000089590E2980F983050F4877091E001C01D
:1008F000990F8A95EAF7892F0E94240CEFCF9BE588
:10090000980F933028F490E080E00E94EF2508953E
:10091000885A873120F490E080E00E9405260895EF
:100920001F93CF93DF93182FEB010E94220420978F
:1009300039F4812F0E946604DF91CF911F910895B1
:100940008FE99FE00197F1F700C000002197EFCFFA
:1009500070E060E0893311F460E570E00E9490047B
:100960000895882321F00E941E0C0E945C0C0895BB
:10097000882321F00E94240C0E945C0C0895B0E0B2
:10098000A0E0E5ECF4E00C940E2F6C01D62FC72FFD
:10099000FC011281F580F2949FE0F9220E94140C70
:1009A000E82E8823B9F0E12E1123A1F08C2F807F4F
:1009B000803421F080E28D0F8830D0F080915C038C
:1009C00082FF16C082E00E94BF0C0E94140C91E0CE
:1009D000E82EE926BC2EB2948FE0B822FBE0FB158E
:1009E00008F468C0EB2DF0E0EC5DFF4C0C94CE2ECB
:1009F000E12CF0CF0C2F0F70C07F11F00295007F1B
:100A0000112399F0002359F080E28D0F883010F007
:100A1000D11107C0802F0E941E0C0E945C0C8D2FEC
:100A200041C0802F0E942E0CF8CF8D2F0E946604AB
:100A3000002309F43FC080E28D0F883010F0D111FF
:100A400004C0802F0E94240C03C0802F0E94340C0D
:100A50000E945C0C2FC00C2F0F70C07FC03211F0B1
:100A60000295007FDD2381F0D13009F463C01123AA
:100A700009F46DC0FF2009F463C0F601858180FF91
:100A8000CECF8F7085835CC080915C0382FD33C0C4
:100A9000112359F0002329F0802F0E941E0C0E9480
:100AA0005C0C80E00E94220405C080E00E94660485
:100AB0000111C7CFEB2DE850FF0B349720F40E94B3
:100AC000D0250E94CA03EE2089F00E94100C80FD00
:100AD0000DC0F60112820E940A0C0E94D407C601C2
:100AE0000E94DF060E940A0C0E94F607CDB7DEB70F
:100AF000E9E00C942A2F112389F0F11006C00E941E
:100B00003E0C802B0E94B104D5CF21E0F212F7CF2A
:100B10000E943E0C802B0E94450CCCCFF11006C0E9
:100B20000E94520C802F0E94B804C4CF31E0F3160B
:100B300009F2F6CF112331F085E08F1508F4BACF12
:100B4000802FE0CF94E09F1508F4B4CFEBCFFF20C7
:100B500049F3D93349F4FFEF27EE33E0F150204059
:100B60003040E1F700C000008D2F0E946604A2CF44
:100B70008C2F86958695837069F0813009F09ACF25
:100B80008D2F9C2F9370111102C090E080E00E9485
:100B9000052690CF8D2F9C2F9370111102C090E0ED
:100BA00080E00E94EF2586CF8C2F837009F041C032
:100BB000111180CF4D2F429546954770440F440F39
:100BC0000D2F0F7010E030E020E0042E04C0000F65
:100BD000111F221F331F0A94D2F760E070E0CB018F
:100BE000D4FF0FC06FE070E080E090E004C0660FBB
:100BF000771F881F991F4A95D2F760957095809549
:100C00009095C695C695C370602B712B822B932B44
:100C1000C23049F058F4C13019F00E947F074ACF22
:100C20000E946C0747CF0E94920744CF0E94690739
:100C300041CF8695112311F08C2F8170882309F400
:100C400039CF4D2F429546954770440F440F0D2FD5
:100C50000F7010E030E020E0042E04C0000F111FE0
:100C6000221F331F0A94D2F760E070E0CB01D4FF5B
:100C70000FC06FE070E080E090E004C0660F771F67
:100C8000881F991F4A95D2F7609570958095909529
:100C9000C695C695C370602B712B822B932BC230E7
:100CA00049F058F4C13019F00E944F0803CF0E9458
:100CB0003C0800CF0E946208FDCE0E94AB07FACE2E
:100CC000CF70112329F08C2F0E94D4078D2F1ACFBB
:100CD0008D2F0E94B8048C2F0E94F607EBCED23FD6
:100CE00051F160F4D03FB9F0D13F81F0112309F404
:100CF00049C0F11094CE8C2F8F7121C0D33F11F1D8
:100D0000D43FA1F780915C0382FD26C08C2F8F71A8
:100D1000112311F314C0112349F084E08F1508F456
:100D2000C9CE8C2F8F710E941A08C4CE95E09F15F2
:100D300008F4C0CEF6CF8C2F8F711111CDCF0E9449
:100D4000D407B8CE112329F08C2F8F710E94BE07D3
:100D5000B1CE0E94B807AECE112349F0CF718C2FCF
:100D60000E94D40763E08C2F0E94A10CA3CE81E0E7
:100D70000E94BF0CE1E0EF1508F09CCE82E00E94DB
:100D8000BF0C98CEF110E5CE8C2F8F71A5CF0F93AD
:100D90001F93CF93DF93EC01688179818A810E9450
:100DA00035098C010E9475080E946807B801CE01C0
:100DB0000E94BF04DF91CF911F910F910895CF93AF
:100DC000DF93EC018B819C81892B29F088819981AB
:100DD00089238F3F51F4DF91CF910895CE010E9476
:100DE000C706CE010E942603F6CFCE010E94510312
:100DF0008111F4CF0E94140C882369F38A8188231F
:100E000051F380915C0382FFE6CF82E00E94BF0C29
:100E1000E2CF90E080E00E94EF2590E080E00E9429
:100E200005260E943B0C0E945C0C08950E94030C56
:100E30000E94090708950E942B0C0E94160708952E
:100E400092959F70963091F058F4925F9F70923017
:100E500058F4803F19F030F4883E30F481E0089572
:100E60009A5FF4CF843FD1F380E00895883EB0F3D9
:100E7000813FD1F7F3CFFC01808191810E942A0943
:100E80000E9420070895A5E0B0E0E9E4F7E00C94A3
:100E9000152F2596E2E00C94312FA6E0B0E0E3E5B3
:100EA000F7E00C94152F2696E2E00C94312F08956C
:100EB0000E94570708950E94580760934602709356
:100EC000470280934802909349020E9409070895BF
:100ED00008950E945B0708950F931F9300914602A7
:100EE000109147022091480230914902602B712BEA
:100EF000822B932B0E945B071F910F9108950F93F4
:100F00001F930091460210914702209148023091B0
:100F1000490260237123822393230E945B071F9160
:100F20000F9108950F931F9300914602109147026D
:100F30002091480230914902602771278227932728
:100F40000E945B071F910F9108950E945707089513
:100F50000E94A50708950E94A8076093420270931B
:100F6000430280934402909345020E94090708952A
:100F700060E070E0CB010E94AB0708950F931F93D0
:100F800041E050E060E070E08A019B0104C0000F86
:100F9000111F221F331F8A95D2F7C901B8010E9481
:100FA000AB071F910F9108950F931F9341E050E0FD
:100FB00060E070E004C0440F551F661F771F8A95DC
:100FC000D2F78091420290914302A0914402B091E5
:100FD00045028A019B01082B192B2A2B3B2BC901A7
:100FE000B8010E94AB071F910F9108950F931F93B3
:100FF00041E050E060E070E004C0440F551F661F00
:10100000771F8A95D2F7CB01BA01609570958095CC
:101010009095009142021091430220914402309138
:10102000450260237123822393230E94AB071F9103
:101030000F9108950F931F9341E050E060E070E03E
:1010400004C0440F551F661F771F8A95D2F7809101
:10105000420290914302A0914402B09145028A015C
:101060009B01082719272A273B27C901B8010E949D
:10107000AB071F910F9108950F931F9300914202A8
:10108000109143022091440230914502602B712B54
:10109000822B932B0E94AB071F910F9108950F9302
:1010A0001F9300914202109143022091440230911B
:1010B000450260237123822393230E94AB071F9173
:1010C0000F9108950F931F930091420210914302D4
:1010D000209144023091450260277127822793278F
:1010E0000E94AB071F910F9108950895262F277036
:1010F00091E001C0990F2A95EAF723E0769567956C
:101100002A95E1F725E0269FF001279FF00D112495
:10111000E40FF51F50E040E0682F70E08191DF019F
:1011200011979B01042E02C0369527950A94E2F789
:10113000217021952827292328272C934F5F5F4F63
:101140004530510559F70895A82FA77023E09695CB
:1011500087952A95E1F725E0289FF001299FF00D5A
:101160001124E60FF71F50E040E080E0219130E0CD
:101170000A2E02C0369527950A94E2F7217033278C
:10118000042E01C0220F0A94EAF7822B4F5F5F4FB3
:101190004530510559F70895262F9A3070F486305E
:1011A00060F4682F70E086E0989F600D711D112437
:1011B0004AE152E0822F0E9476080895292F9A3042
:1011C00068F4863058F490E06AE172E036E0239FDC
:1011D000800D911D11240E94A408089580E00895B7
:1011E000B0E0A0E0E6EFF8E00C940E2F8C01C09088
:1011F0004202D0904302E0904402F0904502809178
:10120000460290914702A0914802B0914902C82A33
:10121000D92AEA2AFB2ACFE1D0E0BC2ED701C601A9
:101220000C2E04C0B695A795979587950A94D2F78A
:1012300080FD09C0219788F7B12C8B2DCDB7DEB783
:10124000E9E00C942A2FB8018C2F0E94970F019788
:1012500089F3F3CFCF93DF93EC010E94F008BE0136
:101260000E94970FDF91CF9108951F93CF93DF9343
:10127000EB0190911902992339F0CB010E942A09C0
:10128000DF91CF911F910895882369F0CB010E94CF
:10129000F008182F682FCE010E94CC08BE01812FC4
:1012A0000E94970FEDCFCB010E94DE08182FF6CFDA
:1012B0001F93CF93DF93C0914A0216E080914B02B7
:1012C0008C1304C0DF91CF911F910895D0E01C9F33
:1012D000F0011D9FF00D1124E45BFD4F4081518111
:1012E00062817381848195810E944D072196C77028
:1012F000E5CF40917C0250917D0260917E02709119
:101300007F0280918002909181020E944D07089592
:101310001F93CF93DF9380918102807F09F049C0B2
:1013200080917E02882309F444C080914A02C091D2
:101330004B0260917C0270917D02A0917F02B0917E
:101340008002D62FD72316E0C81799F190E01097A6
:1013500011F0DF3F19F401968770F6CF189F9001C6
:10136000199F300D1124F901E45BFD4F41814713B2
:10137000F2CF40814613EFCF42814111ECCF438140
:1013800054814A1B5B0B483C510528F78091810230
:101390008F70806180938102F901EF5AFD4F808147
:1013A0008F70806180838CE792E00E94DF060E944C
:1013B0005809DF91CF911F910895A1E1B0E0E3EECC
:1013C000F9E00C940D2F8C0185E0F801DE011D96EB
:1013D00001900D928A95E1F7F801E2808CE7C82E22
:1013E00082E0D82E60917F027091800261157105B4
:1013F00009F44EC190917C0220917D02892F8223B5
:101400008F3F09F445C140815181A380B480F090A1
:101410007E02F501E61BF70BFF2009F4EAC080917C
:101420008102382F307FE83CF10508F0A3C031116C
:101430006DC0FE2C251316C0941314C0E11012C009
:101440008F708061809381020E947909C6010E9499
:10145000DF0680918102F80185838F2D6196EAE095
:101460000C94292FA114B10429F0842F85238F3FD8
:1014700009F027C180E0F82FF170DF2E80FF3CC01B
:1014800080914A0220914B0236E0821315C04D87AD
:101490005E878D859E850E942A09292F22952F70AF
:1014A0002230F0F0243018F59F70F1F0F8019581AA
:1014B000907FD1F4D12C1EC090E0389FF001399F6D
:1014C000F00D1124E45BFD4F6181651306C060815E
:1014D000641303C06281E6120FC001968770D5CFF6
:1014E0009F7011F0882331F3805E883018F3C801B3
:1014F0000E94DF06FD2CB1CFEE2009F4AECF809123
:101500008102816080938102F12CA7CF251306C050
:10151000941304C0F801EE2009F487C0C8010E94AA
:101520003B07882319F1EE2009F180918102803276
:1015300070F020917C0230917D0238872F831986CC
:10154000BB86AA868C87CE0107960E94DF0686E0BE
:10155000F801ACE7B2E001900D928A95E1F70E94A4
:1015600088090E947909FF24F39477CFC8010E946B
:10157000DF06F9CF311113C07A2DB98AA88A6E2DF2
:1015800089890E9443078CE792E00E94DF0686E08B
:10159000F60111928A95E9F70E947909B5CF2513D2
:1015A0000FC094130DC0E1100BC0F8018583C80172
:1015B0000E94DF0686E0F60111928A95E9F74DCF89
:1015C000C8010E943B07882389F2EE2079F28091BE
:1015D0008102803208F4BBCF20917C0230917D02E1
:1015E0003A8329831B82BD82AC828E83CE01019611
:1015F000ACCFE83CF10508F03EC0FE2CEE2009F42B
:10160000B5CF25132AC0941328C08091810280FD94
:101610001BC0982F907FC1F0F8018583903F31F077
:10162000982F907F905F8F70892B8583C8010E94CF
:10163000DF0686E0F801ACE7B2E001900D928A95F2
:10164000E1F70E94790909CF86E0F801ACE7B2E042
:1016500001900D928A95E1F700CFC8010E943B07E7
:10166000811175CF80918102816080938102C801D0
:101670000E94DF06F2CE7A2DB98AA88A6E2D89895A
:101680000E94430786E0F60111928A95E9F7D9CFC7
:10169000EE2009F46BCFC8010E943B07F82E882387
:1016A00009F464CF86E0F801ACE7B2E001900D9256
:1016B0008A95E1F78CE792E00E941C040E94880959
:1016C000C0CF81E08E25D7CEACE0B0E0EAE6FBE00B
:1016D0000C94142F4F83588769877A878B879C8750
:1016E000CE0107960E94DD09882369F08A859B85D3
:1016F000892B39F04F815885842F85238F3F09F03E
:101700006BC016E05FC086E0FE013796DE011196E1
:1017100001900D928A95E1F78A859B85892B89F343
:101720008F81988589238F3F61F320914B0230E0B0
:10173000C90101968770992740914A0248171906F6
:1017400071F40E941B0710924B0210924A0286E02D
:10175000ECE7F2E0DF011D928A95E9F7D2CF96E03F
:10176000929FD001939FB00D1124A45BBD4FFE0149
:10177000319601900D929A95E1F780934B020E9469
:101780005809BFCF819FC0011124845B9D4F0E94E7
:10179000DD098823E9F0E0914A021E9FF00111243F
:1017A000E45BFD4F40815181628173818481958129
:1017B0000E944D0780914A0290E001968770992718
:1017C00080934A0280914A0290914B028913DACFAA
:1017D0002C96E3E00C94302F69857A858B859C8567
:1017E0000E944D078ECF682F8091040190910501D2
:1017F0000E9463260895682F80910401909105014D
:101800000E946626089580910401909105010E942E
:101810006926089580918A02859585958595089514
:1018200080918A028770089590918A02977081E072
:1018300009F480E0089580919502089590919502B1
:10184000892B809395020895809590919502982315
:1018500090939502089510929502089590919402A4
:10186000892B8093940208958095909194029823F7
:1018700090939402089510929402089580918B029F
:10188000089508950E94410C089590915C0392FF81
:1018900008C090918B02981721F080938B020E94D0
:1018A000420C089580918B02882329F010928B02BC
:1018B00080E00E94420C0895CF93DF93E0910401F1
:1018C000F0910501809195028083E0910401F091EF
:1018D0000501808190919402892B808390918B02E5
:1018E000992381F0E0910401F09105018081892B19
:1018F000808380910401909105010E941B26811133
:101900000E94520CC0910401D091050148E050E0C2
:1019100062E872E0CE010E94A52F892B59F088E081
:10192000FE01A2E8B2E001900D928A95E1F7CE01A6
:101930000E94E425DF91CF91089508950E949D0CA7
:10194000089590915C0392FF11C098E0899F9001E7
:101950001124622B60938A020E94D40780918A022C
:101960008595859585950E949E0C08950E94D407C3
:10197000089510928A0280E00E949E0C0895909132
:101980008A028095892380938A02282F277091F4F8
:10199000282F082E000C330B9217130659F0909144
:1019A0005C0392FF07C08595859585950E94F60793
:1019B0000E94B90C089590915C0392FB222720F9B4
:1019C000281769F080FB92F990935C0380915B0388
:1019D00090915C030E94250D82E00E94BF0C089547
:1019E00080915C0382FB882780F991E089270E941F
:1019F000DB0C089581E00E94DB0C089580E00E94DA
:101A0000DB0C089590E080E00E94C92F21E0883E21
:101A10009E4F09F020E0822F089582E090E00E941E
:101A2000BB2F089583E090E00E94BB2F0895CF93D1
:101A300084E090E00E94BB2FC82F82E290E00E94D9
:101A4000BB2F982F8C2FCF910895CF93C92F682F3C
:101A500084E090E00E94CF2F6C2F82E290E00E9401
:101A6000CF2FCF910895AB01BC018FE090E00E9491
:101A7000E12F0895AB01BC0183E190E00E94E12FCA
:101A8000089560E070E0CB010E943A0D089560E097
:101A900070E0CB010E94330D0E94410D089568EE65
:101AA0007EEF90E080E00E94ED2F60E082E090E029
:101AB0000E94CF2F60E083E090E00E94CF2F109231
:101AC000460210924702109248021092490260E0CA
:101AD00084E090E00E94CF2F64E082E290E00E94D8
:101AE000CF2F60E085E090E00E94CF2F60E086E09D
:101AF00090E00E94CF2F6FEF87E090E00E94CF2F01
:101B000040E050E0BA0188E090E00E94E12F60E000
:101B10008DE090E00E94CF2F40E050E0BA0188E1D4
:101B200090E00E94E12F60E087E190E00E94CF2FDB
:101B300040E050E0BA018CE190E00E94E12F70E0BB
:101B400060E080E290E00E94ED2F40E050E0BA01BA
:101B500088E190E00E94E12F0E94470D08950E94C5
:101B60004F0D0895682F8EE090E00E94CF2F0895CA
:101B70000E9421276093A8027093A9028093AA0271
:101B80009093AB026093A4027093A5028093A60287
:101B90009093A70208950E9421276093A802709352
:101BA000A9028093AA029093AB026093A002709363
:101BB000A1028093A2029093A3020895089508952C
:101BC0000E94DF0D089508950E94E30D089581ECB1
:101BD00090E10E94C6250E94DE0D0E94E00D08954E
:101BE0000E94CB120895089508950E94F30D0E945B
:101BF000F40D08950E94C4100E94C9030E94392068
:101C000008950E940C270E9476100E94E3120E9401
:101C1000F1110E94FA0D0E9476200E94891E0E94F6
:101C20004C1C0E94D4210E94F7120E94E40D0895DA
:101C3000AAE0B0E0EEE1FEE00C940C2F0E944B1203
:101C4000C82E81110E94B80D86E9A82E82E0B82E18
:101C500010E000E0902E802F0E94F110E82EF50198
:101C6000F1905F01F816B9F18091AC0281FD0E94FC
:101C7000F7108F2D8E25D12CFF24F394982F9F21C0
:101C800029F10E94F00D882399F0DE829F82EF20D7
:101C900081E009F480E088870E9415278160782F11
:101CA0009A8789874E815F8168858A850E94E703CC
:101CB000F801EA56FD4F8081F826F08281E0C110DC
:101CC00001C080E02A96EBE00C94282FD394FF0CFF
:101CD000F6E0DF12D3CF0F5F1F4F0A30110509F076
:101CE000B9CF8FEF89838A831B820E941527816079
:101CF000782F9D838C8349815A816B818D810E94CD
:101D0000E703DCCF0E94180E0E94CB120E94B91C80
:101D10000E9438200E94582281110E94CB0D0E94FF
:101D2000DC030895CF93DF930E949C0FEC01811593
:101D300022E59207E8F5811531E5930708F0ACC07C
:101D4000883E910510F5803E910570F5883A910521
:101D500070F4853A910508F078C08130910521F141
:101D6000009711F1049700F5D0E0C0E01DC08F3B53
:101D70009105D0F7C85AD0E0CC0FDD1FC855DE4F13
:101D80000990D881C02DD4640FC0811540E5940717
:101D900008F066C0C11580E4D80708F05EC0CE0127
:101DA0009A9581159F4100F7CE01DF91CF9108955B
:101DB000811536E5930718F5811545E5940708F078
:101DC00083C0C11584E5D80708F079C09C2F96958B
:101DD00096959E0123703327C115D34508F461C041
:101DE000C1E0D0E002C0CC0FDD1F2A95E2F730E25F
:101DF000939FC0011124C82BD92BDA68D5CFC11508
:101E00008AE5D80778F4C11599E5D90708F066C0C6
:101E1000C11528E5D20708F4A7CFDC2FCC27C06F67
:101E2000D06AC2CFCE0190568115904208F09CCF67
:101E30008D2F8F710E94331090E0982F882788276C
:101E40009F719C012C2BE90147C0C55AD0E0CA52B2
:101E5000DE4FC881D0E0D064A7CFDF70D06AA4CFB6
:101E6000E4E096958795EA95E1F783702C2F269507
:101E70002695237040E2249F90011124382B8C2F4B
:101E80008370C1E0D0E002C0CC0FDD1F8A95E2F77D
:101E9000C22BD32BDC6888CFD82FCC27C16FD06A58
:101EA00083CFC1E0D0E002C0CC0FDD1F2A95E2F75E
:101EB00020E2929FC0011124C82BD92BEBCFDC2F3D
:101EC000CC27C46FD06A70CF0E943310C82FD0E0E7
:101ED000DC2FCC27CC27DF71D06266CF8C2F8F70A0
:101EE0000E94331034E0D695C7953A95E1F7CF704C
:101EF0009C2FEC01D06958CF972F7A30A8F4663028
:101F000098F470E026E0929F600D711D1124FB0192
:101F10009CE3899FE00DF11D1124EE0FFF1FE45596
:101F2000FF4F85919491089580E090E008950E947C
:101F30007C0F0E94920E089582389105B1F1B0F4A1
:101F40008133910509F475C048F48932910509F48B
:101F500069C08A32910509F473C0089585339105EB
:101F600009F459C08933910501F10895833E910523
:101F7000A9F138F4803E9105F9F0823E910549F1CE
:101F80000895863E9105A9F1873E9105C9F1843EE9
:101F9000910519F520915C0321FF1FC080915B031F
:101FA00084FD14C087EE90E0089520915B032370B8
:101FB000A1F080EE90E0089520915B0320FD47C0E2
:101FC00030915C0330FF09C024FF44C090E080E002
:101FD00004C020915B0322FDF7CF089520915B039D
:101FE00022FD3BC030915C0330FDE3CF24FFF5CFF1
:101FF000EDCF20915B0323FFF0CF24FDE7CFD2CFBD
:1020000020915B0323FD2CC030915C0331FFEECFA8
:1020100084EE90E0089520915B0325FFDECF89E2F6
:1020200090E0089520915B0325FFD7CF85E390E0F2
:10203000089520915B0326FFD0CF8AE290E00895B7
:1020400020915B0326FFC9CF81E390E0089589E3E7
:1020500090E0089583EE90E0089582EE90E0089578
:1020600086EE90E0089590915B0392FF06C0282FC2
:1020700028712830F9F4877F846093FF06C0282FE9
:1020800028712831F1F4877E846120915C0320FF60
:1020900006C0382F38713830D9F4877F816021FF2E
:1020A00006C0282F28712831D1F4877E816194FDE4
:1020B000877E0895282F24712430F9F68B7F88605D
:1020C000DCCF282F2471243101F78B7E8861DDCF8E
:1020D000382F3171313019F78E7F8860E0CF282F8B
:1020E0002171213121F78E7E8861E1CF1092570353
:1020F000109258031092590310925A030895CF92E8
:10210000DF92EF92FF926B017C010E94CB12811152
:102110000EC00E942127C61AD70AE80AF90AC092FF
:102120005703D0925803E0925903F0925A03FF905C
:10213000EF90DF90CF9008950F931F930E94CB12E2
:10214000882329F00E9421271F910F9108950E9452
:102150002127009157031091580320915903309182
:102160005A03600F711F821F931FEECF0E94CB1284
:10217000882319F00E94152708950E949C10CB0116
:10218000089580E0089508950E94020D811102C013
:102190000E94AF0D0E940D0D8093AC020E94170D9E
:1021A00090935C0380935B030E94C3100E94120D06
:1021B000682F70E090E080E00E9469076091420221
:1021C0007091430280914402909145020E94A807B9
:1021D000089508950E94E910089508950E94ED1051
:1021E0000895E82FF0E0E859FC4F808108950895A4
:1021F00080EA8A95F1F7089500C008950E94F810CA
:10220000089508950E9401110895A5E0B0E0EBE063
:10221000F1E10C94112F0E94CB12F82E6091720301
:10222000882309F440C085E0E82E8E010F5F1F4F20
:10223000F8018E2D11928A95E9F7862F90E0B8016A
:1022400088599C4F0E9405138823B9F080915D0343
:1022500090E045E050E0B80188599C4F0E94A52FBE
:1022600021E02093AD02892B91F4F12C0E943503DB
:102270008F2D2596E6E00C942D2F8091AD028823BA
:10228000A1F3F8011192EA94E9F71092AD02A0913E
:102290005D03B0E0A859BC4F85E0F80101900D92B4
:1022A0008A95E1F7E3CF70E068597C4F80915D0338
:1022B00090E088599C4F0E948C130E940211D8CF45
:1022C000F894E82FE295EF70F0E031A1282F2F70FD
:1022D00081E090E001C0880F2A95EAF7982F909549
:1022E000932391A392A1892B82A378940895CF93ED
:1022F000DF93CCE0D1E089918F3F11F00E94601113
:1023000081E0C131D807B9F7C6E0D1E089918F3FAC
:1023100011F00E94601181E0CC30D807B9F7DF914D
:10232000CF910895B0E0A0E0E8E9F1E10C940F2F1F
:10233000EC01D62E062F10E0C801845F9E4F7C0171
:10234000FC0180818F3F09F445C0F894E82FE295A5
:10235000EF70F0E091A18F7021E030E001C0220F1A
:102360008A95EAF7892F822B81A382A120952823C1
:1023700022A378940E94FC10E6E0F1E04CE051E0EA
:1023800031E0C12C21912F3F51F1A22FA295AF70C6
:10239000B0E090968C9190E02F7002C09595879553
:1023A0002A95E2F780FD1BC0832FC82A330F4E17F2
:1023B0005F0741F7F70180818F3F11F00E946011A4
:1023C00061E0C11001C060E08D2D0E94FE10C00FC1
:1023D000D11FC882CDB7DEB7E8E00C942B2F80E088
:1023E000E4CFABE0B0E0E7EFF1E10C94152F809182
:1023F000110181112CC085E0ECE6F1E0DE011796B9
:1024000001900D928A95E1F78F8180930C01888568
:1024100080930D01898580930E018A8580930F0139
:102420008B858093100186E0E1E7F1E0DE011196F3
:1024300001900D928A95E1F7FE013196A6E0B1E098
:10244000CE01079621912D93E817F907D9F78091CE
:10245000110195E0811190E09093720385E0891B52
:1024600080935D030E9477118AE0E8E6F3E0DF01E4
:10247000982F1D929A95E9F7EEE5F3E0DF011D92A2
:102480008A95E9F785E00E948E120E9432032B960E
:10249000E2E00C94312FAAE0B0E0E1E5F2E10C9427
:1024A000112F8E010F5F1F4F8AE0F80111928A955C
:1024B000E9F7F12C6F2DC8010E949211F394F5E019
:1024C000FF12F8CF4AE050E0B8018EE593E00E9499
:1024D000A52F7C0121E0892B09F420E0E114F1040F
:1024E00041F08AE0F801AEE5B3E001900D928A95E3
:1024F000E1F76091720370E068597C4F45E08EE52A
:1025000093E00E948F1281E090E0E114F10411F455
:102510000E9405112A96E6E00C942D2F0895FF9253
:102520000F931F93CF93DF93F82E092F162FD72FDA
:10253000C42F222349F081E08093B0020E94152726
:102540009093AF028093AE028091B0028823A1F0F5
:102550008091AE029091AF020E942D27059760F006
:10256000EF2DF02FA12FBD2FCE0FDF2FD11DEC1798
:10257000FD0739F41092B002CDB7DEB7E5E00C9458
:102580002E2F81918D93F3CF55985D9889B185FB5E
:10259000882780F908958091B302811107C00E94B5
:1025A0004D2E882351F081E08093B30281E0909119
:1025B000B302913009F080E0089582E08093B30285
:1025C0000E94482EF3CF0E94C41280931101809183
:1025D000110166E0882349F080E00E945B160E94AA
:1025E000CB1281110E943B13089586E0F6CF0E9422
:1025F000CB12811102C00E943E13089581E0909198
:10260000B4029A3008F080E008950F931F93CF939F
:10261000DF93EC018B018091B4028A30B8F4B801E9
:10262000CE010E948913C82F811122C08091B4026B
:102630008F3FB9F40E9415279093B2028093B102A4
:102640008C2FDF91CF911F910F9108958091B1024E
:102650009091B2020E942D27843F914000F7C0E084
:10266000EFCF8F5F8093B4028A3020F7C1E0E8CFCC
:102670001092B402E5CF0E94642408950E9467245A
:102680000895B0E0A0E0E7E4F3E10C94102F7901A5
:10269000C82F880FDD0B41155105A9F0FE0193E00D
:1026A000EE0FFF1F9A95E1F7EE5EFE4F818192815A
:1026B0008B549D4F208130E04217530708F49A0154
:1026C000A9010E94B22FCE010E945025D82E882346
:1026D000D1F001151105B9F083E0CC0FDD1F8A950B
:1026E000E1F7FE01EE5EFE4F438150E0041715074F
:1026F00008F4A801CE5EDE4F6C817D816B547D4F66
:10270000C7010E94B22F8D2DCDB7DEB7E7E00C9444
:102710002C2F0E94211508950E9452150895A4E0BF
:10272000B0E0E5E9F3E10C94132F6091DB027091C6
:10273000DC028091DD029091DE020E943C2711E0D4
:10274000643671058105910518F10E949C106E5F39
:102750007F4F8F4F9F4F69837A838B839C8310E0D9
:1027600000E030E020E044E050E0BE016F5F7F4FCA
:1027700084E00E944113182F882351F00E942127E2
:102780006093DB027093DC028093DD029093DE02A3
:10279000812F2496E4E00C942F2FB0E0A0E0E3ED2D
:1027A000F3E10C940D2FC82F7B01D42F6901580140
:1027B000FB0160817181828193810E943C27643694
:1027C00071058105910510F4DD23C9F010E000E0EA
:1027D00030E020E0A501B6018C2F0E944113C82FE4
:1027E000882339F00E942127F70160837183828357
:1027F00093838C2FCDB7DEB7EAE00C94292FC1E08C
:10280000F8CFA8E0B0E0E7E0F4E10C94132FCE019C
:1028100001960E94681B41E08885811101C040E05B
:1028200008E010E09E012F5F3F4F63EE72E086E00C
:102830000E94CD13182F81110E94651B812F2896AD
:10284000E4E00C942F2FA1E0B0E0E9E2F4E10C9475
:10285000132F0E946B1E8823D1F00E94831E898350
:10286000E091D901F091DA0141E09485981301C01B
:1028700040E001E010E09E012F5F3F4F6FED72E0FE
:1028800085E00E94CD132196E4E00C942F2F80E088
:10289000E6CFA1E0B0E0EFE4F4E10C940A2F762E4D
:1028A0004A015901680101E010E09E012F5F3F4F8E
:1028B00050E040E070E060E00E944113182F882350
:1028C00099F1F40160817181828193810E943C279A
:1028D000643671058105910500F18701950150E08D
:1028E00040E070E060E0872D0E944113B82EB701F0
:1028F000C6010E94772011E09981981310E01B21F6
:1029000039F00E942127F4016083718382839383CD
:10291000812F2196EDE00C94262FB701C6010E946D
:10292000772099818913D9CFA701B601C5010E94EB
:10293000B22FEECFA1E0B0E0E0EAF4E10C94112F69
:102940000091D9011091DA01095F1F4FEE24E39441
:10295000F12C9E012F5F3F4F47ED52E063E082E094
:102960000E944914182F882321F0CE0101960E945D
:10297000E822812F2196E6E00C942D2FA5E0B0E00F
:10298000E4ECF4E10C940F2F6B010091D90110914C
:10299000DA010F5F1F4F85E0E82EF12C9E012F5FBB
:1029A0003F4F43ED52E061E080E00E9449148823EC
:1029B00049F095E0FE013196AEECB2E001900D9247
:1029C0009A95E1F795E0EEECF2E0D60101900D92D8
:1029D0009A95E1F72596E8E00C942B2FB0E0A0E063
:1029E000E4EFF4E10C940D2F7C015B016A010E947D
:1029F000FE1201E010E0882311F00AE010E0C1E0CF
:102A0000D0E0B501C701F6010995811104C02196F6
:102A10000C171D072CF4CDB7DEB7EAE00C94292F74
:102A2000CC9F9001CD9F300D300D112490E080E0BF
:102A300045E34A95F1F70000019682179307C1F725
:102A4000E0CF0F931F93CF93DF93EC018B014EEBFD
:102A500054E10E94EE14811106C080E0DF91CF9115
:102A60001F910F9108954AE954E1B801CE010E94E7
:102A7000EE14882391F34FE853E1B801CE010E9490
:102A8000EE14882351F343E254E1B801CE010E94D1
:102A9000EE14882311F341E054E1B801CE010E9405
:102AA000EE14DCCFA1E0B0E0E8E5F5E10C940F2FE7
:102AB0000091D9011091DA01C801019625E0FB01CE
:102AC000DC0101900D922A95E1F765E070E00E942B
:102AD0007720F8018083CE0101960E94DD22898152
:102AE000F801878361E070E0CE0101960E947720B3
:102AF000F80186836085718582859385C090CA02BE
:102B0000D090CB02E090CC02F090CD026C157D0508
:102B10008E059F0551F06093CA027093CB0280939B
:102B2000CC029093CD020E947F10F80184850E9410
:102B3000921FF8018489882339F060E0C8010D965E
:102B40000E94841CF801148A2196E8E00C942B2F33
:102B50000E9423290E94010E0E94302908950E949C
:102B600035290E94820E0E944F2908950E94AE26A8
:102B70000E9409290E94E70D0E94A8150E94AF1526
:102B80000E94F50DFBCFEF92FF920F931F93CF930F
:102B9000DF93EB01E82FD1110EC0442321F0F0E0C8
:102BA000E25DFC4FE4916E2F7E2F8E2FCDB7DEB706
:102BB000E6E00C942D2F0D2F10E0282F30E0442359
:102BC00029F0225D3C4FF901249130E0F6E0CF9FDF
:102BD000C0011124EFEFF0E0BF010E94842EAB0191
:102BE0008C2F90E0880F991FA5E5A49FB001A59FA9
:102BF000700D1124861B970B982F990F980FBF010A
:102C0000601B710B629FD001639FB00D729FB00D6E
:102C100011248B2F9D9FB0011124672F7727EF017F
:102C2000C61BD70BBE01629FE001639FD00D729F50
:102C3000D00D11247F01E91AF108E09EB001E19E58
:102C4000700DF09E700D1124672F7727E61BF70B90
:102C5000E29F8001E39F100DF29F100D1124E12FE0
:102C6000722F4230510599F048F44115510569F031
:102C70004130510581F0EB2F8D2F07C044305105B5
:102C800069F080F046305105B1F76E2F8FCFE22FFB
:102C90007B2F812FFACFE22F7D2FF7CFEB2F822FC3
:102CA000712FF3CF7B2F822FED2FEFCF41E00E94CA
:102CB000C31508950895EDE4F1E0808361830895DC
:102CC0000E9456160895CF93DF93762FE901682F5F
:102CD000842F0E946016798368838A83DF91CF9165
:102CE000089580917303982F9E7F29F481708260EC
:102CF0008093730308958635E8F381708465F8CF77
:102D000088E090E00E94C32F0895CF92DF92EF9267
:102D1000FF926B017C010E947116B701A60188E049
:102D200090E00E94E12FFF90EF90DF90CF90089508
:102D3000E3E7F3E087E1808311828FEF828380E80D
:102D400083831482A0E3B3E012968C911297836080
:102D500012968C9360817181828193810E94851685
:102D600008958091730380FF02C08695089580E0E6
:102D7000089590917703933018F49F5F90937703B1
:102D8000882351F0609173037091740380917503EF
:102D9000909176030E948516089581E00E94B916ED
:102DA000089590917703992319F0915090937703A8
:102DB000882351F0609173037091740380917503BF
:102DC000909176030E948516089581E00E94D116A5
:102DD000089570E00E944A20089560914E0180910C
:102DE000730380FF0BC080914D0123E0829FC001DF
:102DF000112488589C4F0E94E916089580914F0134
:102E00009091500123E0829FF0011124E858FC4F7B
:102E1000891748F71182108212828F5F3396F8CF9C
:102E20009091730390FF0EC090914F01209150013B
:102E300033E0939FF0011124E858FC4F921718F0EB
:102E40000E94ED1608958183608342839F5F3396CD
:102E5000F5CFA3E0B0E0EFE2F7E10C94152F9091ED
:102E6000730390FF0AC09E012F5F3F4F0E946316BD
:102E70004B8169818A810E9410172396E2E00C94AD
:102E8000312FCF93DF93EC01EC81F0E0E75DFD4F54
:102E90004491E3E7F3E0628181810E9429178C81EC
:102EA0008F5F8C83DF91CF910895CF93DF93EC01F7
:102EB000E3E7F3E0438162818C810E9429178C81D2
:102EC0008F5F8C83DF91CF910895A3E0B0E0EBE6B4
:102ED000F7E10C94132F8C018091E70281110AC055
:102EE0009E012F5F3F4F4FEF6FEF0E9463168A8165
:102EF0008093E702F8016481613069F08091E70214
:102F000040E0662361F040E0623011F44091E70256
:102F100080E060E004C06091E70240E080E00E9451
:102F20001017F801848190E0019663E070E00E9440
:102F3000982E84832396E4E00C942F2FA3E0B0E036
:102F4000E4EAF7E10C940E2F082FD62EF42EC22EB1
:102F50009091730390FF3AC0E92FE695AE2FB0E051
:102F6000A552BE4F8C91809330039E7F923091F595
:102F70009E012F5F3F4F802F0E9463164B81698116
:102F80008A810E94101780917403801308C0809179
:102F900075038D1104C0809176038F1529F08091FF
:102FA000320382608093320300937403D0927503DE
:102FB000F0927603CC2051F060917303709174030A
:102FC00080917503909176030E9485162396E9E01F
:102FD0000C942A2F823019F4F0907603D4CF8630E7
:102FE00019F400917403CFCF8930D9F3893159F6A0
:102FF000E9516E2F6170B62EE695F0E0E75DFC4F6B
:103000001491E12C60915101E61618F00E94ED1622
:10301000BACFE19EC001112470E00E94842E802F5F
:10302000B11014C0860F20914F01622F6E0D7727CB
:10303000771F9B01220F331F260F371F28583C4F45
:103040004F2D6D2D0E946316E394DCCF861BEBCFD2
:10305000E3E7F3E09181282F4381628188E0890FC3
:103060000E949E17089581E00E9428180895E3E7C2
:10307000F3E09181282F4381628188EF890F0E94BC
:103080009E17089581E00E9437180895E3E7F3E062
:10309000628121E1620F08F46FEF282F4381818163
:1030A0000E949E17089581E00E9446180895E3E764
:1030B000F3E0628121E1621B08F460E0282F438184
:1030C00081810E949E17089581E00E9457180895FB
:1030D000E3E7F3E0438121E1420F08F44FEF282FAB
:1030E000628181810E949E17089581E00E94681884
:1030F0000895E3E7F3E0438121E1421B08F440E057
:10310000282F628181810E949E17089581E00E948C
:103110007918089520E00E949E170895EF92FF927B
:103120001F93CF93DF93EC0110E0EE24EA94F12C8F
:1031300060915101161770F00E94ED169A818C81F2
:1031400090FF27C08F5F8C83DF91CF911F91FF90FD
:10315000EF90089520914F01422F410F5527551FA1
:10316000CA019A01220F331F280F391F28583C4FDC
:1031700070E0C7010E94982E962F8C8140917603B3
:1031800060917503199F800D11240E9463161F5FC3
:10319000CFCF8150D8CFB0E0A0E0E1EDF8E10C94C2
:1031A0000B2FEC018A81BB24BA9480FD02C0BB24A2
:1031B000B3948C8181110AC081E0B81222C0809141
:1031C000510181508093E90281E08C83A12C4CE075
:1031D000942E80915101A816B8F00E94ED168091AE
:1031E000E90291E0B91259C0811152C08091510198
:1031F00081508093E9021C82CDB7DEB7ECE00C94DD
:10320000272F1092E902E0CF00914F01CA2CD12C58
:103210000C0D1D2D111DC801880F991F080F191FB6
:1032200008581C4FF80111821082128234E0E32EFC
:10323000F12C812C8091E902880D8D301CF1692DD3
:103240000E94762E892F082E000C990BC816D906DD
:1032500091F4809176038E9DA0018F9D500D1124D5
:1032600055954795559547959801609175038091BF
:1032700074030E9463168B0CF1E0EF1AF108D1F68B
:10328000A394A7CF87FFDFCF90915101890FDBCFA8
:1032900081508093E902BC82AFCF90E001966091AB
:1032A000510170E00E94982E8093E9028C83A4CF94
:1032B000EF92FF920F931F93CF93DF93EC018C81DA
:1032C000811109C081E08C831092E80292E0909312
:1032D0004C0180934B0180914F019091500123E06C
:1032E000829FF0011124E858FC4F891758F110E033
:1032F00003E060915101161758F10E94ED1680917C
:103300004B012091E802280F2093E80290914C0194
:10331000980F90934C01191654F4022E000C330BA5
:10332000409151014150550B2417350734F08195D8
:1033300080934B01813009F41C82CDB7DEB7E6E003
:103340000C942D2F1182108212828F5F3396CDCF75
:10335000E12EF12C70E0C7010E94982E20914F01C0
:10336000820F482F50E02091E802022E000C330B10
:10337000E216F306BCF020914C01022E000C330B38
:103380002E153F057CF0809F9001112428583C4F5A
:103390004091760360917503809174030E946316D7
:1033A0001F5FA7CFFA01EE0FFF1FE40FF51FE858CC
:1033B000FC4F118210821282F3CFB0E0A0E0E3EE66
:1033C000F9E10C940B2FEC014C81042F10E09801D3
:1033D000D8010E94DC2E9B01AC010E94F22E4B0111
:1033E0005C01E0E2F0E0E01BF10BA5E5B0E0AC0130
:1033F0009B010E94F22E6B017C019F01DF010E9464
:10340000D42E9B01AC010E94FD2E9B01AC01280D26
:10341000391D4A1D5B1DC701B6010E94AC2EF22E5C
:10342000822F90E039E23F1520F143E0249F900184
:10343000112435952795122F109500E085E5E82E8B
:10344000EF1880915101081718F10E94ED169C8128
:1034500081E0992319F0903219F48FEF80934A019B
:1034600080914A01890F8C83CDB7DEB7ECE00C94D4
:10347000272F25E530E0B901681B790B9B01220F4E
:10348000331F260F371F37FFD4CF2F5F3F4FD1CFCA
:103490008E2D01FD8F2D20914F01622F600F772718
:1034A000771F9B01220F331F260F371F28583C4FD1
:1034B000412F609175030E9463160F5FC2CF0F9377
:1034C0001F93CF93DF93EC0110E000E09091510146
:1034D0009017110609F06CF40E94ED168C8190E0B3
:1034E0000196817099278C83DF91CF911F910F9165
:1034F000089520914F01A801420F511D9A01220FFA
:10350000331F240F351F28583C4F4C8160917503A1
:103510008091740396959017110651F04CF0442356
:1035200049F0409176030E9463160F5F1F4FCECF84
:103530004423B9F340E0F7CFB0E0A0E0E2EAFAE1DB
:103540000C94072FFC016280448081E08483E9E2CF
:10355000F2E07490E8EAF2E0E491812C75E0972EB5
:10356000F2E0CF2EDD24D394AA24AA94B12C5524C2
:103570005A94E7190E2F10E080915101881638F007
:103580000E94ED16CDB7DEB7E0E10C94232FE82CB6
:10359000F12C82E0861568F09E9CF0019F9CF00D56
:1035A0001124E351FD4F8091740380838091750352
:1035B0008183411023C09E9CF0019F9CF00D11243B
:1035C000E351FD4F1382128220914F01C701820FF8
:1035D000911D9C01220F331F280F391F28583C4F83
:1035E0009E9CF0019F9CF00D1124E351FD4F428100
:1035F000618180810E9463168394BECF9E9CE0010E
:103600009F9CD00D1124C351DD4F8B818823E9F09D
:1036100081508B83859DC00111246C8170E00E94D4
:10362000842EFB01FF27E75DFD4F8491E82FE7190A
:10363000E59DC0011124B8010E94842E809176037B
:10364000689FB00111247A83BFCF0E94882F2091F8
:103650007603269521582C9DA0012D9D500D1124F7
:10366000452F5527841795070CF0AECF82E08615BD
:1036700088F40E94882FB5010E94982E88830E94AA
:10368000882F209175032695622F70E00E94982E56
:10369000280F29839E9CF0019F9CF00D1124E3517B
:1036A000FD4F128280917603893C58F088EC9E9CF5
:1036B000F0019F9CF00D1124E351FD4F848383831F
:1036C00083CF8431A0F784E1F2CF109232030895C2
:1036D00025E0E3E7F3E0DC0101900D922A95E1F7A4
:1036E000209130033091310340913203FC01258356
:1036F000368347830895E0E3F3E01182828184609A
:1037000082830895E3E7F3E080818E7F80830E94C7
:103710007B1BE0E3F3E08281816082832FEF80E70F
:1037200092E0215080409040E1F700C000000E94EC
:10373000ED160895E3E7F3E080818E7F808360815A
:103740007181828193810E9485160E947B1BE0E338
:10375000F3E08281816082832FEF80E792E0215045
:1037600080409040E1F700C000000E94ED160895EF
:1037700060917303669570E04BE050E082E591E064
:103780000E94982F892B19F481E0809331030E94C5
:10379000B61090932A0380932903809132038460AA
:1037A0008093320308959091730390FF30C091701D
:1037B00081112EC0926090937303809132038160D7
:1037C00080933203662351F0609173037091740308
:1037D00080917503909176030E9485166091730322
:1037E000669570E04BE050E082E591E00E94982FF2
:1037F000892BA9F00E947B1B81E080932C034091D0
:10380000760360917503809174030E948A1808956D
:103810008B3210F09465CFCF880F982BCCCF0E94BD
:10382000B81BEACF682F90917303969581E0890FBA
:103830008B3208F081E00E94D31B089581E00E9442
:10384000121C0895682F9091730396958FEF890F3E
:1038500009F48AE20E94D31B089581E00E94221C91
:10386000089561E00E94D31B0895E3E7F3E08081AF
:103870008160808386950E94311C08958091730336
:1038800080FF03C00E949A1B08950E94351C089572
:1038900060E00E94D31B089580912F03811133C0F3
:1038A0000E94020D811104C00E94AF0D0E94981663
:1038B0000E94801660937303709374038093750362
:1038C00090937603809132038360809332036E7FFE
:1038D00061F40E9498160E9480166093730370939F
:1038E000740380937503909376030E9471160E946F
:1038F0007B1B8091730380FF03C086950E94481C48
:1039000081E080932F0308951F93CF93DF93EC0101
:10391000162F8F8180FF0CC0888180FF24C080918A
:103920007303816080937303888186950E94D31B03
:103930008F8181FF06C0212F4B816A8189810E947E
:103940009E178F8182FF05C08E81882379F00E94A7
:10395000B81B8F8183FF03C081E080932C03DF912C
:10396000CF911F9108950E94821BE2CF0E947B1B82
:10397000F0CFEF92FF920F931F93CF93DF9380913D
:103980003103882309F463C080913003E09173030D
:10399000E695E81BE0932B03823009F05DC0F0E070
:1039A000EB5DFD4FE491CE2FD0E001E417E1809173
:1039B0002C03882361F010922C030E94B610909380
:1039C0002A038093290310922E0310922D030E9444
:1039D000B610E0912903F0912A039C012E1B3F0BA6
:1039E0002F3F3F47A0F52091EC022223B1F0109227
:1039F000EC022091EA023091EB02821B930B8F3F85
:103A00009F4758F4205D3A483093EB022093EA0236
:103A100080913203886080933203E0902D03F09010
:103A20002E03EC0FFD1FF0932A03E093290389E294
:103A300093E0F801099580912D0390912E03892B35
:103A400031F4E114F10419F081E08093EC02CDB778
:103A5000DEB7E6E00C942D2F863049F4F0E0EE5D01
:103A6000FD4FE491CE2FD0E005E517E1A0CF8930DE
:103A700051F4E695F0E0E15EFD4FE491CE2FD0E009
:103A80000EE818E194CF8F3051F4E695F0E0E45E53
:103A9000FD4FE491CE2FD0E00BEC18E188CF8531BB
:103AA00049F4F0E0E75EFD4FE491CE2FD0E008E569
:103AB00019E17DCFC8E2D0E00DED19E1883109F4BC
:103AC00076CF833239F4E7E1F2E0C591D49105E68F
:103AD00017E16DCFC4EFD1E00FE51AE1843209F4AC
:103AE00066CFC0EDD7E00AE516E1853209F05FCF79
:103AF0008E2F63E00E946A2EE92FF0E0EC5EFD4F0E
:103B0000E491CE2FD0E00CE91AE151CFFA018111F6
:103B100001C0FB0109950895CF93DF93C82FD62FDD
:103B20000E94B1168C1748F00E94B1168D1728F428
:103B30000E941E1CDF91CF9108958C2F0E94311C92
:103B4000F9CF1F93CF93DF93EC01FB011281111189
:103B50001BC00E941B0C8272CD3CFCE5DF0709F400
:103B6000A0C008F045C0C73CECE5DE0709F485C0FD
:103B7000F8F4C43C9CE5D90709F475C050F4C33C83
:103B8000DC4509F46DC011E0812FDF91CF911F91C9
:103B90000895C53C9CE5D90709F46AC042E458E1A0
:103BA00063E378E1C63CDC4571F70E94861DECCFEB
:103BB000CA3CFCE5DF0709F46AC068F4C83CECE5E0
:103BC000DE0709F45FC043E558E164E678E1C93CEB
:103BD000DC4559F3D8CFCB3C9CE5D90709F45CC050
:103BE00045EE56E16DEC76E1CC3CDC45F1F2CBCF15
:103BF000C23DFCE5DF0709F463C098F4CF3C9CE5C7
:103C0000D90709F457C008F451C0C03DFCE5DF07EF
:103C100009F453C0C13DDC4509F0B5CF6EE089E041
:103C20001CC0C53D9CE5D90709F450C058F4C33DFC
:103C3000FCE5DF0709F447C0C43DDC4509F0A3CF2C
:103C400088E135C0C63D9CE5D90709F442C06AE267
:103C500085E2CE35DD4509F096CF0E948C1D94CFCC
:103C60000E943E1C91CF4DE25CE16EE17CE19DCF74
:103C70004EE15CE16DE27CE198CF43E358E162E420
:103C800078E193CF44E658E163E578E18ECF46E8EA
:103C900058E165E778E189CF45E758E166E878E1E2
:103CA00084CF4DEC56E165EE76E17FCF81E00E9456
:103CB000311C6ACF65E082E0D0CF68E086E0CDCFEE
:103CC00064E18FE0CACF67E185E1C7CF62E289E1B5
:103CD000C4CF83E2ECCF80919C038170089586E08D
:103CE00090E00E94BB2F0895682F86E090E00E942C
:103CF000CF2F0895ECE9F3E080818470896180839F
:103D00000E94741E089580919C03869586958695E1
:103D100008950E94020D811104C00E94AF0D0E94FF
:103D20007A1E0E946F1E80939C03803320F0877060
:103D3000886280939C0390919C03892F817090FFEF
:103D400004C0892F8695869586950E94921F0895B6
:103D500080919C03982F969596959695953040F472
:103D60009F5F990F990F990F8770892B80939C0300
:103D700080919C03816080939C030E94741E8091BB
:103D80009C038695869586950E94921F0895809142
:103D90009C03982F987F79F0885080939C03887FAC
:103DA00091E009F490E080919C0390FB80F980936E
:103DB0009C030E94741E80919C038695869586952F
:103DC0000E94921F089580919C0380FD13C0816022
:103DD00080939C03813019F489E080939C03809147
:103DE0009C030E94741E80919C03869586958695FF
:103DF0000E94921F089580919C0380FF08C08E7FCF
:103E000080939C030E94741E80E00E94921F08957C
:103E100080919C0380FF03C00E94FB1E08950E94B6
:103E2000E31E089590919C03892F8695869586952B
:103E30008F5F8F7197708630E0F4880F880F880F3E
:103E4000892B80939C0380919C03887F91E009F4E7
:103E500090E080919C0390FB80F980939C030E94EA
:103E6000741E80919C038695869586950E94921F6C
:103E7000089590939C03E7CF863008F085E09091F9
:103E80009C039770282F220F220F220F922B9093C2
:103E90009C03987F21E009F420E090919C0320FB93
:103EA00090F990939C030E94921F08950E943C1FDA
:103EB00080919C030E94741E08959C01FB018281E5
:103EC000882349F12E3BFCE53F07C9F040F42C3B29
:103ED000ECE53E0769F02D3B3C4579F00895203C28
:103EE0009CE5390791F070F0213C3C4589F008953C
:103EF00085E00E94561F80E0089580E0FACF0E947E
:103F0000C71EF9CF0E94A81EF6CF0E94081FF3CF4C
:103F10000E94121FF0CF81E00895259A2D980895F0
:103F20002D9808958F929F92AF92BF92EF92FF9239
:103F30000F931F93CF93DF93C82F8630C0F5811165
:103F400037C0809180008F77809380000E94901FFF
:103F5000A0918600B09187002C2F30E00E94DC2ECB
:103F600025E030E040E050E00E94AC2E89019A014B
:103F700080918600909187006CE070E00E94842E12
:103F800060177107D8F0C80169E070E00E94842EC4
:103F90007093890060938800DF91CF911F910F91FA
:103FA000FF90EF90BF90AF909F908F900895C5E0E5
:103FB00080918000806880938000CACF80918600C5
:103FC00090918700E0908600F0908700E091860055
:103FD000F0918700C6E0D0E0BE010E94842E060F5B
:103FE000171F211D311D4801590185E0880C991CBE
:103FF000AA1CBB1C8A95D1F7C701BE010E94842E62
:104000009F0150E040E0260F371F411D511DC501A3
:10401000B4010E94AC2E49015A01E0918600F09152
:104020008700CA01B9010E945A2E9B01AC01DF0131
:104030000E94F22E9B01AC01C501B4010E945A2ED0
:104040002FE096958795779567952A95D1F70091FA
:1040500086001091870030E020E006171707280738
:10406000390708F095CF609186007091870090CF56
:1040700008950E948D1F82E88093800089E18093DB
:1040800081008FEF9FEF90938700809386000E94BE
:10409000891E0895569A4BB14F7B5BB15064EFB7C0
:1040A000F8949B01220F331F260F371F280F391F4B
:1040B0002817390741F4EFBF8FE594E00197F1F736
:1040C00000C000000895DC016D91CD0178E05BB97E
:1040D000000000C067FF4BB9660F000000C000C0C1
:1040E00000C04BB900C07A9591F7E2CF0895FC016A
:1040F000680F791F8FEF91E36E177F0709F408951A
:104100002191822728E030E087FF06C0880F8927A9
:1041100021503109C9F7F0CF880FFACFCF93DF9341
:10412000EC01FB018281882309F433C1C430FDE531
:10413000DF07C0F5CB3F9CE5D90730F49E01225044
:104140003C4524313105B0F50E94170D90935C0376
:1041500080935B03C1318CE5D80709F4EEC008F009
:1041600069C0C930ECE5DE0709F4D5C0C8F5C53033
:104170008CE5D80709F4C7C000F5C330ECE5DE07CD
:1041800009F4B9C008F0BBC0C230DC4509F4ADC0C9
:1041900080915B0390915C030E94250D0E941B0798
:1041A00080E008C0C236EDE5DE0771F2C63AFDE5F3
:1041B000DF0751F2DF91CF91089580915B03806218
:1041C000C7309CE5D90709F493C080915B038061F7
:1041D000C830DC4508F48CC080915B03806488C0E3
:1041E00080915B038B7FCD30FCE5DF0709F480C055
:1041F00098F480915B038E7FCB309CE5D90709F45E
:1042000077C080915B038C60CC30DC4508F470C0D3
:1042100080915B038D7F6CC080915B038F7ECF307C
:10422000FCE5DF0709F464C008F47BC080915B0300
:104230008F7D5EC0CE3F9CE5D90709F47AC050F56A
:10424000C531FCE5DF0709F486C098F480915B0373
:10425000837FC3319CE5D90709F44AC008F471C0D3
:104260000E941B0790915B03892F97FB87F9805869
:104270003FC0CC3FFCE5DF0709F449C008F055C05A
:1042800080915C038160CB3FDC4509F081CF809356
:104290005C037ECFC230EDE5DE0709F468C0A8F408
:1042A000C1158DE5D80709F452C080915C03836085
:1042B000C130DD4560F380915C03982F909591703B
:1042C0008E7F892B90FB81F9E2CFC236EDE5DE07C8
:1042D00009F451C0C63AFDE5DF0709F453C0C33005
:1042E000DD4509F055CF80E043C080915B038160DC
:1042F00080935B034DCF80915B038260F9CF809107
:104300005B038460F5CF80915B038860F1CF80917F
:104310005C038260BCCF0E941B0780915B038068B6
:10432000E7CF80915B03877FE3CF80915C038E7F33
:10433000AECF80915C038D7FAACF80915B038F7B92
:10434000D7CF0E941B0780915B038F77D1CF8091DD
:104350005C038C7F9CCF80915B0382FB992790F953
:1043600021E0922790FB82F990FB83F9C1CF81E095
:104370000E94B20D0DCF90915B03892F8F7E94FF29
:104380008061B6CF90915B03892F8E7F90FF816013
:10439000AFCF81E00FCF8FE891E00197F1F700C038
:1043A0000000089581E008950F931F93CF93DF934A
:1043B0009091110181E0982790933703282F291BB2
:1043C000209336039091110180933803909111014D
:1043D0008093350380911101811106C087EF80938E
:1043E0005E0186EF80935D0120915E01E22FE295F0
:1043F000EF70F0E061A12F7081E090E0AC0101C0AE
:10440000440F2A95EAF7342F3095362331A322A1A1
:10441000242B22A320915D01E22FE295EF70F0E0C2
:1044200031A12F7001C0880F2A95EAF7982F909537
:10443000932391A392A1892B82A30E94CB21609107
:1044400038034BE353E0CEE5D1E00DE511E0FA018E
:1044500026C02991822F82958F7090E0DC01909682
:104460008C9190E02F7002C0959587952A95E2F780
:104470008170D8019D918D01292F22952F7030E0F8
:10448000D90190962C9130E09F7002C03595279508
:104490009A95E2F790E020FD92E0892B81938E2F90
:1044A000841B8617B0F2DF91CF911F910F91089571
:1044B000CF92DF92FF920F931F93CF93DF9310E081
:1044C00000E084E0C82ED12C80913803181748F002
:1044D000802FDF91CF911F910F91FF90DF90CF90B0
:1044E0000895C12FD0E0FE01E25AFE4F8081E82FEF
:1044F000E295EF70F0E0E0A1F0E08F7002C0F5957A
:10450000E7958A95E2F7E170DE01A35ABE4F4C9120
:10451000A42FA295AF70B0E090968C9190E04F7070
:1045200002C0959587954A95E2F780FD44C080E0EA
:104530008E2BDE01A55CBC4FEC919E2F93709817DB
:10454000C1F1EE0FEE0FE82BEC93F0903703F10E74
:10455000EF70F0E0EA5FFD4FC75CDC4F808198812F
:10456000890F888320E0843064F0EF2DF0E0ED5C6B
:10457000FC4F80818F5F808360E08F2D0E94C80296
:1045800021E088818D3F64F4EF2DF0E0ED5CFC4F7D
:1045900080818150808361E08F2D0E94C80221E0DC
:1045A0008881082E000C990BB6010E94982E8883F2
:1045B000022B1F5F89CF82E0BBCF4091380350E0D0
:1045C0006091370370E06D5C7C4F0E94B22F0895BC
:1045D000B0E0A0E0EEEEF2E20C940F2F6C01D0E020
:1045E00080E090913503D91740F081110E94CB0DE6
:1045F000CDB7DEB7E8E00C942B2FF0903603FD0E1C
:104600000F2D10E00D5C1C4FF601ED0FF11DC08168
:10461000F8019081C91BEC2E1E1444F09C2FC7FD9D
:1046200090E0C91BC1110DC0DF5FDBCFEA94F80138
:1046300080818F5F808360E08F2D0E94C80281E0BF
:10464000EBCFCF5FF80180818150808361E08F2DB7
:104650000E94C80281E0E6CFCF93DF93EB01863161
:104660009C4511F50E941B0C9A81992399F08A7A36
:1046700091E009F490E090933D03811109C089E233
:104680000E94F30B0E945C0C80E0DF91CF910895B3
:1046900085E3F6CF80913D03811104C089E20E9439
:1046A000FB0BF0CF85E3FBCF81E0EFCF0F931F93A0
:1046B000CF93DF93C42FD22FFC0182818823C9F0CE
:1046C000409340030E94152790933F0380933E033D
:1046D00080E28C0F883040F4C77081E001C0880F01
:1046E000CA95EAF70E94B104DF91CF911F910F9113
:1046F000089510914003141332C080913E039091AD
:104700003F030E942D27883C910548F5C0E2CD0F5C
:104710001D17B9F080E2810F883040F4177081E0F6
:1047200001C0880F1A95EAF70E94B804C83048F40F
:1047300081E09D2F977001C0880F9A95EAF70E943B
:10474000B104802F0E94A804C83070F6D77081E0B1
:1047500001C0880FDA95EAF70E94B804C5CF80E25D
:104760008C0F883008F6C77081E001C0880FCA95A9
:10477000EAF7F2CF0F939C01CB01243F4CE53407BD
:1047800059F1A8F4293DFCE53F0701F12A3D4CE52C
:104790003407D1F1283D3C4591F406E221EE41EE8B
:1047A00068ED7CE50E94562380E00F910895263F36
:1047B000FCE53F07E9F0B0F0273F3C45F9F0FC018C
:1047C0008281882339F110924003EFCF07E225EE72
:1047D00045EE69ED7CE5E6CF06E221EE40EE64EFC2
:1047E0007CE5E0CF07E225EE44EE65EF7CE5DACF2D
:1047F00006E221EE42EE66EF7CE5D4CF07E225EE3D
:1048000046EE67EF7CE5CECF08E221E045EE6AEDAB
:104810007CE5C8CF81E0C9CF8EE1489B02C08150C2
:10482000E1F7489BFECF0895589880E28A95F1F70A
:10483000589A0895FC013BE03A95F1F798E020E0A2
:1048400080E031E040E14A95F1F7880F489B02C0D3
:104850008160232742E04A95F1F7000040E14A9544
:10486000F1F7915079F790E19A95F1F799B132E02B
:104870003A95F1F7000040E14A95F1F791709227DF
:104880002081920F90830895A1E0B0E0EAE4F4E281
:104890000C94112F19828C017C01E60EF11C0E156F
:1048A0001F0541F481E09981911180E02196E6E0B5
:1048B0000C942D2F0E940C24CE0101960E941A24E4
:1048C000F80181938F01EBCF509A589A0895509830
:1048D000589AE89AE9E6F0E080818C7F8083089519
:1048E0006150770B91E001C0990F6A95EAF720E0DB
:1048F00031E0911108C0222391F0589A80E28A9504
:10490000F1F758980895492F482339F0589A2327EA
:1049100040E24A95F1F79695ECCF5898F9CF589820
:10492000EDCFFF920F931F93CF93DF93EC018C0198
:10493000060F111DC017D10729F4CDB7DEB7E5E08A
:104940000C942E2FF9900E94142468E08F2D0E9461
:104950007024F0CF1F920F920FB60F9211240F9375
:104960001F932F933F934F935F936F937F938F93F7
:104970009F93AF93BF93EF93FF93CF93DF930F92E8
:10498000CDB7DEB719820E940C24CE0101960E9499
:104990001A24082F069506950695282F229525702E
:1049A000902F9570290F922F937026952695920F30
:1049B000982797708981982B09F05CC0083008F01F
:1049C00059C080E18A95F1F7589A509A82E08A9509
:1049D000F1F700C0589888E0089F80011124D801A1
:1049E000AE5EBE4F1696ED91FC9117973097A9F0E9
:1049F0006091D9017091DA0114962D913C9115972F
:104A0000260F371F11968D919C911297680F791F71
:104A100013964C9113978C910995F801EE5EFE4F19
:104A20006381662351F02091D9013091DA018481AC
:104A30009581820F931F0E9491240E94142480E18B
:104A40008A95F1F758985098589A80E18A95F1F72D
:104A5000F801EE5EFE4F6081662351F02091D9018E
:104A60003091DA0181819281820F931F0E94442448
:104A70000E940C240F90DF91CF91FF91EF91BF9195
:104A8000AF919F918F917F916F915F914F913F91E6
:104A90002F911F910F910F900FBE0F901F9018959F
:104AA0000F931F93CF93DF93EC0108970CF04CC04A
:104AB000F894509A589885E08A95F1F700009C2F59
:104AC000969595708C2F8570980F892F8370969589
:104AD000969523E0CC0FDD1F2A95E1F7980F8E0104
:104AE000092B0E94142400C068E0802F0E947024CB
:104AF00080E18A95F1F75098589A489B1EC087E04C
:104B000090E048991CC0FE01EE5EFE4F6381662373
:104B1000F9F02091D9013091DA0184819581820FD9
:104B2000931F0E944424811113C0509A589A78947C
:104B3000DF91CF911F910F91089500C0DECF0197B3
:104B400029F4509A589A789480E0F2CF00C0D9CFD7
:104B50000E940C2480E28A95F1F75898509A80E1DF
:104B60008A95F1F7CE5EDE4F6881662351F0209181
:104B7000D9013091DA0189819A81820F931F0E94B5
:104B800091240E941424789481E0D2CF909317024C
:104B900080931602089590934703809346030895E7
:104BA0000E94CB12811103C0809141030895E091CE
:104BB0004603F0914703309729F00190F081E02DF2
:104BC0000995089580E00895E0914603F091470328
:104BD000309721F00280F381E02D0995089520910E
:104BE0004403309145032817390771F0909345032A
:104BF00080934403E0914603F0914703309721F0FE
:104C00000680F781E02D09950895209142033091A7
:104C100043032817390771F09093430380934203AD
:104C2000E0914603F0914703309721F00084F1852D
:104C3000E02D099508959C012E5F3F4FAC01485F20
:104C40005F4F80E02417350709F40895F901919129
:104C50009F019923B9F38F5FF5CF662349F0FC01DB
:104C6000329608962191261729F0E817F907D1F70F
:104C700080E0089581E008959C01FC0132969FEF49
:104C800080E04191461751F09F3F19F4411101C056
:104C9000982F8F5F8630A9F79F3F09F40895290F59
:104CA000311D97FD3A95F90162830895FC01329612
:104CB00008962191261303C0DF0111971C92E81773
:104CC000F907B9F708950E943C2608950E945626D8
:104CD0000895029626E0FC0111922A95E9F70895BD
:104CE00008950E9470260895811106C081E0809386
:104CF00048030E947126089582E0F9CF83E08093F3
:104D000048030E94712608950E947426089581E048
:104D1000809348030E94712608950E948726089573
:104D2000089508950E9491260895089508950E9477
:104D300090260895CF930E9495260E944B120E94C0
:104D40009626C0E08C2F0E94F110811105C0CF5F24
:104D5000CA30C1F7CF91089581E0FCCF85B7806854
:104D600085BF85B7806885BF08951F921FB61F92C3
:104D700011248F939F93AF93BF9380914903811127
:104D800013C080919D0390919E03A0919F03B091C9
:104D9000A0034196A11DB11D80939D0390939E0396
:104DA000A0939F03B093A003BF91AF919F918F9168
:104DB0001F901FBE1F9018958091A503843031F17C
:104DC0000E94B1031092490388E190E020E40FB6FD
:104DD000F894A895809360000FBE2093600083B77D
:104DE000817F846083BF83B7816083BF7894889517
:104DF00083B78E7F83BF0FB6F894A895809160002B
:104E0000886180936000109260000FBE08950E9438
:104E10001B070E94B903089582E084BD93E095BD0D
:104E20009AEF97BD80936E0008952FB7F894809104
:104E30009D0390919E03A0919F03B091A0032FBF6B
:104E400008952FB7F89460919D0370919E0380910F
:104E50009F039091A0032FBF08959C014FB7F89432
:104E600080919D0390919E03A0919F03B091A00318
:104E70004FBF821B930B0895CF92DF92EF92FF9268
:104E80002FB7F894C0909D03D0909E03E0909F03AD
:104E9000F090A0032FBFA7019601261B370B480BEC
:104EA000590BCA01B901FF90EF90DF90CF900895A0
:104EB00078941F921FB61F9211248F939F93AF93E4
:104EC000BF9380919D0390919E03A0919F03B09109
:104ED000A0030196A11DB11D80939D0390939E0395
:104EE000A0939F03B093A003BF91AF919F918F9127
:104EF0001F901FBE1F90189581E08093E00080E214
:104F00008093D8001092C9008FE19EE40197F1F7D9
:104F100000C0000087E090EBDC018093AE0390932B
:104F2000AF03A093B003B093B10388E19CE00FB648
:104F3000F894A895809360000FBE90936000FFCF17
:104F400088E19CE00FB6F894A895809360000FBEAE
:104F500090936000FFCF8091550308950895CF93FB
:104F6000DF93EC0181E08093E9008FEF9091E800FE
:104F7000815095FD06C095ED9A95F1F700008111DD
:104F8000F5CF8091E80085FF14C050E040E068E074
:104F900070E0CE010E94C1298091E8008E77809355
:104FA000E80088E0FE01ADE4B3E001900D928A953F
:104FB000E1F7DF91CF91089580934A0370934C03FA
:104FC00060934B038091A503843001F582E08093C8
:104FD000E9008FEF9091E800815095FD06C095EDB6
:104FE0009A95F1F700008111F5CF8091E80085FFD7
:104FF0000DC050E040E063E070E08AE493E00E947E
:10500000C1298091E8008E778093E8000895BC0163
:1050100084E00E94DC270895BC0183E00E94DC2725
:10502000089508958091A403811109C00E94512B15
:105030000E94AE2B8091E20084608093E20008958C
:105040001092A40308950E94872608956091A103F9
:1050500081E0611101C080E00E947E260895909158
:10506000A50381E0943009F080E06091A1030E94E3
:105070008426089542E061EC81E00E94CD2A42E25C
:1050800061EC82E00E94CD2A9091A50381E09430EA
:1050900009F080E06091A1030E9474260895809138
:1050A000A703833009F461C030F48130D1F182303C
:1050B00009F49EC008958A3009F48AC08B3009F43F
:1050C0006FC0893009F050C08091A603813209F089
:1050D0004BC08091AA039091AB03029708F044C0A3
:1050E0008091E800877F8093E8008091E80082FF4C
:1050F00037C09091F3008091F200029731F48091D3
:10510000F100813011F0863021F48091F10080931C
:1051100055038091E8008B778093E8000E94012B73
:1051200023C08091A603813AF9F48091E800877F3B
:105130008093E8008091AA039091AB03892B61F4DE
:1051400068E08DE493E070E00E94102A8091E8000E
:105150008B778093E800089560E090E080E0F3CFE3
:105160008091A5038111C1CF08958091A603813A52
:10517000D9F78091AA039091AB03892BA9F780916D
:10518000E800877F8093E8008091E80080FFFCCFF3
:1051900080916B018093F1008091E8008E77BCCF05
:1051A0008091A603813201F78091AA039091AB030D
:1051B000892BD1F68091E800877F8093E8000E94D8
:1051C000012B8091A80380936B010E941B07089517
:1051D0008091A603813241F68091E800877F809319
:1051E000E8000E94012B8091A90380935603089543
:1051F0008091A603813A09F0B7CF8091E800877FBC
:105200008093E8008091E80080FFFCCF80915603F6
:10521000C1CF84B7877F84BF0FB6F894A8958091DB
:105220006000886180936000109260000FBE80E88B
:1052300090E00FB6F89480936100909361000FBEE8
:105240000E948D2608950E94512B0E94AE2BE2EE03
:10525000F0E080818460808378940E942D2E0895F0
:105260008FE591E00E94CB2508958091A5038530BC
:1052700031F48091A503853019F00E940727089525
:105280000E94DC268091A303882399F30E949A262A
:10529000882379F30E94AB290E941B07EACF089567
:1052A0000E9453290895292F33272330310519F1FE
:1052B00068F42130310509F444C02230310509F485
:1052C00045C090E080E030E020E025C0213231058B
:1052D00049F122323105A9F780E490E02BED34E06A
:1052E00061157105C1F082E390E029EA34E0613094
:1052F000710589F0E6CF99278130910581F00097FB
:1053000029F00297F1F6EEE2F4E002C0E8E5F4E0FD
:10531000849190E09F01FA01318320830895E8E4AD
:10532000F4E0F6CF89E090E02EE634E061157105F7
:1053300091F389E090E027E834E06130710559F39A
:10534000C0CF82E190E027E934E0E5CF8BE390E045
:105350002CE534E0E0CF80E189BD82E189BD09B46C
:1053600000FEFDCF8091D8008F7D8093D800809182
:10537000E00082608093E0008091E00081FDFCCF3E
:105380000895AF92BF92CF92DF92FF920F931F9337
:10539000CF93DF936C01EB018A010E94202BF82E42
:1053A000811123C00115110539F0F8018081918127
:1053B000C81BD90BC80ED91EB12CA12C2097A9F05F
:1053C0008091E80085FD22C08091E8008E7780936F
:1053D000E80001151105A1F0F80180819181A80E66
:1053E000B91EB182A08285E0F82E8F2DDF91CF917A
:1053F0001F910F91FF90DF90CF90BF90AF900895D5
:105400000E94202B8823D1F2F82EEFCFF601819154
:105410006F018093F1002197FFEFAF1ABF0ACECF43
:10542000FC018091AC039091AD0386179707A0F023
:105430006115710529F49091E8009E779093E8003A
:1054400090E06115710551F4911108C08091E80058
:1054500082FF34C080E00895BC01F2CF8091A503A3
:105460008823C1F18530C1F18091E80083FD30C00F
:105470008091E80082FDEACF8091E80080FFE1CFD3
:105480008091F3002091F200382F6115710519F019
:105490002830310558F091E02830310509F090E0CE
:1054A0002091E8002E772093E800CBCF8191809364
:1054B000F100615071092F5F3F4FE7CF8091A50345
:1054C000882341F0853041F08091E80083FFBECF12
:1054D00081E0089582E0089583E00895FC018091C1
:1054E000AC039091AD0386179707A0F06115710585
:1054F00029F48091E8008E778093E80090E06115B0
:10550000710551F4911108C08091E80082FF35C007
:1055100080E00895BC01F2CF8091A5038823C9F1F2
:105520008530C9F18091E80083FD31C08091E800A9
:1055300082FDEACF8091E80080FFE1CF8091F30007
:105540002091F200382F6115710519F028303105CE
:1055500058F091E02830310509F090E08091E800A2
:105560008E778093E800CBCF84918093F1003196C1
:10557000615071092F5F3F4FE6CF8091A5038823CB
:1055800041F0853041F08091E80083FFBDCF81E09C
:10559000089582E0089583E00895982F973028F0C9
:1055A0008F708093E90081E008959093E900242FA3
:1055B000762F50E0981731F07091EC002091ED00BB
:1055C0005091F00021FD02C09F5FE8CF3091EB00C9
:1055D0003E7F3093EB003091ED003D7F3093ED0046
:1055E0003091EB0031603093EB007093EC0020932E
:1055F000ED005093F0002091EE0027FDE5CF80E014
:1056000008958091A60387FF13C08091E80082FF70
:1056100006C08091E8008B778093E80004C08091F9
:10562000A5038111F2CF08958091A5038823D9F3B2
:105630008091E80080FFF8CF8091E8008E77ECCF72
:105640002091E4003091E50095E6A9012091EC005D
:10565000822F817020FF06C08091E80080FF06C085
:1056600080E008952091E80022FD1AC08091A503F2
:10567000882389F0853089F08091EB0085FD0FC08B
:105680002091E4003091E50042175307F9F2915060
:10569000E1F684E0089582E0089583E0089581E0D2
:1056A00008950E94C02B0E94C82BE0EEF0E080819C
:1056B00081608083E8EDF0E080818F77808319BC82
:1056C000A7EDB0E08C918E7F8C9380818F7E80835C
:1056D0001092A40308950F931F93CF93DF930E941A
:1056E000C02B0E94C82BC8EDD0E088818F778883BB
:1056F00088818068888388818F7D888319BC109217
:10570000A5031092A1031092A3031092A20300EE2E
:1057100010E0F80180818B7F80838881816088839D
:1057200042E060E080E00E94CD2AE1EEF0E080817E
:105730008E7F8083E2EEF0E08081816080838081D3
:1057400088608083F80180818E7F8083888180617A
:105750008883DF91CF911F910F910895E8EDF0E0DC
:1057600080818F7E8083E7EDF0E08081816080839F
:1057700084E082BF81E08093A4030E946B2B089594
:10578000E8EDF0E080818E7F80831092E200089542
:105790001092DA001092E10008951F920F920FB656
:1057A0000F9211242F933F934F935F936F937F93A7
:1057B0008F939F93AF93BF93EF93FF938091E100FB
:1057C00082FF0BC08091E20082FF07C08091E10060
:1057D0008B7F8093E1000E942C2E8091DA0080FF65
:1057E00019C08091D80080FF15C08091DA008E7FAB
:1057F0008093DA008091D90080FF96C080E189BD56
:1058000082E189BD09B400FEFDCF81E08093A5034C
:105810000E9412288091E10080FF19C08091E2006F
:1058200080FF15C08091E2008E7F8093E20080911E
:10583000E20080618093E2008091D80080628093D2
:10584000D80019BC85E08093A5030E94262880918A
:10585000E10084FF2BC08091E20084FF27C080E13B
:1058600089BD82E189BD89B5982F917080FFFBCFFA
:105870008091D8008F7D8093D8008091E1008F7E49
:105880008093E1008091E2008F7E8093E20080911E
:10589000E20081608093E2008091A103882309F4F3
:1058A00049C084E08093A5030E942F288091E100E5
:1058B00083FF29C08091E20083FF25C08091E10031
:1058C000877F8093E10082E08093A5031092A1037B
:1058D0008091E1008E7F8093E1008091E2008E7FD5
:1058E0008093E2008091E20080618093E20042E0D8
:1058F00060E080E00E94CD2A8091F0008860809373
:10590000F0000E942328FF91EF91BF91AF919F91EA
:105910008F917F916F915F914F913F912F910F9058
:105920000FBE0F901F90189519BC1092A5030E94EE
:10593000202870CF8091E30087FD93E09093A5032A
:10594000B3CF1F920F920FB60F9211242F933F9354
:105950004F935F936F937F938F939F93AF93BF9377
:10596000CF93DF93EF93FF93D091E900DF708091A5
:10597000EC00C82FC17080FDC0E81092E900809152
:10598000F000877F8093F00078940E94E52C1092BD
:10599000E9008091F00088608093F000CD2BCF70FB
:1059A000C093E900FF91EF91DF91CF91BF91AF914B
:1059B0009F918F917F916F915F914F913F912F9127
:1059C0000F900FBE0F901F901895AAE2B0E0EBEE7B
:1059D000FCE20C94142F86EA93E02091F100FC0184
:1059E0002193CF01F3E08E3A9F07B9F70E944F2829
:1059F0008091E80083FF1EC18091A6039091A703C8
:105A00009A3008F017C1E92FF0E0E05DFF4C0C94EC
:105A1000CE2E803899F0823809F00CC18091AA030B
:105A20008F70873008F006C18093E9008091EB0009
:105A300085FB882780F91092E90006C08091A203B7
:105A40009091A303911182609091E800977F9093C9
:105A5000E8008093F1001092F1008091E8008E77C9
:105A6000E5C0882309F4D3C0823009F0E3C08091F7
:105A7000A8038111D6C08091AA038F702FEF280F41
:105A8000263008F0D7C08093E9002091EB0020FF7A
:105A9000C8C0933031F48091EB0080628093EB00BA
:105AA000C0C09091EB0090619093EB0021E030E05A
:105AB00001C0220F8A95EAF72093EA001092EA00CB
:105AC0008091EB008860EACF8111B4C01091A803E7
:105AD0001F778091E3008078812B8093E300809191
