:100000000C94DB030C9429310C9422040C942204EC
:100010000C9422040C9422040C9422040C942204C8
:100020000C9422040C9422040C94C0200C94751F90
:100030000C94B2220C9422040C9422040C942204FA
:100040000C9422040C9422040C9422040C94220498
:100050000C9422040C9449220C9422040C94220443
:100060000C9422040C9422040C9422040C94220478
:100070000C9422040C9422040C9422040C94220468
:100080000C9422040C9422040C9422040C94220458
:100090000C9422040C9422040C9422040C94220448
:1000A0000C9422040C9422040C9422041A091A09B8
:1000B0004C094C09BE09660B660B660BDA09B80AD7
:1000C000C90AC90AC51CEC1C901EEC1C901E381DE8
:1000D0005B1D901E511E601EEE27EE270128012891
:1000E000F727012801280128EE27EE27FC27012801
:1000F0000128FC27726762206D6174726978207430
:100100006F67676C65205B25735D3A207267625F7D
:100110006D61747269785F636F6E6669672E656E74
:1001200061626C65203D2025750A004445425547B3
:100130003A2064697361626C65642E0A004445422A
:1001400055473A20656E61626C65642E0A000A00AC
:100150002530325820006B6579626F6172645F727E
:1001600065706F72743A2000546172676574206321
:100170006F6E6E65637465640D0A00546172676525
:100180007420646973636F6E6E65637465642C209C
:100190007468726F74746C696E6720636F6E6E65DD
:1001A0006374696F6E20617474656D7074730D0A89
:1001B000004661696C656420746F206578656375BD
:1001C00074652025730A007267625F6D61747269DD
:1001D000785F636F6E6669672E666C616773203D3A
:1001E0002025640A007267625F6D61747269785FCE
:1001F000636F6E6669672E7370656564203D2025A8
:10020000640A007267625F6D61747269785F636F20
:100210006E6669672E6873762E76203D2025640A07
:10022000007267625F6D61747269785F636F6E669A
:1002300069672E6873762E73203D2025640A00724C
:1002400067625F6D61747269785F636F6E6669671C
:100250002E6873762E68203D2025640A007267623E
:100260005F6D61747269785F636F6E6669672E6D2A
:100270006F6465203D2025640A007267625F6D61CE
:10028000747269785F636F6E6669672E656E61620E
:100290006C65203D2025640A007267625F6D6174A1
:1002A0007269785F636F6E66696720454550524F8B
:1002B0004D0A007267625F6D61747269785F696E82
:1002C00069745F64726976657273207267625F6DCC
:1002D00061747269785F636F6E6669672E6D6F64B3
:1002E00065203D20302E2057726974652064656654
:1002F00061756C742076616C75657320746F204530
:100300004550524F4D2E0A007267625F6D617472E4
:1003100069785F696E69745F64726976657273206B
:100320006565636F6E666967206973206E6F742000
:10033000656E61626C65642E0A005B735D000A0085
:1003400025303862003A200025303258000A722FDA
:10035000632030313233343536370A000A00253015
:100360003258006B6579626F6172645F7365745FA8
:100370006C65643A20000631FF0974A10109751506
:100380000026FF009520750881020976150026FFDA
:1003900000952075089102C005010980A10185031F
:1003A00019012AB700150126B700950175108100C3
:1003B000C0050C0901A101850419012AA00215013B
:1003C00026A002950175108100C005010906A10152
:1003D000050719E029E71500250195087501810237
:1003E0009501750881010507190029FF150026FFF1
:1003F0000095067508810005081901290595057500
:10040000019102950175039101C009025B0003018E
:1004100000A0FA09040000010301010009211101F3
:1004200000012240000705810308000A09040100B9
:10043000010300000009211101000122320007051B
:10044000820320000A0904020002030000000921BF
:100450001101000122220007058303200001070586
:100460000303200001120100020000000810CB5617
:10047000620006010200011803490072006900735E
:100480000020005200650076002E0020003600009B
:10049000000E034B0065006500620069006F0000FC
:1004A0000004030904726762206D61747269782028
:1004B000736574207370656564205B25735D3A20F5
:1004C00025750A00726762206D6174726978207305
:1004D000657420687376205B25735D3A2025752C42
:1004E00025752C25750A00726762206D617472692A
:1004F00078206D6F6465205B25735D3A2025750A51
:10050000005B435D005B445D005B535D005B575DDA
:10051000005B525D0029001E001F00200021002208
:10052000002B0014001A00080015001700E000045A
:10053000001600070009000A00E1001D001B00066C
:10054000001900050000000000E3002D0001510229
:10055000512A002700260025002400230031001323
:100560000012000C0018001C00340033000F000EB5
:10057000000D000B00280038003700360010001175
:100580000000000000F3002C00F100F20035000133
:100590000001000100010001003A003B003C003D69
:1005A000003E003F0040004100420043004400453F
:1005B00000E1000100010001000100010000000055
:1005C0000000000000000000002E000100010049B2
:1005D000000100010030002F004F08520050084B6E
:1005E00000010001004F00510050004E00010001C9
:1005F00000010001000100010000000000000000F7
:100600000000000000C35CCE5C00000000000000A1
:10061000000000C45CC65CC85CCA5CCC5C0000C561
:100620005CC75CC95CCB5CCD5C00000000000000D6
:1006300000000000000000000000000000000000BA
:10064000004C0000005600550054002A0000000035
:10065000005700610060005F005800580085005E90
:10066000005D005C005800580067005B005A0059AC
:10067000000000000063006200000000004F6E6593
:1006800073686F743A206163746976653A202564F3
:100690000A0000010101010101010101020202023F
:1006A000020202020203030303030303030404041C
:1006B00004040404050505050506060606060707E5
:1006C00007070708080808090909090A0A0A0B0B9D
:1006D0000B0C0C0C0D0D0D0E0E0E0F0F0F1010113C
:1006E00011111212131314141515161617171818C2
:1006F00019191A1A1B1B1C1D1D1E1E1F202021222A
:1007000022232424252626272829292A2B2C2D2D6F
:100710002E2F30313232333435363738393A3B3C8C
:100720003D3E3F404142434445464748494A4C4D7F
:100730004E4F50515354555658595A5B5D5E5F6148
:100740006264656668696B6C6D6F707273757778DB
:100750007A7B7D7E8082838587888A8C8E8F919339
:100760009596989A9C9EA0A2A3A5A7A9ABADAFB160
:10077000B3B5B7BABCBEC0C2C4C6C9CBCDCFD1D445
:10078000D6D8DBDDDFE2E4E7E9EBEEF0F3F5F8FAEB
:10079000FDFF6565636F6E6669675F7570646174A0
:1007A000655F7267625F6D61747269785F646566C8
:1007B00061756C740A0011241FBECFEFDAE0DEBF52
:1007C000CDBF04B603FE27C0809134059091350556
:1007D000A0913605B09137058730904BA740B04BBC
:1007E000D1F410923405109235051092360510920E
:1007F000370514BE84B7877F84BF0FB6F894A895D9
:1008000080916000886180936000109260000FBE4C
:10081000E0E0F8E3099513E0A0E0B1E0EAE1F7E6F3
:1008200002C005900D92A030B107D9F725E0A0E0F5
:10083000B3E001C01D92A433B207E1F70E94B613E2
:100840000C948B330C940000FF93EF93E091000322
:10085000F0910103309709F00995EF91FF91089508
:10086000FC018591803011F0EFDFFBCF0895FF2769
:10087000E0E230E247FF0CC0419597FF09C0EDE28E
:100880006095709580959095611D711D811D911DDC
:1008900027FF02C0219530E350E2AA27660F771F99
:1008A000881F991FAA1FA41710F0A41B63955A95BF
:1008B000A9F7AA3008F0A95FA05DAF93F395611581
:1008C00071058105910541F7ED3211F4EF93F39530
:1008D000F21718F43F93F395FBCF8F91B5DFFA959C
:1008E000E1F70895E991F9918591803021F0853201
:1008F00019F0AADFF9CF089520E0E8945591553218
:10090000C1F3503311F4689455915A3348F450535D
:1009100090F3220F022E220F220F200D250FF4CF6D
:100920000EF4219589919991533619F3533729F192
:10093000533559F1BC0188279927E8945C3621F496
:100940008991999168945591543639F446EF7EF027
:1009500077FF0DC08FEF9FEF0AC055374AE039F09F
:10096000583540E121F0523642E009F00895FF93F6
:10097000EF937DDFEF91FF91B7CFFF93EF93FC01F2
:1009800081918030B9F360DFFBCFFF93EF9368DF95
:10099000F1CFDF93CF93CDB7DEB72596A3DFCF910D
:1009A000DF910895882371F19CEF980F913A60F4DC
:1009B000E3E0F3E09281891301C01282319693E063
:1009C000E930F907B9F70DC090E2980F983058F464
:1009D000982F977081E001C0880F9A95EAF70E94DE
:1009E00095120C949C129BE5980F933020F480E0B4
:1009F00090E00C940B23885A873120F480E090E03B
:100A00000C94F5220895CF93882309F453C09CEFEA
:100A1000980F913AF8F4C82FE5E0F3E08BE093E00B
:100A20002191C21721F08E179F07D1F70DC0E3E087
:100A3000F3E08281C81301C01282319643E0E930AD
:100A4000F407B9F70E949C126C2F83E093E00E9498
:100A5000DB2213C090E2980F983090F4877021E069
:100A600030E0A90102C0440F551F8A95E2F7CA0180
:100A700090910D03892B80930D03CF910C949C12C0
:100A8000EBE5E80FE33040F4F0E0E356FE4F808101
:100A900090E0CF910C940B23885A873158F4E82FBB
:100AA000F0E0EE0FFF1FE056FE4F80819181CF9165
:100AB0000C94F522CF9108951F93CF93DF93CDB778
:100AC000DEB767970FB6F894DEBF0FBECDBF4B8B76
:100AD0005C8B6D8B7E8B8F8B611110920C0386E08B
:100AE0009E01235F3F4FD901E82F1D92EA95E9F758
:100AF00095E0FE017396D90101900D929A95E1F768
:100B00009C894E895F897B897D879E876F87598BFA
:100B1000488BF901DE01179601900D928A95E1F755
:100B2000CE0107960E94052881113EC086E0FE0195
:100B30003796DE01119601900D928A95E1F7FF81BB
:100B4000E8856A857B856115710531F0EF3F31F4E9
:100B500081E0FF3F19F403C081E001C080E080FD27
:100B600023C02091070430E0C901019687709927BE
:100B70004091380450E08417950779F1F983EA83AE
:100B80007D836C8396E0929FD001939FB00D1124DA
:100B9000A85FBB4FFE01319601900D929A95E1F747
:100BA000809307040E94EE2616E08091380490910D
:100BB00007048917F9F0189FC0011124885F9B4F23
:100BC0000E9405288823B1F08091380490E00196B6
:100BD0008770992780933804E8CF0E94A52A109245
:100BE000070410923804E1E0F4E086E0DF011D9292
:100BF0008A95E9F767960FB6F894DEBF0FBECDBFB2
:100C0000DF91CF911F9108958F929F92AF92BF92E3
:100C1000CF92DF92EF92FF920F931F93CF93DF93C8
:100C2000CDB7DEB72A970FB6F894DEBF0FBECDBFA3
:100C3000FC010081D18083819481892B39F01FEFE1
:100C4000D11206C091E00F3F19F403C091E001C03A
:100C500090E090FD04C67F0185E0DE0116960190CC
:100C60000D928A95E1F7F70122818E819F812223DF
:100C700049F00E946427182F682F8E819F810E945F
:100C8000D32903C00E94A629182F2CE3129FF0013C
:100C9000112436E0D39EE00DF11D1124E00FF11D6B
:100CA000EE0FFF1FEB5EFA4F05911491043F8CE5A8
:100CB000180759F190F4093DECE51E07E9F00A3DEB
:100CC000FCE51F07A1F1083D2CE51207B1F506E28E
:100CD00021EE41EE68ED7CE514C0063F3CE51307CC
:100CE00001F1C8F0073F9CE5190739F507E225EE49
:100CF00046EE67EF7CE505C007E225EE45EE69EDBF
:100D00007CE5C7010E94312304C206E221EE40EED9
:100D100064EF7CE5F6CF07E225EE44EE65EF7CE577
:100D2000F0CF06E221EE42EE66EF7CE5EACF08E284
:100D300021E045EE6AED7CE5E4CFF701828188236E
:100D400009F445C11092C6030430FDE51F0758F4AD
:100D50000B3F2CE5120760F4C80182509C45449774
:100D600008F01FC105C002363DE5130709F019C19F
:100D70000E941312909351038093500300318CE52D
:100D8000180709F4CAC008F041C00830ECE51E0796
:100D900009F4A4C0F0F404302CE5120709F48CC067
:100DA00068F402308CE5180709F482C003301C4552
:100DB00009F0E7C0809150038260E1C00630ECE5A5
:100DC0001E0709F483C008F085C080915003886035
:100DD000D6C00C302CE5120709F490C068F40A3034
:100DE0008CE5180709F47EC008F084C00E94A52A8B
:100DF000809150038068C3C00E30ECE51E0709F4F3
:100E000081C008F086C08091500394C00D3F2CE54E
:100E1000120709F47BC038F504318CE5180709F492
:100E20009AC058F40231ECE51E0709F47AC008F0C4
:100E30007EC0809150038F7BA2C00B3F2CE5120730
:100E4000F1F108F03FC005311C4509F09AC08091CE
:100E5000500382FB222720F991E0922790FB82F930
:100E600090FB83F98CC001309DE5190709F467C038
:100E700050F4809151030F3FFCE51F07C1F108F0CA
:100E80005BC08D7F65C003303DE5130709F471C079
:100E900008F46DC002361D4509F073C080915003FF
:100EA00084FB222720F991E0922790FB84F967C008
:100EB00080915003816063C08091500316C080917F
:100EC000510316C080915103826042C0809150034B
:100ED000806155C080915003806251C08091500361
:100EE00080644DC0809150038860846048C08260F7
:100EF00081602EC0809150038E7F41C0809150034D
:100F00008D7F3DC080915003877F39C08091510310
:100F100014C0809150038F7E32C0809150038F7D2A
:100F20002EC00E94A52A809150038F7728C08091FF
:100F30005003877F8B7F23C08D7F8E7F09C0809178
:100F40005103982F909591708E7F892B90FB81F99A
:100F50008093510316C00E94A52A8091500387FBFD
:100F6000222720F991E0922790FB87F908C061E0E1
:100F700001C060E08EE090E00E94D63202C0809313
:100F80005003609150031091510384E090E00E945F
:100F9000D632612F82E290E00E94D6320E94A52ACA
:100FA000B8C006312CE5120761F580910D038A7AED
:100FB00091E009F490E090930203882311F065E337
:100FC00001C069E283E093E00E94DB2217C0063192
:100FD000FCE51F0709F085C080910203882309F40E
:100FE000B2C385E3E3E0F3E029E033E092818913C3
:100FF00001C0128231962E173F07C1F70E949C1242
:1010000088C00F3D9CE5190709F45CC048F4011540
:10101000FCE51F07A9F001301C4509F440C0AEC033
:101020000C353DE5130709F458C00D358DE518075B
:1010300009F44BC00B351D4509F0A0C081E04EC03E
:101040000E94A52AEFEFF4E30CE0E150F0400040ED
:10105000E1F700C0000081E08093E00080E280932F
:10106000D8001092C9008FE19EE40197F1F700C00B
:10107000000087E090EBDC01809334059093350508
:10108000A0933605B09337059CE088E10FB6F8943D
:10109000A895809360000FBE90936000FFCF809171
:1010A000BD03982F9095917090FB80F98093BD03BC
:1010B000992319F08DE391E002C08BE291E00E9448
:1010C000300427C00E94241224C08091510382FB67
:1010D000882780F991E0892701C080E00E944B2A8F
:1010E0004DC080910D0382720B3CECE51E0709F4A4
:1010F0009FC390F1003DFCE51F0709F4ACC308F461
:1011000039C3073D2CE5120708F446C30E351D45CB
:10111000A9F580913904877009F4A1C3F701828190
:10112000882309F49CC38091510382FD98C382E017
:101130002A960FB6F894DEBF0FBECDBFDF91CF91D8
:101140001F910F91FF90EF90DF90CF90BF90AF90E5
:101150009F908F900C942E2A063C2CE5120709F4E0
:1011600053C308F0F2C2043C9CE5190709F442C3DA
:1011700008F045C3033C1C4509F414C3F701828100
:101180000081D180882359F0802F9D2D0E946427F3
:10119000182F682F802F9D2D0E94D32905C0802FE6
:1011A0009D2D0E94A629182F2CE3129FF0011124D7
:1011B00036E0D39EE00DF11D1124E00FF11DEE0F7E
:1011C000FF1FEB5EFA4F859194910E9432108C01C3
:1011D000982EF701D280A580A2943FE0A3228091AF
:1011E00039048770B9F0DD20A9F0812F807F803429
:1011F00021F080E2800F883068F08091510382FDF9
:1012000009C082E00E942E2A809139048770CC2484
:10121000C3948111C12CB12EB2949FE0B9228B2DC1
:1012200090E08C30910508F051C2FC01EA5AFF4F62
:101230000C944D33812F807F1F70882311F01295FD
:10124000107FDD20B9F0112309F42DC280E2800F58
:10125000883010F0911006C080910D03182B109368
:101260000D0305C080910C03182B10930C030E94F2
:101270009C1219C2802F0E94D204112309F426C2A5
:10128000005E083078F1992069F1109580910C0387
:10129000182310930C0329C0812F807F1F70803288
:1012A00011F01295107F992021F0F1E09F16D9F1ED
:1012B00049C08091510382FF1BC0DD2069F01123DA
:1012C00039F080910D03182B10930D030E949C128E
:1012D00080E00E940305FAC180E00E94D20411233D
:1012E00009F4F4C1812F0E9495120E949C12EEC154
:1012F000DD2081F080910E03AA2051F001E0A012C0
:1013000007C0182B181709F4E1C110930E03DEC1B2
:10131000812B10C0AA2021F021E0A21609F4D6C129
:101320000E948F1227C0DD2041F035E03A1508F405
:10133000CDC1812F0E94B72AC9C184E08A1508F463
:10134000C5C118C0DD2049F0AA2099F3F7018581B5
:1013500080FFA9C18F708583ECCFAA2059F0093393
:1013600009F0B1C1FFEF17EE23E0F150104020402B
:10137000E1F7A7C1812F0E94B02AA8C1812F8695CD
:101380008695837019F0813059F0A0C1DD2019F0E5
:10139000C801937002C080E090E00E940B239CC1C2
:1013A000DD2019F0C801937002C080E090E00E9437
:1013B000F52292C1812F837009F069C0D1108AC1D2
:1013C000902F929596959770990F990F802F8F7007
:1013D000882E912CA12CB12C092E04C0880C991CAC
:1013E000AA1CBB1C0A94D2F704FF12C04FE050E0C5
:1013F00060E070E004C0440F551F661F771F9A9588
:10140000D2F7DB01CA0180959095A095B09503C0F5
:1014100080E090E0DC0116951695412F4370423034
:1014200019F1C8F400910F031091100320911103DA
:1014300030911203413059F088299929AA29BB29F2
:10144000BC01CD0160237123822393230AC0802A2B
:10145000912AA22AB32ABC01CD01682979298A29B7
:101460009B290E949B2A36C188299929AA29BB2930
:1014700000910F031091100320911103309112037A
:10148000BC01CD016027712782279327EACFDD2099
:1014900019F0812F817001C08695882309F41AC143
:1014A000902F929596959770990F990F802F8F7026
:1014B000882E912CA12CB12C092E04C0880C991CCB
:1014C000AA1CBB1C0A94D2F704FF12C04FE050E0E4
:1014D00060E070E004C0440F551F661F771F9A95A7
:1014E000D2F7DB01CA0180959095A095B09503C015
:1014F00080E090E0DC0116951695412F4370423054
:10150000D9F068F500914C0310914D0320914E03E2
:1015100030914F03413059F088299929AA29BB29D4
:10152000BC01CD0160237123822393231EC0802A36
:10153000912AA22AB32A13C088299929AA29BB294A
:1015400000914C0310914D0320914E0330914F03B5
:10155000BC01CD01602771278227932706C0BC01FB
:10156000CD01682979298A299B290E94FF29B2C0C7
:101570001F70DD2039F0812F0E947A2A802F0E946F
:10158000B72AA8C0802F0E94B02A812F0E94092A62
:10159000A1C0802F32EF931609F443C0391538F0FB
:1015A00090EF991659F0E1EF9E16B1F177C0F3EF85
:1015B0009F16F1F124EF921659F170C0DD2019F158
:1015C00034E03A1508F482C01F7181E090E0A0E099
:1015D000B0E0AC01BD0104C0440F551F661F771F6A
:1015E0001A95D2F780914C0390914D03A0914E0330
:1015F000B0914F038A019B01082719272A273B270F
:10160000C901B80129C025E02A1508F45FC0DCCF64
:101610008091510382FF23C0DD2029F0812F8F713B
:1016200030C0DD20D9F3812F8F710E94092A4EC06E
:10163000DD2079F01F7181E090E0A0E0B0E0BC0116
:10164000CD0104C0660F771F881F991F1A95D2F726
:1016500003C060E070E0CB010E94FF2937C0DD20AD
:1016600099F01F71812F0E947A2A8091510382FD87
:1016700007C038E0139FC0011124836080933904B0
:10168000812F0E947A2A22C081E00E942E2A81E0C6
:101690008A15E0F482E00E942E2A18C0DD2029F08D
:1016A000AA2009F4BBCF802F14CEAA2009F4BBCF07
:1016B000893349F49FEFE7EEF3E09150E040F040CA
:1016C000E1F700C00000802F0E94D20488EF8B0D4C
:1016D000843010F40E942123CC20A9F08091390499
:1016E00080FD11C0F70112828595859585950E9430
:1016F0007A2AC7010E940406809139048595859550
:1017000085950E94092A85E0F701DE011196019076
:101710000D928A95E1F789819A810E94A6299A8182
:101720000CE3809FF001112416E0919FE00DF11D64
:1017300011248981E80FF11DEE0FFF1FEB5EFA4FB8
:10174000859194918CC089E24DCC083C2CE5120720
:1017500009F464C008F45DC0093C9CE5190709F46C
:1017600062C00A3C1C4509F009CD4BE45FE267E525
:101770007FE26CC00D3C3CE5130709F463C008F43C
:101780005CC00E3CECE51E0709F463C00F3C1C4531
:1017900009F0F4CC85E060C0023D1C4508F0B9CCEE
:1017A00082E15AC08091BE03282F237091E09227D6
:1017B0008C7F892B8093BE0310925F018091BC03C4
:1017C00081608093BC038091BD0380FFA2CC1F92F7
:1017D0009F938BE691E09F938F9384EF90E09F938C
:1017E0008F930E94C9040F900F900F900F900F904D
:1017F0000F908FCC4DE85FE266E97FE227C046E9B3
:101800005FE26DE87FE222C04BE75FE264E87FE2DF
:101810001DC044E85FE26BE77FE218C043E65FE289
:101820006FE67FE213C04FE65FE263E67FE20EC041
:1018300047E55FE26BE47FE209C047E35FE261E412
:101840007FE204C041E45FE267E37FE20E94D623C7
:1018500060CC81E001C08DE00E9425185ACC2A9608
:101860000FB6F894DEBF0FBECDBFDF91CF911F91B1
:101870000F91FF90EF90DF90CF90BF90AF909F902F
:101880008F9008958295982F937344E0949F9001D0
:1018900011248C7C86958695282B822F8575880F40
:1018A0002A7A2695822B089581110AC0662321F099
:1018B00060E070E089EA0FC060E070E08AEA0BC087
:1018C000813059F4662321F060E070E08EE403C0BB
:1018D00060E070E08BE40E94C12A80E0089590915E
:1018E000500392FF0DC0282F2871283019F4877FEC
:1018F000846006C0282F2471243011F48B7F886007
:1019000093FF0DC0282F2871283119F4877E846138
:1019100006C0282F2471243111F48B7E8861209118
:10192000510320FF0DC0382F3871383019F4877FEC
:10193000816006C0382F3171313011F48E7F88609C
:1019400021FF0DC0282F2871283119F4877E81616D
:1019500006C0282F2171213111F48E7E886194FDFB
:10196000877E08957F928F929F92AF92BF92CF927F
:10197000DF92EF92FF920F931F93CF93DF931F920B
:10198000CDB7DEB7762E4A0159016801082F880FBE
:10199000110BC8010E94F031892B09F071C08AE057
:1019A000809FF001819FF00D1124E050FF4F458191
:1019B00050E04115510511F041E050E08AE0809F70
:1019C000F001819FF00D1124E050FF4F6681778177
:1019D0006F5C7C4FCE0101960E948233F4016081DE
:1019E0007181828193810E946F2264367105810525
:1019F000910540F4B701C6010E94BF239981891760
:101A000009F440C0072D770C110BC8010E94F0317A
:101A1000892B09F5E114F10401F18AE0809FF001BE
:101A2000819FF00D1124E050FF4F458150E0E416F6
:101A3000F50608F4A7018AE0809FF001819FF00D70
:101A40001124E050FF4F668177816F5C7C4FC501A8
:101A50000E94823302C010E001C011E0B701C6014C
:101A60000E94BF2391E02981281390E0192381F07F
:101A70000E949A22F401608371838283938308C059
:101A800010E001C011E0A701B601C5010E94823338
:101A9000812F0F90DF91CF911F910F91FF90EF90C9
:101AA000DF90CF90BF90AF909F908F907F900895E0
:101AB000CF92DF92EF92FF920F931F93CF93DF931A
:101AC00000D000D01F92CDB7DEB76B0185E0E82EC5
:101AD000F12C02E313E09E012F5F3F4F44E253E0FD
:101AE00061E080E00E94B20C882349F095E0FE019D
:101AF0003196AFE1B3E001900D929A95E1F795E050
:101B0000EFE1F3E0D60101900D929A95E1F70F9085
:101B10000F900F900F900F90DF91CF911F910F9129
:101B2000FF90EF90DF90CF9008958F929F92AF92A9
:101B3000BF92CF92DF92EF92FF920F931F93CF93BA
:101B4000DF937C015B01942E852E690180911E0339
:101B50008A3018F001E010E002C00AE010E0C1E0B5
:101B6000D0E0F894B501C701F60109957894811188
:101B700029C021960C171D078CF0CC9F9001CD9F9A
:101B8000300D300D112480E090E045E34A95F1F7E7
:101B90000000019628173907C1F7E3CF9091BD03E4
:101BA000892F817090FF0FC08F929F9281EB91E0FF
:101BB0009F938F930E94C9040F900F900F900F90E6
:101BC00080E001C081E0DF91CF911F910F91FF90E4
:101BD000EF90DF90CF90BF90AF909F908F9008953F
:101BE00080911D03811118C08091D800806180937D
:101BF000D8008AE18A95F1F700C08091D90080FD74
:101C000002C082E001C081E080931D03823021F494
:101C10000E94B91F1092850381E090911D039130BD
:101C200009F080E0089555985D9889B185FB882773
:101C300080F90895F894E82FE295EF70F0E031A173
:101C4000282F2F7081E090E001C0880F2A95EAF7D5
:101C5000982F9095932391A392A1892B82A3789496
:101C600008955F926F927F928F929F92AF92BF92F0
:101C7000CF92DF92EF92FF920F931F93CF93DF9358
:101C8000CDB7DEB72F970FB6F894DEBF0FBECDBF2E
:101C90009E012F5F3F4F79018AE0D9011D928A95FD
:101CA000E9F702E411E0690187E4682E81E0782E0B
:101CB000AA24A394B12C22E4822E21E0922EF801D2
:101CC00080818F3F09F440C0F894E82FE295EF70CF
:101CD000F0E021A18F70A50102C0440F551F8A9525
:101CE000E2F7CA01922F982B91A392A180958923A4
:101CF00082A3789400C0ECE3F1E0512C31E0219113
:101D00002F3F89F0A22FA295AF70B0E090968C91F2
:101D100090E02F7002C0959587952A95E2F780FD97
:101D200002C0832F01C080E0582A330F8E169F0611
:101D300031F7D8018C918F3F11F00E941A0EB0EA52
:101D4000BA95F1F7F60150820F5F1F4FFFEFCF1AE0
:101D5000DF0A6016710609F0B2CF4AE050E0B70121
:101D600082E593E00E9475338C01892B41F08AE073
:101D7000F701A2E5B3E001900D928A95E1F7F090AA
:101D80005D030115110549F081E0809315030E9460
:101D9000A622909314038093130380911503882344
:101DA000B9F080911303909114030E948B22059740
:101DB00078F0A2E5B3E0EF2DF0E0E15AFC4F87E5C3
:101DC00093E02D9121938A179B07D9F71092150361
:101DD0000115110509F0C2C00E94F00DE0915D03EC
:101DE0009E01255F3F4F7901882309F445C085E0B6
:101DF000D9011D928A95E9F70E2F10E0015A1C4F68
:101E0000D0901E03B9E0BD1560F028E53DE042E743
:101E100051E0B701C8010E94950D882309F4BFC0A5
:101E20000AC080911603909117030E948B22843F71
:101E3000914058F7CDC02DEB31E14FE751E0B701AC
:101E4000C8010E94950D882309F4A9C029E633E151
:101E500047E851E0B701C8010E94950D882309F4B5
:101E60009EC026E033E142E951E0B701C8010E947B
:101E7000950D811176C093C0F0E0E15AFC4FF894C3
:101E800085E0A2E3B3E001900D928A95E1F765E069
:101E900070E082E393E00E94BF2380933103789443
:101EA000F894E0916C03F0E0E759FC4F80818B8758
:101EB0008093380361E070E0C7010E94BF238093E4
:101EC00037037894F894C0903903D0903A03E090A7
:101ED0003B03F0903C038091180390911903A0916B
:101EE0001A03B0911B03C816D906EA06FB06D1F007
:101EF000C0921803D0921903E0921A03F0921B03C8
:101F00000E94F00D81110EC00E949A22C61AD70AB3
:101F1000E80AF90AC0924803D0924903E0924A03C2
:101F2000F0924B037894F89486E0EDE3F3E0AEEBA7
:101F3000B3E001900D928A95E1F7F0904303FF2002
:101F400049F080916704811105C00E94F62380E06A
:101F50000E94A02FF0926704789452C001E010E034
:101F60004FC0B9E0BD1540F48091BD0380FF04C0AF
:101F700088E691E00E94300410921E0380915C0379
:101F800090E045E050E0B701815A9C4F0E947533C4
:101F900021E020931C03892B31F500E031C08091B2
:101FA0001E038F3F19F08F5F80931E0380911E03E5
:101FB0008A3020F30E94A622909317038093160381
:101FC0008091BD0380FF04C08BE791E00E94300444
:101FD00080911C03882309F385E0D7011D928A951F
:101FE000E9F710921C03A0915C03B0E0A15ABC4F2A
:101FF00085E0FE013B9601900D928A95E1F701E0A4
:10200000802F2F960FB6F894DEBF0FBECDBFDF91A5
:10201000CF911F910F91FF90EF90DF90CF90BF90E5
:10202000AF909F908F907F906F905F9008950F93E7
:102030001F930E94F00D882321F01F910F910C94A3
:102040009A220E949A2200914803109149032091FC
:102050004A0330914B03600F711F821F931F1F9122
:102060000F910895CF93DF938238910569F1B0F411
:102070008133910509F46FC048F48932910509F460
:1020800065C08A32910509F46BC08AC08533910519
:1020900009F457C089339105B9F082C0833E910598
:1020A00071F138F4803E9105B1F0823E910511F155
:1020B00077C0863E9105B9F1873E9105C9F1843E0E
:1020C000910509F06DC024C02091500320FD53C03C
:1020D00021FD51C065C08091500380FD46C08091B4
:1020E000510380FF48C08091500384FD3FC183EEBF
:1020F00090E03EC18091500382FF3AC0F4CF8091BE
:10210000500382FD35C08091510380FD34C0EBCF78
:102110008091510381FF35C08091500384FD26C119
:1021200087EE90E025C18091500383FF27C0F4CF54
:102130008091500383FD22C08091510381FD21C015
:10214000EBCF8091500385FD1FC021C080915003CB
:1021500085FD1DC019C08091500386FD1BC01DC0A8
:102160008091500386FD19C015C089E390E000C13D
:1021700082EE90E0FDC080EE90E0FAC086EE90E046
:10218000F7C084EE90E0F4C089E290E0F1C085E30E
:1021900090E0EEC08AE290E0EBC081E390E0E8C01E
:1021A000811532E5930708F069C0811541E5940770
:1021B00028F0982F8827816F906ADAC0883E9105B1
:1021C00068F5803E910508F0D3C0883A9105B8F4CF
:1021D000853A910548F0855AE82FF0E0E356FE4F26
:1021E000808190E09064C4C08130910509F4BBC047
:1021F00008F4BCC08430910508F4B8C0B9C08F3B66
:10220000910508F0B3C0885AE82FF0E0EE0FFF1FE9
:10221000E056FE4F808191819464AAC0811520E52B
:102220009207F0F09C0174E0369527957A95E1F7D6
:10223000922F9370482F437021E030E002C0220FAC
:10224000331F4A95E2F73C68392B8F70982F96958B
:10225000969540E2949FC0011124822B932B88C055
:10226000811530E4930718F09F70906A81C09C013B
:102270003A9521153F4108F47BC078C0EC01C115A7
:1022800086E5D807E8F5C11525E5D20748F08C2F7B
:102290000E946F0C8F7190E0982F8827906268C021
:1022A000C11534E5D30728F09C2F8827846F906AE6
:1022B0005FC0AE01437055272C2F26952695C1157A
:1022C000D34578F481E090E002C0880F991F4A95C9
:1022D000E2F740E2249F90011124822B932B9C680B
:1022E00047C081E090E002C0880F991F4A95E2F74D
:1022F00040E2249F90011124822B932B9A6838C0CE
:10230000C1152AE5D207F8F4C11539E5D30790F0D5
:102310008C2F8F700E946F0C94E0D695C7959A957C
:10232000E1F7CF70D0E0DC2FCC27D0699E01282BBD
:10233000C9011EC0C11548E5D407C0F09C2F8827ED
:10234000806F906A15C0CE0190568115904270F44E
:102350008D2F8F710E946F0C282F2F71CE0199271E
:102360009062922B05C081E090E002C080E090E096
:10237000DF91CF9108950C949A22CF92DF92EF9241
:10238000FF920F931F93CF93DF931F92CDB7DEB7CA
:10239000EE24E394F12C08E313E09E012F5F3F4FFE
:1023A00048E253E063E082E00E94B20CC82E88232A
:1023B00079F1D0905E038D2D90E09C0127593C4F20
:1023C00079011981F9018081181B012F80E0101615
:1023D0005CF40150F70180818F5F808360E08D2D78
:1023E0000E94540C81E0F3CF912F17FD90E0191B50
:1023F000112359F01F5FF70180818150808361E0D4
:102400008D2D0E94540C81E0F3CF81110E94BB11ED
:102410008C2D0F90DF91CF911F910F91FF90EF9036
:10242000DF90CF900895CF9384E090E00E94B8327F
:10243000C82F82E290E00E94B8322C2F30E0A90130
:10244000582BCA01CF91089569EE7EEF80E090E0AD
:102450000E94F43260E082E090E00E94D63260E0B8
:1024600083E090E00E94D63210920F031092100386
:10247000109211031092120360E084E090E00E9439
:10248000D63260E082E290E00E94D63260E085E0E1
:1024900090E00E94D63260E086E090E00E94D63262
:1024A0006FEF87E090E00E94D63240E050E0BA0142
:1024B00088E090E00E94E83260E08DE090E00E94C9
:1024C000D63240E050E0BA0188E190E00E94E83264
:1024D00060E087E190E00E94D63240E050E0BA012F
:1024E0008CE190E00E94E83260E070E080E290E0F1
:1024F0000E94F43240E050E0BA0188E190E00E948E
:10250000E83240E050E0BA018FE090E00E94E8320B
:1025100040E050E0BA0183E190E00C94E832809111
:102520000E03811110920E030895809590910D0372
:10253000892380930D030895EF92FF920F931F93C9
:10254000CF9390910D0380910C03892B20910B0365
:10255000982F922B9093030380910E03882389F088
:10256000892B80930303E5E0F3E097E080E091504E
:1025700029F021912223D9F38F5FF9CF81110E9495
:102580008F12E091C903F091CA033097C9F102801C
:10259000F381E02D83E093E009958091BD0382FFF4
:1025A0002FC080FF04C086E591E00E94300403E064
:1025B00013E0C8E080E5E82E81E0F82E8091BD03AD
:1025C00080FF0CC0F80180811F928F93FF92EF92E1
:1025D0000E94C9040F900F900F900F90C1500F5F91
:1025E0001F4FC111EBCF8091BD0380FF09C08EE466
:1025F00091E0CF911F910F91FF90EF900C943004D8
:10260000CF911F910F91FF90EF9008950F931F931B
:10261000CF93DF93CDB7DEB727970FB6F894DEBF21
:102620000FBECDBF86E0EEEBF3E0DE011196019028
:102630000D928A95E1F7809167048F8347E050E01F
:102640006DE373E0CE0101960E9475338C016091B9
:1026500044037091450380914603909147030E9483
:102660006F22643671058105910510F4012B29F163
:1026700080913501909136018F5C9C4F40913401DF
:1026800050E04830510510F047E050E0BE016F5F68
:102690007F4F0E94823385E090E00E94F031892BC9
:1026A00011F080E00BC00E949A2260934403709363
:1026B0004503809346039093470381E027960FB626
:1026C000F894DEBF0FBECDBFDF91CF911F910F9168
:1026D0000895CF93DF9300D000D0CDB7DEB76091DF
:1026E0002D0370912E0380912F03909130030E944F
:1026F0006F22643671058105910580F10E941710E3
:10270000DC01CB010296A11DB11D89839A83AB83A5
:10271000BC8380912B0190912C018F5C9C4F409148
:102720002A0150E04530510510F044E050E0BE0170
:102730006F5F7F4F0E94823384E090E00E94F0310F
:10274000892B11F080E00BC00E949A2260932D0328
:1027500070932E0380932F039093300381E00F90AA
:102760000F900F900F90DF91CF910895CF93DF934B
:10277000CDB7DEB764970FB6F894DEBF0FBECDBFFE
:1027800084B7877F84BF0FB6F894A89580916000C6
:10279000886180936000109260000FBE90E080E836
:1027A0000FB6F89480936100909361000FBE85B7D7
:1027B000806885BF85B7806885BF83EB9EE1909375
:1027C0000103809300030E94B91F0E945F20809143
:1027D000E20084608093E2007894809185038823EE
:1027E000A1F01091E9001F709091EC00892F817089
:1027F00090FD80E8182B1092E9008091E80083FD9D
:102800000E94E01B1F701093E90082E084BD93E0FA
:1028100095BD9AEF97BD80936E0010924803109279
:10282000490310924A0310924B030E94130E8093A7
:102830004C010E94F00D81110E94E33080914C0107
:1028400081112DC0FE0131968AE0DF011D928A952B
:10285000E9F781E3898380EF8A8385EF8B8384E3C3
:102860008C8385E38D83A2E4B1E0CE010B962191A8
:102870002D938E179F07D9F726E0E2E6F1E0DE01FF
:102880001B9601900D922A95E1F7FC01ACE3B1E0B3
:10289000CE01419621912D938E179F07D9F78091F4
:1028A0004C01811102C095E001C090E090935D035E
:1028B00085E0891B80935C0302E411E047E4E42E89
:1028C00041E0F42EF80181918F018F3F11F00E94B9
:1028D0001A0EE016F106B1F70CE311E032E4E32E34
:1028E00031E0F32ED8018D918D018F3F11F00E94C0
:1028F0001A0EE016F106B1F78AE0EFE5F3E0DF012A
:10290000282F1D922A95E9F7E2E5F3E0DF011D92F9
:102910008A95E9F780E090E00E94C032893E9E4FA0
:1029200011F00E94241282E090E00E94B83280935D
:10293000BD030E941312909351038093500383E0D0
:1029400090E00E94B832682F70E080E090E00E9432
:102950009B2A10929303ECEAF3E08CEB93E02FEFC9
:102960003FEF219331938E179F07D9F710923A04C6
:10297000E3E5F4E083E694E02FEF3FEF219331931A
:102980008E179F07D9F780E090E00E94C032893E01
:102990009E4F81F08091BD0380FF08C088E093E0E6
:1029A0009F938F930E94C9040F900F900E9424124E
:1029B0000E94972D46E050E06CE170E08EEB93E0D2
:1029C0000E94A8321092BC038091BE038C7F71F4E8
:1029D0008091BD0380FF08C083EB92E09F938F93AB
:1029E0000E94C9040F900F900E94972D8091BD0303
:1029F00080FF08C089E992E09F938F930E94C904E9
:102A00000F900F908091BD0380FF0FC08091BE0397
:102A100083701F928F938AE792E09F938F930E9417
:102A2000C9040F900F900F900F908091BD0380FF0D
:102A300010C08091BE03869586951F928F938DE579
:102A400092E09F938F930E94C9040F900F900F9074
:102A50000F908091BD0380FF0EC08091BF031F9235
:102A60008F938FE392E09F938F930E94C9040F90FE
:102A70000F900F900F908091BD0380FF0EC080914A
:102A8000C0031F928F9381E292E09F938F930E94E5
:102A9000C9040F900F900F900F908091BD0380FF9D
:102AA0000EC08091C1031F928F9383E092E09F93A9
:102AB0008F930E94C9040F900F900F900F908091F8
:102AC000BD0380FF0EC08091C2031F928F9385EEDD
:102AD00091E09F938F930E94C9040F900F900F90E5
:102AE0000F908091BD0380FF0EC08091C3031F92A1
:102AF0008F9387EC91E09F938F930E94C9040F906E
:102B00000F900F900F900E94F00D811102C00E9453
:102B1000E63080914C01811106C083E380935A0115
:102B200082E38093590180915A01E82FE295EF707A
:102B3000F0E041A1282F2F7081E090E0BC0102C09D
:102B4000660F771F2A95E2F79B01362F30953423C5
:102B500031A332A1232B22A320915901E22FE29528
:102B6000EF70F0E031A12F7001C0880F2A95EAF7CD
:102B7000982F9095932391A392A1892B82A38FE8FC
:102B800091E00197F1F700C0000020915A01E22F77
:102B9000E295EF70F0E080A190E02F7002C0959573
:102BA00087952A95E2F7817090915901E92FE29576
:102BB000EF70F0E020A130E09F7002C035952795BE
:102BC0009A95E2F720FD02C090E001C092E0892BC7
:102BD00080936D0390914C0181E0982790936C0352
:102BE000891B80935E038DE491E09093CA038093E8
:102BF000C90389E6282E83E0382E98E4492E93E015
:102C0000592E20E4622E23E0722E809185038530B8
:102C100009F05AC08AE393E00E94300400E4F02EE9
:102C2000EE24E39400E112E180918503853009F000
:102C300045C080918503843009F430C00E94AD2FD7
:102C400080916704811105C00E94F62380E00E94F4
:102C5000A02FE09267041092CD03A8E1B0E00FB678
:102C6000F894A895A09360000FBEF092600083B71F
:102C7000817F846083BF83B7816083BF78948895A8
:102C800083B78E7F83BF0FB6F894A89580916000BC
:102C9000886180936000109260000FBE8091840371
:102CA000882309F4C1CF0E94310EEFE5F3E0819152
:102CB0008111B5C12E163F06D1F7B6CF0E94A52AC5
:102CC0000E942123109267040E94310E81110E94FC
:102CD0009A22BFE6CB2EB3E0DB2E1FE5A12E13E038
:102CE000B12E00E010E00C8BF50121915F012B8BE0
:102CF000D6018D916D0128272A8B211116C00F5FF7
:102D00001F4F0A30110579F78FEF8B878C871D864F
:102D10000E94A6228160782F9F878E874B855C85D5
:102D20006D858F850E945C05E0C08091BD0381FDAB
:102D300004C0F12CEE24E39436C08DE493E00E94AD
:102D40003004AFE58A2EA3E09A2EE12CF12CFF92FD
:102D5000EF925F924F920E94C90485E493E00E9433
:102D60003004F40181914F010E94420C1F928F9315
:102D70007F926F920E94C9048EE393E00E94300418
:102D8000FFEFEF1AFF0A0FB6F894DEBF0FBECDBFFC
:102D90003AE0E316F104D9F6CCCFF394EE0CE6E07A
:102DA000FE1609F4ACCF8A898E21B9F30E94F00D8A
:102DB000DB88DE208823A1F0F9825C895A8381E0D8
:102DC000D11001C080E08B830E94A6228160782F01
:102DD0009D838C8349815A816B818D810E945C0522
:102DE000F801E159FC4F8081E826E082DD2069F09E
:102DF00086E0809FF001819FF00D1124E151FE4F8C
:102E0000EF0DF11D80818F3F11F4D12C03C0898B10
:102E1000DD24D3940D2D10E080913A04B801680FA1
:102E2000711D69307105ACF188E090E07C01E01A19
:102E3000F10AB8016F5F7F4F665C7B4FA7018BE3A0
:102E400094E00E948233B801675F7F4F665C7B4FDE
:102E5000A70183E494E00E948233A701440F551F29
:102E6000B801660F771F675E7F4F665C7B4F83E517
:102E700094E00E948233B8016F5E7F4F665C7B4FA7
:102E8000A7018BE494E00E94823388E08D1980933F
:102E90003A0480913A0490E07989A72FB0E09D012F
:102EA000220F331F255D3D4FAA0FBB1FBD01645D7F
:102EB0007D4F41E0480F9D15B0F490E0FC01E65CC9
:102EC000FB4FD9015C915183DB015C915187B9893A
:102ED000B18B880F991FFC01E65CFB4F128E118E9F
:102EE00091E0842FE6CF80933A040E94AD2FE091C9
:102EF0006D035E2F550F550F20915A01E22FE29579
:102F0000EF70F0E080A190E02F7002C0959587955A
:102F10002A95E2F78170992740915901E42FE295B3
:102F2000EF70F0E020A130E04F7002C0359527959A
:102F30004A95E2F7F901E170FF2720FF02C0E2E0C5
:102F4000F0E0E82BF92BE52BE0936D0310916C0377
:102F5000EF70F0E0E053FE4F908180916B03890F9A
:102F600080936B0384306CF0E12FF0E0E759FC4F65
:102F700080818F5F808360E0812F0E94540C21E06C
:102F800001C020E080916B038D3F64F4E12FF0E0FD
:102F9000E759FC4F80818150808361E0812F0E943E
:102FA000540C21E080916B03082E000C990B64E017
:102FB00070E00E941A3380936B0321110E94BB11B1
:102FC0000E94212390916E03891709F41ECE0E945E
:102FD0002123182F80936E038091BD0382FF15CEAD
:102FE00080FF04C083E693E00E9430048091BD031B
:102FF00080FF0CC01F921F938EE593E09F938F93E9
:103000000E94C9040F900F900F900F908091BD0304
:1030100080FFFBCD8CE593E00E943004F6CD09BD26
:1030200019BD09B400FEFDCF8091D8008F7D80933B
:10303000D8008091E00082608093E0008091E00001
:1030400081FDFCCF0E94A52AEFCD9091BE03937025
:1030500071F1811102C0946007C0833210F098684A
:1030600003C0880F880F982B9093BE0310925F01C6
:103070008091BC0381608093BC038091BD0380FF7D
:1030800016C08091BE03869586951F928F938BE61E
:1030900091E09F938F9387EE94E09F938F930E948C
:1030A000C9040F900F900F900F900F900F900895FC
:1030B0002F923F924F925F926F927F928F929F9248
:1030C000AF92BF92CF92DF92EF92FF920F931F9336
:1030D000CF93DF93CDB7DEB727970FB6F894DEBF57
:1030E0000FBECDBF282E4B0120915C018EE0289FA2
:1030F000802D11248E83182F125F153408F014E4EC
:103100000E94130E882319F0133208F012E20E9475
:10311000130E811105C03E81323210F482E28E839B
:103120009091930399839E81911708F07CC0AE81A2
:103130006A2E712CF301ED54FD4F908180915D0159
:10314000892309F46CC03090BF034090C003522C17
:103150001F82C301880F991FFC01E55DFD4FFB83B2
:10316000EA83C301880F991F9C01245D3D4F3D8375
:103170002C83F9815F1608F040C0E52CF12CAA8160
:10318000BB81CC90D12CF701ED56FC4F8181C81A40
:10319000D108AC81BD81AC90B12C8185A81AB10851
:1031A000CC9C9001CD9C300D300D1124AA9CC00107
:1031B000AB9C900D900D1124820F931F0E94E42D63
:1031C000082F6091C20321E0620F08F46FEFF7014E
:1031D000EE0FFF1FED56FC4F818D928D0E943E2E0B
:1031E0007C019501A601632D742D8F81F401099551
:1031F000362E472E8F835394BCCF2091C1038F81ED
:10320000382F329F312D1124832F632D742D0E946E
:10321000582E462F282F672FC3010E94952D8E818F
:103220008F5F8E8380CF812F27960FB6F894DEBFF5
:103230000FBECDBFDF91CF911F910F91FF90EF9007
:10324000DF90CF90BF90AF909F908F907F906F90C6
:103250005F904F903F902F900C94482ECF92DF922A
:10326000EF92FF920F931F93CF93DF938C01C09146
:103270005C018EE0C89FC02D1124DEE0DC0FD53448
:1032800008F0D4E40E94130E882319F0D33208F01A
:10329000D2E20E94130E811103C0C23208F4C2E2CE
:1032A0002091C20331E0230F08F42FEF30E040E01B
:1032B00050E06FEF7FEF80E090E00E942E337901C5
:1032C000CD1708F041C0CC2ED12CF601ED54FD4FA6
:1032D000908180915D018923A9F190919303915090
:1032E00097FD15C0292F092E000C330BF901ED565F
:1032F000FC4F8189C813F3CF220F331FF901ED561C
:10330000FC4F218D328D2E153F0548F701C09701E6
:103310006091C20341E0640F08F46FEFC9010E949D
:103320003E2EAC016091BF037091C0038091C10338
:10333000F80109950E94582E462F282F672FC601A5
:103340000E94952DCF5FBCCF8D2FDF91CF911F9124
:103350000F91FF90EF90DF90CF900C94482E9F92AA
:10336000AF92BF92CF92DF92EF92FF920F931F9393
:10337000CF93DF936C01C0915C018EE0C89FC02D9C
:103380001124DEE0DC0FD53408F0D4E40E94130EE3
:10339000882319F0D33208F0D2E20E94130E811173
:1033A00003C0C23208F4C2E26091C203669566951A
:1033B00080918F03909190030E943E2E182F80E4FD
:1033C000810F0E94C32D90E8F92EF80E812F0E94E4
:1033D000C32D20E8922E980ECD1700F5AC2EB12CFF
:1033E000F501ED54FD4F908180915D018923A1F09D
:1033F0006091BF037091C0038091C103E12E0C2F37
:10340000292D4F2DF60109950E94582E462F282F61
:10341000672FC5010E94952DCF5FDECF8D2FDF91E5
:10342000CF911F910F91FF90EF90DF90CF90BF90C1
:10343000AF909F900C94482E6F927F928F929F92A4
:10344000AF92BF92CF92DF92EF920F931F93CF93E1
:10345000DF933C01C0915C018EE0C89FC02D112418
:10346000DEE0DC0FD53408F0D4E40E94130E88238C
:1034700019F0D33208F0D2E20E94130E811103C07A
:10348000C23208F4C2E26091C203669580918F0354
:10349000909190030E943E2E182FCD1708F044C043
:1034A0008C2E912CF401ED54FD4F908180915D01A3
:1034B0008923C1F1F401EE0FFF1FE55DFD4FC080D0
:1034C000D12C80E7C81AD108F401EE0FFF1FE1519B
:1034D000FE4FA5ACB12CE0E2AE1AB108CC9C900135
:1034E000CD9C300D300D1124AA9CC001AB9C900DD9
:1034F000900D1124820F931F0E94E42D082F6091DC
:10350000BF037091C0038091C103E12E9501A60114
:10351000F30109950E94582E462F282F672FC401CA
:103520000E94952DCF5FB9CF8D2FDF91CF911F9145
:103530000F91EF90DF90CF90BF90AF909F908F90C2
:103540007F906F900C94482ECF92DF92EF92FF9273
:103550000F931F93CF93DF937C01C0915C018EE0AA
:10356000C89FC02D1124DEE0DC0FD53408F0D4E470
:103570000E94130E882319F0D33208F0D2E20E9481
:10358000130E811103C0C23208F4C2E26091C2037B
:10359000669580918F03909190030E943E2E182F84
:1035A000CD1778F5CC2ED12CF601ED54FD4F90813E
:1035B00080915D01892319F1F601EE0FFF1FE151A2
:1035C000FE4F25AD30E020523109F601EE0FFF1F0E
:1035D000E55DFD4F408150E0405751096091BF03C8
:1035E0007091C0038091C103012FF70109950E94DA
:1035F000582E462F282F672FC6010E94952DCF5F8A
:10360000CFCF8D2FDF91CF911F910F91FF90EF9032
:10361000DF90CF900C94482EDF92EF92FF920F93A1
:103620001F93CF93DF938C01C0915C018EE0C89F04
:10363000C02D1124DEE0DC0FD53408F0D4E40E9464
:10364000130E882319F0D33208F0D2E20E94130E31
:10365000811103C0C23208F4C2E26091C2036695D0
:10366000669521E0620F08F46FEF80918F039091CF
:1036700090030E943E2ED82ECD17F0F4EC2EF12CA4
:10368000F701ED54FD4F908180915D01892391F008
:103690006091BF037091C0038091C1032D2D4C2F09
:1036A000F80109950E94582E462F282F672FC70131
:1036B0000E94952DCF5FE0CF8D2FDF91CF911F918D
:1036C0000F91FF90EF90DF900C94482E2091BE0355
:1036D000237059F18093BF036093C003413A08F00F
:1036E00040EA4093C1032091BC0321602093BC03B6
:1036F0002091BD0320FF19C01F924F931F926F931B
:1037000099279F938F938BE691E09F938F9384ECFF
:1037100094E09F938F930E94C9048DB79EB70A9639
:103720000FB6F8949EBF0FBE8DBF08958093C2035D
:103730009091BC0391609093BC039091BD0390FF66
:1037400012C01F928F938BE691E09F938F9385EA2F
:1037500094E09F938F930E94C9040F900F900F9055
:103760000F900F900F900895EF92FF920F931F9379
:10377000CF93DF937C018B010E94D81F811119C068
:10378000E70101151105A1F08091E80085FD0AC04F
:103790008091E8008E778093E8000E94D81F8823EC
:1037A00081F307C089918093F10001501109E9CF9D
:1037B00080E0DF91CF911F910F91FF90EF900895DE
:1037C0001F93CF93DF93CDB7DEB7AA970FB6F894C8
:1037D000DEBF0FBECDBFE7E8F3E08091F10081933B
:1037E00043E0EF38F407C9F780918803833009F488
:1037F00061C030F4813071F0823009F49BC0B2C0F6
:103800008A3009F487C08B3009F46CC0893009F024
:10381000A9C020C080918703813A09F0A3C080919C
:10382000E800877F8093E80080918B0390918C0360
:10383000892B21F468E08BE793E003C060E080E02F
:1038400090E070E00E94EB218091E8008B778093FC
:10385000E80088C080918703813209F083C080919D
:103860008B0390918C03029708F07CC08091E80054
:10387000877F8093E8008091E80082FD05C08091F9
:1038800085038111F8CF6EC02091F3008091F20082
:1038900090E0922B029731F48091F100813011F089
:1038A000863021F48091F10080937A038091E800C2
:1038B0008B7754C080918703813A09F053C080917F
:1038C0008B0390918C03892B09F04CC08091E80008
:1038D000877F8093E8008091E80080FFFCCF809193
:1038E0005B0137C0809187038132E1F580918B03C2
:1038F00090918C03892BB1F58091E800877F8093AC
:10390000E8000E940B208091890380935B010E9454
:10391000A52A28C080918703813221F58091E80093
:10392000877F8093E8000E940B2080918A03809318
:10393000790318C080918703813AA1F48091E8004F
:10394000877F8093E8008091E80080FFFCCF809122
:1039500079038093F1008091E8008E778093E800EE
:103960000E940B208091E80083FFDAC180918703D9
:1039700090918803492F50E04A30510508F0D0C19A
:10398000FA01EE59FF4F0C944D33803821F0823804
:1039900009F0C6C108C080918303909184039923E4
:1039A00089F082600FC080918B038F70873008F0A0
:1039B000B7C18093E9008091EB0085FB882780F9EF
:1039C0001092E9009091E800977F9093E80080932F
:1039D000F1001092F10070C1282F2D7F09F0A0C1D5
:1039E000882319F0823061F09BC180918903813076
:1039F00009F096C1933009F080E0809384032EC0D3
:103A00008091890381112AC080918B038F702FEFE1
:103A1000280F263008F084C18093E9002091EB0044
:103A200020FF1CC0933021F48091EB00806214C011
:103A30009091EB0090619093EB0021E030E0A901C0
:103A400002C0440F551F8A95E2F74093EA00109296
:103A5000EA008091EB0088608093EB001092E9000F
:103A60008091E800877F8093E8000E940B2058C176
:103A7000811156C1109189031F778091E3008078EE
:103A8000812B8093E3008091E800877F8093E8009A
:103A90000E940B208091E80080FFFCCF8091E30022
:103AA00080688093E300111102C082E001C083E0CE
:103AB0008093850335C18058823008F031C1209150
:103AC000890330918A032C3D53E0350779F583E073
:103AD0008A838AE289834FB7F894DE01139620E047
:103AE0003EE051E2E32FF0E050935700E49120FFD5
:103AF00003C0E295EF703F5FEF708E2F90E0EA30E9
:103B000010F0C79601C0C0968D939D932F5F24310E
:103B100049F74FBF8091E800877F8093E8006AE211
:103B200070E0CE0101960E94EB21B5C080918B031D
:103B300090918C03432F552743305105A9F068F429
:103B40004130510509F4FBC04230510509F0E8C08D
:103B50008BE590E0EAE0F4E04BC04132510529F1F9
:103B60004232510589F1DCC0C901992781309105A4
:103B7000A1F058F0029709F0D3C0E7E7F4E0E49130
:103B80008E2F90E0E7E7F4E030C0E1EAF4E0E49162
:103B90008E2F90E0E1EAF4E028C0E1E9F4E0E4915E
:103BA0008E2F90E0E1E9F4E020C08330910508F029
:103BB000B7C0880F991FFC01E751FE4F0190F081BB
:103BC000E02D89E090E014C08330910508F0A8C092
:103BD000FC01EE0FFF1FED51FE4F0190F081E02D33
:103BE000DC01A052BE4F8C9190E0009709F498C080
:103BF0002091E800277F2093E80020918D033091E9
:103C00008E038217930708F49C0140E021153105CB
:103C100089F180918503882309F43DC08530D9F16D
:103C20008091E80083FD37C08091E80082FD2FC0BD
:103C30008091E80080FFEACF4091F3008091F2008C
:103C400090E0942B2115310559F08830910540F40E
:103C500044914093F1003196215031090196F2CF01
:103C600041E0089709F040E08091E8008E7780936A
:103C7000E800CCCF4111CDCF0AC0809185038823C5
:103C800051F0853041F08091E80083FD04C08091BF
:103C9000E80082FFF2CF8091E8008B778093E80004
:103CA0003FC08038E9F58091E800877F8093E80085
:103CB000809186038093F1008091E8008E77D3CEC7
:103CC00081112EC08091890390918A0399270297D0
:103CD0003CF58091E800877F8093E800109189038C
:103CE000109386030E940B20111106C08091E300FF
:103CF00087FD02C081E001C084E08093850342E03B
:103D000061EC81E00E942A2042E261EC82E00E94A4
:103D10002A2042E261EC83E00E942A208091850300
:103D20008091E80083FF10C08091E800877F809336
:103D3000E8008091EB0080628093EB0005C082E197
:103D400090E0E5E6F4E054CFAA960FB6F894DEBF13
:103D50000FBECDBFDF91CF911F91089508950895B3
:103D600080917A0308959FB7F8941092D6039FBF6D
:103D700090918503943009F057C09091E9009F70AD
:103D80003091EC00232F217030FD20E8922B23E0AE
:103D90002093E9002091EB0020FF43C02091EE002A
:103DA00027FF3FC02091D503222321F02091E80076
:103DB00025FF37C01092D50326E03091E80035FD8D
:103DC00015C030918503343061F53091EB0035FD3D
:103DD00028C0215021F481E08093D50322C0EFE96F
:103DE000FFE03197F1F700C00000E7CF8093F100CA
:103DF0008091E80085FD0AC08091E80080FFFCCF3B
:103E00008091E8008E778093E80006C08FB7F89421
:103E100021E02093D6038FBF9F709093E90080E04C
:103E200008959F709093E9008FEF08958093D203D7
:103E30007093D4036093D30380918503843001F59C
:103E400082E08093E9008FEF9091E800815095FD2A
:103E500006C095ED9A95F1F700008111F5CF80919C
:103E6000E80085FF0DC040E050E063E070E082EDC7
:103E700093E00E94B41B8091E8008E778093E80065
:103E80000895BC0184E00C94161FBC0183E00C94DF
:103E9000161FCF93DF9321E02093E9002FEF30919D
:103EA000E800215035FD06C035ED3A95F1F70000E8
:103EB0002111F5CF2091E80025FF14C0EC0140E06E
:103EC00050E068E070E00E94B41B8091E8008E77BB
:103ED0008093E80088E0FE01ABE7B3E001900D922B
:103EE0008A95E1F7DF91CF9108951F920F920FB657
:103EF0000F9211242F933F934F935F936F937F9370
:103F00008F939F93AF93BF93CF93DF93EF93FF93E1
:103F1000C091E900CF708091EC00D82FD17080FD66
:103F2000D0E81092E9008091F000877F8093F00044
:103F300078940E94E01B1092E9008091F000886064
:103F40008093F000CD2BCF70C093E900FF91EF91EB
:103F5000DF91CF91BF91AF919F918F917F916F91A1
:103F60005F914F913F912F910F900FBE0F901F9037
:103F70001895E8EDF0E080818E7F80831092E2005A
:103F80001092DA001092E100A0EEB0E08C91816016
:103F90008C9380818F77808319BCA7EDB0E08C91E2
:103FA0008E7F8C9380818F7E80831092D8030895BA
:103FB0002091E4003091E50095E64091EC00842FDB
:103FC000817040FF23C08091E80080FD1DC080917A
:103FD0008503882399F0853099F08091EB0085FD69
:103FE00011C04091E4005091E5002417350729F3F2
:103FF000915011F09A01E1CF84E0089582E0089594
:1040000083E0089581E0089580E008954091E800FC
:1040100042FFDDCF08958091870387FF11C0809113
:10402000E80082FD05C0809185038111F8CF11C0A1
:104030008091E8008B770BC080918503882349F03D
:104040008091E80080FFF8CF8091E8008E77809320
:10405000E8000895982F973068F59093E900981735
:1040600039F07091EC002091ED005091F00003C008
:10407000242F762F50E021FD02C09F5FECCF3091BE
:10408000EB003E7F3093EB003091ED003D7F3093AD
:10409000ED003091EB0031603093EB007093EC0059
:1040A0002093ED005093F0002091EE0027FDE5CF26
:1040B00080E008958F708093E90081E00895CF92A9
:1040C000DF92EF92FF920F931F93CF93DF93C8ED90
:1040D000D0E088818F7E8883E7EDF0E08081816089
:1040E000808384E082BF81E08093D80388818E7FC3
:1040F000888302EE10E0F80110821092DA0081EE5F
:10410000C82ED12CF601108288818F778883888110
:104110008068888388818F7D888319BC109285038D
:1041200010928603109284031092830390EEE92E7E
:10413000F12CF70180818B7F808388818160888367
:1041400042E060E080E00E942A20F60180818E7FBC
:104150008083F80180818160808380818860808392
:10416000F70180818E7F8083888180618883DF91E1
:10417000CF911F910F91FF90EF90DF90CF90089516
:104180001F920F920FB60F9211242F933F934F93CC
:104190005F936F937F938F939F93AF93BF93EF93AF
:1041A000FF938091E10082FF49C08091E20082FF8D
:1041B00045C08091E1008B7F8093E1002091D7037F
:1041C0002F5F822F62E30E94FA32992319F0209325
:1041D000D70334C01092D7038091D603882371F19E
:1041E00080918503843041F58091E9008F702091A2
:1041F000EC00922F917020FD90E8892B93E0909332
:10420000E9009091EB0090FF14C09091EE0097FFB1
:1042100010C09091E80095FF03C01092F100F9CF13
:104220009091E80090FF05C09091E8009E779093F0
:10423000E8008F708093E9001092D6038091DA0035
:1042400080FF32C08091D80080FF2EC08091DA00BC
:104250008E7F8093DA008091D90080FF1CC080E1BE
:1042600089BD82E189BD09B400FEFDCF81E0809364
:10427000850381E095E00E9430048091D80381118C
:1042800013C00E94B91F0E945F208091E2008460E9
:104290008093E20009C019BC1092850385E095E087
:1042A0000E9430041092D8038091E10080FF1BC06F
:1042B0008091E20080FF17C08091E2008E7F8093A2
:1042C000E2008091E20080618093E2008091D8005A
:1042D00080628093D80019BC85E08093850389E0D3
:1042E00095E00E9430048091E10084FF34C0809109
:1042F000E20084FF30C080E189BD82E189BD09B45C
:1043000000FEFDCF8091D8008F7D8093D8008091F2
:10431000E1008F7E8093E1008091E2008F7E8093A8
:10432000E2008091E20081608093E2008091860348
:10433000882311F084E007C08091E30087FD02C06C
:1043400081E001C083E0809385038DE095E00E94C9
:104350003004809185038091E10083FF2BC0809120
:10436000E20083FF27C08091E100877F8093E10016
:1043700082E080938503109286038091E1008E7F16
:104380008093E1008091E2008E7F8093E200809133
:10439000E20080618093E20042E060E080E00E9401
:1043A0002A208091F00088608093F00081E195E000
:1043B0000E943004FF91EF91BF91AF919F918F9137
:1043C0007F916F915F914F913F912F910F900FBE11
:1043D0000F901F90189520918D0330918E03261712
:1043E000370748F06115710539F42091E8002E7700
:1043F0002093E80001C0B901FC0120E061157105BE
:1044000079F1809185038823F1F18530F1F1809174
:10441000E80083FD3CC08091E80082FD2EC08091C1
:10442000E80080FFEBCF2091F3008091F20090E054
:10443000922B6115710551F08830910538F4219166
:104440002093F100615071090196F3CF21E00897A4
:1044500009F020E08091E8008E778093E800CECFCD
:104460002111CFCF0AC080918503882361F0853068
:1044700061F08091E80083FD0AC08091E80082FF2E
:10448000F2CF80E0089582E0089583E0089581E00E
:10449000089578941F920F920FB60F9211248F9364
:1044A0009F93AF93BF938091CE039091CF03A09140
:1044B000D003B091D1030196A11DB11D8093CE030D
:1044C0009093CF03A093D003B093D103BF91AF914A
:1044D0009F918F910F900FBE0F901F901895CF92C4
:1044E000DF92EF92FF922FB7F894C090CE03D09056
:1044F000CF03E090D003F090D1032FBFA701960126
:10450000261B370B480B590BCA01B901FF90EF90DE
:10451000DF90CF9008959C014FB7F8948091CE031F
:104520009091CF03A091D003B091D1034FBF821BD4
:10453000930B08952FB7F8946091CE037091CF0339
:104540008091D0039091D1032FBF08952FB7F89495
:104550008091CE039091CF03A091D003B091D1036D
:104560002FBF08951F920F920FB60F9211248F93B1
:104570009F93AF93BF938091CD03811113C080911E
:10458000CE039091CF03A091D003B091D103419677
:10459000A11DB11D8093CE039093CF03A093D003B0
:1045A000B093D103BF91AF919F918F910F900FBEA8
:1045B0000F901F9018959C01FC0132969FEF80E0B0
:1045C0004191461789F09F3F19F4411101C0982F7E
:1045D0008F5F8630A9F79F3F39F0F901E90FF11D90
:1045E00097FDFA956283089508952091CB03309149
:1045F000CC032817390771F09093CC038093CB0339
:10460000E091C903F091CA03309721F00084F1854D
:10461000E02D099408952091C7033091C80328170D
:10462000390771F09093C8038093C703E091C903E1
:10463000F091CA03309721F00680F781E02D0994AC
:1046400008950E94F00D882351F0E091C903F09184
:10465000CA03309721F00190F081E02D099480E0A9
:1046600008950F931F93CF93DF93C42FD22FFC0194
:1046700082818823C9F04093C6030E94A6229093AA
:10468000C5038093C40380E28C0F883008F072C0A9
:10469000C77081E001C0880FCA95EAF7DF91CF911A
:1046A0001F910F910C94B72A8091C60348133DC007
:1046B0008091C4039091C5030E948B22883C910590
:1046C000A0F510E21D0FCD17E9F080E28C0F8830C5
:1046D00040F4C77081E001C0880FCA95EAF70E94D4
:1046E000B02A183090F581E09D2F977001C0880F97
:1046F0009A95EAF70E94B72A093369F560E570E0F8
:1047000089E32CC0093319F460E570E002C060E071
:1047100070E0802F0E94C12A183060F5D77081E0C8
:1047200001C0880FDA95EAF70AC080E28C0F883062
:1047300008F5C77081E001C0880FCA95EAF7DF91DC
:10474000CF911F910F910C94B02A093351F460E579
:1047500070E089E309C060E070E0802F0E94C12A08
:10476000DDCF60E070E0802FDF91CF911F910F913E
:104770000C94C12ADF91CF911F910F910895FC01F4
:10478000680F791F8FEF91E3E617F70771F021911A
:10479000822728E030E087FF03C0880F892701C007
:1047A000880F21503109B9F7EFCF0895882311F010
:1047B000FA0101C0FB010994FF920F931F93CF935D
:1047C000DF93182F062FF42EC0E0D0E02F2D402FBE
:1047D000612FCE010E94952D2196C434D105B1F7E9
:1047E000DF91CF911F910F91FF900895BF92CF92CB
:1047F000DF92EF92FF920F931F93CF93DF93C82F17
:10480000809161018C130DC02091BE03237030E0B4
:104810004091600150E081E02417350719F480E0F1
:1048200001C081E0817080935E018091C30390910B
:104830005D01981739F080935D0140E060E080E011
:104840000E94DC23C13119F485E19EE207C0C23128
:1048500008F0EDC1C83029F487E79DE20E94A41A50
:1048600030C0C93008F0B9C1C33009F43EC008F007
:10487000FAC0C13009F09EC080915C01DEE08D9FDE
:10488000D02D11241EE01D0F153408F014E40E94F1
:10489000130E811173C00E94130E882309F473C094
:1048A0006091BF037091C0038091C1030E94582E94
:1048B000062FF72EE82ED11708F46AC0812F0E9428
:1048C000482E90915C019F5F90935C0181116EC2B4
:1048D00082E080935F0180915E01811167C2C11106
:1048E00065C283E080935F0161C2D0915C018EE07C
:1048F000D89FD02D11241EE01D0F153408F014E4AC
:104900000E94130E882319F0133208F012E20E945D
:10491000130E811103C0D23208F4D2E2D090C0034A
:10492000C090C1032091C20300E4029F012D112415
:10493000D11708F0C3CFED2EF12CF701ED54FD4F48
:10494000908180915D018923B9F0F701EE0FFF1F7F
:10495000E151FE4F85AD82958F706091BF03809FBE
:10496000600D11247D2D8C2D0E94582E462F282F4E
:10497000672FC7010E94952DDF5FDACF133208F44D
:104980008ACF12E288CFD23208F08ACFD2E288CF23
:10499000ED2FF0E0DF01AD54BD4F8C9190915D01A2
:1049A000982331F02E2D402F6F2DCF010E94952D91
:1049B000DF5F81CFC23058F480915E01882309F413
:1049C00050C040E060E080E00E94DC234AC0D0910B
:1049D0005C018EE0D89FD02D11241EE01D0F1534F0
:1049E00008F014E40E94130E882319F0133208F023
:1049F00012E20E94130E811103C0D23208F4D2E2F7
:104A0000F090C0030091C103E090BF03B701802F75
:104A10000E94582ED62EC72EB82E6091C2036E0D5E
:104A20007F2D802F0E94582E062FF72EE82ED117AB
:104A300008F044CF8D2F90E0FC01ED54FD4F308104
:104A400020915D01232359F030FF04C02E2D402F0B
:104A50006F2D03C02B2D4D2D6C2D0E94952DDF5FEA
:104A6000E6CF80E02ECFC53009F052C0D0915C0176
:104A70008EE0D89FD02D11241EE01D0F153408F0B4
:104A800014E40E94130E882319F0133208F012E286
:104A90000E94130E811103C0D23208F4D2E2F090CA
:104AA000BF030091C003E090C1036091C20366950B
:104AB0006695669580918F03909190030E943E2E9B
:104AC0000E94C32D805887FD8195880F282F3E2D89
:104AD000239F212D1124822F6F2D702F0E94582E7D
:104AE000062FF72EE82ED11708F0E8CEED2FF0E0D4
:104AF000DF01AD54BD4F8C9190915D01982331F051
:104B00002E2D402F6F2DCF010E94952DDF5FEBCF13
:104B1000C53008F04DC0D0915C018EE0D89FD02DFB
:104B200011241EE01D0F153408F014E40E94130E2A
:104B3000882319F0133208F012E20E94130E81113B
:104B400003C0D23208F4D2E2D090C003C090C103B7
:104B50002091C20300E4029F012D1124D11708F017
:104B6000ADCEED2EF12CF701ED54FD4F90818091EB
:104B70005D018923D9F0F701EE0FFF1FE55DFD4FC1
:104B80006081069FB001112445E0759567954A95AF
:104B9000E1F78091BF03680F7D2D8C2D0E94582E68
:104BA000462F282F672FC7010E94952DDF5FD6CF94
:104BB000C63019F48EE99CE204C0C73041F482E7A4
:104BC0009CE20E940C1B7DCECF3F09F4BEC08091B9
:104BD0005C018F5F80935C017BCECC3019F480E761
:104BE0009CE2EFCFCD3078F4CA3041F48DE39DE202
:104BF00002C081E29DE20E941C1A63CECB30C8F74E
:104C000088E59DE22BCECE3019F48EE59CE2D9CF1B
:104C1000CE3018F487E69CE2D4CFCF3019F483E489
:104C20009CE2CFCFC03199F684E39CE2E4CFCA3155
:104C300079F460E77BE208C0C03208F06EC0CC3186
:104C400009F04BC068E37BE280E00E94581839CE3F
:104C5000CB31A8F5C53141F484ED9BE202C086E07A
:104C60009CE20E94AF192DCEC63150F4C33119F425
:104C70008CEF9CE2C0CFC43190F780E19DE2EECD95
:104C8000C73151F48FE89BE204C0C83151F489E880
:104C90009BE20E942E1915CEC731B8F786E99BE238
:104CA000E0CFC93109F093CF8091930321E0382FF1
:104CB000321B08F430E0832F60E77BE2C6CFCF31B0
:104CC00009F0BACF8091930321E0382F321B08F40A
:104CD00030E0832F6EEE7AE2B8CFCC3158F4809179
:104CE000930321E0382F321B08F430E0832F68E370
:104CF0007BE2ABCFCD3159F48091930321E0382F83
:104D0000321B08F430E0832F66E07BE29ECFCE3189
:104D100009F05DCF66E07BE297CFC13259F4809114
:104D2000930321E0382F321B08F430E0832F68ED25
:104D30007AE28BCFC13218F46EEE7AE285CFC232BE
:104D400009F042CF68ED7AE27FCF80918F03909196
:104D50009003A0919103B091920388279C70AA2799
:104D6000BB272AE0B695A795979587952A95D1F701
:104D700082309105A105B10571F083309105A1053F
:104D8000B10569F040E00197A105B10511F060E0BF
:104D900008C064E102C044E160E080E003C044E197
:104DA00064E184E10E94DC2382E09CCDDF91CF911D
:104DB0001F910F91FF90EF90DF90CF90BF900895DB
:104DC00080E090E00E940B2380E090E00E94F522BA
:104DD00010920C0310920B030C949C1280913804D7
:104DE00090910704891719F08F5F8770FBCF0895A2
:104DF0000F931F93CF93DF938091060482958F705A
:104E000009F05DC080910304882309F458C08091A3
:104E10003804109107046091010470910204C0915C
:104E20000404D091050491E06F3F09F090E0292F30
:104E300006E0811709F443C0209721F07F3F21F05D
:104E400030E003C031E001C0322F90E030FD34C0CB
:104E5000089FF001099FF00D1124DF01A85FBB4FEF
:104E600011963C911197371327C03C91361324C0FB
:104E700012963C91129731111FC013964D915C917F
:104E800014974C1B5D0B483C5105B0F4809106040F
:104E90008F70806180930604E35FFB4F80818F7089
:104EA0008061808381E094E00E940406DF91CF91CD
:104EB0001F910F910C94EE2601968770BACFDF9167
:104EC000CF911F910F9108958F929F92AF92BF92B1
:104ED000DF92EF92FF920F931F93CF93DF93809017
:104EE0004C0390904D03A0904E03B0904F0340911F
:104EF0000F03509110036091110370911203842AE3
:104F0000952AA62AB72ACFE1D0E026E0929F700129
:104F100011249CE3D92E082F10E0D501C4010C2EDA
:104F200004C0B695A795979587950A94D2F780FD0A
:104F300004C0219790F780E014C0DC9EF001DD9E54
:104F4000F00D1124EE0DFF1DE00FF11FEE0FFF1FFE
:104F5000EB5EFA4F859194910E943210019749F3CC
:104F60008C2FDF91CF911F910F91FF90EF90DF90E9
:104F7000BF90AF909F908F900895CF93DF93EC01F7
:104F80000E9464272CE3829FC0011124FC0126E0CB
:104F9000D29FE00DF11D1124EC0FF11DEE0FFF1F4C
:104FA000EB5EFA4F859194910E943210DF91CF9180
:104FB0000895FC01808191810E94BD27292F2F70C7
:104FC000E92FE295EF704E2F50E0FA013297EE3064
:104FD000F105B8F4E459FF4F0C944D33803F99F03C
:104FE00018F4883E70F40FC0843F59F40CC0883E1A
:104FF00050F0813F31F407C0822F869586958695C3
:10500000089580E0089581E008959F92AF92BF9245
:10501000CF92DF92EF92FF920F931F93CF93DF9384
:10502000CDB7DEB761970FB6F894DEBF0FBECDBF28
:105030008C0185E0F801DE011D9601900D928A95A4
:10504000E1F7F801E280909101046091020440913F
:105050000404509105044115510531F06F3F31F4BE
:1050600081E09F3F19F403C081E001C080E0F82F88
:10507000F1709F2E80FD1AC1F80130812181C3801B
:10508000D48081E0A82E84E0B82EF0900304F601CD
:10509000E41BF50BFF2009F4C6C080910604E83C30
:1050A000F10508F091C0482F407F09F050C062130D
:1050B00011C093130FC0FE2CE1100CC08F708061E3
:1050C00080930604C5010E94040680910604F8013D
:1050D000858329C1CD2831F02F3F31F481E03F3F56
:1050E00019F403C081E001C080E080FD03C081E0CD
:1050F0008E2502C080E090E0F82FF170FF2E80FF37
:105100001CC0809138044091070456E0841709F4CC
:10511000E8C090E0589FF001599FF00D1124E85F1E
:10512000FB4F6181261306C06081631303C0628157
:10513000E61203C001968770E9CFFE2CEE2009F439
:10514000F2C08091060481608093060449C0621316
:1051500006C0931304C0E11002C0F80186C0C80164
:105160000E94D927882351F1EE2041F120910604B5
:10517000822F82958F7090E0029774F080910104E5
:105180009091020498878F831986DB86CA862C87C4
:10519000CE0107960E94040686E0F801A1E0B4E083
:1051A00001900D928A95E1F70E94F8260AC06217D5
:1051B000C9F0C8010E94D92781111EC0C8010E94F0
:1051C0000406FF24F394AFC0482F407F81F781E0AD
:1051D00094E00E94040686E0F50111928A95E9F7B1
:1051E000F12CA1C09313E5CFE110E3CFF801858343
:1051F000C8010E94040654C0EE2001F32091060469
:10520000822F82958F7090E0029734F28091010492
:10521000909102049A8389831B82DD82CC822E8343
:10522000CE010196B7CFE83CF105D0F5FE2CEE207B
:1052300029F2621327C0931325C02091060420FD94
:1052400018C0822F82958F70482F50E0411551056C
:1052500081F0F80125834F30510541F08F5F982F81
:105260009295907F822F8F70892B8583C8010E9431
:10527000040686E0F801A1E0B4E001900D928A9561
:10528000E1F751C0C8010E94D927811185CF8091D3
:105290000604816080930604C8010E94040643C08E
:1052A00086E0F50111928A95E9F73DC0EE2009F4F8
:1052B00085CFC8010E94D927F82E882309F47ECF14
:1052C00086E0F801A1E0B4E001900D928A95E1F743
:1052D00080910104909102040E94BD270E94F8264B
:1052E00022C03D872E878D859E850E94BD27292F50
:1052F00022952F70223028F49F7039F0811105C05B
:105300000BC0243028F49F7049F4805E883020F070
:10531000C8010E9404069F2CF92C05C0F801958154
:10532000907F99F7F9CF8F2D61960FB6F894DEBF75
:105330000FBECDBFDF91CF911F910F91FF90EF90E6
:10534000DF90CF90BF90AF909F900895292F220FAC
:10535000920F990F890F682F669566956695982F1D
:10536000977085E0689FB001112440E050E080E034
:10537000FB01E40FF51FE752FC4F208130E0092EBE
:1053800002C0369527950A94E2F721703327042E40
:1053900001C0220F0A94EAF7822B4F5F5F4F45301E
:1053A000510531F70895292F220F920F990F890F78
:1053B000E82FE695E695E695877051E001C0550F18
:1053C0008A95EAF785E0E89FF0011124E752FC4F47
:1053D00020E030E070E04081CB01022E02C09695C3
:1053E00087950A94E2F78170819584278523842725
:1053F00081932F5F3F4F2530310569F70895609302
:105400004C0370934D0380934E0390934F030C9481
:10541000E0260F931F9341E050E060E070E004C08D
:10542000440F551F661F771F8A95D2F740955095F8
:105430006095709580914C0390914D03A0914E031F
:10544000B0914F038A019B01082319232A233B2390
:10545000C901B8011F910F910C94FF2920913904C3
:105460008095822380933904982F977099F430E0C7
:10547000482F082E000C550B2417350759F0909132
:10548000510392FD07C08595859585950E94092A4F
:10549000109239040895CF93DF93C0915103C2FB5A
:1054A000992790F9981719F1D82F80FBC2F9C0936A
:1054B00051036091500384E090E00E94D6326C2F3B
:1054C00082E290E00E94D63282E00E942E2A8091F1
:1054D000BD0380FF0CC01F92DF938DE796E09F9382
:1054E0008F930E94C9040F900F900F900F90DF913F
:1054F000CF9108950F931F9341E050E060E070E07A
:1055000004C0440F551F661F771F8A95D2F78091FC
:105510004C0390914D03A0914E03B0914F038A012B
:105520009B01082B192B2A2B3B2BC901B8011F917A
:105530000F910C94FF2960930F03709310038093D5
:105540001103909312030C94E02610920D0386E051
:10555000E5E0F3E0DF011D928A95E9F70C94E0267F
:10556000882321F00E9495120C949C1208958823A0
:1055700039F090910D03892B80930D030C949C12AC
:1055800008951F93CF93DF93182FEB010E9403051B
:10559000209741F08FE99FE00197F1F700C00000EC
:1055A0002197F6CF812FDF91CF911F910C94D204D8
:1055B000EF92FF920F939701201B31092F3F310586
:1055C00019F010F02FEF30E02095382F320F08F44B
:1055D0003FEF832F0F91FF90EF900895EF92FF928E
:1055E0000F939701201B31092F3F310519F010F05F
:1055F0002FEF30E0322F3095482F430F08F44FEF54
:10560000842F620F0F91FF90EF900895EF92FF9219
:105610000F93972F093438F4B701601B71096F3F5E
:10562000710519F010F06FEF70E0485F5F4F413186
:10563000510540F0A901485F5F4F4131510510F01D
:105640006FEF70E06095482F460F08F44FEF842FFE
:1056500037FF02C02D5F3F4F35952795359527952C
:105660006091BF03620F792F0F91FF90EF90089523
:10567000EF92FF920F93E00EF11CF90137FF03C088
:10568000F195E195F10924E0EE0FFF1F2A95E1F76E
:10569000EF3FF10519F014F0EFEFF0E09A0157FF3A
:1056A00003C031952195310994E0220F331F9A955B
:1056B000E1F72E173F070CF4F901EE0DFF1DEF3F48
:1056C000F10519F010F0EFEFF0E02E2F2095382FB4
:1056D000320F08F43FEF832F0F91FF90EF90089562
:1056E000EF92FF920F93970195E0099F200D311DD6
:1056F00011242F3F310519F010F02FEF30E02095E5
:10570000382F320F08F43FEF832F0F91FF90EF9067
:10571000089522E8241B08F420E0620F08954095C4
:10572000282F429F412D1124842F08950F931F93FA
:1057300010E0F801EE0FFF1FE55DFD4F90819057DF
:1057400097FD9195000F111FF801E151FE4FE5AD56
:10575000F0E0B097DF01AA0FBB1F8D010E0F1F1FD6
:105760002003D001219FB00D1124E8E3F0E0E91BF4
:10577000F10997FDF3959F01220F331F89010E0F49
:105780001F1F40039001419F300D11242A0F3B1F22
:1057900037FF02C021583F4F220F232F221F330B08
:1057A000620F1F910F9108950F931F93522F10E0D6
:1057B000F801EE0FFF1FE151FE4FE5ADF0E0B097AD
:1057C000EE0FFF1F9F015203D001539FB00D112414
:1057D000000F111FF801E55DFD4F008110E000573B
:1057E0001109000F111F40039001419F300D11243A
:1057F0002A0F3B1F37FF02C021583F4F220F232F94
:10580000221F330B620F1F910F9108950F931F9367
:10581000522F10E0F801EE0FFF1FE151FE4FE5ADF2
:10582000F0E0B0979F015203D001539FB00D1124B7
:10583000000F111FF801E55DFD4F008110E00057DA
:10584000110940039001419F300D11242A0F3B1F85
:1058500037FF02C021583F4F220F232F221F330B47
:10586000620F1F910F910895EF920F931F9393E092
:10587000099F80011124159507956E2D600F1F91CA
:105880000F91EF900895A22F50E0FA01EE0FFF1F45
:10589000E151FE4F95AD905297FD9195440F551FE4
:1058A000FA01E55DFD4F3081232F30E02A1B3109DD
:1058B000290F311D97FD3A95620F0895E42FF0E00E
:1058C000EE0FFF1FE151FE4F65AD621B0895E42FFF
:1058D000F0E0EE0FFF1FE55DFD4F6081621B089554
:1058E000622F0895E42FF0E0EE0FFF1FE55DFD4FFE
:1058F000408134EE439F412D1124E82FF0E050E029
:10590000445E5F4FDA01A21BB1099D01B7FF03C0DE
:1059100031952195310993E0220F331F9A95E1F7D4
:10592000AF01421B530B9A0157FF02C020E030E049
:10593000582F259F212D1124822F0895E42FF0E068
:10594000EE0FFF1FE55DFD4F408134EE439F412D7B
:105950001124E72FF0E050E0445E5F4FDA01A21B14
:10596000B1099D01B7FF03C031952195310993E03D
:10597000220F331F9A95E1F7AF01421B530B9A0197
:1059800057FF02C020E030E0279F212D1124722F05
:105990000895FC019B01009721F477FF2BC080E85C
:1059A0000895AC0197FF04C044275527481B590BA5
:1059B000B901640F751F37FD0CC0241B350BC901DD
:1059C000A5E0880F991FAA95E1F70E941A3380E29B
:1059D0000CC0CB0165E0880F991F6A95E1F7BA0109
:1059E000621B730B0E941A3380E6861BF7FF03C00D
:1059F0008195089580E00895EF920F93CF93DF9300
:105A0000D72FC82FC9010E19BA010E94C92C602FC7
:105A1000681B7D2F8C2FDF91CF910F91EF90089510
:105A20000F93CF93DF93D72FC82FC901BA010E94DC
:105A3000C92C682F600F7D2F8C2FDF91CF910F9194
:105A40000895EF920F931F93CF93DF93D62FC72F15
:105A5000182FC9010E19010FBA010E94C92C081B89
:105A6000202F219F212D1124822F6D2F7C2FDF913C
:105A7000CF911F910F91EF900895EF920F931F9385
:105A8000CF93DF93D62F172FC82FC9010E19070FF9
:105A9000BA010E94C92C702F781B719F712D11249F
:105AA0006D2F8C2FDF91CF911F910F91EF90089563
:105AB000FF920F931F93CF93DF93F62ED72F182FBC
:105AC000C901C12FC01BBA010E94C92C982F990F80
:105AD000890FC81B2C2F219F212D1124822F6F2D60
