:100000000C94B2020C94DB270C94F9020C94F902C4
:100010000C94F9020C94F9020C94F9020C94F90274
:100020000C94F9020C94F9020C94812F0C94553025
:100030000C94A72A0C94F9020C94F9020C94F9027E
:100040000C94F9020C94F9020C94F9020C94F90244
:100050000C94F9020C941A2B0C94F9020C94F902EA
:100060000C94F9020C94F9020C94F9020C94F90224
:100070000C94F9020C94F9020C94F9020C94F90214
:100080000C94F9020C94F9020C94F9020C94F90204
:100090000C94F9020C94F9020C94F9020C94F902F4
:1000A0000C94F9020C94F9020C94F90229001E0038
:1000B0001F002000210022002B0014001A0008005D
:1000C00015001700E30004001600070009000A00ED
:1000D000E1001D001B0006001900050000000000E3
:1000E000E0002D00015102512A00270026002500C2
:1000F000240023003100130012000C0018001C0023
:10010000340033000F000E000D000B0028003800F3
:10011000370036001000110000000000F3002C0032
:10012000F100F200350001000100010001000100B2
:100130003A003B003C003D003E003F0040004100D3
:100140004200430044004500E100010001000100BD
:10015000010001000000000000000000000000009D
:100160002E000100010049000100010030002F00B5
:100170004F08520050084B00010001004F00510091
:1001800050004E00010001000100010001000100CB
:100190000000000000000000F100F200C35CCE5C33
:1001A00000000000000000000000C45CC65CC85CE9
:1001B000CA5CCC5C0000C55CC75CC95CCB5CCD5C38
:1001C000000000000000000000000000000000002F
:1001D00000000000000000004C0000005600550028
:1001E00054002A00000000005700610060005F001A
:1001F0005800580085005E005D005C005800580003
:1002000067005B005A0059000000000063006200B4
:10021000F100F2001E0F0500047F3F1F64321464DA
:100220003214783C1E1E140A052223252628292A6A
:100230002C2D2F3032333536383A3B3D3E40424349
:100240004547494A4C4E5051535557595A5C5E6088
:1002500062646668696B6D6F71737577797B7D7F9A
:1002600081838587898A8C8E90929496989A9C9E99
:100270009FA1A3A5A7A8AAACAEAFB1B3B4B6B8B9B5
:10028000BBBCBEBFC1C2C3C5C6C7C9CACBCCCDCE1D
:10029000D0D1D2D2D3D4D5D6D7D7D8D9D9DADADB00
:1002A000DBDBDCDCDCDCDCDDDDDDDDDCDCDCDCDC8C
:1002B000DBDBDBDADAD9D9D8D7D7D6D5D4D3D2D2CB
:1002C000D1D0CECDCCCBCAC9C7C6C5C3C2C1BFBEB3
:1002D000BCBBB9B8B6B4B3B1AFAEACAAA8A7A5A31E
:1002E000A19F9E9C9A98969492908E8C8A898785DD
:1002F00083817F7D7B79777573716F6D6B696866BC
:100300006462605E5C5A5957555351504E4C4A498D
:1003100047454342403E3D3B3A3836353332302F35
:100320002D2C2A292826252322FFAA7F55400001AB
:1003300001010101010101010202020202020202A5
:100340000203030303030303030404040404040477
:10035000050505050506060606060707070707083B
:10036000080808090909090A0A0A0B0B0B0C0C0CEE
:100370000D0D0D0E0E0E0F0F0F1010111111121288
:1003800013131414151516161717181819191A1A05
:100390001B1B1C1D1D1E1E1F202021222223242466
:1003A000252626272829292A2B2C2D2D2E2F3031A2
:1003B0003232333435363738393A3B3C3D3E3F40B4
:1003C0004142434445464748494A4C4D4E4F50519F
:1003D0005354555658595A5B5D5E5F616264656659
:1003E00068696B6C6D6F7072737577787A7B7D7EE0
:1003F0008082838587888A8C8E8F91939596989A30
:100400009C9EA0A2A3A5A7A9ABADAFB1B3B5B7BA47
:10041000BCBEC0C2C4C6C9CBCDCFD1D4D6D8DBDD1B
:10042000DFE2E4E7E9EBEEF0F3F5F8FAFDFF18039D
:1004300049007200690073002000520065007600D8
:100440002E002000350000000E034B006500650003
:10045000620069006F0000000403090409023B0008
:10046000020100A0FA0904000001030101000921B2
:10047000110100012240000705810308000A090458
:1004800001000103000000092111010001227B008D
:100490000705820320000A12010002000000081074
:1004A000CB565200050102000105010902A1018598
:1004B000020901A100050919012908150025019566
:1004C00008750181020501093009311581257F95E3
:1004D000027508810609381581257F950175088107
:1004E00006050C0A38021581257F950175088106DD
:1004F000C0C005010980A101850319012AB70015B3
:100500000126B700950175108100C0050C0901A1F5
:1005100001850419012AA002150126A00295017582
:10052000108100C005010906A101050719E029E7AE
:100530001500250195087501810295017508810155
:100540000507190029FF150026FF0095067508818B
:100550000005081901290595057501910295017598
:10056000039101C011241FBECFEFDAE0DEBFCDBF83
:1005700004B603FE27C08091C3039091C403A091E9
:10058000C503B091C6038730904BA740B04BD1F460
:100590001092C3031092C4031092C5031092C603B5
:1005A00014BE84B7877F84BF0FB6F894A895809156
:1005B0006000886180936000109260000FBEE0E0F0
:1005C000F8E3099512E0A0E0B1E0E8EAF7E602C03E
:1005D00005900D92AA32B107D9F723E0AAE2B2E062
:1005E00001C01D92A33CB207E1F70E94D8160C94FB
:1005F000AA330C94000081E0089581E008950C94E2
:10060000FD0208950C9401031F93CF93DF9300D054
:1006100000D00F92CDB7DEB749835A836B833091F8
:100620002C0289819A8131111DC06623B9F02223E1
:10063000A9F00E94DC08182F682F89819A810E94F6
:10064000850869817A81812F0F900F900F900F900C
:100650000F90DF91CF911F910C94320F0E94B3083D
:10066000182FEFCF0E94DC0869817A81EDCFFC0161
:10067000262F408151816281738184810C9404030F
:1006800081E00895CF93DF93EC0160E00E9437038F
:10069000BE01DF91CF910C9402030E9442110E948F
:1006A000CD030E94C4230C9467110C946A11089521
:1006B0000E942E070E9457032FEF84E39CE02150F5
:1006C00080409040E1F700C000000C943E2B0F9357
:1006D0001F93CF93DF938C0161E00E943703EC01FD
:1006E000B8010E94FF02882309F441C0B801CE017D
:1006F0000E9430238823D9F1B801CE010E949625AB
:100700008823A9F1B801CE010E94E825882379F158
:10071000B801CE010E940B27882349F1B801CE0110
:100720000E948021882319F1F8018281882361F0D9
:10073000CB35FDE5DF0721F170F4C115ECE5DE07EF
:10074000A1F0CF3DDC45C9F0C801DF91CF911F91E9
:100750000F910C94FB02CC358DE5D807A1F0CD3577
:10076000DD4591F70E94B90CEFCF0E94580380E05D
:10077000DF91CF911F910F9108950E942A0EF7CF1C
:100780000E94C20CE1CF0E94C50CDECF08950C94EC
:10079000C60381E008950C94C9030895CF93C82F30
:1007A0000E94C7038C2FCF910C94CB03CF93DF9380
:1007B000CDB7DEB72B970FB6F894DEBF0FBECDBF17
:1007C0004F83588769877A878B8761110E94E80C6D
:1007D0001E821D8285E0FE013796DE011196019092
:1007E0000D928A95E1F78C819D81892B89F449814D
:1007F0005A816B817C818D819E810E94E80B2B96B2
:100800000FB6F894DEBF0FBECDBFDF91CF91089534
:1008100089819A8189238F3F51F3CE0101960E94ED
:1008200040038111E4CFEBCFFC01808191810C94D6
:100830001E09CF93C82F882309F447C08CEF8C0F73
:10084000813AA0F46C2F80910401909105010E94DF
:10085000C429882329F08C2F0E94890C0E94180D2E
:100860008C2F0E94820CCF910C94180D80E28C0F7B
:10087000883048F4C77081E001C0880FCA95EAF754
:100880000E94CB0CF0CFEBE5EC0FE33040F4F0E04E
:10089000E754FE4F808190E0CF910C948629E8E5E3
:1008A000EC0FE73150F4F0E0EE0FFF1FE557FE4F7D
:1008B00080819181CF910C949C29CD3E30F08C2F7A
:1008C0000E946617CF910C943918CF910895882310
:1008D00061F19CEF980F913A20F40E94890C0C94DE
:1008E000180D90E2980F983050F4877091E001C095
:1008F000990F8A95EAF7892F0E94D10CF0CF9BE5DA
:10090000980F933020F490E080E00C94862998E5CD
:10091000980F973120F490E080E00C949C298D3E54
:1009200020F00E94C0170C94391808951F93CF939C
:10093000DF93182FEB010E941904209731F4812FC7
:10094000DF91CF911F910C9467048FE99FE001978D
:10095000F1F700C000002197F0CF70E060E089332C
:1009600011F460E570E00C949604882321F00E9455
:10097000CB0C0C94180D0895882321F00E94D10C03
:100980000C94180D0895BF92CF92DF92EF92FF92D0
:100990000F931F93CF93DF936C01D62FC72FFC01CA
:1009A0001281058102950F700E94A00CE82E882309
:1009B000A1F0E12E112389F08C2F807F803429F063
:1009C00080E28D0FE12C883040F082E00E94690DBA
:1009D0000E94A00C91E0E82EE926BC2EB2949FE084
:1009E000B922EB2DF0E0E455FC4C0C948D320C2F29
:1009F0000F70C07F11F00295007F1123A9F0002332
:100A000059F080E28D0F883010F0D11109C0802F8D
:100A10000E94CB0C0E94180D8D2F0E94190414C047
:100A2000802F0E94DB0CF6CF8D2F0E9467040023DD
:100A300059F080E28D0F883010F0D1112CC0802F3A
:100A40000E94D10C0E94180D2B2D2850330B2430FE
:100A5000310520F40E945A290E94CE03EE2009F4A9
:100A60009EC10E949C0C80FD9AC1F60112820E94D8
:100A7000960C0E94E907C6010E94F0060E94960C9F
:100A8000DF91CF911F910F91FF90EF90DF90CF906A
:100A9000BF900C940A08802F0E94E10CD3CFFC2F4A
:100AA000FF70FF2EC07FC03219F0F29480EFF82261
:100AB000DD2369F0D13049F1112391F1002351F187
:100AC000F601858180FFA8CF8F70858323C0112315
:100AD00081F0011106C00E94FB0C8F290E94B50411
:100AE000B3CF0130C1F70E94FB0C8F290E94010D8A
:100AF000ABCF011106C00E940E0D8F2D0E94BC04C9
:100B0000A3CF013009F4A0CFF6CF112329F006308E
:100B100008F09ACF8F2DE2CF053008F095CFEDCFBA
:100B2000002359F3D93349F4FFEF27EE33E0F150B6
:100B300020403040E1F700C000008D2F0E94670484
:100B400083CF8C2F86958695837069F0813009F06C
:100B50007BCF8D2F9C2F9370111102C090E080E00D
:100B60000E949C2971CF8D2F9C2F9370111102C070
:100B700090E080E00E94862967CF8D2F112329F015
:100B80000E9466170E9439185FCF0E94C017FACFE3
:100B90008C2F837009F041C0111156CF4D2F429513
:100BA00046954770440F440F0D2F0F7010E030E052
:100BB00020E0042E04C0000F111F221F331F0A94CF
:100BC000D2F760E070E0CB01D4FF0FC06FE070E0BF
:100BD00080E090E004C0660F771F881F991F4A9538
:100BE000D2F76095709580959095C695C695C3701F
:100BF000602B712B822B932BC23049F058F4C130FB
:100C000019F00E949B0720CF0E9489071DCF0E94E8
:100C1000AD071ACF0E94870717CF8695112311F0D1
:100C20008C2F8170882309F40FCF4D2F4295469564
:100C30004770440F440F0D2F0F7010E030E020E09C
:100C4000042E04C0000F111F221F331F0A94D2F775
:100C500060E070E0CB01D4FF0FC06FE070E080E097
:100C600090E004C0660F771F881F991F4A95D2F73E
:100C70006095709580959095C695C695C370602BCC
:100C8000712B822B932BC23049F058F4C13019F0EC
:100C90000E946008D9CE0E944E08D6CE0E947208EB
:100CA000D3CE0E94C307D0CECF70112329F08C2F52
:100CB0000E94E9078D2F12CF8D2F0E94BC048C2F2C
:100CC0000E940A08C1CED23F89F160F4D03FC9F03A
:100CD000D13F29F1112309F442C001119DCE8C2F7F
:100CE0008F7121C0D33F39F1D43FA1F7112369F1AE
:100CF000CF718C2F0E94E90763E08C2F0E944E0D6C
:100D0000A3CE112341F0053008F09ECE8C2F8F71B9
:100D10000E942D0899CE063008F096CEF7CF8C2F82
:100D20008F71112369F20E94E9078ECE8C2F8F718B
:100D30001123C9F3C5CF112329F08C2F8F710E9485
:100D4000D40782CE0E94CF077FCE81E00E94690D3A
:100D5000023008F479CE82E00E94690D75CE00233E
:100D600059F0D93309F0E9CE8FEF97EEE3E08150E7
:100D70009040E040E1F7DFCE8C2F8F71A1CF4C2F58
:100D80004F706D2FC6010E942E0F0E944C095CCE41
:100D90004C2F4F706D2FC6010E94310F55CEDF9141
:100DA000CF911F910F91FF90EF90DF90CF90BF9068
:100DB00008950F931F93CF93DF93EC01688179819E
:100DC0008A810E9428098C010E9484080E9486075B
:100DD000B801CE01DF91CF911F910F910C94C30404
:100DE000CF93DF93EC018B819C81892B29F0888143
:100DF000998189238F3F59F4DF91CF910895CE01D6
:100E00000E94D906CE01DF91CF910C944203CE010E
:100E10000E9467038111F3CF0E94A00C882361F325
:100E20008A81882349F382E0DF91CF910C94690D88
:100E300090E080E00E94862990E080E00E949C295A
:100E40000E94E80C0E94F80C0E94180D0E94601984
:100E50000C9439180E94900C0C9418070E94D80C1E
:100E60000C942A07E92FE295EF70E250EE3070F40F
:100E7000F0E0E454FC4C0C948D32803F19F020F4E7
:100E8000883E20F481E00895843FE1F380E00895F6
:100E9000883EC0F3813FD1F7F5CF93FB882780F9D7
:100EA0000895FC01808191810E941E090C943207F3
:100EB000CF93DF9300D000D00F92CDB7DEB70F9065
:100EC0000F900F900F900F90DF91CF910895CF93D7
:100ED000DF9300D000D000D0CDB7DEB726960FB696
:100EE000F894DEBF0FBECDBFDF91CF910895089576
:100EF0000C9477070E9478076093590270935A0206
:100F000080935B0290935C020C94180708950C94F4
:100F10007A070F931F930091590210915A02209162
:100F20005B0230915C02602B712B822B932B1F9103
:100F30000F910C947A070F931F930091590210910F
:100F40005A0220915B0230915C026023712382235C
:100F500093231F910F910C947A070F931F93009185
:100F6000590210915A0220915B0230915C02602775
:100F70007127822793271F910F910C947A070C9465
:100F800077070C94BF070E94C107609355027093C6
:100F9000560280935702909358020C94180760E011
:100FA00070E0CB010C94C3070F931F9341E050E016
:100FB00060E070E08A019B0104C0000F111F221F36
:100FC000331F8A95D2F7C901B8011F910F910C9474
:100FD000C3070F931F9341E050E060E070E004C04E
:100FE000440F551F661F771F8A95D2F780915502CF
:100FF00090915602A0915702B09158028A019B012C
:10100000082B192B2A2B3B2BC901B8011F910F91DB
:101010000C94C3070F931F9341E050E060E070E031
:1010200004C0440F551F661F771F8A95D2F7CB0166
:10103000BA01609570958095909500915502109138
:101040005602209157023091580260237123822367
:1010500093231F910F910C94C3070F931F9341E0AB
:1010600050E060E070E004C0440F551F661F771F1A
:101070008A95D2F78091550290915602A09157021D
:10108000B09158028A019B01082719272A273B277C
:10109000C901B8011F910F910C94C3070F931F93BF
:1010A000009155021091560220915702309158023A
:1010B000602B712B822B932B1F910F910C94C307E4
:1010C0000F931F93009155021091560220915702E1
:1010D0003091580260237123822393231F910F9133
:1010E0000C94C3070F931F93009155021091560261
:1010F0002091570230915802602771278227932749
:101100001F910F910C94C3070895E92FEE0FE90F7B
:10111000EE0F8E0F982F977041E001C0440F9A9503
:10112000EAF786958695869595E0899FF0011124CA
:10113000E35DFD4F30E020E070E05191DF01119759
:10114000CB01022E02C0969587950A94E2F7817032
:1011500081958527842385278C932F5F3F4F2530EA
:10116000310559F70895E92FEE0FE90FEE0F8E0FB5
:10117000982F977086958695869525E0829FF00139
:101180001124E35DFD4F50E040E080E0219130E02C
:10119000092E02C0369527950A94E2F7217033276D
:1011A000042E01C0220F0A94EAF7822B4F5F5F4F93
:1011B0004530510559F70895BF92CF92DF92EF92D3
:1011C000FF920F931F93CF93DF938C01C090550232
:1011D000D0905602E0905702F09058028091590248
:1011E00090915A02A0915B02B0915C02C82AD92A60
:1011F000EA2AFB2ACFE1D0E0BC2ED701C6010C2E93
:1012000004C0B695A795979587950A94D2F780FD67
:101210000EC0219788F7B12C8B2DDF91CF911F91B4
:101220000F91FF90EF90DF90CF90BF900895B8019D
:101230008C2F0E946110019761F3EECFCF93DF9363
:10124000EC010E94DC08BE01DF91CF910C9461108B
:101250001F93CF93DF93EB0190912C02992331F0F0
:10126000CB01DF91CF911F910C941E09882379F057
:10127000CB010E94DC08182F682FCE010E94850840
:10128000BE01812FDF91CF911F910C946110CB0192
:101290000E94B308182FF4CFEF92FF920F931F9381
:1012A000CF93DF938C01892B81F0F12CEE24E39412
:1012B000E8012196F8018491843770F4843008F0B5
:1012C0005FC08130B1F08230A1F1DF91CF911F91E9
:1012D0000F91FF90EF900895853709F44CC008F402
:1012E0003DC09CE7980F903780F78F770E94670486
:1012F00049C00E5F1F4FFE01849190E2980F983015
:1013000060F48770FE2D01C0FF0F8A95EAF78F2FDA
:101310000E94EB0C0E94180D02C00E9419048F2D30
:10132000815030F2EFE9FFE03197F1F700C00000A3
:10133000F7CF0E5F1F4FFE01849190E2980F983017
:1013400050F48770FE2D01C0FF0F8A95EAF78F2FAA
:101350000E94F10CDFCF0E946704E1CF0E5F1F4FA8
:10136000FE01C491C150D8F28FE99FE00197F1F7D7
:1013700000C00000F7CF0E5F1F4FFE01F490CFCFEB
:101380000E9419048E01CBCF1F93CF93DF93C0919E
:101390005D0216E080915E028C1304C0DF91CF9154
:1013A0001F910895D0E01C9FF0011D9FF00D1124A6
:1013B000E15AFD4F40815181628173818481958121
:1013C0000E9467072196C770E5CF40918F02509128
:1013D000900260919102709192028091930290919B
:1013E00094020C9467071F93CF93DF93809194022C
:1013F000807FA9F480919102882389F080915D0219
:10140000C0915E0260918F0270919002A091920251
:10141000B0919302D62FD72316E0C81304C0DF91F2
:10142000CF911F91089590E0109711F0DF3F19F4CC
:1014300001968770F2CF189F9001199F300D1124EB
:10144000F901E15AFD4F41814713F2CF4081461324
:10145000EFCF42814111ECCF438154814A1B5B0B9A
:10146000483C510528F7809194028F7080618093E9
:101470009402F901EC59FD4F80818F708061808367
:101480008FE892E00E94F006DF91CF911F910C94BB
:10149000C409AF92BF92CF92DF92EF92FF920F9367
:1014A0001F93CF93DF93CDB7DEB761970FB6F89454
:1014B000DEBF0FBECDBF8C0185E0F801DE011D96B9
:1014C00001900D928A95E1F7F801E2808FE8C82E2D
:1014D00082E0D82E6091920270919302611571059D
:1014E00009F45AC190918F0220919002892F822392
:1014F0008F3F09F451C140815181A380B480F090A5
:101500009102F501E61BF70BFF2009F4F6C080916C
:101510009402382F307FE83CF10508F0AFC031115C
:1015200079C0FE2C251323C0941321C0E1101FC0E5
:101530008F708061809394020E94E509C6010E9429
:10154000F00680919402F80185838F2D61960FB685
:10155000F894DEBF0FBECDBFDF91CF911F910F91E9
:10156000FF90EF90DF90CF90BF90AF900895AB28A1
:1015700029F0842F85238F3F09F027C180E0F82FC1
:10158000F170DF2E80FF3CC080915D0220915E02F1
:1015900036E0821315C04D875E878D859E850E943B
:1015A0001E09292F22952F702230F0F0243018F5D3
:1015B0009F70F1F0F8019581907FD1F4D12C1EC07D
:1015C00090E0389FF001399FF00D1124E15AFD4F52
:1015D0006181651306C06081641303C06281E612F5
:1015E0000FC001968770D5CF9F7011F0882331F31B
:1015F000805E883018F3C8010E94F006FD2CA5CF4C
:10160000EE2009F4A2CF809194028160809394022D
:10161000F12C9BCF251306C0941304C0F801EE20D3
:1016200009F487C0C8010E945107882319F1EE20F0
:1016300009F180919402803270F020918F023091F4
:10164000900238872F831986BB86AA868C87CE01A5
:1016500007960E94F00686E0F801AFE8B2E001903C
:101660000D928A95E1F70E94F3090E94E509FF2493
:10167000F3946BCFC8010E94F006F9CF311113C06B
:101680007A2DB98AA88A6E2D89890E9458078FE819
:1016900092E00E94F00686E0F60111928A95E9F741
:1016A0000E94E509B5CF25130FC094130DC0E110BA
:1016B0000BC0F8018583C8010E94F00686E0F601A0
:1016C00011928A95E9F741CFC8010E9451078823FA
:1016D00089F2EE2079F280919402803208F4BBCF37
:1016E00020918F02309190023A8329831B82BD8220
:1016F000AC828E83CE010196ACCFE83CF10508F0B8
:101700003EC0FE2CEE2009F4B5CF25132AC0941359
:1017100028C08091940280FD1BC0982F907FC1F05B
:10172000F8018583903F31F0982F907F905F8F7004
:10173000892B8583C8010E94F00686E0F801AFE896
:10174000B2E001900D928A95E1F70E94E509FDCE85
:1017500086E0F801AFE8B2E001900D928A95E1F7DA
:10176000F4CEC8010E945107811175CF8091940277
:10177000816080939402C8010E94F006E6CE7A2D23
:10178000B98AA88A6E2D89890E94580786E0F601D9
:1017900011928A95E9F7D9CFEE2009F46BCFC801F1
:1017A0000E945107F82E882309F464CF86E0F801DF
:1017B000AFE8B2E001900D928A95E1F78FE892E0F0
:1017C0000E9414040E94F309C0CF81E08E25D7CE79
:1017D0001F93CF93DF93CDB7DEB72C970FB6F89456
:1017E000DEBF0FBECDBF4F83588769877A878B874F
:1017F0009C87CE0107960E94490A882369F08A8552
:101800009B85892B39F04F815885842F85238F3F05
:1018100009F071C016E05FC086E0FE013796DE0178
:10182000119601900D928A95E1F78A859B85892B07
:1018300089F38F81988589238F3F61F320915E0220
:1018400030E0C90101968770992740915D024817E1
:10185000190671F40E942E0710925E0210925D022A
:1018600086E0EFE8F2E0DF011D928A95E9F7D2CF3A
:1018700096E0929FD001939FB00D1124A15ABD4FC5
:10188000FE01319601900D929A95E1F780935E02E8
:101890000E94C409BFCF819FC0011124815A9D4F6E
:1018A0000E94490A8823E9F0E0915D021E9FF00141
:1018B0001124E15AFD4F40815181628173818481FD
:1018C00095810E94670780915D0290E00196877084
:1018D000992780935D0280915D0290915E02891349
:1018E000DACF2C960FB6F894DEBF0FBECDBFDF91D6
:1018F000CF911F91089569857A858B859C850E947B
:10190000670788CF682F80910401909105010C949E
:10191000FA29682F80910401909105010C94FC290B
:1019200080910401909105010C94FE29809195020B
:101930008595859585950895809195028770089580
:1019400090919502977081E009F480E0089590915C
:101950006C0392FB222720F9281751F080FB92F9A3
:1019600090936C0380916B0390916C030C94A60D83
:10197000089580916C0382FB882780F991E0892784
:101980000C94A70C81E00C94A70C80E00C94A70C9D
:101990008091A10208959091A102892B8093A102C8
:1019A000089580959091A10298239093A1020895A3
:1019B0001092A10208959091A002892B8093A00219
:1019C000089580959091A00298239093A002089585
:1019D0001092A002089590919F02892B80939F02FC
:1019E0000895809590919F02982390939F02089567
:1019F00010929F02089580919602089508950C9484
:101A0000FE0C90916C0392FD08C09091960298177D
:101A100021F0809396020C94FF0C08958091960219
:101A2000882329F01092960280E00C94FF0C089510
:101A3000E0910401F09105018091A1028083E09181
:101A40000401F091050180819091A002892B80838F
:101A5000E0910401F0910501808190919F02892B12
:101A6000808390919602992381F0E0910401F09196
:101A700005018081892B808380910401909105016B
:101A80000E94B22981110E940E0D80910401909153
:101A900005010C946D2908950C944B0D90916C03E5
:101AA00092FD10C098E0899F90011124622B6093F1
:101AB00095020E94E9078091950285958595859507
:101AC0000C944C0D0C94E9071092950280E00C9454
:101AD0004C0D909195028095892380939502282F33
:101AE000277039F4282F082E000C330B9217130699
:101AF00021F490916C0392FF07C08595859585959B
:101B00000E940A080C94640D089590E080E00E9401
:101B1000513321E0893E9E4F09F020E0822F089545
:101B200082E090E00C94433383E090E00C944333E4
:101B3000CF9384E090E00E944333C82F82E290E08C
:101B40000E944333982F8C2FCF910895CF93C92FA4
:101B5000682F84E090E00E9457336C2F82E290E07F
:101B6000CF910C945733AB01BC018FE090E00C9403
:101B70006933AB01BC0183E190E00C94693360E010
:101B800070E0CB010C94B90D60E070E0CB010E94D5
:101B9000B30D0C94BF0D69EE7EEF90E080E00E94E3
:101BA000753360E082E090E00E94573360E083E0AC
:101BB00090E00E9457331092590210925A021092EC
:101BC0005B0210925C0260E084E090E00E94573378
:101BD00060E082E290E00E94573360E085E090E0B0
:101BE0000E94573360E086E090E00E9457336FEF29
:101BF00087E090E00E94573340E050E0BA0188E06F
:101C000090E00E94693360E08DE090E00E945733DD
:101C100040E050E0BA0188E190E00E94693360E062
:101C200087E190E00E94573340E050E0BA018CE138
:101C300090E00E94693370E060E080E290E00E94F2
:101C4000753340E050E0BA0188E190E00E946933CA
:101C50000C94C40D0C94CB0D682F8EE090E00C9486
:101C600057330E94E32A6093B5027093B6028093C3
:101C7000B7029093B8026093B1027093B20280935E
:101C8000B3029093B40208950E94E32A6093B502D0
:101C90007093B6028093B7029093B8026093AD023E
:101CA0007093AE028093AF029093B002089585B70F
:101CB000806885BF85B7806885BF089508950895B9
:101CC0000C945E0E08950C94620E0E94570E8FE3E2
:101CD00091E10E94622B0E945F0E0C94600E0C94A6
:101CE0007513089508950E94710E0C94720E0E944F
:101CF000CE2A0E94052A0E941B120E9412250E94D1
:101D000065220E942B200E9404240C94630EAF9243
:101D1000BF92CF92DF92EF92FF920F931F93CF93D8
:101D2000DF93CDB7DEB72A970FB6F894DEBF0FBEAC
:101D3000CDBF0E94E41281110E94310E83EAA82EC9
:101D400082E0B82E10E000E0C02E802F0E946C11BF
:101D5000E82EF501F1905F01F81609F457C0809163
:101D6000B90281FD0E9472118F2D8E25D12CFF2486
:101D7000F394982F9F2109F444C00E946F0E88238A
:101D800099F0DE82CF82EF2081E009F480E088873D
:101D90000E94D72A8160782F9A8789874E815F8138
:101DA00068858A850E94D603F801ED55FD4F808134
:101DB000F826F0820E9498200E94C3230E9461248A
:101DC00081110E94440E0E9454180E945A29909139
:101DD000A202891791F10E945A298093A2022A96A1
:101DE0000FB6F894DEBF0FBECDBFDF91CF911F912C
:101DF0000F91FF90EF90DF90CF90BF90AF900C9439
:101E0000CE03D394FF0CF6E0DF12B3CF0F5F1F4F6A
:101E10000A30110509F098CF8FEF89838A831B82DE
:101E20000E94D72A8160782F9D838C8349815A81B3
:101E30006B818D810E94D603BDCF2A960FB6F89490
:101E4000DEBF0FBECDBFDF91CF911F910F91FF90ED
:101E5000EF90DF90CF90BF90AF90089590E080E03A
:101E600008950895972F70E026E0929F600D711DF0
:101E70001124FB019CE3899FE00DF11D1124EE0F5D
:101E8000FF1FE455FF4F859194910895FC01EE0FDB
:101E9000FF1FEC5EFD4F859194910895CF93DF93E2
:101EA0000E946510EC01811520E5920708F042C000
:101EB000811530E4930708F0BDC0883E910528F5F0
:101EC000803E910508F09DC0883A910588F4853AD6
:101ED000910508F08FC08130910509F492C00097F8
:101EE00009F48FC0049708F08CC0D0E0C0E089C02E
:101EF0008F3B910508F489C0805C9109C03CD105F5
:101F0000A0F30E94460FEC017CC08115904250F472
:101F1000C11581E0D80708F074C0CD3ED10528F383
:101F2000D0656FC0C11590E3D90708F079C0CE0124
:101F30009F70E7CF811525E5920758F5811534E5A7
:101F4000930708F0A6C0811542E5940750F4C11527
:101F500081E5D80708F471C0DC2FCC27C16FD06AA7
:101F600050C0982F969596959E0123703327C115E2
:101F7000D34508F07FC0C1E0D0E002C0CC0FDD1F28
:101F80002A95E2F720E2929FC0011124C82BD92B99
:101F90006FC0C11589E5D807A8F4C11598E5D90720
:101FA00008F07CC0C11526E5D20708F09ECF8C2F23
:101FB0000E94FC10C82FD0E0DC2FCC27CC27DF718B
:101FC000D0621FC0C1153AE5D30708F46CC0CE013A
:101FD00090568115904208F088CF8D2F8F710E9406
:101FE000FC1090E0982F882788279F719C012C2B4C
:101FF000E901E6CFC55AD0E0C651DE4FC881D0E036
:10200000D064CE01DF91CF910895C85AD0E0CC0FB3
:10201000DD1FC454DE4F0990D881C02DD464F1CFA8
:10202000CE019927D3FF03C0EC01D86CEACFEC01B5
:10203000D06CE7CFDF70D06AE4CFCE01E4E09695B4
:102040008795EA95E1F783702C2F269526952370C6
:1020500090E2299F90011124382B8C2F8370C1E0CE
:10206000D0E002C0CC0FDD1F8A95E2F7C22BD32B44
:10207000DC68C7CFC1E0D0E002C0CC0FDD1F2A95DD
:10208000E2F730E2939FC0011124C82BD92BDA6804
:10209000B8CFD82FCC27C46FD06AB3CFDC2FCC27D2
:1020A000C06FD06AAECF8C2F8F700E94FC1034E0CE
:1020B000D695C7953A95E1F7CF709C2FEC01D06982
:1020C000A0CF0E94320F0C944E0F82389105B1F1CF
:1020D000B0F48133910509F475C048F48932910553
:1020E00009F469C08A32910509F473C008958533F3
:1020F000910509F459C08933910501F10895833E92
:102100009105A9F138F4803E9105F9F0823E9105E0
:1021100049F10895863E9105A9F1873E9105C9F1DF
:10212000843E910519F520916C0321FF1FC0809119
:102130006B0384FD14C087EE90E0089520916B033B
:102140002370A1F080EE90E0089520916B0320FDB4
:1021500047C030916C0330FF09C024FF44C090E0B9
:1021600080E004C020916B0322FDF7CF08952091F9
:102170006B0322FD3BC030916C0330FDE3CF24FFA5
:10218000F5CFEDCF20916B0323FFF0CF24FDE7CFF8
:10219000D2CF20916B0323FD2CC030916C0331FF13
:1021A000EECF84EE90E0089520916B0325FFDECF03
:1021B00089E290E0089520916B0325FFD7CF85E356
:1021C00090E0089520916B0326FFD0CF8AE290E043
:1021D000089520916B0326FFC9CF81E390E0089515
:1021E00089E390E0089583EE90E0089582EE90E018
:1021F000089586EE90E0089590916B0392FF06C0DB
:10220000282F28712830F9F4877F846093FF06C057
:10221000282F28712831F1F4877E846120916C0386
:1022200020FF06C0382F38713830D9F4877F81609D
:1022300021FF06C0282F28712831D1F4877E8161C3
:1022400094FD877E0895282F24712430F9F68B7F22
:102250008860DCCF282F2471243101F78B7E8861C0
:10226000DDCF382F3171313019F78E7F8860E0CFA4
:10227000282F2171213121F78E7E8861E1CF80E006
:10228000089508950E94850D811102C00E942A0EB2
:102290000E94900D8093B9020E94980D90936C0358
:1022A00080936B030E9441110E94940D682F70E08F
:1022B00090E080E00E94870760915502709156027D
:1022C00080915702909158020C94C10708950C9484
:1022D000661108950C946911E82FF0E0E958FC4F5D
:1022E00080810895089580EA8A95F1F7089500C0E5
:1022F00008950C947311F894E82FE295EF70F0E0D4
:1023000031A1282F2F7081E090E001C0880F2A951D
:10231000EAF7982F9095932391A392A1892B82A3FA
:102320007894089508950C949211CF93DF93CCE0A4
:10233000D1E089918F3F11F00E947B1181E0C13182
:10234000D807B9F7C6E0D1E089918F3F11F00E941C
:102350007B1181E0CC30D807B9F7DF91CF91089598
:10236000CF92DF92EF92FF920F931F93CF93DF9361
:10237000EC01D62E062F10E0C801845F9E4F7C0131
:10238000FC0180818F3F09F44BC0F894E82FE2955F
:10239000EF70F0E091A18F7021E030E001C0220FDA
:1023A0008A95EAF7892F822B81A382A12095282381
:1023B00022A378940E947711E6E0F1E030E020E07B
:1023C000C12C51E041914F3FA1F1A42FA295AF70D4
:1023D000B0E090968C9190E04F7002C095958795F3
:1023E0004A95E2F780FD25C0852F022E01C0880F97
:1023F0000A94EAF7C82A2F5F3F4F2630310511F7BC
:10240000F70180818F3F11F00E947B1161E0C110C4
:1024100001C060E08D2D0E947911C00FD11FC882CC
:10242000DF91CF911F910F91FF90EF90DF90CF90B0
:10243000089580E0DFCFCF93DF93CDB7DEB760970D
:102440000FB6F894DEBF0FBECDBF0E948D138091F2
:102450001601811132C0FE01359686E0DF011D9222
:102460008A95E9F781E3898382E38A8382E98B8312
:1024700081EF8C8384EF8D83CE010196ECE0F1E057
:102480009E01255F3F4FDC014D91CD014193A21785
:10249000B307C9F726E0E5E8F1E0DE011B960190FD
:1024A0000D922A95E1F7FC01A6E0B1E0CE0141963C
:1024B00021912D93E817F907D9F78091160195E03E
:1024C000811190E09093820385E0891B80938103C2
:1024D0000E949511EDE6F3E0A7E7B3E011921D929B
:1024E00083E0E737F807D1F785E00E9437130E94B1
:1024F0004D0360960FB6F894DEBF0FBECDBFDF91DF
:10250000CF910C94A213FF920F931F93CF93DF935D
:1025100000D000D00F92CDB7DEB70E947513F82E11
:1025200060918203882309F442C08E010F5F1F4F20
:1025300085E0F80111928A95E9F7862F90E0B801BD
:1025400089589C4F0E94B013E09181039E012A5F3D
:102550003F4FF0E0882311F1BF0169587C4FD8014B
:10256000F12CFB014191BF019D91491731F0AF0161
:1025700041505109FA019083F82EA217B30789F749
:102580000E9455038F2D0F900F900F900F900F907A
:10259000DF91CF911F910F91FF900895E958FC4F63
:1025A000D80111921D92A217B307D9F7E9CF70E0B5
:1025B00069587C4F8091810390E089589C4F0E941C
:1025C0003D140E949311DECFEF92FF920F931F9361
:1025D000CF93DF93CDB7DEB72A970FB6F894DEBF5F
:1025E0000FBECDBF8E010F5F1F4F8AE0F801119221
:1025F0008A95E9F7F12C6F2DC8010E94B011F39470
:10260000F5E0FF12F8CF4AE050E0B8018DE693E024
:102610000E942D337C0121E0892B09F420E0E11494
:10262000F10441F08AE0F801ADE6B3E001900D92CB
:102630008A95E1F76091820370E069587C4F45E02C
:102640008DE693E00E94381381E090E0EF2811F4CA
:102650000E9483122A960FB6F894DEBF0FBECDBF3C
:10266000DF91CF911F910F91FF90EF900895089502
:10267000FF920F931F93CF93DF93F82E092F162FFE
:10268000D72FC42F222349F081E08093BC020E94FF
:10269000D72A9093BB028093BA028091BC02882310
:1026A000A1F08091BA029091BB020E94EF2A059797
:1026B00060F0EF2DF02FA12FBD2FCE0FDF2FD11DFA
:1026C000EC17FD0741F41092BC02DF91CF911F91EE
:1026D0000F91FF90089581918D93F2CF55985D9859
:1026E00089B185FB882780F908958091BF02811107
:1026F00007C00E940C32882351F081E08093BF0212
:1027000081E09091BF02913009F080E0089582E06D
:102710008093BF020E940732F3CF0E946E13809312
:1027200016018091160166E0882349F080E00E943E
:10273000071A0E947513882321F00C94E61386E093
:10274000F6CF08950E947513811102C00C94E8130E
:10275000089581E09091C0029A3008F080E00895D9
:102760000F931F93CF93DF93EC018B018091C002F5
:102770008A30B8F4B801CE010E943B14C82F8111F1
:1027800022C08091C0028F3FB9F40E94D72A909353
:10279000BE028093BD028C2FDF91CF911F910F91CC
:1027A00008958091BD029091BE020E94EF2A843F5D
:1027B000914000F7C0E0EFCF8F5F8093C0028A3076
:1027C00020F7C1E0E8CF1092C002E5CF0C94942727
:1027D0000C949727EF92FF920F931F93CF93DF9361
:1027E0007901C82F880FDD0B41155105A9F08AE04A
:1027F0008C9FF0018D9FF00D1124E95EFE4F8381C7
:1028000094818F539D4F228130E04217530708F483
:102810009A01A9010E943A33CE010E94A128892B76
:1028200011F501151105E9F08AE08C9FF0018D9FEB
:10283000F00D1124E95EFE4F458150E004171507A5
:1028400008F4A8018AE08C9FF0018D9FF00D1124FF
:10285000E95EFE4F668177816F537D4FC7010E940D
:102860003A3381E001C080E0DF91CF911F910F9159
:10287000FF90EF9008950C9433160C9467160F9305
:102880001F93CF93DF9300D000D0CDB7DEB7609118
:10289000E7027091E8028091E9029091EA020E94B9
:1028A000FE2A11E0643671058105910518F10E9438
:1028B0002B2A6E5F7F4F8F4F9F4F69837A838B8365
:1028C0009C8310E000E030E020E044E050E0BE01F6
:1028D0006F5F7F4F84E00E94EA13182F882351F026
:1028E0000E94E32A6093E7027093E8028093E90272
:1028F0009093EA02812F0F900F900F900F90DF912D
:10290000CF911F910F91089578940895AF92BF923F
:10291000CF92DF92EF92FF920F931F93CF93DF93AB
:10292000C82F7B01D42F69015801FB01608171819F
:10293000828193810E94FE2A64367105810591058A
:1029400010F4DD23F9F010E000E030E020E0A50114
:10295000B6018C2F0E94EA13C82F882339F00E94F9
:10296000E32AF70160837183828393838C2FDF9145
:10297000CF911F910F91FF90EF90DF90CF90BF907C
:10298000AF900895C1E0F2CF0F931F93CF93DF93E1
:10299000CDB7DEB728970FB6F894DEBF0FBECDBF18
:1029A000CE0101960E94531F41E08885811101C02C
:1029B00040E008E010E09E012F5F3F4F6FEE72E0B5
:1029C00086E00E948614182F81110E94501F812FCB
:1029D00028960FB6F894DEBF0FBECDBFDF91CF9122
:1029E0001F910F9108950F931F93CF93DF930F9231
:1029F000CDB7DEB70E944A228823E1F00E945F2211
:102A00008983E091ED01F091EE0141E09485981306
:102A100001C040E001E010E09E012F5F3F4F6BEEF0
:102A200072E085E00E9486140F90DF91CF911F9194
:102A30000F91089580E0E4CF7F928F929F92AF92A2
:102A4000BF92CF92DF92EF92FF920F931F93CF939B
:102A5000DF930F92CDB7DEB7762E4A015901680198
:102A600001E010E09E012F5F3F4F50E040E070E03A
:102A700060E00E94EA13182F882309F43EC0F40195
:102A800060817181828193810E94FE2A6436710582
:102A90008105910558F18701950150E040E070E013
:102AA00060E0872D0E94EA13B82EB701C6010E948C
:102AB000132511E09981981310E01B2139F00E9431
:102AC000E32AF4016083718382839383812F0F90C3
:102AD000DF91CF911F910F91FF90EF90DF90CF90FA
:102AE000BF90AF909F908F907F900895B701C601DF
:102AF0000E94132599818913CECFA701B601C50184
:102B00000E943A33E3CFEF92FF920F931F93CF933C
:102B1000DF930F92CDB7DEB70091ED011091EE017A
:102B2000095F1F4FEE24E394F12C9E012F5F3F4F6E
:102B300043EE52E063E082E00E941C15182F8823C8
:102B400021F0CE0101960E94D324812F0F90DF91B6
:102B5000CF911F910F91FF90EF900895CF92DF9248
:102B6000EF92FF920F931F93CF93DF9300D000D08B
:102B70000F92CDB7DEB76B010091ED011091EE0120
:102B80000F5F1F4F85E0E82EF12C9E012F5F3F4F16
:102B90004FED52E061E080E00E941C15882349F06F
:102BA00095E0FE013196AAEDB2E001900D929A9562
:102BB000E1F795E0EAEDF2E0D60101900D929A95E9
:102BC000E1F70F900F900F900F900F90DF91CF9142
:102BD0001F910F91FF90EF90DF90CF9008959F92FB
:102BE000AF92BF92CF92DF92EF92FF920F931F931B
:102BF000CF93DF937C015B016A010E94A91301E07E
:102C000010E0882311F00AE010E0C1E0D0E0F89471
:102C1000B501C701F6010995982E0E948414911000
:102C200004C021960C171D076CF4892DDF91CF91FC
:102C30001F910F91FF90EF90DF90CF90BF90AF90DA
:102C40009F900895CC9F9001CD9F300D300D1124A1
:102C500090E080E045E34A95F1F700000196821785
:102C60009307C1F7D4CF0F931F93CF93DF93EC015A
:102C70008B014EEA55E10E94EF15882311F143E8DC
:102C800055E1B801CE010E94EF158823D1F04FE342
:102C900054E1B801CE010E94EF15882391F043EF73
:102CA00054E1B801CE010E94EF15882351F044ECA5
:102CB00054E1B801CE01DF91CF911F910F910C9497
:102CC000EF1580E0DF91CF911F910F910895CF9282
:102CD000DF92EF92FF920F931F93CF93DF930F92A8
:102CE000CDB7DEB7F8940091ED011091EE01C80167
:102CF000019625E0FB01DC0101900D922A95E1F798
:102D000065E070E00E941325F80180830E9484141E
:102D1000F894CE0101960E94CA248981F801878324
:102D200061E070E0CE0101960E941325F8018683D0
:102D30000E948414F894F8016085718582859385DA
:102D4000C090D602D090D702E090D802F090D9027D
:102D50006C157D058E059F0551F06093D60270932A
:102D6000D7028093D8029093D9020E940E2A0E9423
:102D70008414F894F80184850E9465230E948414C9
:102D8000F894F8018489882339F060E0C8010D9631
:102D90000E946320F801148A0E9484140F90DF912E
:102DA000CF911F910F91FF90EF90DF90CF900895FA
:102DB0000E944F2A0E94C02C0E94D92C0E94EB2C0A
:102DC0000E94730EFBCF8091F90280FF12C06091C8
:102DD000620185E0689FB00111247595679575952E
:102DE000679560387105A8F561157105A1F1862F09
:102DF000089581FF09C06091620185E0689FB0017C
:102E0000112475956795EDCF6091620182FD0AC02E
:102E10008091F8028823D1F0909161016091620164
:102E2000891728F085E0689FB0011124DACF869FCA
:102E3000B001112485E0869F9001879F300D1124F9
:102E4000692F70E0C9010E945732CBCF65E070E076
:102E5000CECF8FE7089581E008958091F90280FF39
:102E60000CC060915E0170E07595679575956795EA
:102E70006115710549F1862F089581FF06C06091A3
:102E80005E0170E075956795F3CF60915E0182FDFC
:102E90000BC09091F7029923A1F060915D018091A0
:102EA0005E01961738F0682F70E06038710500F306
:102EB0008FE70895899FC001112470E00E94573266
:102EC000F4CF61E070E0D7CF81E008958D3E31F41A
:102ED0000E94E31681958093FD0208958E3E19F4B9
:102EE0000E94E316F8CF8F3E31F40E94E3168195DD
:102EF0008093FC020895803F19F40E94E316F8CFF6
:102F0000893F29F40E942D178093FE0208958A3F7D
:102F100021F40E942D178195F7CF8B3F31F40E9449
:102F20002D1781958093FF0208958C3F19F40E941C
:102F30002D17F8CF9FE0980F983070F4815F990BB0
:102F400021E030E001C0220F8A95EAF78091FB0270
:102F5000822B8093FB0208958D3F31F48091F9021A
:102F600081608093F90208958E3F21F48091F902E7
:102F70008260F7CF8F3FB9F78091F9028460F1CF7B
:102F80004091FC028D3E59F48091FD0287FF0DC0F7
:102F90001092FD0241110BC01092F80208C08E3E43
:102FA00081F48091FD0218169CF3442381F08091F6
:102FB000FE029091FF02892B09F05AC01092F7028D
:102FC00008958F3E49F447FFF0CF1092FC028091A4
:102FD000FD028111ECCFE0CF803F19F41416ACF361
:102FE000E4CF9091FE02893F29F41916F4F610926D
:102FF000FE02DBCF8A3F19F497FFD7CFF8CF90912D
:10300000FF028B3F29F497FFD0CF1092FF02CDCF64
:103010008C3F19F41916CCF3C8CF9FE0980F983065
:1030200090F4815F990B21E030E0B90102C0660F96
:10303000771F8A95E2F7CB0180959091FB02892357
:103040008093FB02B2CF8D3F31F48091F9028E7FE5
:103050008093F902AACF8E3F21F48091F9028D7FEF
:10306000F7CF8F3F09F0A1CF8091F9028B7FF0CF8E
:1030700008950E94D72A9C019091FC028091FD0244
:10308000982B21F03093F6022093F5029091FE02E6
:103090008091FF02982B21F03093F4022093F302E9
:1030A0008AEF92E00C947829EF92FF920F931F938E
:1030B000CF93DF9300D000D000D0CDB7DEB786E04D
:1030C000EAEFF2E0DE01119601900D928A95E1F7A8
:1030D000E090FC02F090FD020091FE021091FF02D0
:1030E0001092FC021092FD021092FE021092FF025A
:1030F0008E2D8F2991F08091F5029091F6020E9419
:10310000EF2AAC019091F802992309F43FC0809115
:1031100063018417150608F447C0802F812B91F0B6
:103120008091F3029091F4020E94EF2AAC019091F9
:10313000F702992309F477C080915F01841715067F
:1031400008F47FC08091FC029091FD02892B909140
:10315000FE02892B9091FF02892B11F00E943918F1
:1031600086E0FE013196AAEFB2E001900D928A95B9
:10317000E1F726960FB6F894DEBF0FBECDBFDF9104
:10318000CF911F910F91FF90EF90089520916401CE
:103190008AE0289F900111242417350708F0BDCF3D
:1031A0009F5F9093F80202C09F3FD1F7EE2059F045
:1031B0000E94E3169FEF1E140CF491E0899F802D6E
:1031C00011248093FC02FF2059F00E94E3169FEF28
:1031D0001F140CF491E0899F802D11248093FD022F
:1031E0003091FC02332309F498CF2091FD02222371
:1031F00009F493CF45EB3403C0011124992359F00E
:103200009093FC0245EB240390011124332339F001
:103210003093FD0282CF81E08093FC02F3CF81E006
:103220008093FD027ACF209160018AE0289F90016F
:1032300011242417350708F085CF9F5F9093F7027C
:1032400002C09F3FD1F7002359F00E942D179FEF36
:1032500010160CF491E0899F802D11248093FE02BA
:10326000112359F00E942D179FEF11160CF491E0D5
:10327000899F802D11248093FF023091FE02332319
:1032800009F460CF2091FF02222309F45BCF45EBC4
:103290003403C0011124992359F09093FE0245EBA9
:1032A000240390011124332339F03093FF024ACFD5
:1032B00081E08093FE02F3CF81E08093FF0242CF52
:1032C00086E0EAEFF2E0DF011D928A95E9F71092BD
:1032D000F8021092F7021092F9020895EF92FF920D
:1032E0000F931F93CF93DF93EB01E82FD11110C001
:1032F000442321F0F0E0E25DFC4FE4916E2F7E2F3D
:103300008E2FDF91CF911F910F91FF90EF90089535
:103310000D2F10E0282F30E0442329F0225D3C4F90
:10332000F901249130E0F6E0CF9FC0011124EFEFC6
:10333000F0E0BF010E944332AB018C2F90E0880F78
:10334000991FA5E5A49FB001A59F700D1124861BB0
:10335000970B982F990F980FBF01601B710B629FFD
:10336000D001639FB00D729FB00D11248B2F9D9FD4
:10337000B0011124672F7727EF01C61BD70BBE01C1
:10338000629FE001639FD00D729FD00D11247F01D9
:10339000E91AF108E09EB001E19E700DF09E700DFB
:1033A0001124672F7727E61BF70BE29F8001E39F2D
:1033B000100DF29F100D1124E12F722F4230510594
:1033C00099F048F44115510569F04130510581F0FB
:1033D000EB2F8D2F07C04430510569F080F0463047
:1033E0005105B1F76E2F8DCFE22F7B2F812FFACFB2
:1033F000E22F7D2FF7CFEB2F822F712FF3CF7B2F73
:10340000822FED2FEFCF41E00C946E190895E8E67E
:10341000F1E08083618308950C94031ACF93DF93C6
:10342000762FE901682F842F0E940C1A7983688314
:103430008A83DF91CF91089580918403982F9E7F96
:1034400029F4817082608093840308958635E8F3BF
:1034500081708465F8CF88E090E00C944B33CF9274
:10346000DF92EF92FF926B017C010E941C1AB70160
:10347000A60188E090E0FF90EF90DF90CF900C9451
:103480006933E4E8F3E087E1808311828FEF828380
:1034900080E883831482A9E4B3E012968C9112979A
:1034A000836012968C9360817181828193810C94E8
:1034B0002F1A8091840380FF02C08695089580E0D2
:1034C000089590918803933018F49F5F9093880338
:1034D000882351F060918403709185038091860365
:1034E000909187030C942F1A089581E00C94611A2F
:1034F00090918803992319F0915090938803882321
:1035000051F06091840370918503809186039091BE
:1035100087030C942F1A089581E00C94781A70E0B8
:103520000C94D423609169018091840380FF0AC0C8
:103530008091680123E0829FC001112487579C4F2E
:103540000C948F1A80916A0190916B0123E0829F05
:10355000F0011124E757FC4F891750F711821082B0
:1035600012828F5F3396F8CF9091840390FF14C03E
:1035700090916A0120916B0133E0939FF001112437
:10358000E757FC4F921710F00C94921A81836083D6
:1035900042839F5F3396F6CF0895CF93DF9300D099
:1035A0000F92CDB7DEB79091840390FF0AC09E01C1
:1035B0002F5F3F4F0E940E1A4B8169818A810E94C2
:1035C000B41A0F900F900F90DF91CF910895CF9381
:1035D000DF93EC01EC81F0E0E75DFD4F4491E4E81E
:1035E000F3E0628181810E94CD1A8C818F5F8C8390
:1035F000DF91CF910895CF93DF93EC01E4E8F3E0FE
:10360000438162818C810E94CD1A8C818F5F8C8373
:10361000DF91CF9108950F931F93CF93DF9300D045
:103620000F92CDB7DEB78C018091000381110AC0E3
:103630009E012F5F3F4F4FEF6FEF0E940E1A8A815E
:1036400080930003F8016481613069F08091000388
:1036500040E0662361F040E0623011F440910003E5
:1036600080E060E004C06091000340E080E00E94E0
:10367000B41AF801848190E0019663E070E00E9442
:10368000573284830F900F900F90DF91CF911F914D
:103690000F910895AF92BF92CF92DF92EF92FF9277
:1036A0000F931F93CF93DF9300D00F92CDB7DEB768
:1036B000182FF62E042FE22E9091840390FF3AC02B
:1036C000E92FE695AE2FB0E0A151BE4F8C918093CB
:1036D00049039E7F9230E1F59E012F5F3F4F812F7E
:1036E0000E940E1A4B8169818A810E94B41A8091CE
:1036F0008503811308C0809186038F1104C08091D7
:103700008703801729F080914B03826080934B03DD
:1037100010938503F092860300938703EE2051F007
:103720006091840370918503809186039091870353
:103730000E942F1A0F900F900F90DF91CF911F9141
:103740000F91FF90EF90DF90CF90BF90AF900895D2
:10375000823019F400918703CACF863019F4109192
:103760008503C5CF8930D9F3893109F6E9518E2F08
:103770008170D82EE695F0E0E75DFC4FA590B490FF
:10378000C12CBB2460916C01C61618F00E94921ADD
:10379000AECF2C2D30E0A29EC001A39E900DB29E14
:1037A000900D112470E00E944332812FD11013C07C
:1037B000860F40916A01420F532F511D9A01220F2B
:1037C000331F240F351F27573C4F402F6F2D0E946A
:1037D0000E1AC394D7CF861BECCFE4E8F3E09181B7
:1037E000282F4381628188E0890F0C944A1B81E075
:1037F0000C94ED1BE4E8F3E09181282F4381628172
:1038000088EF890F0C944A1B81E00C94FA1BE4E8C2
:10381000F3E0628121E1620F08F46FEF282F43810A
:1038200081810C944A1B81E00C94071CE4E8F3E0CE
:10383000628121E1621B08F460E0282F43818181CD
:103840000C944A1B81E00C94161CE4E8F3E04381DD
:1038500021E1420F08F44FEF282F628181810C94FF
:103860004A1B81E00C94251CE4E8F3E0438121E14C
:10387000421B08F440E0282F628181810C944A1B8E
:1038800081E00C94341C20E00C944A1BEF92FF92D0
:103890001F93CF93DF93EC0110E0EE24EA94F12C18
:1038A00060916C01161770F00E94921A9A818C81B7
:1038B00090FF27C08F5F8C83DF91CF911F91FF9086
:1038C000EF90089520916A01422F410F5527551F0F
:1038D000CA019A01220F331F280F391F27573C4F67
:1038E00070E0C7010E945732962F8C814091870368
:1038F00060918603199F800D11240E940E1A1F5F8C
:10390000CFCF8150D8CF8F929F92AF92BF92CF925C
:10391000DF92EF92FF920F931F93CF93DF93EC010F
:103920008A81BB24BA9480FD02C0BB24B3948C81ED
:1039300081110AC081E0B8122AC080916C018150C7
:103940008093020381E08C83A12C4CE0942E809123
:103950006C01A816F8F00E94921A8091020391E07F
:10396000B91261C081115AC080916C01815080935D
:1039700002031C82DF91CF911F910F91FF90EF9076
:10398000DF90CF90BF90AF909F908F90089510924E
:103990000203D8CF00916A01CA2CD12C0C0D1D2D29
:1039A000111DC801880F991F080F191F07571C4FB9
:1039B000F80111821082128234E0E32EF12C812C66
:1039C00080910203880D8D301CF1692D0E943532E3
:1039D000892F082E000C990BC816D90691F48091F6
:1039E00087038E9DA0018F9D500D112455954795FD
:1039F00055954795980160918603809185030E94B3
:103A00000E1A8B0CF1E0EF1AF108D1F6A3949FCFB8
:103A100087FFDFCF90916C01890FDBCF81508093BE
:103A20000203BC82A7CF90E0019660916C0170E028
:103A30000E945732809302038C839CCFEF92FF92B7
:103A40000F931F93CF93DF93EC018C81811109C0F9
:103A500081E08C831092010392E090936701809340
:103A6000660180916A0190916B0123E0829FF001D1
:103A70001124E757FC4F891768F110E003E06091CB
:103A80006C01161768F10E94921A809166012091CC
:103A90000103280F2093010390916701980F9093E1
:103AA0006701191654F4022E000C330B40916C017F
:103AB0004150550B2417350734F0819580936601EA
:103AC000813009F41C82DF91CF911F910F91FF90FB
:103AD000EF9008951182108212828F5F3396CBCFC0
:103AE000E12EF12C70E0C7010E94573220916A014B
:103AF000820F482F50E020910103022E000C330B5F
:103B0000E216F306BCF020916701022E000C330B85
:103B10002E153F057CF0809F9001112427573C4FC4
:103B20004091870360918603809185030E940E1A5D
:103B30001F5FA5CFFA01EE0FFF1FE40FF51FE75738
:103B4000FC4F118210821282F3CF8F929F92AF921C
:103B5000BF92CF92DF92EF92FF920F931F93CF937A
:103B6000DF93EC014C81042F10E09801D8010E94F2
:103B70009B329B01AC010E94B1324B015C01E0E23F
:103B8000F0E0E01BF10BA5E5B0E0AC019B010E9469
:103B9000B1326B017C019F01DF010E9493329B01D6
:103BA000AC010E94BC329B01AC01280D391D4A1D9D
:103BB0005B1DC701B6010E946B32F22E822F90E08E
:103BC00039E23F1560F143E0249F900111243595BF
:103BD0002795122F109500E085E5E82EEF188091CB
:103BE0006C01081758F10E94921A9C8181E0992378
:103BF00019F0903219F48FEF80936501809165017F
:103C0000890F8C83DF91CF911F910F91FF90EF90DF
:103C1000DF90CF90BF90AF909F908F90089525E553
:103C200030E0B901681B790B9B01220F331F260F6F
:103C3000371F37FFCCCF2F5F3F4FC9CF8E2D01FDF0
:103C40008F2D20916A01622F600F7727771F9B01CC
:103C5000220F331F260F371F27573C4F412F6091EC
:103C600086030E940E1A0F5FBACF0F931F93CF9354
:103C7000DF93EC0110E000E090916C0190171106C9
:103C800009F06CF40E94921A8C8190E00196817088
:103C900099278C83DF91CF911F910F9108952091E7
:103CA0006A01A801420F511D9A01220F331F240FF0
:103CB000351F27573C4F4C816091860380918503C7
:103CC00096959017110651F04CF0442349F040911D
:103CD00087030E940E1A0F5F1F4FCECF4423B9F304
:103CE00040E0F7CF4F925F926F927F928F929F92B8
:103CF000AF92BF92CF92DF92EF92FF920F931F93FA
:103D0000CF93DF93FC016280448081E08483E9E209
:103D1000F2E07490E8EAF2E0E491812C75E0972EED
:103D2000F2E0CF2EDD24D394AA24AA94B12C5524FA
:103D30005A94E7190E2F10E080916C01881690F0CC
:103D4000DF91CF911F910F91FF90EF90DF90CF9077
:103D5000BF90AF909F908F907F906F905F904F90AB
:103D60000C94921AE82CF12C82E0861568F09E9C47
:103D7000F0019F9CF00D1124EA5FFC4F80918503B8
:103D80008083809186038183411023C09E9CF00133
:103D90009F9CF00D1124EA5FFC4F13821282209148
:103DA0006A01C701820F911D9C01220F331F280F4A
:103DB000391F27573C4F9E9CF0019F9CF00D11240A
:103DC000EA5FFC4F4281618180810E940E1A8394D8
:103DD000B3CF9E9CE0019F9CD00D1124CA5FDC4FA5
:103DE0008B818823E9F081508B83859DC00111244C
:103DF0006C8170E00E944332FB01FF27E75DFD4FBD
:103E00008491E82FE719E59DC0011124B8010E94B3
:103E1000433280918703689FB00111247A83BFCF1A
:103E20000E94103320918703269521582C9DA001D4
:103E30002D9D500D1124452F5527841795070CF003
:103E4000AECF82E0861588F40E941033B5010E943F
:103E5000573288830E941033209186032695622F63
:103E600070E00E945732280F29839E9CF0019F9C8E
:103E7000F00D1124EA5FFC4F128280918703893C88
:103E800058F088EC9E9CF0019F9CF00D1124EA5F95
:103E9000FC4F8483838383CF8431A0F784E1F2CF06
:103EA00010924B03089525E0E4E8F3E0DC01019073
:103EB0000D922A95E1F72091490330914A034091F0
:103EC0004B03FC012583368347830895E9E4F3E03F
:103ED00011828281846082830895E4E8F3E0808126
:103EE0008E7F80830E94661FE9E4F3E08281816017
:103EF00082832FEF80E792E0215080409040E1F7ED
:103F000000C000000C94921AE4E8F3E080818E7FF8
:103F1000808360817181828193810E942F1A0E9427
:103F2000661FE9E4F3E08281816082832FEF80E7FE
:103F300092E0215080409040E1F700C000000C94D6
:103F4000921A60918403669570E04BE050E08DE634
:103F500091E00E942033892B19F481E080934A0379
:103F60000E94462A909343038093420380914B031F
:103F7000846080934B0308959091840390FF3AC02E
:103F8000917081112DC092609093840380914B03B6
:103F9000816080934B03662351F06091840370919C
:103FA000850380918603909187030E942F1A609168
:103FB0008403669570E04BE050E08DE691E00E944E
:103FC0002033892BA1F00E94661F81E08093450376
:103FD0004091870360918603809185030C94431C74
:103FE0008B3210F09465D0CF880F982BCDCF0E94E4
:103FF000A11FEBCF0895682F90918403969581E0DF
:10400000890F8B3208F081E00C94BC1F81E00C9486
:10401000FB1F682F9091840396958FEF890F09F409
:104020008AE20C94BC1F81E00C94092061E00C949E
:10403000BC1FE4E8F3E080818160808386950C9466
:1040400016208091840380FD0C94841F0C94192009
:1040500060E00C94BC1F80914803811133C00E9422
:10406000850D811104C00E942A0E0E94411A0E94EF
:104070002B1A609384037093850380938603909337
:10408000870380914B03836080934B036E7F61F4C1
:104090000E94411A0E942B1A609384037093850337
:1040A00080938603909387030E941C1A0E94661FC8
:1040B0008091840380FF03C086950E94282081E0C0
:1040C0008093480308951F93CF93DF93EC01162F3D
:1040D0008F8180FF0CC0888180FF24C08091840381
:1040E000816080938403888186950E94BC1F8F81A4
:1040F00081FF06C0212F4B816A8189810E944A1B62
:104100008F8182FF05C08E81882379F00E94A11FD4
:104110008F8183FF03C081E080934503DF91CF91BE
:104120001F9108950E946D1FE2CF0E94661FF0CF7D
:10413000EF92FF920F931F93CF93DF9380914A03E7
:10414000882309F462C080914903E0918403E695D5
:10415000E81BE0934403823009F05EC0F0E0EB5DC1
:10416000FD4FE491CE2FD0E007EE1AE18091450398
:10417000882361F0109245030E94462A90934303DE
:104180008093420310924703109246030E94462AEE
:10419000E0914203F09143039C012E1B3F0B2F3F04
:1041A0003F4798F5209105032223B1F010920503B3
:1041B0002091030330910403821B930B8F3F9F4791
:1041C00058F4205D3A483093040320930303809110
:1041D0004B03886080934B03E0904603F0904703C5
:1041E000EC0FFD1FF0934303E093420382E493E05E
:1041F000F80109958091460390914703892B29F492
:10420000EF2819F081E080930503DF91CF911F9192
:104210000F91FF90EF900895863049F4F0E0EE5D45
:10422000FD4FE491CE2FD0E00BEF1AE19FCF893004
:1042300051F4E695F0E0E15EFD4FE491CE2FD0E041
:1042400006E41CE193CF8F3051F4E695F0E0E45E94
:10425000FD4FE491CE2FD0E003E81CE187CF8531FC
:1042600049F4F0E0E75EFD4FE491CE2FD0E00EE19F
:104270001DE17CCFC8E2D0E005EA1DE1883109F4F8
:1042800075CF833239F4E7E1F2E0C591D4910BE0C8
:104290001BE16CCFC4EFD1E005E31EE1843209F4E9
:1042A00065CFC0EDD7E006E01AE1853209F05ECFB8
:1042B0008E2F63E00E942932E92FF0E0EC5EFD4F83
:1042C000E491CE2FD0E002E71EE150CFFA01811138
:1042D00001C0FB010994CF93DF93C82FD62F0E9412
:1042E000591A8C1740F00E94591A8D1720F4DF914B
:1042F000CF910C9406208C2FDF91CF910C94162037
:104300001F93CF93DF93EC01FB01128111111BC0AE
:104310000E94C80C8272CD3CFCE5DF0709F4A0C006
:1043200008F045C0C73CECE5DE0709F485C0F8F4A9
:10433000C43C9CE5D90709F475C050F4C33CDC4586
:1043400009F46DC011E0812FDF91CF911F91089585
:10435000C53C9CE5D90709F46AC044E05CE167EF1D
:104360007BE1C63CDC4571F70E946621ECCFCA3C7C
:10437000FCE5DF0709F46AC068F4C83CECE5DE0739
:1043800009F45FC043E15CE162E27CE1C93CDC45E9
:1043900059F3D8CFCB3C9CE5D90709F45CC04CE875
:1043A0005AE165E77AE1CC3CDC45F1F2CBCFC23D86
:1043B000FCE5DF0709F463C098F4CF3C9CE5D9071E
:1043C00009F457C008F451C0C03DFCE5DF0709F40B
:1043D00053C0C13DDC4509F0B5CF6EE089E01CC09B
:1043E000C53D9CE5D90709F450C058F4C33DFCE530
:1043F000DF0709F447C0C43DDC4509F0A3CF88E1DD
:1044000035C0C63D9CE5D90709F442C06AE285E2A1
:10441000CE35DD4509F096CF0E946B2194CF0E94E6
:10442000212091CF43E150E266E070E29DCF46E06B
:1044300050E263E170E298CF47EF5BE164E07CE13A
:1044400093CF42E25CE163E17CE18ECF40E45CE14A
:1044500061E37CE189CF41E35CE160E47CE184CF0E
:1044600045E75AE16CE87AE17FCF81E00E941620AF
:104470006ACF65E082E0D0CF68E086E0CDCF64E12E
:104480008FE0CACF67E185E1C7CF62E289E1C4CF9F
:1044900083E2ECCF8091AD038170089586E090E0D7
:1044A0000C944333682F86E090E00C945733EDEA88
:1044B000F3E080818470896180830C945222809122
:1044C000AD0386958695869508950E94850D811188
:1044D00004C00E942A0E0E9457220E944E228093FE
:1044E000AD03803320F0877088628093AD03909194
:1044F000AD03892F817090FF04C0892F8695869522
:1045000086950C9465238091AD03982F969596958A
:104510009695953040F49F5F990F990F990F87708A
:10452000892B8093AD038091AD0381608093AD03AF
:104530000E9452228091AD038695869586950C94B3
:1045400065238091AD03982F987F79F088508093F0
:10455000AD03887F91E009F490E08091AD0390FB7A
:1045600080F98093AD030E9452228091AD0386951D
:10457000869586950C9465238091AD0380FD13C0CC
:1045800081608093AD03813019F489E08093AD039D
:104590008091AD030E9452228091AD03869586954D
:1045A00086950C94652308958091AD0380FF08C023
:1045B0008E7F8093AD030E94522280E00C9465238D
:1045C00008958091AD0380FD0C94D4220C94BC22FC
:1045D0009091AD03892F8695869586958F5F8F7113
:1045E00097708630D8F4880F880F880F892B8093B6
:1045F000AD038091AD03887F91E009F490E0809154
:10460000AD0390FB80F98093AD030E94522280910C
:10461000AD038695869586950C9465239093AD039E
:10462000E8CF863008F085E09091AD039770282F91
:10463000220F220F220F922B9093AD03987F21E03F
:1046400009F420E09091AD0320FB90F99093AD0325
:104650000C9465230E9411238091AD030C94522287
:104660009C01FB018281882349F12E3BFCE53F0739
:10467000C9F040F42C3BECE53E0769F02D3B3C458E
:1046800079F00895203C9CE5390791F070F0213CC9
:104690003C4589F0089585E00E942A2380E0089532
:1046A00080E0FACF0E94A122F9CF0E948322F6CFA8
:1046B0000E94E122F3CF0E94E822F0CF81E008952A
:1046C000259A2D9808952D980895CF92DF92EF9214
:1046D000FF92CF93C82F863040F5811127C080917B
:1046E00080008F77809380000E9463232C2F30E01E
:1046F000AFEFBFEF0E949B3225E030E040E050E09A
:104700000E946B32C9012C3764E13607A8F469E0D6
:1047100070E00E9443327093890060938800CF91CB
:10472000FF90EF90DF90CF900895C5E080918000DA
:10473000806880938000DACF2A50374D4F4F5F4F0B
:10474000942F832F722F662725EF38E241E050E047
:104750000E946B3269017A01CA01B9010E941932C3
:104760009B01AC01C701B6010E941932672F782F57
:10477000892F99276115710521E08207910559F666
:104780006FEF7FEFC8CF08950E94602382E8809387
:10479000800089E1809381008FEF9FEF90938700E5
:1047A000809386000C946522569A4BB14F7B5BB187
:1047B0005064EFB7F8949B01220F331F260F371F69
:1047C000280F391F2817390741F4EFBF8FE594E010
:1047D0000197F1F700C000000895DC016D91CD0153
:1047E00078E05BB9000000C067FF4BB9660F0000BE
:1047F00000C000C000C04BB900C07A9591F7E2CF6D
:1048000081E008950C94002480911601811106C066
:1048100087EF8093790186EF809378012091790169
:10482000A22FA295AF70B0E091963C9191972F7016
:1048300081E090E0BC01022E01C0660F0A94EAF705
:10484000462F4095432391964C93919792963C9195
:104850009297362B92963C93929740917801E42F51
:10486000E295EF70F0E031A14F70042E01C0880F87
:104870000A94EAF7982F9095932391A392A1892BFC
:1048800082A390968C9190E002C0959587952A9589
:10489000E2F7817020A130E002C0359527954A9556
:1048A000E2F792E020FF90E0892B809351039091F2
:1048B000160181E0982790934D03891B80934C0348
:1048C0000895CF93E0915103EE0FEE0F20917901FF
:1048D000A22FA295AF70B0E090968C9190E02F70CF
:1048E00002C0959587952A95E2F7817099274091A6
:1048F0007801A42FA295AF70B0E090962C9130E093
:104900004F7002C0359527954A95E2F7A90141708D
:10491000552720FF02C042E050E0842BE82BE093B3
:104920005103C0914D03EF70F0E0E65EFD4F8081D2
:1049300090915003890F8093500320E0843064F0FD
:10494000EC2FF0E0E25BFC4F80818F5F808360E0C2
:104950008C2F0E94022421E0809150038D3F64F44B
:10496000EC2FF0E0E25BFC4F80818150808361E0BE
:104970008C2F0E94022421E080915003082E000C0D
:10498000990B64E070E00E94573280935003822FAD
:10499000CF910895E0914D03F0E0E25BFC4F208160
:1049A000FC0120830895FF920F931F93CF93DF9311
:1049B000D0914C030D2F10E0025B1C4FFC01C08115
:1049C000F8018081C81BFC2E80E01F147CF09C2F16
:1049D000C7FD90E0C91BC11114C08823E9F0DF9125
:1049E000CF911F910F91FF900C94440EFA94F8010F
:1049F00080818F5F808360E08D2F0E94022481E0A0
:104A0000E4CFCF5FF80180818150808361E08D2FFA
:104A10000E94022481E0DFCFDF91CF911F910F919F
:104A2000FF9008950895FC01680F791F8FEF91E3BF
:104A30006E177F0709F408952191822728E030E05E
:104A400087FF06C0880F892721503109C9F7F0CFA9
:104A5000880FFACF0F931F93CF93DF93C42FD22FDA
:104A6000FC0182818823C9F0409354030E94D72A15
:104A7000909353038093520380E28C0F883008F0A8
:104A800050C0C77081E001C0880FCA95EAF7DF9176
:104A9000CF911F910F910C94B504109154031413EE
:104AA00035C080915203909153030E94EF2A883CB5
:104AB000910560F5C0E2CD0F1D17B9F080E2810FBE
:104AC000883040F4177081E001C0880F1A95EAF72A
:104AD0000E94BC04C83048F481E09D2F977001C04B
:104AE000880F9A95EAF70E94B504802F0E94AD04C2
:104AF000C830B8F4D77081E001C0880FDA95EAF7C2
:104B0000DF91CF911F910F910C94BC0480E28C0F28
:104B1000883038F4C77081E001C0880FCA95EAF781
:104B2000EFCFDF91CF911F910F9108950F939C01CB
:104B3000CB01243F4CE5340759F1A8F4293DFCE5AD
:104B40003F0701F12A3D4CE53407D1F1283D3C45B2
:104B500091F406E221EE41EE68ED7CE50E942A2503
:104B600080E00F910895263FFCE53F07E9F0B0F0A3
:104B7000273F3C45F9F0FC018281882339F11092EE
:104B80005403EFCF07E225EE45EE69ED7CE5E6CF75
:104B900006E221EE40EE64EF7CE5E0CF07E225EE91
:104BA00044EE65EF7CE5DACF06E221EE42EE66EFF9
:104BB0007CE5D4CF07E225EE46EE67EF7CE5CECF6D
:104BC00008E221E045EE6AED7CE5C8CF81E0C9CF7F
:104BD000CF93DF93EC01FB018281882309F419C193
:104BE000C230FCE5DF07C0F1C6319CE5D90730F0E3
:104BF0009E012B5F3C452930310570F50E94980DD0
:104C000090936C0380936B03C031ECE5DE0709F4ED
:104C1000CFC008F05BC0C8308CE5D80709F4B6C037
:104C200088F5C430ECE5DE0709F4A8C0C0F4C23052
:104C30008CE5D80709F49CC080916B038260C33077
:104C4000DC4509F498C080916B0390916C030E943D
:104C5000A60D0E942E0780E0DF91CF9108958091EC
:104C60006B038061C630ECE5DE0709F484C08091F7
:104C70006B038860C730DC4508F47DC080916B030E
:104C8000806279C0CC308CE5D80709F489C070F413
:104C900080916B038C60CA30ECE5DE0709F46BC0D1
:104CA00008F478C080916B038E7F65C0CE308CE5B0
:104CB000D80709F479C080916B038B7FCF30DC4536
:104CC00008F459C080916B038F7E55C0CC3FECE552
:104CD000DE0709F457C030F5C3318CE5D80709F475
:104CE0006FC078F4C131ECE5DE0709F465C0C2316C
:104CF000DC4509F0A8CF0E942E0780916B038F77C7
:104D00003AC0C5318CE5D80709F462C008F476C012
:104D100080916C038160CB3FDC4509F094CF809398
:104D20006C0391CFC115FDE5DF0709F44DC088F490
:104D300080916C038D7FCE3F9CE5D90781F38091F4
:104D40006C038E7FCF3FDC4550F380916C03836012
:104D5000E6CFC230FDE5DF0709F459C008F444C0CE
:104D600080E0C330DD4509F06ECF0E942C0E6BCF82
:104D700080916B03816080936B0365CF80916B039F
:104D80008460F9CF80916C038260C9CF80916B03FE
:104D90008064F1CF0E942E0780916B038068EBCF77
:104DA00080916B038D7FE7CF80916B03877FE3CF8B
:104DB00080916B038F7DDFCF80916B038F7BDBCF87
:104DC00080916B03837FD7CF80916C038C7FA7CFBB
:104DD00080916B0382FB992790F921E0922790FB49
:104DE00082F990FB83F9C7CF80916C03982F90953F
:104DF00091708E7F892B90FB81F991CF0E942E07B5
:104E000090916B03892F97FB87F98058B4CF81E08D
:104E1000ACCF81E021CFCF93DF93EB0186319C456E
:104E200011F50E94C80C9A81992399F08A7A91E031
:104E300009F490E090935503811109C089E20E9422
:104E4000820C0E94180D80E0DF91CF91089585E3D8
:104E5000F6CF80915503811104C089E20E94890C2C
:104E6000F0CF85E3FBCF81E0EFCF8EE1489B02C01E
:104E70008150E1F7489BFECF0895589880E28A95CB
:104E8000F1F7589A0895FC013BE03A95F1F798E064
:104E900020E080E031E040E14A95F1F7880F489B3F
:104EA00002C08160232742E04A95F1F7000040E10B
:104EB0004A95F1F7915079F790E19A95F1F799B108
:104EC00032E03A95F1F7000040E14A95F1F7917030
:104ED00092272081920F90830895EF92FF920F9373
:104EE0001F93CF93DF930F92CDB7DEB719828C015A
:104EF0007C01E60EF11C0E151F0561F481E099811D
:104F0000911180E00F90DF91CF911F910F91FF9051
:104F1000EF9008950E943527CE0101960E94432705
:104F2000F80181938F01E7CF509A589A08955098CD
:104F3000589AE89AE9E6F0E080818C7F80830895B2
:104F40006150770B91E001C0990F6A95EAF720E074
:104F500031E0911108C0222391F0589A80E28A959D
:104F6000F1F758980895492F482339F0589A232784
:104F700040E24A95F1F79695ECCF5898F9CF5898BA
:104F8000EDCFFF920F931F93CF93DF93EC018C0132
:104F9000060F111DC017D10731F4DF91CF911F917A
:104FA0000F91FF900895F9900E943D2768E08F2DA2
:104FB0000E94A027EFCF1F920F920FB60F921124DD
:104FC000EF92FF920F931F932F933F934F935F9313
:104FD0006F937F938F939F93AF93BF93EF93FF93C1
:104FE000CF93DF930F92CDB7DEB719820E9435279A
:104FF000CE0101960E944327A82FA695A695A695B7
:10500000282F229525709A2F9570290F922F937033
:1050100026952695920F982797708981982B09F0ED
:1050200075C0A83008F072C080E18A95F1F7589AEF
:10503000509AB2E0BA95F1F700C05898EA2EF12CD8
:10504000EAE0AE9FD0011124A95EBE4F1896ED9103
:10505000FC9119973097B1F06091ED017091EE01DC
:1050600016962D913C911797260F371F13968D9109
:105070009C911497680F791F15964C91159712966D
:105080008C9109958AE08E9DF0018F9DF00D112481
:10509000E95EFE4F6581662351F02091ED0130916C
:1050A000EE0186819781820F931F0E94C1270E9483
:1050B0003D27F0E1FA95F1F758985098589A80E119
:1050C0008A95F1F78AE08E9D80018F9D100D112445
:1050D000095E1E4FD80112966C911297662371F1EA
:1050E0002091ED013091EE0113968D919C91820FEC
:1050F000931F0E946D27D801ED91FC91882311F038
:1051000088E001C082E080830E9435270F90DF9104
:10511000CF91FF91EF91BF91AF919F918F917F912F
:105120006F915F914F913F912F911F910F91FF9040
:10513000EF900F900FBE0F901F901895ED91FC917E
:10514000DFCF0F931F93CF93DF93EC0108970CF001
:10515000A9C08AE08C9FF0018D9FF00D1124E95EBB
:10516000FE4F80819181892B09F49CC0F894509A5C
:10517000589885E08A95F1F700008C2F8695857008
:105180009C2F9570890F982F937086958695890F1F
:105190008E0193E0000F111F9A95E1F7082B0E94F2
:1051A0003D2700C068E0802F0E94A027A0E1AA95BB
:1051B000F1F75098589A489B27C087E090E04899AB
:1051C00025C08AE08C9F80018D9F100D1124095EFF
:1051D0001E4FF80165816623A1F12091ED01309108
:1051E000EE0186819781820F931F0E946D278111A6
:1051F00028C0509A589AD801ED91FC9182E08083A2
:10520000789482E090E016C000C0D5CF0197B9F441
:10521000509A589A8AE08C9FF0018D9FF00D1124CE
:10522000E95EFE4F0190F081E02D81E0808378946B
:1052300081E090E0DF91CF911F910F91089500C020
:10524000BECF0E943527B0E2BA95F1F75898509A30
:10525000E0E1EA95F1F78AE08C9FF0018D9FF00D77
:105260001124E95EFE4F6281662351F02091ED0129
:105270003091EE0183819481820F931F0E94C12798
:105280000E943D278AE08C9FF0018D9FF00D112434
:10529000E95EFE4F0190F081E02D1082789490E05D
:1052A00080E0C8CF84E090E0C5CF90935C0380930A
:1052B0005B0308950E947513811103C0809156030A
:1052C0000895E0915B03F0915C03309721F0019029
:1052D000F081E02D099480E00895E0915B03F09166
:1052E0005C03309721F00280F381E02D099408954A
:1052F000E0915B03F0915C03309739F022E0DC0130
:105300002C930480F581E02D099408952091590390
:1053100030915A032817390771F090935A038093FC
:105320005903E0915B03F0915C03309721F0068014
:10533000F781E02D09940895209157033091580387
:105340002817390771F09093580380935703E09121
:105350005B03F0915C03309721F00084F185E02D30
:10536000099408959C012E5F3F4FAC01485F5F4F49
:1053700080E02417350709F40895F90191919F0100
:105380009923B9F38F5FF5CF662349F0FC0132967C
:1053900008962191261729F0E817F907D1F780E040
:1053A000089581E008959C01FC0132969FEF80E012
:1053B0004191461751F09F3F19F4411101C0982FB8
:1053C0008F5F8630A9F79F3F09F40895290F311D9B
:1053D00097FD3A95F90162830895FC01329608968B
:1053E0002191261303C0DF0111971C92E817F907DA
:1053F000B9F708950C94D3290C94ED29029626E070
:10540000FC0111922A95E9F708951092AE031092CB
:10541000AF031092B0031092B1030895CF92DF92C0
:10542000EF92FF926B017C010E94751381110EC0F7
:105430000E94E32AC61AD70AE80AF90AC092AE0304
:10544000D092AF03E092B003F092B103FF90EF90DF
:10545000DF90CF9008950F931F930E9475138823B8
:1054600021F01F910F910C94E32A0E94E32A0091EE
:10547000AE031091AF032091B0033091B103600FE0
:10548000711F821F931F1F910F9108950E94751322
:1054900081110C94D72A0E942B2ACB0108950895DC
:1054A000089508950C94512A8091BA03843061F1D3
:1054B0000E94522A80E00E94652380E00E94CE0371
:1054C00010925D0388E190E020E40FB6F894A8956F
:1054D000809360000FBE2093600083B7817F84605B
:1054E00083BF83B7816083BF7894889583B78E7FAD
:1054F00083BF0FB6F894A89580916000886180936F
:105500006000109260000FBE08950895CF930E942E
:10551000502A0E94E4120E94852AC0E08C2F0E942B
:105520006C11811105C0CF5FCA30C1F7CF910895CA
:1055300081E0FCCF08950C949A2A0E942E070E94C5
:1055400065220E945A290E94CE030C949B2A1F9226
:105550001FB61F9211248F939F93AF93BF93809197
:105560005D03811113C08091B2039091B303A091A8
:10557000B403B091B5034196A11DB11D8093B20350
:105580009093B303A093B403B093B503BF91AF91CD
:105590009F918F911F901FBE1F90189582E084BD30
:1055A00093E095BD9AEF97BD80936E0008952FB755
:1055B000F8948091B2039091B303A091B403B09199
:1055C000B5032FBF08952FB7F8946091B20370917F
:1055D000B3038091B4039091B5032FBF08959C014C
:1055E0004FB7F8948091B2039091B303A091B403A4
:1055F000B091B5034FBF821B930B0895CF92DF92FA
:10560000EF92FF922FB7F894C090B203D090B303FB
:10561000E090B403F090B5032FBFA7019601261BBD
:10562000370B480B590BCA01B901FF90EF90DF907F
:10563000CF90089578941F921FB61F9211248F93D4
:105640009F93AF93BF938091B2039091B303A091C6
:10565000B403B091B5030196A11DB11D8093B203AF
:105660009093B303A093B403B093B503BF91AF91EC
:105670009F918F911F901FBE1F90189581E080937E
:10568000E00080E28093D8001092C9008FE19EE490
:105690000197F1F700C0000087E090EBDC018093F8
:1056A000C3039093C403A093C503B093C60388E1DA
:1056B0009CE00FB6F894A895809360000FBE90937D
:1056C0006000FFCF90932B0280932A02089580916F
:1056D000690308959091BA03943031F580935E0385
:1056E0007093600360935F0382E08093E9008FEF23
:1056F0009091E800815095FD06C095ED9A95F1F7DF
:1057000000008111F5CF8091E80085FF0DC050E0C9
:1057100040E063E070E08EE593E00E94762D80919A
:10572000E8008E778093E8000895BC0184E00C9433
:105730006A2BBC0183E00C946A2B9C0182E080936D
:10574000E9009FEF8091E800915085FD06C085ED4E
:105750008A95F1F700009111F5CF8091E80085FF5F
:105760000CC050E040E066E070E0C9010E94762D78
:105770008091E8008E778093E8000895CF93DF93BF
:10578000EC0181E08093E9008FEF9091E800815077
:1057900095FD06C095ED9A95F1F700008111F5CFC2
:1057A0008091E80085FF14C050E040E068E070E0C0
:1057B000CE010E94762D8091E8008E778093E800DC
:1057C00088E0FE01A1E6B3E001900D928A95E1F731
:1057D000DF91CF9108958091B903811109C00E9492
:1057E000062F0E94632F8091E20084608093E20084
:1057F00008951092B903089508950895089542E018
:1058000061EC81E00E94822E42E261EC82E00C9425
:10581000822E8091BC03833009F45FC030F4813064
:10582000C1F1823009F49BC008958A3009F487C021
:105830008B3009F46DC0893009F04EC08091BB03F4
:10584000813209F049C08091BF039091C003029753
:1058500008F042C08091E800877F8093E800809143
:10586000E80082FF35C09091F3008091F20002972A
:1058700029F48091F1008B7F813021F48091F10037
:10588000809369038091E8008B778093E8000C9403
:10589000B62E8091BB03813AF9F48091E800877FAE
:1058A0008093E8008091BF039091C003892B61F43D
:1058B00068E081E693E070E00E94C52D8091E800E9
:1058C0008B778093E800089560E090E080E0F3CF6C
:1058D0008091BA038111C3CF08958091BB03813AAF
:1058E000D9F78091BF039091C003892BA9F78091CC
:1058F000E800877F8093E8008091E80080FFFCCF7C
:10590000809184018093F1008091E8008E77BDCF73
:105910008091BB03813201F78091BF039091C00356
:10592000892BD1F68091E800877F8093E8000E9460
:10593000B62E8091BD03809384010C942E07809134
:10594000BB03813249F68091E800877F8093E800AD
:105950000E94B62E8091BE0380936A0308958091C1
:10596000BB03813A09F0B8CF8091E800877F80932C
:10597000E8008091E80080FFFCCF80916A03C2CFED
:1059800084B7877F84BF0FB6F894A8958091600094
:10599000886180936000109260000FBE80E890E004
:1059A0000FB6F89480936100909361000FBE0C9441
:1059B000650E0E94062F0E94632FE2EEF0E08081C8
:1059C0008460808378940E94EC310E94770E8AE78D
:1059D00091E00C9455298091BA03853031F480917F
:1059E000BA03853021F00E949D2A0C94870E0E94F4
:1059F000542A8091B803882391F30E94862A882331
:105A000071F30E94602D0E942E07E9CF0C94082D9F
:105A1000292F33272330310519F168F4213031055E
:105A200009F444C02230310509F445C090E080E01B
:105A300030E020E025C02132310549F12232310524
:105A4000A9F780E490E024E235E061157105C1F02A
:105A50008BE790E029EA34E06130710589F0E6CF08
:105A600099278130910581F0009729F00297F1F68E
:105A7000EEE2F4E002C0E8E5F4E0849190E09F01FA
:105A8000FA01318320830895E8E4F4E0F6CF89E059
:105A900090E02EE634E06115710591F389E090E025
:105AA00027E834E06130710559F3C0CF82E190E01E
:105AB00027E934E0E5CF8BE390E02CE534E0E0CF5C
:105AC00080E189BD82E189BD09B400FEFDCF8091EE
:105AD000D8008F7D8093D8008091E0008260809311
