:100000000C94C0030C948C2C0C9407040C940704DF
:100010000C9407040C9407040C9407040C94070434
:100020000C9407040C9407040C9458260C94142682
:100030000C94A9270C9407040C9407040C9407044F
:100040000C9407040C9407040C9407040C94070404
:100050000C9407040C9485270C9407040C94070453
:100060000C9407040C9407040C9407040C940704E4
:100070000C9407040C9407040C9407040C940704D4
:100080000C9407040C9407040C9407040C940704C4
:100090000C9407040C9407040C9407040C940704B4
:1000A0000C9407040C9407040C9407040631FF0910
:1000B00074A1010975150026FF00952075088102BD
:1000C0000976150026FF00952075089102C00501EC
:1000D0000980A101850319012AB700150126B7007F
:1000E000950175108100C0050C0901A10185041955
:1000F000012AA002150126A002950175108100C0F9
:1001000005010906A101050719E029E715002501E8
:10011000950875018102950175088101050719008F
:1001200029FF150026FF00950675088100050819AE
:10013000012905950575019102950175039101C08D
:10014000726762206D617472697820746F67676C82
:1001500065205B25735D3A207267625F6D61747222
:1001600069785F636F6E6669672E656E61626C6544
:10017000203D2025750A0044454255473A206469D0
:100180007361626C65642E0A0044454255473A200B
:10019000656E61626C65642E0A0029001E001F00F6
:1001A0002000210022002B0014001A000800150076
:1001B0001700E00004001600070009000A00E10033
:1001C0001D001B0006001900050000000000E300F0
:1001D0002D00015102512A0027002600250024008D
:1001E00023003100130012000C0018001C00340022
:1001F00033000F000E000D000B0028003800370000
:1002000036001000110000000000F3002C00F10087
:10021000F20035003A003B003C003D003E0001008A
:100220003F004000410042004300010044004500FF
:10023000010001000100E1000100010001000100D6
:100240000100000000000100E200000000002E009C
:100250000100010049000100010030002F004D00A5
:1002600052004A004B00010001004F0051005000B5
:100270004E0001000100010001000100010000002A
:10028000000000000000F100F200C35CCE5C000042
:100290000000000000000000C45CC65CC85CCA5CD2
:1002A000CC5C0000C55CC75CC95CCB5CCD5C00006D
:1002B000000000000000000000000000000000003E
:1002C0000000000000004C000000560055005400E3
:1002D0002A00000000005700610060005F00580025
:1002E000580085005E005D005C0058005800670003
:1002F0005B005A0059000000000063006200F1003A
:10030000F2004F6E6573686F743A206163746976AA
:10031000653A2025640A000A002530325820006B17
:100320006579626F6172645F7265706F72743A2092
:100330000054617267657420636F6E6E65637465E7
:10034000640D0A0054617267657420646973636F99
:100350006E6E65637465642C207468726F74746C5F
:10036000696E6720636F6E6E656374696F6E20617E
:100370007474656D7074730D0A004661696C656410
:1003800020746F20657865637574652025730A0095
:100390007267625F6D61747269785F636F6E6669C0
:1003A000672E666C616773203D2025640A007267C2
:1003B000625F6D61747269785F636F6E6669672EE4
:1003C0007370656564203D2025640A007267625F72
:1003D0006D61747269785F636F6E6669672E6873AA
:1003E000762E76203D2025640A007267625F6D617B
:1003F000747269785F636F6E6669672E6873762EB4
:1004000073203D2025640A007267625F6D6174721B
:1004100069785F636F6E6669672E6873762E6820F1
:100420003D2025640A007267625F6D6174726978AD
:100430005F636F6E6669672E6D6F6465203D202572
:10044000640A007267625F6D61747269785F636FDE
:100450006E6669672E656E61626C65203D2025645D
:100460000A007267625F6D61747269785F636F6EB4
:1004700066696720454550524F4D0A007267625FBA
:100480006D61747269785F696E69745F64726976B0
:10049000657273207267625F6D61747269785F6301
:1004A0006F6E6669672E6D6F6465203D20302E206B
:1004B00057726974652064656661756C7420766135
:1004C0006C75657320746F20454550524F4D2E0A50
:1004D000007267625F6D61747269785F696E6974DA
:1004E0005F64726976657273206565636F6E6669B5
:1004F00067206973206E6F7420656E61626C65643D
:100500002E0A004B6579626F6172642073746172A8
:10051000742E0A000A0025303862003A2000253087
:100520003258000A722F6320303132333435363777
:100530000A000A0025303258006B6579626F6172DB
:10054000645F7365745F6C65643A20005B735D0083
:100550000001010101010101010102020202020286
:100560000202020303030303030303040404040459
:100570000404050505050506060606060707070720
:100580000708080808090909090A0A0A0B0B0B0CD5
:100590000C0C0D0D0D0E0E0E0F0F0F101011111172
:1005A00012121313141415151616171718181919F3
:1005B0001A1A1B1B1C1D1D1E1E1F20202122222358
:1005C0002424252626272829292A2B2C2D2D2E2F99
:1005D00030313232333435363738393A3B3C3D3EB0
:1005E0003F404142434445464748494A4C4D4E4F9F
:1005F00050515354555658595A5B5D5E5F61626461
:10060000656668696B6C6D6F7072737577787A7BED
:100610007D7E8082838587888A8C8E8F9193959644
:10062000989A9C9EA0A2A3A5A7A9ABADAFB1B3B564
:10063000B7BABCBEC0C2C4C6C9CBCDCFD1D4D6D840
:10064000DBDDDFE2E4E7E9EBEEF0F3F5F8FAFDFFDE
:100650006565636F6E6669675F7570646174655F19
:100660007267625F6D61747269785F6465666175F7
:100670006C740A005B435D005B445D005B535D008E
:100680005B575D005B525D0009025B00030100A047
:10069000FA09040000010301010009211101000110
:1006A0002240000705810308000A09040100010334
:1006B0000000000921110100012232000705820318
:1006C00020000A09040200020300000009211101B0
:1006D0000001222200070583032000010705030310
:1006E000200001120100020000000810CB56620039
:1006F000060102000118034900720069007300201E
:10070000005200650076002E002000360000000E2A
:10071000034B0065006500620069006F0000000483
:10072000030904726762206D6174726978207365D1
:1007300074207370656564205B25735D3A202575B0
:100740000A00726762206D61747269782073657443
:1007500020687376205B25735D3A2025752C2575FE
:100760002C25750A00726762206D617472697820A9
:100770006D6F6465205B25735D3A2025750A000066
:1007800011241FBECFEFDAE0DEBFCDBF04B603FEFB
:1007900027C08091E3049091E404A091E504B09116
:1007A000E6048730904BA740B04BD1F41092E3049D
:1007B0001092E4041092E5041092E60414BE84B78B
:1007C000877F84BF0FB6F894A895809160008861F8
:1007D00080936000109260000FBEE0E0F8E309959E
:1007E00024E0A2E0B3E001C01D92A33EB207E1F70E
:1007F00013E0A0E0B1E0E2E5FFE502C005900D9254
:10080000A230B107D9F70E94D0270C94672F0C941F
:100810000000FF93EF93E0910203F0910303309700
:1008200009F00995EF91FF910895FC0185918030C1
:1008300011F0EFDFFBCF0895FF27E0E230E247FF42
:100840000CC0419597FF09C0EDE2609570958095C9
:100850009095611D711D811D911D27FF02C021957D
:1008600030E350E2AA27660F771F881F991FAA1F3F
:10087000A41710F0A41B63955A95A9F7AA3008F0A5
:10088000A95FA05DAF93F395611571058105910591
:1008900041F7ED3211F4EF93F395F21718F43F930B
:1008A000F395FBCF8F91B5DFFA95E1F70895E991C4
:1008B000F9918591803021F0853219F0AADFF9CFC6
:1008C000089520E0E89455915532C1F3503311F466
:1008D000689455915A3348F4505390F3220F022EE6
:1008E000220F220F200D250FF4CF0EF421958991B0
:1008F0009991533619F3533729F1533559F1BC0106
:1009000088279927E8945C3621F489919991689415
:100910005591543639F446EF7EF077FF0DC08FEFD6
:100920009FEF0AC055374AE039F0583540E121F0D1
:10093000523642E009F00895FF93EF937DDFEF9187
:10094000FF91B7CFFF93EF93FC0181918030B9F312
:1009500060DFFBCFFF93EF9368DFF1CFDF93CF939F
:10096000CDB7DEB72596A3DFCF91DF910895E8EDEF
:10097000F0E080818E7F80831092E2001092DA0096
:100980001092E100A0EEB0E08C9181608C938081A8
:100990008F77808319BCA7EDB0E08C918E7F8C930C
:1009A00080818F7E80831092BD0408952091E400A1
:1009B0003091E50095E6A9012091EC00822F81702D
:1009C00020FF06C08091E80080FF06C080E0089507
:1009D0002091E80022FD1AC08091CA04882389F082
:1009E000853089F08091EB0085FD0FC02091E400F7
:1009F0003091E50042175307F9F29150E1F684E097
:100A0000089582E0089583E0089581E00895EF92CB
:100A1000FF920F931F93CF937C018B010E94D6040A
:100A2000C82F811117C08091E80085FD0BC080910F
:100A3000E8008E778093E8000E94D604882399F31B
:100A4000C82F08C0F70181917F018093F100015008
:100A5000110949F78C2FCF911F910F91FF90EF90C3
:100A600008958091CC0487FF13C08091E80082FF35
:100A700006C08091E8008B778093E80004C08091E5
:100A8000CA048111F2CF08958091CA048823D9F352
:100A90008091E80080FFF8CF8091E8008E77ECCF5E
:100AA000982F9093E900242F762F50E0891731F08A
:100AB0007091EC002091ED005091F00021FD07C0F5
:100AC0009F5F973071F78093E90081E0089530913E
:100AD000EB003E7F3093EB003091ED003D7F309393
:100AE000ED003091EB0031603093EB007093EC003F
:100AF0002093ED005093F0002091EE0027FDE0CF11
:100B000080E00895CF92DF92EF92FF920F931F93B0
:100B1000CF93DF93C8EDD0E088818F7E8883E7EDA7
:100B2000F0E080818160808384E082BF81E08093F7
:100B3000BD0488818E7F888302EE10E0F801108268
:100B40001092DA0081EEC82ED12CF6011082888135
:100B50008F77888388818068888388818F7D888368
:100B600019BC1092CA041092CB041092C9041092BE
:100B7000C80490EEE92EF12CF70180818B7F8083F1
:100B800088818160888342E060E080E00E945005B7
:100B9000F60180818E7F8083F8018081816080836F
:100BA000808188608083F70180818E7F8083888147
:100BB00080618883DF91CF911F910F91FF90EF901B
:100BC000DF90CF900895FC018091D2049091D304DE
:100BD00086179707A0F06115710529F49091E80038
:100BE0009E779093E80090E06115710551F49111A2
:100BF00008C08091E80082FF34C080E00895BC0105
:100C0000F2CF8091CA048823C1F18530C1F180916F
:100C1000E80083FD30C08091E80082FDEACF80913A
:100C2000E80080FFE1CF8091F3002091F200382F9F
:100C30006115710519F02830310558F091E0283020
:100C4000310509F090E02091E8002E772093E8002C
:100C5000CBCF81918093F100615071092F5F3F4F9D
:100C6000E7CF8091CA04882341F0853041F080911C
:100C7000E80083FFBECF81E0089582E0089583E01D
:100C8000089508958091BF0408959C014FB7F8948A
:100C90008091B3049091B404A091B504B091B604CE
:100CA0004FBF821B930B08952FB7F8946091B30444
:100CB0007091B4048091B5049091B6042FBF08954B
:100CC0002FB7F8948091B3049091B404A091B50427
:100CD000B091B6042FBF08959C01FC0132969FEF9E
:100CE00080E04191461751F09F3F19F4411101C036
:100CF000982F8F5F8630A9F79F3F09F40895290F39
:100D0000311D97FD3A95F901628308952091AC0455
:100D10003091AD042817390771F09093AD0480939A
:100D2000AC04E091AA04F091AB04309721F0008468
:100D3000F185E02D099408952091A8043091A9042B
:100D40002817390771F09093A9048093A804E091C3
:100D5000AA04F091AB04309721F00680F781E02DD2
:100D600009940895FC01680F791F8FEF91E3219199
:100D7000822728E030E087FF09C0880F89272150AB
:100D80003109C9F7E617F70791F70895880FF7CFEC
:100D9000FA01811101C0FB010994FC01EE0FFF1F54
:100DA000E80FF91FE452FC4F6183408322830895CA
:100DB00080935E018091DD04837080935D010E94C9
:100DC000931083E0809363010895E42FF0E0EE0F29
:100DD000FF1FEB5CFD4F9081921B97FD9195292F92
:100DE00038E1239F212D1124620F08950F931F9343
:100DF00010E0F801EE0FFF1FEB5CFD4F9081905764
:100E000097FD9195000F111FF801E750FE4F05ADBA
:100E10000052110B2003F001219FF00D112408E373
:100E200010E0091B110997FD139540039001419FA4
:100E3000300D1124E20FF31F9F01220F331F2E0FDD
:100E40003F1F37FF02C021583F4F220F232F221F81
:100E5000330B620F1F910F9108950F931F93522F21
:100E600010E0F801EE0FFF1FE750FE4FA5ADA052B6
:100E7000BB0B9D015203F001539FF00D1124000F95
:100E8000111FD801AB5CBD4F0C910057110B4003F3
:100E90009001419F300D11242E0F3F1F37FF02C0DC
:100EA000215C3F4F96E0359527959A95E1F7620FC3
:100EB0001F910F9108950F931F93522F10E0F80187
:100EC000EE0FFF1FE750FE4FA5ADA052BB0B9D01DB
:100ED0005203F001539FF00D1124000F111FD80190
:100EE000AB5CBD4F0C910057110B40039001419F2B
:100EF000300D11242E0F3F1F37FF02C021583F4FE6
:100F0000220F232F221F330B620F1F910F91089581
:100F1000EF920F93972F23E0029FB0011124759554
:100F200067956E0D792F0F91EF900895322F50E055
:100F3000FA01EE0FFF1FE750FE4F95AD905297FD5F
:100F40009195440F551FFA01EB5CFD4F2081231B47
:100F5000330B290F311D97FD3A95620F0895E42F49
:100F6000F0E0EE0FFF1FE750FE4F65AD621B0895E6
:100F7000E42FF0E0EE0FFF1FEB5CFD4F6081621B82
:100F80000895622F0895E42FF0E0EE0FFF1FEB5C51
:100F9000FD4F408134EE439F412D1124E82FF0E0B6
:100FA00050E0445E5F4FDA01A21BB1099D01B7FF1B
:100FB00003C031952195310993E0220F331F9A9593
:100FC000E1F7AF01421B530B9A0157FD20E0582F68
:100FD000259F212D1124822F0895E42FF0E0EE0F9C
:100FE000FF1FEB5CFD4F408134EE439F412D1124E8
:100FF000E72FF0E050E0445E5F4FDA01A21BB10939
:101000009D01B7FF03C031952195310993E0220F6F
:10101000331F9A95E1F7AF01421B530B9A0157FD1D
:1010200020E0279F212D1124722F0895FC019B01A0
:10103000009729F480E077FF2BC080E80895AC0189
:1010400097FF04C044275527481B590BB901640F6B
:10105000751F37FD10C0241B350BC901A5E0880F93
:10106000991FAA95E1F70E94262E80E2861BF7FFC2
:101070000FC081950895CB0165E0880F991F6A958F
:10108000E1F7BA01621B730B0E94262E80E6EECFB9
:101090000895EF920F93CF93DF93D72FC82FC901F5
:1010A0000E19BA010E941608602F681B7D2F8C2F25
:1010B000DF91CF910F91EF9008950F93CF93DF932E
:1010C000D72FC82FC901BA010E941608682F600FD8
:1010D0007D2F8C2FDF91CF910F910895EF920F9379
:1010E0001F93CF93DF93D62FC72F182FC9010E1947
:1010F000010FBA010E941608081B202F219F212DE5
:101100001124822F6D2F7C2FDF91CF911F910F9192
:10111000EF900895EF920F931F93CF93DF93D62F05
:10112000172FC82FC9010E19070FBA010E94160800
:10113000702F781B719F712D11246D2F8C2FDF91D3
:10114000CF911F910F91EF9008950F931F93CF931D
:10115000DF93D62FC72F182FC901212F201B022F55
:10116000BA010E941608982F990F990F891B800FBA
:10117000282F219F212D1124822F6D2F7C2FDF916D
:10118000CF911F910F9108950F931F93CF93DF93EA
:10119000D62F172FC82FC901272F201B022FBA01C6
:1011A0000E941608982F990F990F782F791B700FAE
:1011B000719F712D11246D2F8C2FDF91CF911F9175
:1011C0000F910895E82F86FDE0952E2F2F7086FD54
:1011D0002F5FE695E695E695E670F0E0EE51FE4F5E
:1011E0009181929F902D212D112492959F7022958F
:1011F000207F922B2081920F87FD919580E8890FA7
:1012000008950F931F93CF93DF938B01D82FC42F93
:10121000822F0E94E208EC2FF0E0EE0FFF1FEB5C44
:10122000FD4F90819058890F87FD8195880F682F19
:101230002CE0629F612D1124600F712F8D2FDF91A3
:10124000CF911F910F910895AC018230910508F460
:1012500008959FEF413E8EE1580740F49A0195E0D2
:10126000369527959A95E1F798E0920F61E0E62F81
:10127000E90FFF27FF1F9F0135952795822F229F9A
:10128000F001239FF00DF00D11244E175F0738F485
:101290009FEF920F961758F78FEF860F08952F3F05
:1012A000E9F361E0620FF6CF0F93CF93DF93D72F6F
:1012B000C82F47FD419588E390E0841B910947FDC5
:1012C0009395889FB001899F700D700D1124229F06
:1012D000C001239F900D900D1124860F971F0E942F
:1012E0002409982F990F890F682F600F7D2F8C2F5D
:1012F000DF91CF910F91089530E020E0869F212D5E
:10130000969F200D311D1124C9010895AF92BF92FF
:10131000CF92DF92FF920F931F93CF93DF93362FDD
:10132000472FE82FF0E0E05BFA4F71110FC0E49116
:101330008E2F2E2F6E2F722FDF91CF911F910F9135
:10134000FF90DF90CF90BF90AF900895C72FD0E06F
:101350002491F22E022F10E056E0659FC001112467
:10136000EFEFF0E0BF010E94122E832F90E0880F74
:10137000991F35E5369FD001379FB00D11248A1B88
:101380009B0B982F990F980F6F01CC1ADD0AC09E06
:10139000D001C19EB00DD09EB00D11248B2F499F5E
:1013A000A0011124452F55276F01C41AD50AC09EEC
:1013B000A001C19E500DD09E500D11245F01A91AAD
:1013C000B108AC9E6001AD9ED00CBC9ED00C112427
:1013D000CD2CDD24EC19FD09E09FE001E19FD00D4B
:1013E000F09FD00D1124ED2F62307105A1F050F463
:1013F0006115710509F49ECF6130710581F0EB2F05
:10140000852F98CF6430710569F080F066307105E2
:1014100009F490CFF4CFE22F2B2F8D2F8BCFE22F1B
:10142000252F88CFEB2F822F2D2F84CF2B2F8F2D81
:10143000E52F80CF7894089555985D9889B185FB04
:10144000882780F90895FF920F931F93CF93DF931E
:10145000EC01162F042FF22E0E941C0A81110FC0DE
:10146000C232D10564F02F2D402F612FCE0182971B
:10147000DF91CF911F910F91FF900C94CD060E94A8
:101480001C0A882341F0C232D1052CF42F2D402FA5
:10149000612FCE01EDCFDF91CF911F910F91FF9082
:1014A0000895DF92EF92FF920F931F93CF93DF93F4
:1014B0007C01C09160018EE0C89FC02D11241EE008
:1014C0001C0F012F153408F004E46091E1046695C7
:1014D000669521E0620F08F46FEF8091D40490913B
:1014E000D5040E947C09D82ED0E0C01760F081E0BE
:1014F000143408F080E0DF91CF911F910F91FF909D
:10150000EF90DF900895FE01E354FD4F80819091AC
:101510006101892391F06091DE047091DF04809174
:10152000E0042D2D4C2FF70109950E948609462FC6
:10153000282F672FCE010E94230A2196D6CF9F9293
:10154000AF92BF92CF92DF92EF92FF920F931F93D1
:10155000CF93DF936C01C09160018EE0C89FC02DD6
:1015600011241EE01C0FB12E153410F034E4B32EFC
:101570006091E104669566958091D4049091D504BC
:101580000E947C09F82E80E48F0D0E94E20890E80A
:10159000A92EA80E8F2D0E94E20820E8922E980E08
:1015A000D0E0CB1580F081E0143408F080E0DF91CA
:1015B000CF911F910F91FF90EF90DF90CF90BF9050
:1015C000AF909F900895FE01E354FD4F808190916C
:1015D00061018923A1F06091DE047091DF048091A4
:1015E000E004EF2C0C2F292D4A2DF60109950E94BD
:1015F0008609462F282F672FCE010E94230A2196A5
:10160000D0CF5F926F927F928F929F92AF92BF9254
:10161000CF92DF92EF92FF920F931F93CF93DF93BE
:101620003C01C09160018EE0C89FC02D11241EE0D6
:101630001C0FF12E153410F034E4F32E6091E10408
:1016400066958091D4049091D5040E947C09582E0F
:10165000D0E0CE01880F991F9C0127503E4F6901B1
:10166000CF15A0F081E0143408F080E0DF91CF9135
:101670001F910F91FF90EF90DF90CF90BF90AF90B0
:101680009F908F907F906F905F900895FE01E3543C
:10169000FD4F808190916101892379F1F60184AD3C
:1016A000282F2057330B590185ADE82FE052FF0B4F
:1016B0004F01AA9C9001AB9C300D300D1124EE9F80
:1016C000C001EF9F900D900D1124820F931F0E9477
:1016D0002409082F6091DE047091DF048091E004FA
:1016E000E52C9401A501F30109950E948609462F76
:1016F000282F672FCE010E94230AF2E0CF0ED11CC3
:101700002196AECFAF92BF92CF92DF92EF92FF922F
:101710000F931F93CF93DF936C01C09160018EE014
:10172000C89FC02D11241EE01C0FB12E153410F0DF
:1017300034E4B32E6091E10466958091D4049091D5
:10174000D5040E947C09A82ED0E0CE01880F991FF5
:101750009C0127503E4F7901CB1578F081E014347D
:1017600008F080E0DF91CF911F910F91FF90EF90F3
:10177000DF90CF90BF90AF900895FE01E354FD4FEE
:101780008081909161018923C1F0F70125AD20523C
:10179000330B44AD4057550B6091DE047091DF046C
:1017A0008091E0040A2DF60109950E948609462FD2
:1017B000282F672FCE010E94230AF2E0EF0EF11CC2
:1017C0002196CACFFF920F931F93CF93DF93182FC9
:1017D000062FF42ED0E0C0E02F2D402F612FCE0138
:1017E0000E94230A2196C434D105B1F7DF91CF912D
:1017F0001F910F91FF900895F894E82FE295EF70F4
:10180000F0E031A1282F2F7081E090E001C0880F17
:101810002A95EAF7982F9095932391A392A1892B6B
:1018200082A30C941A0A9091AE0392FF06C0282F4F
:1018300028712830F9F4877F846093FF06C0282F31
:1018400028712831F1F4877E84612091AF0320FF55
:1018500006C0382F38713830D9F4877F816021FF76
:1018600006C0282F28712831D1F4877E816194FD2C
:10187000877E0895282F24712430F9F68B7F8860A5
:10188000DCCF282F2471243101F78B7E8861DDCFD6
:10189000382F3171313019F78E7F8860E0CF282FD3
:1018A0002171213121F78E7E8861E1CFCF93DF93C3
:1018B000EC0182389105A9F1D8F58133910509F43D
:1018C00096C048F58932910509F48AC08A9709F4CF
:1018D00095C0C11522E5D20708F0B6C0C11531E5A3
:1018E000D30708F026C1C83ED10508F09CC0C03E11
:1018F000D10560F5C83AD10508F087C0C53AD105D1
:1019000008F0EFC0C130D10509F12097F9F0C430DB
:10191000D105E0F440C08533910509F45AC0C99758
:10192000C1F68091AE03837089F0C0EED0E00EC0A6
:10193000833E910599F170F4803E910501F1823E5C
:10194000910539F68091AE0382FD21C0CE01DF9171
:10195000CF910895863E910561F1873E910571F121
:10196000843E910509F0B5CF8091AF0381FFEECFA2
:101970008091AE03C7EED0E084FD0DC0E7CF80912B
:10198000AE0380FD07C19091AF0390FFDFCFC3EEA0
:10199000D0E084FFDBCFD0E0C0E0D8CF8091AE03B1
:1019A00082FDFBC09091AF0390FDBFCF84FFCECFEF
:1019B000F2CF8091AE0383FDDDCFC8CF8091AE031F
:1019C00083FDEEC09091AF0391FFF0CFC4EED0E065
:1019D000BDCF8091AE0385FFB9CFC9E2D0E0B6CFCD
:1019E0008091AE0385FFB2CFC5E3D0E0AFCF809149
:1019F000AE0386FFABCFCAE2D0E0A8CF8091AE03A2
:101A000086FFA4CFC1E3D0E0A1CFCF3BD10518F62C
:101A1000C85AD0E0CC0FDD1FCE55DE4F0990D881DB
:101A2000C02DD46493CFC11540E5D40708F064C03D
:101A3000C11580E4D80708F05CC0CE019A958115E5
:101A40009F4108F483CFA7CFC11536E5D30718F51A
:101A5000C11545E5D40708F084C0C11584E5D80751
:101A600008F07AC09C2F969596959E012370332797
:101A7000C115D34508F462C0C1E0D0E002C0CC0F6C
:101A8000DD1F2A95E2F730E2939FC0011124C82B95
:101A9000D92BDA685BCFC1158AE5D80778F4C11570
:101AA00099E5D90708F068C0C11528E5D20708F400
:101AB00072CFDC2FCC27C06FD06A48CFCE019056B2
:101AC0008115904208F067CF8D2F8F710E94130C03
:101AD00090E0982F882788279F719C012C2BE90183
:101AE00049C0C55AD0E0C156DE4FC881D0E0D064AD
:101AF0002DCFDF70D06A2ACFCE01E4E0969587958E
:101B0000EA95E1F783702C2F26952695237040E205
:101B1000249F90011124382B8C2F8370C1E0D0E0DA
:101B200002C0CC0FDD1F8A95E2F7C22BD32BDC68F5
:101B30000DCFDC2FCC27C16FD06A08CFC1E0D0E039
:101B400002C0CC0FDD1F2A95E2F720E2929FC00170
:101B50001124C82BD92BEBCFDC2FCC27C46FD06A34
:101B6000F5CE8C2F0E94130CC82FD0E0DC2FCC2791
:101B7000CC27DF71D062EACE8C2F8F700E94130CBD
:101B800034E0D695C7953A95E1F7CF709C2FEC01DC
:101B9000D069DCCEC9E3D0E0D9CEC2EED0E0D6CE5B
:101BA000C6EED0E0D3CE0C9454068091720381111E
:101BB00010927203089580916D0390913C039813E5
:101BC00001C008958F5F8770FACFAF92BF92CF9216
:101BD000DF92EF92FF920F931F93CF93DF93C0900A
:101BE000AA03D090AB03E090AC03F090AD0340911A
:101BF0007303509174036091750370917603C42A46
:101C0000D52AE62AF72ACFE1D0E0082F10E026E017
:101C1000929F000D111D11249CE3A92EBC2ED7010B
:101C2000C6010C2E04C0B695A795979587950A9482
:101C3000D2F780FD0FC0219788F7B12C8B2DDF9153
:101C4000CF911F910F91FF90EF90DF90CF90BF90B9
:101C5000AF900895AC9EF001AD9EF00D1124E00F01
:101C6000F11FEE0FFF1FE656FE4F859194910E94E3
:101C7000560C019701F3E2CFCF93DF93EC010E9462
:101C8000E50DEC2FF0E096E0D99FE00DF11D112459
:101C90009CE3899FE00DF11D1124EE0FFF1FE65616
:101CA000FE4F85919491DF91CF910C94560CE92FC2
:101CB000EE0FE90FEE0F8E0F982F97708695869591
:101CC000869525E0829FF0011124E25FFC4F50E0F1
:101CD00040E080E0219130E0092E02C03695279542
:101CE0000A94E2F721703327042E01C0220F0A94D0
:101CF000EAF7822B4F5F5F4F4530510559F7089542
:101D0000E92FEE0FE90FEE0F8E0F982F977041E03D
:101D100001C0440F9A95EAF786958695869595E0D9
:101D2000899FF0011124E25FFC4F30E020E070E079
:101D30005191DF011197CB01022E02C09695879534
:101D40000A94E2F7817081958527842385278C93F7
:101D50002F5F3F4F2530310559F70895FC018081F1
:101D600091810E943C0E292F2F7092959F70925066
:101D70009E3078F4E92FF0E0E759F04D0C943A2EBC
:101D8000803F19F020F4883E20F481E00895843FDC
:101D9000E1F380E00895883EC0F3813FD1F7F5CFAD
:101DA000822F8695869586950895829590E09C0170
:101DB000220F331F220F331F2C7C95958795959505
:101DC00087958373282B30E0C901880F991F8A7A81
:101DD000359527952575822B08959091DD04937094
:101DE00021F1811123C094609093DD04109263016E
:101DF00081E08093DC048091DB0480FF16C0809139
:101E0000DD04869586951F928F938DE691E09F93D2
:101E10008F9385E697E09F938F930E94AE040F9077
:101E20000F900F900F900F900F9008958C3110F03D
:101E30009C66DACF880F880F982BD6CF8091DD046F
:101E400086958695815009F48BE10C94ED0E809176
:101E5000DD04869586958F5F8C3108F081E00C94C7
:101E6000ED0E2091DD04237049F18093DE04609330
:101E7000DF04413A08F040EA4093E00421E0209377
:101E8000DC042091DB0420FF19C01F924F931F92A6
:101E90006F9399279F938F938DE691E09F938F93F4
:101EA00082E497E09F938F930E94AE048DB79EB714
:101EB0000A960FB6F8949EBF0FBE8DBF0895EDED44
:101EC000F4E0438120E1421B08F440E0818162811B
:101ED00090E00C94310FEDEDF4E0438120E1420FEE
:101EE00008F44FEF8181628190E00C94310FEDEDA9
:101EF000F4E0628120E1621B08F460E081814381AB
:101F000090E00C94310FEDEDF4E0628120E1620F7E
:101F100008F46FEF8181438190E00C94310FEDED77
:101F2000F4E08181438162818850990B0C94310FD8
:101F3000EDEDF4E0818190E04381628108960C949C
:101F4000310F8093E10491E09093DC049091DB04E5
:101F500090FF12C01F928F938DE691E09F938F9315
:101F600083E297E09F938F930E94AE040F900F90AF
:101F70000F900F900F900F9008958091E10420E151
:101F8000382F321B08F430E0832F0C94A10F80917E
:101F9000E10420E1382F320F08F43FEF832F0C9437
:101FA000A10F9FB7F8941092BB049FBF9091CA04F1
:101FB000943009F048C02091E9002F703091EC0076
:101FC000932F917030FD90E8922B23E02093E9004D
:101FD0002091EB0020FF34C02091EE0027FF30C09D
:101FE0002091BA04222321F02091E80025FF28C087
:101FF0001092BA0426E03091E80035FF14C08093B7
:10200000F1008091E80085FD27C08091E80080FF05
:10201000FCCF8091E8008E778093E8009F709093CA
:10202000E90080E008953091CA04343049F43091D9
:10203000EB0035FD05C0215041F481E08093BA04E6
:102040009F709093E9008FEF0895EFE9FFE03197DB
:10205000F1F700C00000CFCF8FB7F89421E02093B4
:10206000BB048FBFDBCF9091CA04943031F58093CD
:10207000B7047093B9046093B80482E08093E900D8
:102080008FEF9091E800815095FD06C095ED9A95EF
:10209000F1F700008111F5CF8091E80085FF0DC0B8
:1020A00050E040E063E070E087EB94E00E940705B9
:1020B0008091E8008E778093E8000895BC0184E069
:1020C0000C943310BC0183E00C943310CF93DF9356
:1020D000EC0181E08093E9008FEF9091E80081505E
:1020E00095FD06C095ED9A95F1F700008111F5CFA9
:1020F0008091E80085FF14C050E040E068E070E0A7
:10210000CE010E9407058091E8008E778093E80059
:1021100088E0FE01A0ECB4E001900D928A95E1F711
:10212000DF91CF9108956E9A3EB13F7B2EB120642E
:102130004FB7F8948CED93E0FC015191CF0168E02A
:102140002EB9000000C057FF3EB9550F000000C077
:1021500000C000C03EB900C06A9591F7F4E0883A2B
:102160009F0751F74FBF8FE594E00197F1F700C04B
:10217000000008957F928F929F92AF92BF92CF926C
:10218000DF92EF92FF920F931F93CF93DF937C0127
:102190005B01842E752E69018091810301E010E0BE
:1021A0008A3010F40AE010E0C1E0D0E0F894B50104
:1021B000C701F6010995982E0E941A0A911014C0C1
:1021C00021960C171D07FCF48091DB0480FF0CC0E6
:1021D0007F928F928AE793E09F938F930E94AE0441
:1021E0000F900F900F900F90892DDF91CF911F913D
:1021F0000F91FF90EF90DF90CF90BF90AF909F90A6
:102200008F907F900895CC9F9001CD9F300D300D21
:10221000112490E080E045E34A95F1F70000019633
:1022200028173907C1F7C2CF80918003811110C0F0
:102230008091D80080618093D8008AE18A95F1F777
:1022400000C08091D90080FF0AC081E080938003A4
:1022500081E090918003913009F080E0089582E060
:10226000809380030E94B7041092CA04F1CF0F93A9
:102270001F930E941411882321F01F910F910C9439
:1022800054060E9454060091AE041091AF042091B0
:10229000B0043091B104600F711F821F931F1F9112
:1022A0000F9108950E941411882351F0E091AA041F
:1022B000F091AB04309721F00190F081E02D09946A
:1022C00080E00895EF92FF920F931F93CF93DF93D7
:1022D0008091710390917003892B90916F03892BEA
:1022E0008093040390917203992391F0892B80933A
:1022F000040320E086E093E0FC013191CF0131112D
:102300002F5FF3E08C309F07B9F721110E94D50DA4
:10231000E091AA04F091AB043097C9F10280F381F7
:10232000E02D84E093E009958091DB0482FF2FC0CB
:1023300080FF04C08FE193E00E941504C4E0D3E065
:102340008CE0E82E83E0F82E09E113E08091DB04B5
:1023500080FF0BC088811F928F931F930F930E9461
:10236000AE040F900F900F900F902196EC16FD0683
:1023700069F78091DB0480FF0AC087E193E0DF9179
:10238000CF911F910F91FF90EF900C941504DF9166
:10239000CF911F910F91FF90EF90089590E080E012
:1023A0000E949C0690E080E00E94860610927003D6
:1023B00010926F030C9462116093AA037093AB03A5
:1023C0008093AC039093AD030C94CE110F931F93A5
:1023D00041E050E060E070E004C0440F551F661F0C
:1023E000771F8A95D2F7CB01BA01609570958095D9
:1023F00090950091AA031091AB032091AC0330910A
:10240000AD0360237123822393231F910F910C94BA
:10241000DC1190916E038095892380936E03282FA1
:10242000277039F4282F082E000C330B921713064F
:1024300021F49091AF0392FF07C08595859585950E
:102440000E94E61110926E0308950F931F9341E0CE
:1024500050E060E070E004C0440F551F661F771F16
:102460008A95D2F78091AA039091AB03A091AC0317
:10247000B091AD038A019B01082B192B2A2B3B2B12
:10248000C901B8011F910F910C94DC116093730383
:102490007093740380937503909376030C94CE111C
:1024A000882341F080959091710389238093710373
:1024B0000C9462110895882339F090917103982B40
:1024C000909371030C94621108958823B1F19CEFED
:1024D000980F913A70F4E6E0F3E09191891303C00C
:1024E000DF0111971C9243E0EC30F407B1F70C9434
:1024F000621190E2980F983088F4877021E030E004
:10250000A90102C0440F551F8A95E2F7CA018095C0
:1025100090917103892380937103E9CF9BE5980F14
:10252000933020F490E080E00C949C06885A873128
:1025300020F490E080E00C9486060895CF93C82F95
:10254000882309F44EC08CEF8C0F813AF8F4E6E052
:10255000F3E08CE093E0DF012D91C21759F08A1768
:102560009B07D1F76C2F84E093E00E946C06CF911B
:102570000C9462112191C21303C0DF0111971C92C8
:102580008E179F07B9F70E946211ECCF80E28C0F83
:10259000883068F4C77021E030E001C0220FCA958E
:1025A000EAF780917103822B80937103E0CFEBE512
:1025B000EC0FE33040F4F0E0E156FE4F808190E014
:1025C000CF910C949C06C85AC73158F4EC2FF0E018
:1025D000EE0FFF1FEE55FE4F80819181CF910C943D
:1025E0008606CF9108950F931F93CF93DF93C62F45
:1025F000D42F022FFC0182818823A1F06093DA049A
:102600000E9460069093D9048093D804C77081E03B
:1026100001C0880FCA95EAF7DF91CF911F910F9102
:102620000C945B128091DA04681338C08091D8044E
:102630009091D9040E944506883C910578F510E2F6
:102640001D0FCD17B9F080E28C0F883040F4C770B1
:1026500081E001C0880FCA95EAF70E945012183035
:1026600048F481E09D2F977001C0880F9A95EAF792
:102670000E945B12802F0E949E12802F0E94651282
:10268000183098F4D77081E001C0880FDA95EAF726
:10269000DF91CF911F910F910C945012C77081E080
:1026A00001C0880FCA95EAF7F3CFDF91CF911F9150
:1026B0000F9108951F93CF93DF93EC01FC01E35436
:1026C000FD4F80816823C9F00E948C2E182F0E9434
:1026D0008C2E8F77782F20E8720F08F47FEF612F10
:1026E0008091E0040E948609462F282F672FCE0193
:1026F000DF91CF911F910C94230ADF91CF911F910D
:102700000895DF92EF92FF920F931F93CF93DF9381
:102710008C01FC01E354FD4F8081682381F1D0904E
:10272000DF04D091E004C091DE04EC2EF12C0E9475
:102730008C2E282FC7018C549F4F68E671E00E94B1
:10274000262E8E199F0997FD039695958795959549
:10275000879523706C2F289F600D11247D2D8D2F60
:102760000E948609462F282F672FC801DF91CF913D
:102770001F910F91FF90EF90DF900C94230ADF914F
:10278000CF911F910F91FF90EF90DF9008959F924E
:10279000AF92BF92CF92DF92EF92FF920F931F936F
:1027A000CF93DF93182F80915E01811323C0909106
:1027B000DD04937020915D0130E081E092171306F3
:1027C00009F480E08170809362018091E20490912D
:1027D0006101981739F08093610140E060E080E08A
:1027E0000E94E20B1C3160F4E12FF0E0E958F04D5B
:1027F0000C943A2E81E0E6CF80916201811102C0F3
:10280000C0E097C140E060E080E00E94E20BF8CFBA
:10281000C09160018EE0C89FC02D11240EE00C0F06
:10282000F02E053410F0A4E4FA2E6091DE047091CD
:10283000DF048091E0040E948609E62ED72EC82E80
:10284000D0E0CF1528F0C1E0043408F472C1D8CF2D
:10285000FE01E354FD4F808190916101892331F0A5
:102860002C2D4E2D6D2DCE010E94230A2196E9CFED
:10287000C09160018EE0C89FC02D11240EE00C0FA6
:10288000F02E053410F0F4E4FF2ED090DF04E09039
:10289000E004D091DE046D2F7D2D8E2D0E948609DF
:1028A000C62EB72EA82E6091E1046D0F7D2D8E2DC2
:1028B0000E948609E62ED72E982ED0E0CF1518F666
:1028C000FE01E354FD4F908180916101892359F00D
:1028D000292D4E2D6D2D90FD03C02A2D4C2D6B2DD5
:1028E000CE010E94230A2196E9CFC09160018EE0BB
:1028F000C89FC02D11240EE00C0FE02E053410F0FF
:10290000E4E4EE2ED090DF04C090E0042091E104D6
:1029100070E4F72E3F2D329F312D1124F32ED0E09D
:10292000CE1508F090CFFE01E354FD4F80819091C9
:1029300061018923B9F0FE01EE0FFF1FE750FE4F42
:1029400085AD82958F706091DE048F9D600D11249E
:102950007D2D8C2D0E948609462F282F672FCE01B2
:102960000E94230A2196DCCFC09160018EE0C89FAF
:10297000C02D11240EE00C0FE02E053410F054E4AD
:10298000E52ED090DF04C090E0042091E10440E403
:10299000F42E3F2D329F312D1124F32ED0E0CE1591
:1029A00008F051CFFE01E354FD4F80819091610109
:1029B0008923D9F0FE01EE0FFF1FE750FE4F64ADF3
:1029C000F69EB001112435E0759567953A95E1F7CB
:1029D0008091DE04680F7D2D8C2D0E948609462F84
:1029E000282F672FCE010E94230A2196D8CFC091AD
:1029F00060018EE0C89FC02D11240EE00C0FF02E58
:102A0000053410F094E4F92EE090DE04D091DF0458
:102A1000D090E0046091E10466956695669580919A
:102A2000D4049091D5040E947C090E94E208805849
:102A300087FD8195880F282F3D2D239F212D11245F
:102A4000822F6E2D7D2F0E948609E62ED72EC82E4E
:102A5000D0E0CF1508F0F7CEFE01E354FD4F8081A2
:102A600090916101892331F02C2D4E2D6D2DCE01D9
:102A70000E94230A2196EDCF8DEE97E00E94510A25
:102A800007C083EC97E0FACF84EC98E00E94820BB9
:102A9000C82F4FC085EA98E0F9CF8AE898E00E94F5
:102AA000010BF6CF8EE698E0FACF81EC97E0E6CF07
:102AB00088EB97E0E3CF8FEA97E0E0CF86E997E0F5
:102AC000DDCF88E897E0EBCF84E599E0DFCF8DE5B7
:102AD00098E0DCCF89E498E0E2CF8BE597E00E94B4
:102AE0009F0AD6CF8DE297E0FACF86EF96E0F7CF38
:102AF000C0916201C1113CC06091E10420E1620F0C
:102B000008F46FEF8091D4049091D5040E947C0961
:102B10006AE070E00E94122E892B09F071CE0E94AB
:102B20008C2E64E470E00E94262E609161010E9468
:102B30008113809160018F5F80936001C1110CC08F
:102B400082E08093630180916201811105C01111BF
:102B500003C083E080936301DF91CF911F910F91B8
:102B6000FF90EF90DF90CF90BF90AF909F9008952F
:102B7000C09160018EE0C89FC02D11240EE00C0FA3
:102B8000802F053408F084E4D0E0E82EF12CCE1537
:102B9000DF050CF058CE60916101CE010E948113D7
:102BA0002196F5CFC0916201C1111EC06091E10470
:102BB00020E1620F08F46FEF8091D4049091D50466
:102BC0000E947C0965E070E00E94122E892B09F0BA
:102BD00017CE0E948C2E64E470E00E94262E609135
:102BE00061010E945A13A5CFC09160018EE0C89F79
:102BF000C02D11240EE00C0F802F053408F084E462
:102C0000D0E0E82EF12CCE15DF050CF01CCE609143
:102C10006101CE010E945A132196F5CFC091600147
:102C20008EE0C89FC02D11240EE00C0FF02E05344D
:102C300010F084E4F82ED090DF04E090E004D0910E
:102C4000DE046091E1046695669566958091D404F2
:102C50009091D5040E947C090E94E208805887FD6B
:102C60008195880F682F2CE0629F612D11246D0FD4
:102C70007D2D8E2D0E948609E62ED72EC82ED0E0FF
:102C8000CF1508F0E0CDFE01E354FD4F8081909117
:102C90006101892331F02C2D4E2D6D2DCE010E9426
:102CA000230A2196EDCF81E099E0E8CE85EE96E00B
:102CB000E5CE8091DB0480FF08C080E596E09F931D
:102CC0008F930E94AE040F900F9085E38093DD04F4
:102CD0008091640190916501A09166018093DE046A
:102CE0009093DF04A093E0048FE78093E1048FEFDB
:102CF0008093E20446E050E06CE170E08DED94E0FA
:102D00000C94D02ECF9384E090E00E94C22EC82F66
:102D100082E290E00E94C22E982F8C2FCF910895CE
:102D20009F92AF92BF92CF92DF92EF92FF920F935A
:102D30001F93CF93DF93CDB7DEB72F970FB6F894DD
:102D4000DEBF0FBECDBF8E010F5F1F4F8AE0D801DF
:102D50001D928A95E9F786E4C82E81E0D82EF12CE1
:102D6000E12CAA24A394B12CF60181916F018F3F2D
:102D700009F44AC0F894E82FE295EF70F0E021A141
:102D80008F70A50102C0440F551F8A95E2F7CA0152
:102D9000922F982B91A392A18095892382A30E94C0
:102DA0001A0A00C0E0E4F1E030E020E0912C41910B
:102DB0004F3F09F46DC0A42FA295AF70B0E090967C
:102DC0008C9190E04F7002C0959587954A95E2F7F7
:102DD00080FD5EC08A2D022E01C0880F0A94EAF79A
:102DE000982A2F5F3F4F2630310509F7F6013197BA
:102DF00080818F3F11F00E94FC0B50EA5A95F1F749
:102E0000F801EE0DFF1D90828FEFE81AF80A95E0A9
:102E1000E916F10409F0A8CF4AE050E0B80180EBD0
:102E200093E00E949C2E7C01892B41F08AE0F801FE
:102E3000A0EBB3E001900D928A95E1F71091BB03EE
:102E4000E114F10439F181E0809379030E94600676
:102E50009093780380937703809177039091780320
:102E60000E944506059778F0A0EBB3E0E12FF0E073
:102E7000E354FC4F85EB93E02D9121938A179B0738
:102E8000D9F710927903EF2849F081E090E06BC008
:102E900080E0A6CF809179038111DECF0E941411CA
:102EA000D82EE091BB03DE011B967D01882309F437
:102EB000A3C085E01D928A95E9F70E2F10E0035418
:102EC0001C4FC0908103B9E0BC1508F45EC02CE231
:102ED0003AE144E751E0B701C8010E94BA108823E3
:102EE00009F468C028EE39E141E851E0B701C801B2
:102EF0000E94BA10882309F45DC020EE38E149E849
:102F000051E0B701C8010E94BA10882309F452C0E9
:102F100023E738E144E951E0B701C8010E94BA1043
:102F2000882309F447C0F9E0FC1508F45CC010924E
:102F30008103E091BA03F0E0BF0163547C4FD701F5
:102F40009E01205F3F4F80E0FB014191BF019D91B9
:102F5000491731F0AF0141505109FA0190838D2D8D
:102F60002A173B0789F72F960FB6F894DEBF0FBEDE
:102F7000CDBFDF91CF911F910F91FF90EF90DF9028
:102F8000CF90BF90AF909F90089580917A039091D9
:102F90007B030E944506843F914008F098CFE09162
:102FA000BA03F0E0E354FC4F1082118212821382C4
:102FB00014826BCF809181038F3F31F08F5F8093BC
:102FC00081038A3008F4B5CF0E94600690937B039A
:102FD00080937A038091DB0480FFE1CF84E493E067
:102FE0000E941504DCCF8091DB0480FFA0CF81E339
:102FF00093E00E9415049BCFF0E0E354FC4FF8945B
:1030000085E0A4E9B3E001900D928A95E1F765E0CF
:1030100070E084E993E00E94B206809393030E94DB
:103020001A0AF894E091CF03F0E0E453FC4F80815A
:103030008B8780939A0361E070E0C7010E94B2061B
:10304000809399030E941A0AF894C0909B03D09031
:103050009C03E0909D03F0909E0380917C039091EF
:103060007D03A0917E03B0917F03C816D906EA06BE
:10307000FB06D1F0C0927C03D0927D03E0927E03E8
:10308000F0927F030E94141181110EC00E94540619
:10309000C61AD70AE80AF90AC092AE04D092AF0461
:1030A000E092B004F092B1040E941A0AF89486E00B
:1030B000EFE9F3E0ADEDB4E001900D928A95E1F710
:1030C0001091A503112349F08091CB03811105C014
:1030D0000E94C71380E00E94D8061093CB030E9481
:1030E0001A0A80E040CF0F931F93CF93DF9300D055
:1030F00000D000D00F92CDB7DEB786E0EDEDF4E062
:10310000DE01119601900D928A95E1F78091CB0333
:103110008F8347E050E06FE973E0CE0101960E9493
:103120009C2E0091A6031091A7032091A803309133
:10313000A903EFB7F8944091B3045091B40460919F
:10314000B5047091B604EFBF401B510B620B730BBB
:10315000443651056105710510F4892B19F18091F0
:10316000390190913A018D569C4F4091380150E0C1
:103170004830510510F047E050E0BE016F5F7F4FCF
:103180000E94A92E85E090E00E94522D892BB1F477
:103190000E9454066093A6037093A7038093A8032C
:1031A0009093A90381E027960FB6F894DEBF0FBE77
:1031B000CDBFDF91CF911F910F91089580E0F3CFA4
:1031C000CF93DF9300D000D0CDB7DEB740918F030F
:1031D0005091900360919103709192032FB7F894EE
:1031E0008091B3049091B404A091B504B091B60459
:1031F0002FBF841B950BA60BB70B84369105A10539
:10320000B10568F10E9437116E5F7F4F8F4F9F4F5E
:1032100069837A838B839C8380912F019091300105
:103220008D569C4F40912E0150E04530510510F0D5
:1032300044E050E0BE016F5F7F4F0E94A92E84E002
:1032400090E00E94522D892B61F40E9454066093F5
:103250008F0370939003809391039093920381E086
:1032600001C080E00F900F900F900F90DF91CF91F1
:1032700008956F927F928F929F92AF92BF92CF925A
:10328000DF92EF92FF920F931F93CF93DF930F92F2
:10329000CDB7DEB7862E5A016901682E880F7708F0
:1032A000C3010E94522D892B09F088C08AE0869DB7
:1032B000F001879DF00D1124EC5FFE4F458150E039
:1032C0004115510511F041E050E08AE0869DF00182
:1032D000879DF00D1124EC5FFE4F668177816D565E
:1032E0007C4FCE0101960E94A92EF50140815181AB
:1032F000628173812FB7F8948091B3049091B404E4
:10330000A091B504B091B6042FBF841B950BA60BFA
:10331000B70B84369105A105B10540F4B701C8018A
:103320000E94B2069981891709F44FC0082C000C3D
:103330009908C4010E94522D892B91F0B12C8B2D3C
:103340000F90DF91CF911F910F91FF90EF90DF9041
:10335000CF90BF90AF909F908F907F906F90089587
:103360008AE0889DF001899DF00D1124EC5FFE4FED
:10337000458150E0E416F50608F4A7018AE0889D2F
:10338000F001899DF00D1124EC5FFE4F668177817D
:103390006D567C4FC6010E94A92EB701C8010E943C
:1033A000B20699818913CACF0E945406F501608341
:1033B000718382839383BB24B394C1CFB12CA701C3
:1033C000B801C6010E94A92EBACFBB24B394F7CF8F
:1033D000EF92FF920F931F93CF93DF930F92CDB78E
:1033E000DEB7EE24E394F12C0AE913E09E012F5F8F
:1033F0003F4F4BE853E063E082E00E943919182FF9
:103400008823D9F0E091BC03F0E0E453FC4F8981BC
:103410009081891B282F90E005C0215090819F5FEB
:103420009083912F1216CCF3282F87FD20E0821B6A
:1034300081110CC091110E94D30D812F0F90DF914B
:10344000CF911F910F91FF90EF9008958F5F908122
:1034500091509083912FECCFCF92DF92EF92FF9219
:103460000F931F93CF93DF9300D000D00F92CDB76F
:10347000DEB76B0185E0E82EF12C04E913E09E0134
:103480002F5F3F4F47E853E061E080E00E94391929
:10349000882349F095E0FE013196A2E8B3E001905F
:1034A0000D929A95E1F795E0E2E8F3E0D6010190FC
:1034B0000D929A95E1F70F900F900F900F900F904B
:1034C000DF91CF911F910F91FF90EF90DF90CF9000
:1034D000089569EE7EEF90E080E00E94FE2E60E0AD
:1034E00082E090E00E94E02E60E083E090E00E94A5
:1034F000E02E1092730310927403109275031092D1
:10350000760360E084E090E00E94E02E60E082E2DA
:1035100090E00E94E02E60E085E090E00E94E02EC6
:1035200060E086E090E00E94E02E6FEF87E090E0A0
:103530000E94E02E40E050E0BA0188E090E00E9456
:10354000F22E60E08DE090E00E94E02E40E050E03E
:10355000BA0188E190E00E94F22E60E087E190E0FD
:103560000E94E02E40E050E0BA018CE190E00E9421
:10357000F22E70E060E080E290E00E94FE2E40E0DB
:1035800050E0BA0188E190E00E94F22E40E050E065
:10359000BA018FE090E00E94F22E40E050E0BA01C4
:1035A00083E190E00C94F22ECF93DF93D82FC0915B
:1035B000AF03C2FB882780F98D17F9F0D0FBC2F961
:1035C000C093AF036091AE0384E090E00E94E02ED0
:1035D0006C2F82E290E00E94E02E8091DB0480FF5D
:1035E0000CC01F92DF9382E093E09F938F930E9421
:1035F000AE040F900F900F900F90DF91CF91089530
:1036000010927103E6E0F3E086E0DF011D928A95F7
:10361000E9F70C94CE111F93CF93DF93CDB7DEB7AC
:10362000AA970FB6F894DEBF0FBECDBF8CEC94E026
:103630002091F100DC012D93CD01B4E0843D9B0786
:10364000B9F78091CD04833009F46FC0B8F48130AC
:1036500009F446C0823009F4B0C08091E80083FFCD
:1036600038C18091CC049091CD049A3008F031C1DA
:10367000E92FF0E0ED56F04D0C943A2E8A3009F423
:103680008BC08B3009F46EC0893039F78091CC043F
:10369000813219F78091D0049091D1040297E8F615
:1036A0008091E800877F8093E8008091E80082FFA6
:1036B00037C09091F3008091F200029729F4809135
:1036C000F1008B7F813021F48091F1008093BF0461
:1036D0008091E8008B778093E8000E943105BDCF90
:1036E0008091CC04813A09F0B8CF8091E800877FBF
:1036F0008093E8008091D0049091D104892B61F4EB
:1037000068E080EC94E070E00E94E3058091E800BE
:103710008B778093E800A1CF60E090E080E0F3CF6A
:103720008091CA048111C1CF98CF8091CC04813A95
:1037300009F093CF8091D0049091D104892B09F0A6
:103740008CCF8091E800877F8093E8008091E8002B
:1037500080FFFCCF80915F018093F1008091E800B1
:103760008E77B9CF8091CC04813209F076CF8091E9
:10377000D0049091D104892B09F06FCF8091E8009B
:10378000877F8093E8000E9431058091CE0480936A
:103790005F010E94001B61CF8091CC04813209F04F
:1037A0005CCF8091E800877F8093E8000E9431051C
:1037B0008091CF048093BE0450CF8091CC04813A95
:1037C00009F04BCF8091E800877F8093E8008091DB
:1037D000E80080FFFCCF8091BE04BECF803899F016
:1037E000823809F076C08091D0048F70873008F05D
:1037F00070C08093E9008091EB0085FB882780F9F9
:103800001092E90006C08091C8049091C9049111FA
:1038100082609091E800977F9093E8008093F10098
:103820001092F1008091E8008E77B0C1882309F4EE
:103830009DC1823009F04DC08091CE048111A1C19B
:103840008091D0048F702FEF280F263008F041C0F0
:103850008093E9002091EB0020FF93C1933031F475
:103860008091EB0080628093EB008BC19091EB0024
:1038700090619093EB0021E030E001C0220F8A9527
:10388000EAF72093EA001092EA008091EB0088604A
:10389000EACF81111EC01091CE041F778091E30002
:1038A0008078812B8093E3008091E800877F80936C
:1038B000E8000E9431058091E80080FFFCCF8091F4
:1038C000E30080688093E30082E0111183E080933D
:1038D000CA048091E80083FF0AC08091E800877FD6
:1038E0008093E8008091EB0080628093EB00AA96C1
:1038F0000FB6F894DEBF0FBECDBFDF91CF911F9101
:1039000008958058823028F72091CE043091CF045A
:103910002C3DE3E03E07A1F583E08A838AE28983B8
:103920004FB7F894DE01139620E03EE051E2E32F1A
:10393000F0E050935700E49120FF03C0E295EF7050
:103940003F5FEF708E2F90E0EA30C0F0C7968D9306
:103950009D932F5F243159F74FBF8091E800877FF7
:103960008093E8006AE270E0CE0101960E94E305D0
:103970008091E8008B778093E800ABCFC096E7CFCB
:103980008091D0049091D104432F552743305105A5
:1039900009F44AC078F54130510509F47AC08BE545
:1039A00090E0E8E8F6E04230510509F092CF20912E
:1039B000E800277F2093E8002091D2043091D304BF
:1039C0008217930708F49C0140E02115310509F0A6
:1039D00065C0411163C08091E80082FDC9CF80912C
:1039E000CA04882329F2853019F28091E80083FF08
:1039F000F2CFBECF4132510509F43CC042325105ED
:103A000009F067CF8330910508F063CFFC01EE0F1A
:103A1000FF1FE351FE4F0190F081E02D86519E4F34
:103A2000DC018C9190E01AC0332721303105D1F0B0
:103A30002115310561F02230310509F04ACFE5EF5B
:103A4000F6E0E4918E2F90E0E5EFF6E007C0EFE1BD
:103A5000F7E0E4918E2F90E0EFE1F7E0009709F4B2
:103A600038CFA5CFEFE0F7E0E4918E2F90E0EFE0C4
:103A7000F7E0F4CF8330910508F02BCF880F991F22
:103A8000FC01ED50FE4F0190F081E02D89E090E0C7
:103A90008ECF82E190E0E3EEF6E089CF8091CA0418
:103AA000882309F465CF853009F462CF8091E8005E
:103AB00083FD5ECF8091E80082FD8DCF8091E8008C
:103AC00080FF83CF9091F3008091F20021153105A2
:103AD00019F08830910550F041E0089709F040E076
:103AE0008091E8008E778093E8006FCF44914093F7
:103AF000F1003196215031090196E8CF803809F064
:103B0000E8CE8091E800877F8093E8008091CB0425
:103B10008093F10087CE8111DCCE1091CE0412305B
:103B200008F0D7CE8091E800877F8093E80010935B
:103B3000CB040E943105112311F084E005C080916F
:103B4000E30087FDFACF81E08093CA0442E061EC94
:103B500081E00E94500542E261EC82E00E94500543
:103B600042E261EC83E00E945005B3CE8091CE0426
:103B7000813009F0AECE81E0933009F080E080938F
:103B8000C9041092E9008091E800877F8093E800E3
:103B90000E9431059ECE4F925F926F927F928F92DC
:103BA0009F92AF92BF92CF92DF92EF92FF920F93CC
:103BB0001F93CF93DF9300D000D00F92CDB7DEB725
:103BC0007C01FC0183819481892B39F01081D180A3
:103BD000812F8D218F3F09F0F6C40F900F900F9029
:103BE0000F900F90DF91CF911F910F91FF90EF9069
:103BF000DF90CF90BF90AF909F908F907F906F900D
:103C00005F904F9008950E94E50D082F682F8981DD
:103C10009A810E94800EE12FF0E026E0D29EE00D16
:103C2000F11D11243CE3039FE00DF11D1124EE0F63
:103C3000FF1FE656FE4F05911491043F8CE51807CF
:103C400009F492C0B0F5093DECE51E0709F488C0FF
:103C50000A3DFCE51F0709F493C0083D2CE5120757
:103C6000B1F526E241EE61EEC7010E94F3128091A8
:103C70006E03877009F4B1CFF7018281882309F4BC
:103C8000ACCF82E00F900F900F900F900F90DF91CC
:103C9000CF911F910F91FF90EF90DF90CF90BF9049
:103CA000AF909F908F907F906F905F904F900C940B
:103CB0000912063F3CE5130709F45EC008F458C03A
:103CC00027E245EE66EE073F9CE5190769F2F7012A
:103CD0008281882309F488C41092DA040230FCE55A
:103CE0001F0708F42EC106312CE5120730F0C80179
:103CF0008B5F9C45099708F024C10E94821690931F
:103D0000AF038093AE0300313CE5130709F4E8C02C
:103D100008F076C008309CE5190709F4D7C008F010
:103D200045C00430FCE51F0709F4C8C060F5023047
:103D30003CE5130709F4B8C003301C4509F4BAC0C8
:103D40006091AE031091AF0384E090E00E94E02EFA
:103D5000612F82E290E00E94E02E0E94001B87CF3C
:103D600027E245EE65EE80CF26E241EE60EE7CCFA5
:103D700027E245EE64EE78CF26E241EE62EE74CFA4
:103D800028E241E0EFCF8091AE03806106309CE5F0
:103D9000190709F48CC08091AE03886007301C4578
:103DA00008F485C08091AE03806281C08091AE032B
:103DB0008D7F0C30FCE51F0709F479C070F4809109
:103DC000AE038C600A303CE5130709F470C008F4B8
:103DD00081C08091AE038E7F6AC08091AE03877FE1
:103DE0000E309CE5190709F462C08091AE038B7F09
:103DF0000F301C4508F45BC08091AE038F7E57C026
:103E00000C3FFCE51F0709F45DC030F503313CE5CC
:103E1000130709F46DC078F401319CE5190709F422
:103E200063C002311C4509F08BCF0E94001B8091BA
:103E3000AE038F773CC00531FCE51F0709F460C075
:103E400008F474C08091AF0381600B3F1C4509F0FA
:103E500077CF8093AF0374CF01158DE5180709F470
:103E60004BC088F48091AF038D7F0E3FECE51E07B9
:103E700081F38091AF038E7F0F3F1C4550F38091FB
:103E8000AF038360E6CF02302DE5120709F457C077
:103E900008F442C060E003301D4509F051CF8EE0C8
:103EA00090E00E94E02E4CCF8091AE038160809321
:103EB000AE0346CF8091AE038260F9CF8091AE030E
:103EC0008460F5CF8091AF038260C3CF8091AE0351
:103ED0008064EDCF0E94001B8091AE038068E7CF25
:103EE0008091AE038F7DE3CF8091AE038F7BDFCFD8
:103EF0008091AE03837FDBCF8091AF038C7FA9CF0E
:103F00008091AE0382FB992790F921E0922790FBE4
:103F100082F990FB83F9CBCF8091AF03982F9095D6
:103F200091708E7F892B90FB81F993CF0E94001BAB
:103F30009091AE03892F97FB87F98058B8CF61E045
:103F4000AECF06319CE5190709F066C38091710375
:103F50008A7A91E009F490E090930D0369E281116F
:103F600065E384E093E00E946C060E9462117FCEBC
:103F700085E344C34EE15FE067E27FE00E94C8064C
:103F800076CE47E25FE06EE17FE0F8CF4FE85FE09A
:103F900068E97FE0F3CF48E95FE06FE87FE0EECFCC
:103FA00047E75FE063E87FE0E9CF43E85FE067E78A
:103FB0007FE0E4CF4BE65FE06FE57FE0DFCF4DEBE6
:103FC0005FE067EC7FE0DACF47EC5FE06DEB7FE02E
:103FD000D5CF81E00E94ED0E4ACE8DE0FBCF0E944E
:103FE000001BEFEFF4E32CE0E150F0402040E1F75C
:103FF00000C0000081E08093E00080E28093D80060
:104000001092C9008FE19EE40197F1F700C0000013
:1040100087E090EBDC018093E3049093E404A093A9
:10402000E504B093E60488E19CE00FB6F894A89507
:10403000809360000FBE90936000FFCF87E791E010
:1040400006C30E94691A13CE8091AF0382FB8827B2
:1040500080F991E089270E94D41AF70182811081AA
:104060000181882309F44FC0812F902F0E94E50D14
:10407000D82E682F812F902F0E94800EE12FF0E024
:1040800026E0029FE00DF11D11243CE3D39EE00DDC
:10409000F11D1124EE0FFF1FE656FE4F85919491FE
:1040A0000E94560C8C01882EF701D280A580A29424
:1040B0005FE0A52280916E038770A1F0CD2CDD20FA
:1040C00091F0812F807F803421F080E2800F883052
:1040D00048F082E00E94091280916E038770CC2420
:1040E000C3948111C12CB12EB2943FE0B322FBE006
:1040F000FB1508F443C0EB2DF0E0E356F04D0C94B3
:104100003A2E80E0A8CF812F902F0E94570ED82EF4
:10411000B5CF212F2F70A22E107F19F0A29420EF7F
:10412000A222DD20C9F0AA2069F080E2800F883049
:1041300010F081100BC080917103A82AA092710326
:104140000E946211802F0E949E1218C080917003FD
:10415000A82AA0927003F4CF802F0E946512AA2093
:1041600069F0A094005E083010F0811045C0809185
:104170007103A822A09271030E946211EB2DE850F6
:10418000FF0B349710F40E945211CC20A9F08091BB
:104190006E0380FD11C0F701128285958595859586
:1041A0000E942512C7010E94CB1D80916E03859548
:1041B000859585950E94E61185E0F701DE0111964F
:1041C00001900D928A95E1F789819A810E94570E9C
:1041D0009A81E981F0E026E0929FE00DF11D112423
:1041E0003CE3839FE00DF11D1124EE0FFF1FE65607
:1041F000FE4F85919491F1CC80917003A822A092FA
:104200007003BACF312F3F70932E107F103219F008
:10421000929490EF9922882071F081E0881681F1C4
:10422000DD20D9F1AA2091F1F701858180FF8ACFA5
:104230008F7085832BC0DD20B1F090917203892DA2
:10424000892BA11003C00E945B1298CFE1E0AE124F
:10425000FACF2091AF0322FD91CF981709F48ECFAA
:10426000809372038BCFA11006C00E94D50D892DBB
:104270000E94501283CFF1E0AF1609F47FCFF5CF43
:10428000DD2031F025E02A1508F478CF892DDBCF29
:1042900034E03A1508F472CFEACFAA2041F3F9E3EB
:1042A0008F128AC12FEF37EE83E0215030408040DB
:1042B000E1F700C0000080C1812F8695869583704C
:1042C00061F0813009F05ACFC8019370D11002C05B
:1042D00090E080E00E94860651CFC8019370D11013
:1042E00002C090E080E00E949C0648CF812F83703E
:1042F00009F066C0D11042CF802F829586958770D5
:10430000880F880F602F6F70462E512C712C612CF6
:10431000082E04C0440C551C661C771C0A94D2F766
:1043200040E050E0BA0104FF0FC04FE050E060E011
:1043300070E004C0440F551F661F771F8A95D2F79F
:104340004095509560957095812F869586958370E0
:10435000823019F1D8F40091730310917403209105
:10436000750330917603813069F044295529662917
:104370007729CB01BA0160237123822393230E9402
:104380004612FCCE402A512A622A732ACB01BA0176
:104390006429752986299729F2CF44295529662948
:1043A0007729009173031091740320917503309164
:1043B0007603CB01BA016027712782279327DFCFCD
:1043C0008695DD2011F0812F8170882309F4D6CEE7
:1043D000802F829586958770880F880F602F6F7069
:1043E000462E512C712C612C082E04C0440C551CF7
:1043F000661C771C0A94D2F740E050E0BA0104FF33
:104400000FC04FE050E060E070E004C0440F551F63
:10441000661F771F8A95D2F74095509560957095E5
:10442000812F869586958370823019F1D8F400919A
:10443000AA031091AB032091AC033091AD038130FE
:1044400069F04429552966297729CB01BA016023EF
:104450007123822393230E94DC1190CE402A512A9B
:10446000622A732ACB01BA01642975298629972902
:10447000F2CF44295529662977290091AA03109182
:10448000AB032091AC033091AD03CB01BA0160279F
:10449000712782279327DFCF1F70DD2029F0812F1E
:1044A0000E942512802FCFCE802F0E945012812F84
:1044B0000E94E61163CE802F92EF891609F454C052
:1044C000981578F0E0EF8E1639F1F1EF8F1609F4B8
:1044D00043C0DD2009F46BC0A11034CE812F8F7151
:1044E00040C023EF821609F444C034EF8312F1CFA9
:1044F000DD2009F451C01F71812F0E942512809187
:10450000AF0382FD07C0E8E01E9FC0011124836055
:1045100080936E03812F25C0DD20C9F084E08A15C9
:1045200008F42CCE1F7161E070E080E090E004C0E0
:10453000660F771F881F991F1A95D2F70091AA035B
:104540001091AB032091AC033091AD03A0CF95E067
:104550009A1508F413CEE6CF812F8F71DD2009F470
:10456000A7CF0E9425120ACE812F8F71DD20C9F3BB
:104570009FCF60E070E0CB01DD2009F46CCF1F71AC
:1045800061E070E080E090E004C0660F771F881F54
:10459000991F1A95D2F75FCF81E00E940912F1E0CE
:1045A000FA1508F0EBCD82E00E940912E7CDAA20AF
:1045B00039F0893309F476CE802F0E946512DECD62
:1045C000812F8F7175CF85E0DE01119601900D92DC
:1045D0008A95E1F7F701228189819A81211113CB14
:1045E0000E94570E082F17CB0631FCE51F0709F074
:1045F00040C080910D038111BBCC89E2E6E0F3E07D
:104600002CE033E09191891303C0DF0111971C92D4
:104610002E173F07B9F7A9CC0F3D2CE5120709F477
:1046200010CDC0F401158CE5180709F4D8CC013081
:104630001C4509F012CD9091DB04892F8E7F90FFED
:1046400081608093DB0480FFF9CC89E891E00E94CF
:1046500015040DCB0C35EDE51E0709F452CD0D35D3
:10466000100709F4F1CC0B351D4509F0F6CC81E0BB
:10467000F2CC8091710382720B3C3CE5130709F484
:1046800099CC08F04BC0063CECE51E0709F47ECC43
:1046900080F5043C2CE5120709F46CCC08F071CCD1
:1046A000033C1C4509F0D9CC8091DD04982F937010
:1046B00021E092278C7F892B8093DD041092630187
:1046C0002093DC048091DB0480FFD1CA1F929F936A
:1046D0008DE691E09F938F9380E491E09F938F9379
:1046E0000E94AE040F900F900F900F900F900F90BC
:1046F000BECA083C9CE5190709F452CC08F44BCC1F
:10470000093CFCE51F0709F450CC4FE55FE06BE680
:104710007FE00A3C1C4509F431CC9FCC003D3CE5D0
:10472000130709F45ACC90F40D3CECE51E0709F48C
:104730004BCC08F444CC0E3C2CE5120709F449CCD0
:1047400085E00F3C1C4509F445CC87CC073D8CE542
:10475000180730F482E1023D1C4508F43BCC87CABF
:104760000E351D4509F483CA78CC1F93CF93DF9390
:1047700080913B03807FA9F480913803882389F0DE
:1047800080916D03D0913C036091360370913703A3
:10479000A0913903B0913A03C62FC72316E0D8136E
:1047A00004C0DF91CF911F91089590E0109711F010
:1047B000CF3F19F401968770F2CF189F9001199F8F
:1047C000300D1124F901E35CFC4F41814713F2CF16
:1047D00040814613EFCF42814111ECCF4381548198
:1047E0004A1B5B0B483C510528F780913B038F70B7
:1047F000806180933B03F901EE5BFC4F80818F70F9
:104800008061808386E393E00E94CB1DDF91CF918E
:104810001F910C94DB0DAF92BF92CF92DF92EF927B
:10482000FF920F931F93CF93DF93CDB7DEB76197BE
:104830000FB6F894DEBF0FBECDBF8C0185E0F80146
:10484000DE011D9601900D928A95E1F7F801E28054
:1048500086E3A82E83E0B82E6091390370913A0365
:104860006115710509F432C1909136034091370307
:10487000892F84238F3F09F429C120813181C3808E
:10488000D480F0903803F601E61BF70BFF2009F403
:10489000E8C080913B03582F507FE83CF10508F0B9
:1048A000ABC0511177C0FE2C431321C092131FC01F
:1048B000E1101DC08F70806180933B03C5010E9491
:1048C000CB1D80913B03F80185838F2D61960FB638
:1048D000F894DEBF0FBECDBFDF91CF911F910F9136
:1048E000FF90EF90DF90CF90BF90AF900895CD28CC
:1048F00029F0822F83238F3F09F003C180E0F82F36
:10490000F170DF2E80FF3CC080916D0340913C032D
:1049100056E0841315C02D873E878D859E850E94A5
:104920003C0E292F22952F702230F0F0243018F5FC
:104930009F70F1F0F8019581907FD1F4D12C1EC0C9
:1049400090E0589FF001599FF00D1124E35CFC4F5B
:104950006181361306C06081261303C06281E612AE
:104960000FC001968770D5CF9F7011F0882331F367
:10497000805E883018F3C8010E94CB1DFD2CA5CFA6
:10498000EE2009F4A2CF80913B03816080933B032A
:10499000F12C9BCF431306C0921304C0F801EE2004
:1049A00009F479C0C8010E94AE0E882309F1EE20F7
:1049B000F9F080913B03803270F020913603309102
:1049C000370338872F831986DB86CA868C87CE010A
:1049D00007960E94CB1D86E0F801A6E3B3E00190A4
:1049E0000D928A95E1F70E94B523FF24F3946DCFD1
:1049F000C8010E94CB1DF9CF51110AC086E393E094
:104A00000E94CB1D86E0F50111928A95E9F7C0CF8F
:104A100043130FC092130DC0E1100BC0F801858342
:104A2000C8010E94CB1D86E0F50111928A95E9F735
:104A30004CCFC8010E94AE0E8823D1F2EE20C1F205
:104A400080913B03803238F2209136033091370356
:104A50003A8329831B82DD82CC828E83CE0101962C
:104A6000B8CFE83CF105F8F6FE2CEE2009F243132E
:104A70001FC092131DC080913B0380FD10C0982F72
:104A8000907F69F0F8018583903F31F0982F907FF7
:104A9000905F8F70892B8583C8010E94CB1D86E0B3
:104AA000F801A6E3B3E001900D928A95E1F70DCFEE
:104AB000C8010E94AE0E81118ECF80913B038160B0
:104AC00080933B03C8010E94CB1DFFCEEE2009F46A
:104AD0008FCFC8010E94AE0EF82E882309F488CF2C
:104AE00086E0F801A6E3B3E001900D928A95E1F724
:104AF00080913603909137030E943C0E0E94B523AB
:104B0000E4CE81E08E25FBCE1F93CF93DF93CDB70C
:104B1000DEB767970FB6F894DEBF0FBECDBF4B8BE5
:104B20005C8B6D8B7E8B8F8B6111109270031A8A58
:104B3000198A85E0FE017396DE011D9601900D92A3
:104B40008A95E1F786E0FE013D96DE011796019019
:104B50000D928A95E1F7CE0107960E940B248823D7
:104B600089F016E080916D0390913C03891349C050
:104B700067960FB6F894DEBF0FBECDBFDF91CF9121
:104B80001F91089586E0FE013796DE01119601908F
:104B90000D928A95E1F78A859B85892B11F38F8188
:104BA000988589238F3FE9F220913C0330E0C901C9
:104BB00001968770992740916D034817190671F483
:104BC0000E94001B10923C0310926D0386E0E6E306
:104BD000F3E0DF011D928A95E9F7C3CF96E0929F3B
:104BE000D001939FB00D1124A35CBC4FFE01319600
:104BF00001900D929A95E1F780933C030E94DB0DA2
:104C0000B0CF819FC0011124835C9C4F0E940B2474
:104C1000882309F4ADCF80916D0390E001968770F1
:104C2000992780936D039ECF1F920F920FB60F921C
:104C300011242F933F934F935F936F937F938F93A1
:104C40009F93AF93BF93CF93DF93EF93FF93D09155
:104C5000E900DF708091EC00C82FC17080FDC0E8D2
:104C60001092E9008091F000877F8093F0007894A3
:104C70000E940B1B1092E9008091F00088608093E5
:104C8000F000CD2BCF70C093E900FF91EF91DF9141
:104C9000CF91BF91AF919F918F917F916F915F91D4
:104CA0004F913F912F910F900FBE0F901F9018952D
:104CB0001F920F920FB60F9211242F933F934F9391
:104CC0005F936F937F938F939F93AF93BF93EF9374
:104CD000FF938091E10082FF15C08091E20082FF86
:104CE00011C08091E1008B7F8093E1002091BC0492
:104CF0002F5F822F62E30E94062E992309F4BEC023
:104D00002093BC048091DA0080FF28C08091D800F5
:104D100080FF24C08091DA008E7F8093DA0080913A
:104D2000D90080FFE1C080E189BD82E189BD09B47D
:104D300000FEFDCF81E08093CA0484E796E00E94E4
:104D400015048091BD04811109C00E94B7040E941E
:104D500082058091E20084608093E2008091E1000E
:104D600080FF1BC08091E20080FF17C08091E200AD
:104D70008E7F8093E2008091E20080618093E20068
:104D80008091D80080628093D80019BC85E0809320
:104D9000CA048CE796E00E9415048091E10084FF2C
:104DA0002DC08091E20084FF29C080E189BD82E1AD
:104DB00089BD89B5982F917080FFFBCF8091D80075
:104DC0008F7D8093D8008091E1008F7E8093E100F9
:104DD0008091E2008F7E8093E2008091E20081600A
:104DE0008093E2008091CB04882309F487C084E09B
:104DF0008093CA0480E896E00E9415048091E10047
:104E000083FF2BC08091E20083FF27C08091E100E7
:104E1000877F8093E10082E08093CA041092CB04E4
:104E20008091E1008E7F8093E1008091E2008E7F8F
:104E30008093E2008091E20080618093E20042E092
:104E400060E080E00E9450058091F00088608093CF
:104E5000F00084E896E00E941504FF91EF91BF9165
:104E6000AF919F918F917F916F915F914F913F9102
:104E70002F910F900FBE0F901F9018951092BC04A9
:104E80008091BB04882309F43DCF8091CA0484300B
:104E9000C1F49091E9009F702091EC00822F817005
:104EA00020FD80E8892B93E09093E9009091EB003E
:104EB00090FF04C09091EE0097FD08C08F70809322
:104EC000E9001092BB041ECF1092F1009091E8000F
:104ED00095FDFACF9091E80090FFF0CF9091E80017
:104EE0009E779093E800EACF19BC1092CA0488E735
:104EF00096E00E9415041092BD0430CF8091E3002B
:104F000087FD93E09093CA0475CF78941F921FB6E3
:104F10001F9211248F939F93AF93BF938091B304FB
:104F20009091B404A091B504B091B6040196A11D6E
:104F3000B11D8093B3049093B404A093B504B093CF
:104F4000B604BF91AF919F918F911F901FBE1F908C
:104F500018951F921FB61F9211248F939F93AF93A2
:104F6000BF938091B204811113C08091B3049091DA
:104F7000B404A091B504B091B6044196A11DB11D31
:104F80008093B3049093B404A093B504B093B60493
:104F9000BF91AF919F918F911F901FBE1F90189549
:104FA000CDB7DEB761970FB6F894DEBF0FBECDBFA9
:104FB00084B7877F84BF0FB6F894A895809160006E
:104FC000886180936000109260000FBE80E890E0DE
:104FD0000FB6F89480936100909361000FBE85B77F
:104FE000806885BF85B7806885BF81ED9FE090931D
:104FF0000303809302030E94B7040E9482058091FC
:10500000E20084608093E20078948091CA0488234F
:10501000A1F01091E9001F709091EC00892F817030
:1050200090FD80E8182B1092E9008091E80083FD44
:105030000E940B1B1F701093E90082E084BD93E077
:1050400095BD9AEF97BD80936E001092AE041092BA
:10505000AF041092B0041092B1040E941C0A809315
:1050600050010E94141181110E94452C8091500121
:1050700081112EC0FE01359686E0DF011D928A95D2
:10508000E9F781E3898380EF8A8385EF8B8384E36B
:105090008C8385E38D833497A6E4B1E0CE010B9633
:1050A00021912D938E179F07D9F726E0E7E6F1E0CF
:1050B000DE011B9601900D922A95E1F7FC01A0E418
:1050C000B1E0CE01419621912D938E179F07D9F71C
:1050D0008091500195E0811190E09093BB0385E0B1
:1050E000891B8093BA0306E411E07BE4E72E71E0AC
:1050F000F72EF80181918F018F3F11F00E94FC0B78
:10510000E016F106B1F700E411E066E4E62E61E096
:10511000F62ED8018D918D018F3F11F00E94FC0B6E
:10512000E016F106B1F7E0EBF3E08AEB93E0ADEBCC
:10513000B3E011921D928E179F07D9F790E080E09F
:105140000E94CA2E893E9E4F11F00E94691A82E089
:1051500090E00E94C22E8093DB040E9482169093FE
:10516000AF038093AE0383E090E00E94C22E682FCD
:1051700070E090E080E00E94461290E080E00E94A3
:10518000CA2E893E9E4F81F08091DB0480FF08C0CB
:1051900081ED94E09F938F930E94AE040F900F9047
:1051A0000E94691A0E94591646E050E06CE170E0D6
:1051B0008DED94E00E94B22E8091DD048C7F71F41D
:1051C0008091DB0480FF08C08CE794E09F938F936D
:1051D0000E94AE040F900F900E9459168091DB043C
:1051E00080FF89C082E694E09F938F930E94AE0473
:1051F0008091DB040F900F9080FF7DC08091DD04D3
:1052000083701F928F9383E494E09F938F930E9407
:10521000AE048091DB040F900F900F900F9080FFF1
:105220006AC08091DD04869586951F928F9386E2F1
:1052300094E09F938F930E94AE048091DB040F90C3
:105240000F900F900F9080FF56C08091DE041F9248
:105250008F9388E094E09F938F930E94AE04809197
:10526000DB040F900F900F900F9080FF44C080914F
:10527000DF041F928F938AEE93E09F938F930E9497
:10528000AE048091DB040F900F900F900F9080FF81
:1052900032C08091E0041F928F938CEC93E09F9337
:1052A0008F930E94AE048091DB040F900F900F90BB
:1052B0000F9080FF20C08091E1041F928F938EEAAF
:1052C00093E09F938F930E94AE048091DB040F9034
:1052D0000F900F900F9080FF0EC08091E2041F92FC
:1052E0008F9380E993E09F938F930E94AE040F9079
:1052F0000F900F900F900E941411811102C00E9414
:10530000482C80915001811106C082E380935C019A
:1053100083E380935B0120915C01A22FA295AF7083
:10532000B0E091963C9191972F7081E090E0BC01A4
:10533000022E01C0660F0A94EAF7462F40954323D8
:1053400091964C93919792963C919297362B929688
:105350003C93929740915B01E42FE295EF70F0E06F
:1053600031A14F70042E01C0880F0A94EAF7982FDC
:105370009095932391A392A1892B82A390968C91CF
:1053800090E002C0959587952A95E2F7817020A15B
:1053900030E002C0359527954A95E2F792E020FF6C
:1053A00090E0892B8093D0039091500181E0982761
:1053B0009093CF03891B8093BC0381E591E0909388
:1053C000AB048093AA0483E095E00E9415045EE19B
:1053D000452E55E0552E8091CA04853091F48CE419
:1053E00095E00E94150440E4F42E00E112E1809162
:1053F000CA048530C1F10E94001B0E945211109214
:10540000CB030E94901681110E94540692ED692EE2
:1054100093E0792E2DEBC22E23E0D22E10E000E097
:1054200036E1A32E35E0B32E098BF60131906F01E2
:10543000D3012D903D0123105CC00F5F1F4F0A3038
:10544000110591F78FEF8B878C871D860E94600670
:105450008160782F9F878E874B855C856D858F85D2
:105460000E94842570C08091CA04843009F42FC042
:105470008091CB03811105C00E94C71380E00E9478
:10548000D806F1E0F093CB031092B20488E190E0EB
:105490000FB6F894A895809360000FBEF09260005C
:1054A00083B7817F846083BF83B7816083BF789433
:1054B000889583B78E7F83BF0FB6F894A8958091A7
:1054C0006000886180936000109260000FBE809140
:1054D000C904882309F48BCF0E949016EDEBF3E00A
:1054E000819181115DC1A7ECB3E0AE17BF07C1F791
:1054F0007ECF8091DB0481FDC8C02324E12CFF24F2
:10550000F3948F2D822109F4F0C00E941411882396
:10551000A1F0E982A989AA833F2081E009F480E013
:105520008B830E9460068160782F9D838C834981E4
:105530005A816B818D810E948425F801EE52FC4FC7
:105540008081F826F0820E9437116093C703709320
:10555000C8038093C9039093CA032091CB0330E022
:10556000211108C02091DD04322F337019F0322F41
:105570003695369520916301213009F4CAC0222363
:1055800009F4B9C0223009F4C8C0233009F4C9C0F5
:10559000A091D003AA0FAA0F20915C01E22FE295FF
:1055A000EF70F0E080A190E02F7002C09595879594
:1055B0002A95E2F7AC014170552720915B01E22F5B
:1055C000E295EF70F0E080A190E02F7002C0959519
:1055D00087952A95E2F79C012170332780FF02C04E
:1055E00022E030E0242BA22BA093D003E091CF0344
:1055F000AF70B0E0AE52BE4F8C919091CE03890F48
:1056000084300CF4C3C0F0E0E453FC4F90819F5F02
:10561000908321E0082E000C990B64E070E00E945A
:10562000262E8093CE0321110E94D30D0E94521189
:105630009091D103891709F4CECE0E945211182FF0
:105640008093D1038091DB0482FFC5CE80FFC3CE5F
:1056500089E395E00E9415048091DB0480FFBBCEB6
:105660001F921F9384E395E09F938F930E94AE0453
:105670008091DB040F900F900F900F9080FFABCEC6
:1056800082E395E00E941504A6CE83E295E00E9495
:1056900015048DEB882E83E0982EF12CE12CFF92DF
:1056A000EF925F924F920E94AE048BE195E00E94D0
:1056B0001504F40181914F010E94D50E1F928F9322
:1056C000BF92AF920E94AE0484E195E00E9415045F
:1056D000FFEFEF1AFF0A0FB6F894DEBF0FBECDBF83
:1056E0009AE0E916F104D9F608CFE394FF0CB6E08E
:1056F000EB1207CFA2CE109260016093D404709396
:10570000D5048093D6049093D704E1E0E09363013D
:105710003FCF832F0E94C7133BCF832F0E94D80611
:1057200037CF8091DC04882341F046E050E06CE103
:1057300070E08DED94E00E94D02E1092DC04C090B9
:10574000D404D090D504E090D604F090D7040E9401
:1057500014118823C1F02FB7F8946091B3047091AD
:10576000B4048091B5049091B6042FBF6C197D09E3
:105770008E099F09603171058105910508F408CFF4
:105780001092630105CF0E943711F0CF20E08D3FCA
:105790000CF040CFF0E0E453FC4F9081915038CFB3
:1057A00009BD19BD09B400FEFDCF8091D8008F7DE1
:1057B0008093D8008091E00082608093E000809127
:1057C000E00081FDFCCF0E94001B11CE8EE1489BC2
:1057D00002C08150E1F7489BFECF0895589880E2BF
:1057E0008A95F1F7589A0895FC013BE03A95F1F754
:1057F00098E020E080E031E040E14A95F1F7880F41
:10580000489B02C08160232742E04A95F1F70000DF
:1058100040E14A95F1F7915079F790E19A95F1F7C7
:1058200099B132E03A95F1F7000040E14A95F1F77D
:10583000917092272081920F90830895EF92FF92AA
:105840000F931F93CF93DF930F92CDB7DEB71982DB
:105850008C017C01E60EF11C0E151F0561F481E040
:105860009981911180E00F90DF91CF911F910F915D
:10587000FF90EF9008950E94E62BCE0101960E94C2
:10588000F42BF80181938F01E7CF509A589A08952D
:105890005098589AE89AE9E6F0E080818C7F8083FE
:1058A00008956150770B91E001C0990F6A95EAF76E
:1058B00020E031E0911108C0222391F0589A80E253
:1058C0008A95F1F758980895492F482339F0589A46
:1058D000232740E24A95F1F79695ECCF5898F9CFF7
:1058E0005898EDCFFF920F931F93CF93DF93EC0166
:1058F0008C01060F111DC017D10731F4DF91CF9134
:105900001F910F91FF900895F9900E94EE2B68E08F
:105910008F2D0E94512CEFCF1F920F920FB60F9236
:105920001124EF92FF920F931F932F933F934F9366
:105930005F936F937F938F939F93AF93BF93EF93F7
:10594000FF93CF93DF930F92CDB7DEB719820E94FA
:10595000E62BCE0101960E94F42BA82FA695A695C2
:10596000A695282F229525709A2F9570290F922F92
:10597000937026952695920F982797708981982B7A
:1059800009F075C0A73008F072C080E18A95F1F780
:10599000589A509AB2E0BA95F1F700C05898EA2E9A
:1059A000F12CEAE0AE9FD0011124AC5FBE4F1896F7
:1059B000ED91FC9119973097B1F06091D001709101
:1059C000D10116962D913C911797260F371F1396EC
:1059D0008D919C911497680F791F15964C9115978E
:1059E00012968C9109958AE08E9DF0018F9DF00DA5
:1059F0001124EC5FFE4F6581662351F02091D001A8
:105A00003091D10186819781820F931F0E94722C61
:105A10000E94EE2BF0E1FA95F1F758985098589AB9
:105A200080E18A95F1F78AE08E9D80018F9D100DAF
:105A300011240C5F1E4FD80112966C9112976623A9
:105A400071F12091D0013091D10113968D919C91EB
:105A5000820F931F0E941E2CD801ED91FC91882388
:105A600011F088E001C082E080830E94E62B0F9055
:105A7000DF91CF91FF91EF91BF91AF919F918F9166
:105A80007F916F915F914F913F912F911F910F9156
:105A9000FF90EF900F900FBE0F901F901895ED9113
:105AA000FC91DFCF0F931F93CF93DF93EC01079708
:105AB0000CF0A9C08AE08C9FF0018D9FF00D11249D
:105AC000EC5FFE4F80819181892B09F49CC0F89492
:105AD000509A589885E08A95F1F700008C2F8695AA
