:100000000C948E020C945E240C94C6020C94C602CE
:100010000C94C6020C94C6020C94C6020C94C60240
:100020000C94C6020C94C6020C94812B0C94552C93
:100030000C9469260C94C6020C94C6020C94C60259
:100040000C94C6020C94C6020C94C6020C94C60210
:100050000C94C6020C940C270C94C6020C94C60295
:100060000C94C6020C94C6020C94C6020C94C602F0
:100070000C94C6020C94C6020C94C6020C94C602E0
:100080000C94C6020C94C6020C94C6020C94C602D0
:100090000C94C6020C94C6020C94C6020C94C602C0
:1000A0000C94C6020C94C6020C94C60229001E00D1
:1000B0001F002000210022002B0014001A0008005D
:1000C00015001700E30004001600070009000A00ED
:1000D000E1001D001B0006001900050000000000E3
:1000E000E0002D00015102512A00270026002500C2
:1000F000240023003100130012000C0018001C0023
:10010000340033000F000E000D000B0028003800F3
:10011000370036001000110000000000E6002C003F
:100120004F01500135003A003B003C003D003E00CD
:1001300001003F0040004100420043000100440034
:100140004500010001000100E10001000100010083
:100150000100010000000000010001000100010099
:100160002E000100010049000100010030002F00B5
:100170004F08520050084B00010001004F00510091
:1001800050004E00010001000100010001000100CB
:100190000000000001000100F100F200C35CCE5C31
:1001A00000000000000000000000C45CC65CC85CE9
:1001B000CA5CCC5C0000C55CC75CC95CCB5CCD5C38
:1001C000000000000000000000000000000000002F
:1001D00000000000000000004C00540061006000BE
:1001E0005F005800000055005E005D005C00580094
:1001F000000056005B005A005900580000005700EC
:1002000000006300620000000000000053000000D6
:10021000000000001E0F0500047F3F1F64321464BD
:100220003214783C1E1E140A052223252628292A6A
:100230002C2D2F3032333536383A3B3D3E40424349
:100240004547494A4C4E5051535557595A5C5E6088
:1002500062646668696B6D6F71737577797B7D7F9A
:1002600081838587898A8C8E90929496989A9C9E99
:100270009FA1A3A5A7A8AAACAEAFB1B3B4B6B8B9B5
:10028000BBBCBEBFC1C2C3C5C6C7C9CACBCCCDCE1D
:10029000D0D1D2D2D3D4D5D6D7D7D8D9D9DADADB00
:1002A000DBDBDCDCDCDCDCDDDDDDDDDCDCDCDCDC8C
:1002B000DBDBDBDADAD9D9D8D7D7D6D5D4D3D2D2CB
:1002C000D1D0CECDCCCBCAC9C7C6C5C3C2C1BFBEB3
:1002D000BCBBB9B8B6B4B3B1AFAEACAAA8A7A5A31E
:1002E000A19F9E9C9A98969492908E8C8A898785DD
:1002F00083817F7D7B79777573716F6D6B696866BC
:100300006462605E5C5A5957555351504E4C4A498D
:1003100047454342403E3D3B3A3836353332302F35
:100320002D2C2A292826252322FFAA7F55400001AB
:1003300001010101010101010202020202020202A5
:100340000203030303030303030404040404040477
:10035000050505050506060606060707070707083B
:10036000080808090909090A0A0A0B0B0B0C0C0CEE
:100370000D0D0D0E0E0E0F0F0F1010111111121288
:1003800013131414151516161717181819191A1A05
:100390001B1B1C1D1D1E1E1F202021222223242466
:1003A000252626272829292A2B2C2D2D2E2F3031A2
:1003B0003232333435363738393A3B3C3D3E3F40B4
:1003C0004142434445464748494A4C4D4E4F50519F
:1003D0005354555658595A5B5D5E5F616264656659
:1003E00068696B6C6D6F7072737577787A7B7D7EE0
:1003F0008082838587888A8C8E8F91939596989A30
:100400009C9EA0A2A3A5A7A9ABADAFB1B3B5B7BA47
:10041000BCBEC0C2C4C6C9CBCDCFD1D4D6D8DBDD1B
:10042000DFE2E4E7E9EBEEF0F3F5F8FAFDFF18039D
:1004300049007200690073002000520065007600D8
:100440002E002000350000000E034B006500650003
:10045000620069006F0000000403090409023B0008
:10046000020100A0FA0904000001030101000921B2
:100470001101000122400007058103080001090461
:1004800001000103000000092111010001223200D6
:10049000070582032000011201000200000008107D
:1004A000CB565200050102000105010980A101851A
:1004B0000319012AB700150126B7009501751081AF
:1004C00000C0050C0901A101850419012AA002152B
:1004D0000126A002950175108100C005010906A141
:1004E00001050719E029E715002501950875018127
:1004F000029501750881010507190029FF150026DD
:10050000FF00950675088100050819012905950564
:1005100075019102950175039101C00011241FBE60
:10052000CFEFDAE0DEBFCDBF04B603FE18C0809186
:10053000A8039091A903A091AA03B091AB038730BF
:10054000904BA740B04B59F41092A8031092A90306
:100550001092AA031092AB03E0E0F8E3099512E0D1
:10056000A0E0B1E0ECEDFFE502C005900D92A631F0
:10057000B107D9F723E0A6E1B2E001C01D92A83A85
:10058000B207E1F70E9439150C94D62F0C940000A5
:10059000CF93DF93D82FC62F0E948621882341F066
:1005A000D1110AC089EAC11101C08AEA0E94B604C9
:1005B00080E0DF91CF910895D130D1F78EE4C11161
:1005C000F5CF8BE4F3CF81E0089581E008950E9498
:1005D000E502089508950E94EA020895A5E0B0E0BA
:1005E000E4EFF2E00C94C82E49835A8330911D0247
:1005F00089819A81311119C0662399F0222389F0EB
:100600000E946708182F682F89819A810E944308E9
:1006100069817A81812F0E94EE0E2596E3E00C9489
:10062000E42E0E945508182FF3CF0E9467086981B5
:100630007A81F1CFFC01262F408151816281738143
:1006400084810E94EE02089581E00895CF93DF93A4
:10065000EC0160E00E941A03BE010E94EB02DF91F0
:10066000CF9108950E94601008950E94641008952B
:1006700008950E940E070E9438032FEF84E39CE048
:10068000215080409040E1F700C0000008950E9492
:1006900039030E94302708950E9439030E9454278D
:1006A00008950F931F93CF93DF938C0161E00E9415
:1006B0001A03EC01B8010E94E702811106C080E034
:1006C000DF91CF911F910F910895B801CE010E9443
:1006D000E01E8823A1F3B801CE010E946E23882377
:1006E00071F3B801CE010E941120882341F3B801B3
:1006F000CE010E94E022882311F3B801CE010E94AE
:10070000241D8823E1F2F8018281882361F0CB3532
:10071000FDE5DF0701F158F4C115ECE5DE0791F0C6
:10072000CF3DDC4591F0C8010E94E302C9CFCD3531
:100730008DE5D80769F090F0C83ADD45A1F70E9431
:100740004C03BDCF0E944703BACF0E941A0DF7CFCA
:100750000E945F0CE8CF0E94690CE5CF0E946D0CEF
:10076000E2CF0E94462680E00E94151F0E94D3031C
:1007700008950E940C1E0E94D7030E944B260895E4
:1007800008950E94C003089581E008950E94C40363
:1007900008950895CF93C82F0E94C1038C2F0E9403
:1007A000C603CF91089580E00E94CA0308950E9475
:1007B00084250E94CA030895CF930E948425C82FE0
:1007C000809118028C1779F0C09318020E94D526E8
:1007D0006093190270931A0280931B0290931C027B
:1007E0008C2F0E94CA03CF910895ABE0B0E0EBEFED
:1007F000F3E00C94C92E4F83588769877A878B87DB
:1008000061110E94AA0B1E821D8285E0FE013796AF
:10081000DE01119601900D928A95E1F78C819D8100
:10082000892B61F449815A816B817C818D819E8104
:100830000E94D30A2B96E2E00C94E52E89819A81DE
:1008400089238F3F79F3CE0101960E942403811101
:10085000E9CFF0CFFC01808191810E949908089531
:10086000CF93C82F8823B9F08CEF8C0F813AA8F46E
:100870006C2F80910401909105010E94E12588234D
:1008800029F08C2F0E946A0B0E94CB0B8C2F0E94A8
:10089000620B0E94CB0BCF91089580E28C0F8830C1
:1008A00048F4C77081E001C0880FCA95EAF70E943A
:1008B0008D0BEFCFEBE5EC0FE33040F4F0E0EB55C0
:1008C000FE4F808190E00E94A325E5CFC85AC73132
:1008D00010F7EC2FF0E0EE0FFF1FE958FE4F80817C
:1008E00091810E94B925D7CF882339F19CEF980FC9
:1008F000913A28F40E946A0B0E94CB0B089590E273
:10090000980F983050F4877091E001C0990F8A9544
:10091000EAF7892F0E94930BEFCF9BE5980F933056
:1009200028F490E080E00E94A3250895885A87313A
:1009300020F490E080E00E94B92508951F93CF93A2
:10094000DF93182FEB010E943004209739F4812F98
:100950000E947404DF91CF911F9108958FE99FE069
:100960000197F1F700C000002197EFCF70E060E041
:10097000893311F460E570E00E949E040895882395
:1009800021F00E948D0B0E94CB0B0895882321F04B
:100990000E94930B0E94CB0B0895B0E0A0E0E3ED22
:1009A000F4E00C94C22E6C01D62FC72FFC011281EB
:1009B000F580F2949FE0F9220E94830BE82E8823B1
:1009C000B9F0E12E1123A1F08C2F807F803421F02B
:1009D00080E28D0F8830D0F08091560382FF16C0E0
:1009E00082E00E942E0C0E94830B91E0E82EE92603
:1009F000BC2EB2948FE0B822FBE0FB1508F468C06F
:100A0000EB2DF0E0E852F04D0C94822EE12CF0CF6B
:100A10000C2F0F70C07F11F00295007F112399F009
:100A2000002359F080E28D0F883010F0D11107C0FB
:100A3000802F0E948D0B0E94CB0B8D2F41C0802FE9
:100A40000E949D0BF8CF8D2F0E947404002309F49F
:100A50003FC080E28D0F883010F0D11104C0802F8C
:100A60000E94930B03C0802F0E94A30B0E94CB0B0C
:100A70002FC00C2F0F70C07FC03211F00295007F85
:100A8000DD2381F0D13009F463C0112309F46DC076
:100A9000FF2009F463C0F601858180FFCECF8F70FF
:100AA00085835CC08091560382FD33C0112359F0C9
:100AB000002329F0802F0E948D0B0E94CB0B80E039
:100AC0000E94300405C080E00E9474040111C7CF69
:100AD000EB2DE850FF0B349720F40E9484250E94F0
:100AE000CA03EE2089F00E947F0B80FD0DC0F60145
:100AF00012820E94790B0E94A107C6010E94D206B1
:100B00000E94790B0E94B107CDB7DEB7E9E00C94E3
:100B1000DE2E112389F0F11006C00E94AD0B802B50
:100B20000E94BF04D5CF21E0F212F7CF0E94AD0B97
:100B3000802B0E94B40BCCCFF11006C00E94C10BD9
:100B4000802F0E94C604C4CF31E0F31609F2F6CF1D
:100B5000112331F085E08F1508F4BACF802FE0CF54
:100B600094E09F1508F4B4CFEBCFFF2049F3D933BD
:100B700049F4FFEF27EE33E0F15020403040E1F739
:100B800000C000008D2F0E947404A2CF8C2F869588
:100B90008695837069F0813009F09ACF8D2F9C2F54
:100BA0009370111102C090E080E00E94B92590CFAF
:100BB0008D2F9C2F9370111102C090E080E00E9455
:100BC000A32586CF8C2F8370A1F5111181CF4D2FD6
:100BD000429546954770440F440F2D2F2F7030E0FB
:100BE000042E02C0220F331F0A94E2F790E080E047
:100BF000D4FF09C08FE090E002C0880F991F4A958A
:100C0000E2F780959095C695C695C370822B932B7D
:100C1000C23049F058F4C13019F00E946F0758CF24
:100C20000E94660755CF0E94780752CF0E94630743
:100C30004FCF8695112311F08C2F8170882309F4F2
:100C400047CF4D2F429546954770440F440F2D2FA7
:100C50002F7030E0042E02C0220F331F0A94E2F7F7
:100C600090E080E0D4FF09C08FE090E002C0880FE0
:100C7000991F4A95E2F780959095C695C695C370E1
:100C8000822B932BC23049F058F4C13019F00E94E6
:100C9000DC071ECF0E94D3071BCF0E94E50718CFA9
:100CA0000E94870715CFCF70112329F08C2F0E9447
:100CB000A1078D2F35CF8D2F0E94C6048C2F0E9447
:100CC000B10706CFD23F51F160F4D03FB9F0D13F28
:100CD00081F0112309F449C0F110AFCE8C2F8F7130
:100CE00021C0D33F11F1D43FA1F78091560382FD7B
:100CF00026C08C2F8F71112311F314C0112349F0DA
:100D000084E08F1508F4E4CE8C2F8F710E94C30706
:100D1000DFCE95E09F1508F4DBCEF6CF8C2F8F71D8
:100D20001111CDCF0E94A107D3CE112329F08C2F12
:100D30008F710E949507CCCE0E949007C9CE1123D7
:100D400049F0CF718C2F0E94A10763E08C2F0E9485
:100D5000100CBECE81E00E942E0CE1E0EF1508F0F1
:100D6000B7CE82E00E942E0CB3CEF11000CF8C2FB4
:100D70008F71A5CF0F931F93CF93DF93EC01688101
:100D800079818A810E94A4088C010E94EE070E944A
:100D90006207B801CE010E94CD04DF91CF911F916F
:100DA0000F910895CF93DF93EC018B819C81892B68
:100DB00029F08881998189238F3F51F4DF91CF9168
:100DC0000895CE010E94BA06CE010E942603F6CFF6
:100DD000CE010E9451038111F4CF0E94830B88231E
:100DE00069F38A81882351F38091560382FFE6CF0D
:100DF00082E00E942E0CE2CF90E080E00E94A325CA
:100E000090E080E00E94B9250E94AA0B0E94CB0BC3
:100E100008950E94720B0E94FC0608950E949A0B8E
:100E20000E940907089592959F70963091F058F4AA
:100E3000925F9F70923058F4803F19F030F4883EF2
:100E400030F481E008959A5FF4CF843FD1F380E0DD
:100E50000895883EB0F3813FD1F7F3CFFC01838141
:100E60009481892B29F08081918189238F3F11F40E
:100E700080E00895808191810E9499080E94130763
:100E80000895A5E0B0E0E7E4F7E00C94C92E2596BC
:100E9000E2E00C94E52EA6E0B0E0E1E5F7E00C948A
:100EA000C92E2696E2E00C94E52E08950E9455077F
:100EB00008950E94560790934102809340020E9439
:100EC000FC06089508950E94590708952091400254
:100ED00030914102822B932B0E9459070895209153
:100EE000400230914102822393230E9459070895C2
:100EF0002091400230914102822793270E94590796
:100F000008950E94550708950E94810708950E9440
:100F1000840790933F0280933E020E94FC0608954E
:100F200090E080E00E948707089521E030E0A90169
:100F300002C0440F551F8A95E2F7CA010E94870735
:100F4000089521E030E002C0220F331F8A95E2F7B6
:100F500080913E0290913F02822B932B0E94870743
:100F6000089521E030E002C0220F331F8A95E2F796
:100F70002095309580913E0290913F0282239323E9
:100F80000E948707089521E030E002C0220F331F3E
:100F90008A95E2F780913E0290913F028227932743
:100FA0000E948707089520913E0230913F02822BD4
:100FB000932B0E948707089520913E0230913F02B3
:100FC000822393230E948707089520913E02309147
:100FD0003F02822793270E94870708950895262FAE
:100FE000277091E001C0990F2A95EAF723E07695E2
:100FF00067952A95E1F7660F771F660F771FFA014D
:10100000E60FF71F50E040E0682F70E08191DF01AC
:1010100011979B01042E02C0369527950A94E2F79A
:10102000217021952827292328272C934F5F5F4F74
:101030004430510559F70895A82FA77023E09695DD
:1010400087952A95E1F7880F991F880F991FFB0153
:10105000E80FF91F50E040E080E0219130E00A2ED7
:1010600002C0369527950A94E2F721703327042EA3
:1010700001C0220F0A94EAF7822B4F5F5F4F443082
:10108000510559F70895262F9A3070F4863060F490
:10109000682F70E086E0989F600D711D11244EE16D
:1010A00052E0822F0E94EF070895292F9A3068F4AA
:1010B000863058F490E06EE172E036E0239F800DB8
:1010C000911D11240E941C08089580E00895B0E04D
:1010D000A0E0EDE6F8E00C94C22E7C0100913E0207
:1010E00010913F028091400290914102082B192BF0
:1010F000CFE0D0E0CC24C394D12CBC2EC6010C2E62
:1011000002C0880F991F0A94E2F780239123892B4C
:1011100049F4219790F7B12C8B2DCDB7DEB7E9E0DC
:101120000C94DE2EB7018C2F0E94090F019789F3D2
:10113000F3CFCF93DF93EC010E946708BE010E94BA
:10114000090FDF91CF9108951F93CF93DF93EB01A8
:1011500090911D02992339F0CB010E949908DF91EB
:10116000CF911F910895882369F0CB010E946708F1
:10117000182F682FCE010E944308BE01812F0E94C4
:10118000090FEDCFCB010E945508182FF6CF1F9302
:10119000CF93DF93C091420216E0809143028C13FB
:1011A00004C0DF91CF911F910895D0E01C9FF00102
:1011B0001D9FF00D1124EC5BFD4F40815181628138
:1011C0007381848195810E944B072196C770E5CF7A
:1011D000409174025091750260917602709177028D
:1011E00080917802909179020E944B0708951F9395
:1011F000CF93DF9380917902807F09F049C080917D
:101200007602882309F444C080914202C0914302CF
:101210006091740270917502A0917702B09178028A
:10122000D62FD72316E0C81799F190E0109711F048
:10123000DF3F19F401968770F6CF189F9001199F30
:10124000300D1124F901EC5BFD4F41814713F2CFC2
:1012500040814613EFCF42814111ECCF438154814D
:101260004A1B5B0B483C510528F7809179028F702F
:10127000806180937902F901E75BFD4F80818F7077
:101280008061808384E792E00E94D2060E94C708B2
:10129000DF91CF911F910895A1E1B0E0E2E5F9E07F
:1012A0000C94C12E8C0185E0F801DE011D960190A1
:1012B0000D928A95E1F7F801E28084E7C82E82E07A
:1012C000D82E60917702709178026115710509F44A
:1012D0004EC19091740220917502892F82238F3F15
:1012E00009F445C140815181A380B480F090760219
:1012F000F501E61BF70BFF2009F4EAC080917902A3
:10130000382F307FE83CF10508F0A3C031116DC0E3
:10131000FE2C251316C0941314C0E11012C08F7058
:101320008061809379020E94E808C6010E94D2067B
:1013300080917902F80185838F2D6196EAE00C9403
:10134000DD2EA114B10429F0842F85238F3F09F0ED
:1013500027C180E0F82FF170DF2E80FF3CC0809124
:1013600042022091430236E0821315C04D875E870A
:101370008D859E850E949908292F22952F702230F5
:10138000F0F0243018F59F70F1F0F8019581907F0E
:10139000D1F4D12C1EC090E0389FF001399FF00DA0
:1013A0001124EC5BFD4F6181651306C060816413FD
:1013B00003C06281E6120FC001968770D5CF9F707F
:1013C00011F0882331F3805E883018F3C8010E9441
:1013D000D206FD2CB1CFEE2009F4AECF8091790278
:1013E000816080937902F12CA7CF251306C0941356
:1013F00004C0F801EE2009F487C0C8010E942E073E
:10140000882319F1EE2009F180917902803270F081
:10141000209174023091750238872F831986BB861C
:10142000AA868C87CE0107960E94D20686E0F80134
:10143000A4E7B2E001900D928A95E1F70E94F708C7
:101440000E94E808FF24F39477CFC8010E94D206D7
:10145000F9CF311113C07A2DB98AA88A6E2D8989E6
:101460000E94410784E792E00E94D20686E0F601DE
:1014700011928A95E9F70E94E808B5CF25130FC0AD
:1014800094130DC0E1100BC0F8018583C8010E94C0
:10149000D20686E0F60111928A95E9F74DCFC80190
:1014A0000E942E07882389F2EE2079F2809179023A
:1014B000803208F4BBCF20917402309175023A83D8
:1014C00029831B82BD82AC828E83CE010196ACCF74
:1014D000E83CF10508F03EC0FE2CEE2009F4B5CF43
:1014E00025132AC0941328C08091790280FD1BC067
:1014F000982F907FC1F0F8018583903F31F0982FAD
:10150000907F905F8F70892B8583C8010E94D206DF
:1015100086E0F801A4E7B2E001900D928A95E1F728
:101520000E94E80809CF86E0F801A4E7B2E0019044
:101530000D928A95E1F700CFC8010E942E07811114
:1015400075CF80917902816080937902C8010E94F1
:10155000D206F2CE7A2DB98AA88A6E2D89890E9488
:10156000410786E0F60111928A95E9F7D9CFEE207E
:1015700009F46BCFC8010E942E07F82E882309F4C6
:1015800064CF86E0F801A4E7B2E001900D928A955D
:10159000E1F784E792E00E942A040E94F708C0CF96
:1015A00081E08E25D7CEACE0B0E0E9EDFAE00C9416
:1015B000C82E4F83588769877A878B879C87CE018F
:1015C00007960E944C09882369F08A859B85892BA0
:1015D00039F04F815885842F85238F3F09F06BC0E8
:1015E00016E05FC086E0FE013796DE01119601909D
:1015F0000D928A95E1F78A859B85892B89F38885E9
:101600009F8189238F3F61F32091430230E0C9011C
:10161000019687709927409142024817190671F484
:101620000E940E07109243021092420286E0E4E705
:10163000F2E0DF011D928A95E9F7D2CF96E0929F02
:10164000D001939FB00D1124AC5BBD4FFE013196CC
:1016500001900D929A95E1F7809343020E94C7088A
:10166000BFCF819FC00111248C5B9D4F0E944C090C
:101670008823E9F0E09142021E9FF0011124EC5B07
:10168000FD4F4081518162817381848195810E94E7
:101690004B078091420290E00196877099278093D2
:1016A000420280914202909143028913DACF2C9634
:1016B000E3E00C94E42E69857A858B859C850E94F5
:1016C0004B078ECF682F80910401909105010E94F5
:1016D00017260895682F80910401909105010E94BA
:1016E0001A26089580910401909105010E941D26FB
:1016F00008958091820285958595859508958091BC
:1017000082028770089590918202977081E009F4B7
:1017100080E0089580918D02089590918D02892B2B
:1017200080938D020895809590918D0298239093D7
:101730008D02089510928D02089590918C02892B4C
:1017400080938C020895809590918C0298239093B9
:101750008C02089510928C0208958091830208955E
:1017600008950E94B00B08959091560392FF08C00F
:1017700090918302981721F0809383020E94B10B0D
:10178000089580918302882329F01092830280E0DB
:101790000E94B10B0895CF93DF93E0910401F09183
:1017A000050180918D028083E0910401F091050193
:1017B000808190918C02892B808390918302992360
:1017C00081F0E0910401F09105018081892B8083F3
:1017D00080910401909105010E94CF2581110E9402
:1017E000C10BC0910401D091050148E050E06AE7C7
:1017F00072E0CE010E94592F892B59F088E0FE013A
:10180000AAE7B2E001900D928A95E1F7CE010E941D
:101810009825DF91CF91089508950E940C0C0895AA
:101820009091560392FF11C098E0899F9001112476
:10183000622B609382020E94A107809182028595AB
:10184000859585950E940D0C08950E94A107089525
:101850001092820280E00E940D0C08959091820205
:101860008095892380938202282F277091F4282F56
:10187000082E000C330B9217130659F09091560363
:1018800092FF07C08595859585950E94B1070E94B6
:10189000280C08959091560392FB222720F92817CF
:1018A00069F080FB92F990935603809155039091D3
:1018B00056030E94940C82E00E942E0C08958091A1
:1018C000560382FB882780F991E089270E944A0C01
:1018D000089581E00E944A0C089580E00E944A0C1D
:1018E000089590E080E00E947D2F21E0883E9E4F89
:1018F00009F020E0822F089582E090E00E946F2F8F
:10190000089583E090E00E946F2F0895CF9384E0C4
:1019100090E00E946F2FC82F82E290E00E946F2F0C
:10192000982F8C2FCF910895CF93C92F682F84E0E3
:1019300090E00E94832F6C2F82E290E00E94832F20
:10194000CF910895AB01BC018FE090E00E94952FEC
:101950000895AB01BC0183E190E00E94952F0895AA
:1019600060E070E0CB010E94A90C089560E070E097
:10197000CB010E94A20C0E94B00C089568EE7EEF8D
:1019800090E080E00E94A12F60E082E090E00E9461
:10199000832F60E083E090E00E94832F1092410249
:1019A0001092400260E084E090E00E94832F64E0A7
:1019B00082E290E00E94832F60E085E090E00E9448
:1019C000832F60E086E090E00E94832F6FEF87E036
:1019D00090E00E94832F40E050E0BA0188E090E060
:1019E0000E94952F60E08DE090E00E94832F40E000
:1019F00050E0BA0188E190E00E94952F60E087E115
:101A000090E00E94832F40E050E0BA018CE190E02A
:101A10000E94952F70E060E080E290E00E94A12F8C
:101A200040E050E0BA0188E190E00E94952F0E94CA
:101A3000B60C08950E94BE0C0895682F8EE090E0C9
:101A40000E94832F08950E94D5266093A20270936E
:101A5000A3028093A4029093A50260939E027093C8
:101A60009F028093A0029093A10208950E94D52620
:101A70006093A2027093A3028093A4029093A502A4
:101A800060939A0270939B0280939C0290939D02B4
:101A90000895089508950E944A0D089508950E949A
:101AA0004E0D08958EE390E10E947A250E94490D23
:101AB0000E944B0D08950E944612089508950895BE
:101AC0000E945E0D0E945F0D08950E9441100E94C9
:101AD000C9030E94BC1F08950E94C0260E94F30FF4
:101AE0000E945E120E946B110E94650D0E94F91FF8
:101AF0000E940C1E0E94CF1B0E9488210E947A1215
:101B00000E944F0D0895AAE0B0E0E9E8FDE00C94D2
:101B1000C12E0E94C51180E9A82E82E0B82E750161
:101B200010E0F70101917F01812F0E9467101F5F74
:101B30001A3009F440C00817A1F38091A60281FD74
:101B40000E946D100E945B0DC82E10E0812F0E9434
:101B50006710082FF50181915F01081731F1F12C11
:101B6000EE24E394D02ED8268D2D8E21B1F0CC20FA
:101B7000A1F0FE821F8391E0802F8E2109F490E076
:101B800098870E94C9268160782F9A8789874E811D
:101B90005F8168858A850E94F503F394EE0CF6E078
:101BA000FF12E2CFF501319700831F5F1A3071F603
:101BB0000E94230D20C00813C0CF0E94C9268C01AB
:101BC00080918E0290918F0208171907A1F08FEF74
:101BD00089838A831B820E94C9268160782F9D8316
:101BE0008C8349815A816B818D810E94F50310930A
:101BF0008F0200938E020E9446120E943C1C0E949B
:101C0000BB1F0E940C2281110E94360D0E94DC0332
:101C10002A96EAE00C94DD2ECF93DF930E940E0FFC
:101C2000EC01811522E59207E8F5811531E593076E
:101C300008F0A3C0883E910510F5803E910570F52F
:101C4000883A910570F4853A910508F078C08130A2
:101C5000910521F1009711F1049700F5D0E0C0E063
:101C60001DC08F3B9105D0F7C85AD0E0CC0FDD1FC7
:101C7000C855DE4F0990D881C02DD4640FC081159E
:101C800040E5940708F066C0C11580E4D80708F065
:101C90005EC0CE019A9581159F4100F7CE01DF917C
:101CA000CF910895811536E5930718F5811545E51F
:101CB000940708F07BC0C11584E5D80708F071C00F
:101CC0009E01237033279C2F96959695C115D34579
:101CD00008F458C0C1E0D0E002C0CC0FDD1F2A9547
:101CE000E2F730E2939FC0011124C82BD92BDA68A8
:101CF000D5CFC1158AE5D80778F4C11529E5D207F3
:101D000008F05EC0C11538E5D30708F4A7CFDC2F73
:101D1000CC27C06FD06AC2CFCE01905681159042B9
:101D200008F09CCF8D2F8F710E94B00F90E0982FFC
:101D3000882788279F719C012C2BE9013FC0C55A39
:101D4000D0E0CA52DE4FC881D0E0D064A7CFDF70A8
:101D5000D06AA4CF8370992721E030E002C0220F1F
:101D6000331F8A95E2F7C695C69580E2C89FE001C9
:101D70001124C22BD32BDD6891CFD82FCC27C16F74
:101D8000D06A8CCFC1E0D0E002C0CC0FDD1F2A9515
:101D9000E2F720E2929FC0011124C82BD92BDC6806
:101DA0007DCFDC2FCC27C46FD06A78CF0E94B00FD4
:101DB000C82FD0E0DC2FCC27CC27DF71D0626ECFCC
:101DC0008C2F8F700E94B00F34E0D695C7953A954E
:101DD000E1F7CF709C2FEC01D06960CF972F7A305C
:101DE000A8F4663098F470E026E0929F600D711DB3
:101DF0001124FB019CE3899FE00DF11D1124EE0FDE
:101E0000FF1FE455FF4F85919491089580E090E085
:101E100008950E94EE0E0E940C0E089582389105DE
:101E2000B9F1B0F48133910509F47DC048F48932E9
:101E3000910509F46DC08A32910509F47BC00895BB
:101E40008533910509F45FC08933910509F108953F
:101E5000833E9105D9F138F4803E910529F1823E07
:101E6000910579F10895863E9105D9F1873E910556
:101E700009F43EC0843E910541F52091560321FFAF
:101E800024C08091550384FD19C087EE90E0089529
:101E900020915503237009F05AC02091560323FF67
:101EA00014C089E290E008952091550320FD38C0C8
:101EB0003091560330FF09C024FF43C090E080E01A
:101EC00008952091550322FDF7CF089520915503E1
:101ED00022FD3AC03091560330FD39C024FFF5CFC2
:101EE000EDCF2091550323FFF0CF24FDE7CFCDCFD9
:101EF0002091550323FD2EC03091560331FFEECFC4
:101F000084EE90E008952091550325FFDECFC9CFE0
:101F10002091550325FD21C02091560323FFD5CFE5
:101F200089E390E0D2CF2091550326FFCECF8AE2FD
:101F300090E008952091550326FFC7CF81E390E0FC
:101F4000089583EE90E0089582EE90E0089580EE8B
:101F500090E0089586EE90E0089585E390E008957E
:101F60009091550392FF06C0282F28712830F9F46C
:101F7000877F846093FF06C0282F28712831F1F4F1
:101F8000877E84612091560320FF06C0382F387168
:101F90003830D9F4877F816021FF06C0282F28714F
:101FA0002831D1F4877E816194FD877E0895282FA2
:101FB00024712430F9F68B7F8860DCCF282F2471C0
:101FC000243101F78B7E8861DDCF382F31713130BC
:101FD00019F78E7F8860E0CF282F2171213121F7FA
:101FE0008E7E8861E1CF10925103109252031092BD
:101FF0005303109254030895CF92DF92EF92FF9211
:102000006B017C010E94461281110EC00E94D526F0
:10201000C61AD70AE80AF90AC0925103D0925203AD
:10202000E0925303F0925403FF90EF90DF90CF9033
:1020300008950F931F930E944612882329F00E944F
:10204000D5261F910F9108950E94D5260091510326
:10205000109152032091530330915403600F711F6C
:10206000821F931FEECF0E944612882319F00E9410
:10207000C92608950E941910CB01089580E00895A3
:1020800008950E94710C811102C00E941A0D0E94D5
:102090007C0C8093A6020E94860C9093560380933A
:1020A00055030E9440100E94810C90E00E9463073B
:1020B00080913E0290913F020E9484070895089506
:1020C0000E945F10089508950E9463100895E82FFC
:1020D000F0E0EE59FC4F80810895089580EA8A95DA
:1020E000F1F7089500C008950E946E1008950895B4
:1020F0000E9477100895A5E0B0E0E1E8F0E10C94CB
:10210000C52E0E944612F82E60916C03882309F4B4
:1021100040C085E0E82E8E010F5F1F4FF8018E2D25
:1021200011928A95E9F7862F90E0B8018E599C4F5D
:102130000E9488128823B9F08091570390E045E00F
:1021400050E0B8018E599C4F0E94592F21E02093F6
:10215000A702892B91F4F12C0E9435038F2D25962F
:10216000E6E00C94E12E8091A7028823A1F3F80108
:102170001192EA94E9F71092A702A0915703B0E0F8
:10218000AE59BC4F85E0F80101900D928A95E1F7B8
:10219000E3CF70E06E597C4F8091570390E08E59E9
:1021A0009C4F0E940F130E947810D8CFF894E82F0C
:1021B000E295EF70F0E031A1282F2F7081E090E0E0
:1021C00001C0880F2A95EAF7982F9095932391A341
:1021D00092A1892B82A3789408950F931F93CF9394
:1021E000DF93CCE0D1E089918F3F11F00E94D610AF
:1021F00081E0C131D807B9F7C6E0D1E00CE011E0C9
:1022000089918F3F11F00E94D6100C171D07C1F75E
:10221000DF91CF911F910F910895B0E0A0E0E3E12D
:10222000F1E10C94C32EEC01D62E062F10E0C8016C
:10223000845F9E4F7C01FC0180818F3F09F444C084
:10224000F894E82FE295EF70F0E091A18F7021E013
:1022500030E001C0220F8A95EAF7892F822B81A3F3
:1022600082A12095282322A378940E947210E6E090
:10227000F1E031E0C12C21912F3F59F1A22FA2951D
:10228000AF70B0E090968C9190E02F7002C0959561
:1022900087952A95E2F780FD1CC0832FC82A330F4B
:1022A00081E0EC30F80739F7F70180818F3F11F0BA
:1022B0000E94D61061E0C11001C060E08D2D0E9427
:1022C0007410C00FD11FC882CDB7DEB7E8E00C9400
:1022D000DF2E80E0E3CFABE0B0E0E1E7F1E10C948A
:1022E000C92E8091110181112CC085E0ECE6F1E04E
:1022F000DE01179601900D928A95E1F78F81809308
:102300000C01888580930D01898580930E018A8553
:1023100080930F018B858093100186E0E1E7F1E067
:10232000DE01119601900D928A95E1F7FE0131963A
:10233000A6E0B1E0CE01079621912D93E817F907A9
:10234000D9F78091110195E0811190E090936C0391
:1023500085E0891B809357030E94ED108AE0E2E636
:10236000F3E0DF01982F1D929A95E9F7E8E5F3E095
:10237000DF011D928A95E9F785E00E9403120E9411
:1023800032032B96E2E00C94E52EAAE0B0E0EBECF1
:10239000F1E10C94C62E8E010F5F1F4F8AE0F80109
:1023A00011928A95E9F7F12C6F2DC8010E940D1149
:1023B000F394F5E0FF12F8CF4AE050E0B80188E569
:1023C00093E00E94592F21E0009709F420E0892B27
:1023D00041F08AE0F801A8E5B3E001900D928A95FA
:1023E000E1F760916C0370E06E597C4F45E088E541
:1023F00093E00E940412182F0E947B10812B2A96D2
:10240000E5E00C94E22E0895CF92DF92EF92FF92D6
:102410000F931F93CF936C017B01042F222349F06C
:1024200081E08093AA020E94C9269093A90280931A
:10243000A802C091AA02C1110AC0C0E08C2FCF919E
:102440001F910F91FF90EF90DF90CF9008958091B2
:10245000A8029091A9020E94E126059770F310E06E
:10246000A801B601C7010E94592F892B41F0A8018C
:10247000B601C7010E94662F1092AA02DFCFC0E00A
:10248000FBCF89B185FB882780F908958091AD0243
:10249000811107C00E94012E882351F081E08093B2
:1024A000AD0281E09091AD02913009F080E0089595
:1024B00082E08093AD020E94FC2DF3CF55985D9889
:1024C0008FE891E00197F1F700C000000E944112EF
:1024D000809311018091110166E0882349F080E02A
:1024E0000E94DE150E94461281110E94BE120895BC
:1024F00086E0F6CF0E944612811102C00E94C112EE
:10250000089581E09091AE029A3008F080E008953D
:102510000F931F93CF93DF93EC018B018091AE0259
:102520008A30B8F4B801CE010E940C13C82F811173
:1025300022C08091AE028F3FB9F40E94C9269093C9
:10254000AC028093AB028C2FDF91CF911F910F9142
:1025500008958091AB029091AC020E94E126843FE5
:10256000914000F7C0E0EFCF8F5F8093AE028A30DA
:1025700020F7C1E0E8CF1092AE02E5CF0E94182408
:1025800008950E941B240895B0E0A0E0EAECF2E177
:102590000C94C42E7901C82F880FDD0B411551050D
:1025A000A9F0FE0193E0EE0FFF1F9A95E1F7EE5EB2
:1025B000FE4F8181928181559D4F208130E04217ED
:1025C000530708F49A01A9010E94662FCE010E94C8
:1025D0000425D82E8823D1F001151105B9F083E028
:1025E000CC0FDD1F8A95E1F7FE01EE5EFE4F4381C1
:1025F00050E00417150708F4A801CE5EDE4F6C8189
:102600007D8161557D4FC7010E94662F8D2DCDB70D
:10261000DEB7E7E00C94E02E0E94A41408950E9417
:10262000D5140895A4E0B0E0E8E1F3E10C94C72EDE
:102630006091D5027091D6028091D7029091D80214
:102640000E94F02611E0643671058105910518F1AC
:102650000E9419106E5F7F4F8F4F9F4F69837A835F
:102660008B839C8310E000E030E020E044E050E009
:10267000BE016F5F7F4F84E00E94C412182F882331
:1026800051F00E94D5266093D5027093D6028093B4
:10269000D7029093D802812F2496E4E00C94E32E85
:1026A000B0E0A0E0E6E5F3E10C94C12EC82F7B0179
:1026B000D42F69015801FB0160817181828193816E
:1026C0000E94F026643671058105910510F4DD2322
:1026D000C9F010E000E030E020E0A501B6018C2F49
:1026E0000E94C412C82F882339F00E94D526F70112
:1026F00060837183828393838C2FCDB7DEB7EAE04A
:102700000C94DD2EC1E0F8CFA8E0B0E0EAE8F3E1F8
:102710000C94C72ECE0101960E94EB1A41E08885E9
:10272000811101C040E008E010E09E012F5F3F4FA3
:102730006DED72E086E00E945013182F81110E9407
:10274000E81A812F2896E4E00C94E32EA1E0B0E093
:10275000ECEAF3E10C94C72E0E94EE1D8823D1F021
:102760000E94061E8983E091D901F091DA0141E0CF
:102770009485981301C040E001E010E09E012F5FB6
:102780003F4F69ED72E085E00E9450132196E4E02E
:102790000C94E32E80E0E6CFA1E0B0E0E2EDF3E1BF
:1027A0000C94BE2E762E4A015901680101E010E01A
:1027B0009E012F5F3F4F50E040E070E060E00E94DC
:1027C000C412182F882399F1F401608171818281EC
:1027D00093810E94F026643671058105910500F110
:1027E0008701950150E040E070E060E0872D0E9495
:1027F000C412B82EB701C6010E94FA1F11E09981D8
:10280000981310E01B2139F00E94D526F401608353
:10281000718382839383812F2196EDE00C94DA2ECD
:10282000B701C6010E94FA1F99818913D9CFA70168
:10283000B601C5010E94662FEECFA1E0B0E0E3E251
:10284000F4E10C94C52E0091D9011091DA01095FD1
:102850001F4FEE24E394F12C9E012F5F3F4F41ED7B
:1028600052E063E082E00E94CC13182F882321F00D
:10287000CE0101960E949C22812F2196E6E00C94C5
:10288000E12EA5E0B0E0E7E4F4E10C94C32E6B0187
:102890000091D9011091DA010F5F1F4F85E0E82EFA
:1028A000F12C9E012F5F3F4F4DEC52E061E080E044
:1028B0000E94CC13882349F095E0FE013196A8ECE4
:1028C000B2E001900D929A95E1F795E0E8ECF2E024
:1028D000D60101900D929A95E1F72596E8E00C94C7
:1028E000DF2EB0E0A0E0E7E7F4E10C94C12E7C011C
:1028F0005B016A010E94811201E010E0882311F05F
:102900000AE010E0C1E0D0E0B501C701F601099589
:10291000811104C021960C171D072CF4CDB7DEB72A
:10292000EAE00C94DD2ECC9F9001CD9F300D300D50
:10293000112490E080E045E34A95F1F7000001960C
:1029400082179307C1F7E0CF0F931F93CF93DF93C5
:10295000EC018B0141E454E10E947114811106C025
:1029600080E0DF91CF911F910F9108954DE154E1E7
:10297000B801CE010E947114882391F342E153E122
:10298000B801CE010E947114882351F346EA53E145
:10299000B801CE010E947114882311F344E853E179
:1029A000B801CE010E947114DCCFA1E0B0E0EBEDE4
:1029B000F4E10C94C32E0091D9011091DA01C80101
:1029C000019625E0FB01DC0101900D922A95E1F7CB
:1029D00065E070E00E94FA1FF8018083CE01019645
:1029E0000E9491228981F801878361E070E0CE0125
:1029F00001960E94FA1FF8018683608571858285A1
:102A00009385C090C402D090C502E090C602F090B9
:102A1000C7026C157D058E059F0551F06093C402B9
:102A20007093C5028093C6029093C7020E94FC0F68
:102A3000F80184850E94151FF8018489882339F0E4
:102A400060E0C8010D960E94071CF801148A2196C7
:102A5000E8E00C94DF2E0E94D7280E946C0D0E94A3
:102A6000E42808950E94E9280E94830D0E9403290A
:102A700008950E9462260E94BD280E94520D0E9465
:102A80002B150E9432150E94600DFBCFEF92FF9232
:102A90000F931F93CF93DF93EB01E82FD1110EC05B
:102AA000442321F0F0E0E25DFC4FE4916E2F7E2F95
:102AB0008E2FCDB7DEB7E6E00C94E12E0D2F10E09F
:102AC000282F30E0442329F0225D3C4FF901249166
:102AD00030E0F6E0CF9FC0011124EFEFF0E0BF013E
:102AE0000E94382EAB018C2F90E0880F991FA5E52E
:102AF000A49FB001A59F700D1124861B970B982FE2
:102B0000990F980FBF01601B710B629FD001639FEB
:102B1000B00D729FB00D11248B2F9D9FB001112419
:102B2000672F7727EF01C61BD70BBE01629FE0011D
:102B3000639FD00D729FD00D11247F01E91AF10817
:102B4000E09EB001E19E700DF09E700D1124672F84
:102B50007727E61BF70BE29F8001E39F100DF29FA2
:102B6000100D1124E12F722F4230510599F048F4D5
:102B70004115510569F04130510581F0EB2F8D2F42
:102B800007C04430510569F080F046305105B1F777
:102B90006E2F8FCFE22F7B2F812FFACFE22F7D2F49
:102BA000F7CFEB2F822F712FF3CF7B2F822FED2FBB
:102BB000EFCF41E00E94461508950895EDE4F1E05D
:102BC0008083618308950E94D9150895CF93DF9380
:102BD000762FE901682F842F0E94E315798368839B
:102BE0008A83DF91CF91089580916D03982F9E7F06
:102BF00029F48170826080936D0308958635E8F32F
:102C000081708465F8CF88E090E00E94772F089566
:102C1000CF92DF92EF92FF926B017C010E94F4153C
:102C2000B701A60188E090E00E94952FFF90EF90F9
:102C3000DF90CF900895EDE6F3E087E18083118285
:102C40008FEF828380E883831482AAE2B3E0129636
:102C50008C911297836012968C936081718182812E
:102C600093810E940816089580916D0380FF02C031
:102C70008695089580E0089590917103933018F43B
:102C80009F5F90937103882351F060916D03709161
:102C90006E0380916F03909170030E94081608954F
:102CA00081E00E943C16089590917103992319F0D8
:102CB000915090937103882351F060916D0370914E
:102CC0006E0380916F03909170030E94081608951F
:102CD00081E00E945416089570E00E94CD1F08956F
:102CE00060914E0180916D0380FF0BC080914D017A
:102CF00023E0829FC00111248E589C4F0E946C16C5
:102D0000089580914F019091500123E0829FF0013E
:102D10001124EE58FC4F891748F711821082128255
:102D20008F5F3396F8CF90916D0390FF0EC0909116
:102D30004F012091500133E0939FF0011124EE5890
:102D4000FC4F921718F00E947016089581836083DB
:102D500042839F5F3396F5CFA3E0B0E0E2EBF6E16C
:102D60000C94C92E90916D0390FF0AC09E012F5FB5
:102D70003F4F0E94E6154B8169818A810E9493161C
:102D80002396E2E00C94E52ECF93DF93EC01EC81E7
:102D9000F0E0E75DFD4F4491EDE6F3E06281818173
:102DA0000E94AC168C818F5F8C83DF91CF91089548
:102DB000CF93DF93EC01EDE6F3E0438162818C81F8
:102DC0000E94AC168C818F5F8C83DF91CF91089528
:102DD000A3E0B0E0EEEEF6E10C94C72E8C018091FA
:102DE000E10281110AC09E012F5F3F4F4FEF6FEF4D
:102DF0000E94E6158A818093E102F80164816130C6
:102E000069F08091E10240E0662361F040E06230C9
:102E100011F44091E10280E060E004C06091E102C1
:102E200040E080E00E949316F801848190E00196D2
:102E300063E070E00E944C2E84832396E4E00C94BF
:102E4000E32EA3E0B0E0E7E2F7E10C94C22E082FF6
:102E5000D62EF42EC22E90916D0390FF3AC0E92F2A
:102E6000E695AE2FB0E0A552BE4F8C9180932A0319
:102E70009E7F923091F59E012F5F3F4F802F0E94E1
:102E8000E6154B8169818A810E94931680916E03B9
:102E9000801308C080916F038D1104C0809170036E
:102EA0008F1529F080912C03826080932C0300936E
:102EB0006E03D0926F03F0927003CC2051F06091BA
:102EC0006D0370916E0380916F03909170030E9467
:102ED00008162396E9E00C94DE2E823019F4F09067
:102EE0007003D4CF863019F400916E03CFCF8930B0
:102EF000D9F3893159F6E9516E2F6170B62EE695F6
:102F0000F0E0E75DFC4F1491E12C60915101E61671
:102F100018F00E947016BACFE19EC001112470E033
:102F20000E94382E802FB11014C0860F20914F01BF
:102F3000622F6E0D7727771F9B01220F331F260FFD
:102F4000371F2E583C4F4F2D6D2D0E94E615E394F0
:102F5000DCCF861BEBCFEDE6F3E09181282F438198
:102F6000628188E0890F0E942117089581E00E9404
:102F7000AB170895EDE6F3E09181282F438162813C
:102F800088EF890F0E942117089581E00E94BA17E7
:102F90000895EDE6F3E0628121E1620F08F46FEF3E
:102FA000282F438181810E942117089581E00E948A
:102FB000C9170895EDE6F3E0628121E1621B08F490
:102FC00060E0282F438181810E942117089581E0CC
:102FD0000E94DA170895EDE6F3E0438121E1420F04
:102FE00008F44FEF282F628181810E9421170895F4
:102FF00081E00E94EB170895EDE6F3E0438121E1C3
:10300000421B08F440E0282F628181810E94211731
:10301000089581E00E94FC17089520E00E94211786
:103020000895EF92FF921F93CF93DF93EC0110E08E
:10303000EE24EA94F12C60915101161770F00E9471
:1030400070169A818C8190FF27C08F5F8C83DF91EF
:10305000CF911F91FF90EF90089520914F01422F43
:10306000410F5527551FCA019A01220F331F280F00
:10307000391F2E583C4F70E0C7010E944C2E962FEE
:103080008C814091700360916F03199F800D112412
:103090000E94E6151F5FCFCF8150D8CFB0E0A0E0EF
:1030A000E4E5F8E10C94BF2EEC018A81BB24BA94CC
:1030B00080FD02C0BB24B3948C8181110AC081E0E1
:1030C000B81222C08091510181508093E30281E0C7
:1030D0008C83A12C4CE0942E80915101A816B8F05D
:1030E0000E9470168091E30291E0B91259C08111DB
:1030F00052C08091510181508093E3021C82CDB770
:10310000DEB7ECE00C94DB2E1092E302E0CF0091EE
:103110004F01CA2CD12C0C0D1D2D111DC801880F7B
:10312000991F080F191F0E581C4FF80111821082A9
:10313000128234E0E32EF12C812C8091E302880D81
:103140008D301CF1692D0E942A2E892F082E000C2B
:10315000990BC816D90691F4809170038E9DA00139
:103160008F9D500D1124559547955595479598017C
:1031700060916F0380916E030E94E6158B0CF1E065
:10318000EF1AF108D1F6A394A7CF87FFDFCF909174
:103190005101890FDBCF81508093E302BC82AFCF16
:1031A00090E001966091510170E00E944C2E809356
:1031B000E3028C83A4CFEF92FF920F931F93CF93E0
:1031C000DF93EC018C81811109C081E08C83109226
:1031D000E20292E090934C0180934B0180914F0169
:1031E0009091500123E0829FF0011124EE58FC4F92
:1031F000891758F110E003E060915101161758F15A
:103200000E94701680914B012091E202280F2093BA
:10321000E20290914C01980F90934C01191654F4CE
:10322000022E000C330B409151014150550B2417D5
:10323000350734F0819580934B01813009F41C826D
:10324000CDB7DEB7E6E00C94E12E11821082128237
:103250008F5F3396CDCFE12EF12C70E0C7010E9435
:103260004C2E20914F01820F482F50E02091E20216
:10327000022E000C330BE216F306BCF020914C0139
:10328000022E000C330B2E153F057CF0809F900121
:1032900011242E583C4F4091700360916F03809130
:1032A0006E030E94E6151F5FA7CFFA01EE0FFF1F06
:1032B000E40FF51FEE58FC4F118210821282F3CFFB
:1032C000B0E0A0E0E6E6F9E10C94BF2EEC014C8101
:1032D000042F10E09801D8010E94902E9B01AC01B0
:1032E0000E94A62E4B015C01E0E2F0E0E01BF10B36
:1032F000A5E5B0E0AC019B010E94A62E6B017C010C
:103300009F01DF010E94882E9B01AC010E94B12E1B
:103310009B01AC01280D391D4A1D5B1DC701B6017B
:103320000E94602EF22E822F90E039E23F1520F1AC
:1033300043E0249F9001112435952795122F109575
:1033400000E085E5E82EEF1880915101081718F18B
:103350000E9470169C8181E0992319F0903219F433
:103360008FEF80934A0180914A01890F8C83CDB7FA
:10337000DEB7ECE00C94DB2E25E530E0B901681BEC
:10338000790B9B01220F331F260F371F37FFD4CF36
:103390002F5F3F4FD1CF8E2D01FD8F2D20914F01FB
:1033A000622F600F7727771F9B01220F331F260F95
:1033B000371F2E583C4F412F60916F030E94E61536
:1033C0000F5FC2CF0F931F93CF93DF93EC0110E0F9
:1033D00000E0909151019017110609F06CF40E94E1
:1033E00070168C8190E00196817099278C83DF9113
:1033F000CF911F910F91089520914F01A801420F85
:10340000511D9A01220F331F240F351F2E583C4F98
:103410004C8160916F0380916E0396959017110611
:1034200051F04CF0442349F0409170030E94E6159E
:103430000F5F1F4FCECF4423B9F340E0F7CFB0E08A
:10344000A0E0E5E2FAE10C94BB2EFC01628044802E
:1034500081E08483E9E2F2E07490E8EAF2E0E4914A
:10346000812C75E0972EF2E0CF2EDD24D394AA2490
:10347000AA94B12C55245A94E7190E2F10E080918C
:103480005101881638F00E947016CDB7DEB7E0E122
:103490000C94D72EE82CF12C82E0861568F09E9CC7
:1034A000F0019F9CF00D1124E951FD4F80916E03B6
:1034B000808380916F038183411023C09E9CF00123
:1034C0009F9CF00D1124E951FD4F1382128220912F
:1034D0004F01C701820F911D9C01220F331F280F3E
:1034E000391F2E583C4F9E9CF0019F9CF00D1124DB
:1034F000E951FD4F4281618180810E94E6158394EC
:10350000BECF9E9CE0019F9CD00D1124C951DD4F80
:103510008B818823E9F081508B83859DC001112424
:103520006C8170E00E94382EFB01FF27E75DFD4FA4
:103530008491E82FE719E59DC0011124B8010E948C
:10354000382E80917003689FB00111247A83BFCF19
:103550000E943C2F20917003269521582C9DA0019C
:103560002D9D500D1124452F5527841795070CF0DC
:10357000AECF82E0861588F40E943C2FB5010E94F0
:103580004C2E88830E943C2F20916F032695622F3A
:1035900070E00E944C2E280F29839E9CF0019F9C76
:1035A000F00D1124E951FD4F128280917003893C86
:1035B00058F088EC9E9CF0019F9CF00D1124E9517D
:1035C000FD4F8483838383CF8431A0F784E1F2CFDE
:1035D00010922C03089525E0EDE6F3E0DC01019064
:1035E0000D922A95E1F720912A0330912B03409107
:1035F0002C03FC012583368347830895EAE2F3E038
:1036000011828281846082830895EDE6F3E08081F7
:103610008E7F80830E94FE1AEAE2F3E0828181605D
:1036200082832FEF80E792E0215080409040E1F7C5
:1036300000C000000E9470160895EDE6F3E080815E
:103640008E7F808360817181828193810E940816C0
:103650000E94FE1AEAE2F3E08281816082832FEF0A
:1036600080E792E0215080409040E1F700C00000E8
:103670000E947016089560916D03669570E04BE0AE
:1036800050E082E591E00E944C2F892B19F481E0F3
:1036900080932B030E943310909324038093230381
:1036A00080912C03846080932C03089590916D0386
:1036B00090FF30C0917081112EC0926090936D0385
:1036C00080912C03816080932C03662351F06091DC
:1036D0006D0370916E0380916F03909170030E944F
:1036E000081660916D03669570E04BE050E082E54E
:1036F00091E00E944C2F892BA9F00E94FE1A81E0D4
:10370000809326034091700360916F0380916E0354
:103710000E940D1808958B3210F09465CFCF880F5A
:10372000982BCCCF0E943B1BEACF682F90916D0362
:10373000969581E0890F8B3208F081E00E94561B3C
:10374000089581E00E94951B0895682F90916D0364
:1037500096958FEF890F09F48AE20E94561B08950F
:1037600081E00E94A51B089561E00E94561B089508
:10377000EDE6F3E080818160808386950E94B41B32
:10378000089580916D0380FF03C00E941D1B089562
:103790000E94B81B089560E00E94561B0895809116
:1037A0002903811133C00E94710C811104C00E9451
:1037B0001A0D0E941B160E94031660936D037093EE
:1037C0006E0380936F039093700380912C0383604A
:1037D00080932C036E7F61F40E941B160E940316D7
:1037E00060936D0370936E0380936F0390937003E7
:1037F0000E94F4150E94FE1A80916D0380FF03C0A1
:1038000086950E94CB1B81E08093290308951F9326
:10381000CF93DF93EC01162F8F8180FF0CC088813E
:1038200080FF24C080916D03816080936D03888147
:1038300086950E94561B8F8181FF06C0212F4B81E8
:103840006A8189810E9421178F8182FF05C08E8144
:10385000882379F00E943B1B8F8183FF03C081E0A6
:1038600080932603DF91CF911F9108950E94051B3D
:10387000E2CF0E94FE1AF0CFEF92FF920F931F93B8
:10388000CF93DF9380912B03882309F463C0809149
:103890002A03E0916D03E695E81BE093250382304F
:1038A00009F05DC0F0E0EB5DFD4FE491CE2FD0E07C
:1038B00004EC16E180912603882361F01092260320
:1038C0000E943310909324038093230310922803C3
:1038D000109227030E943310E0912303F0912403F8
:1038E0009C012E1B3F0B2F3F3F47A0F52091E60286
:1038F0002223B1F01092E6022091E4023091E50219
:10390000821B930B8F3F9F4758F4205D3A483093BA
:10391000E5022093E40280912C03886080932C03BD
:10392000E0902703F0902803EC0FFD1FF093240391
:10393000E093230383E293E0F80109958091270344
:1039400090912803892B31F4E114F10419F081E0FE
:103950008093E602CDB7DEB7E6E00C94E12E863028
:1039600049F4F0E0EE5DFD4FE491CE2FD0E008ED9C
:1039700016E1A0CF893051F4E695F0E0E15EFD4F0D
:10398000E491CE2FD0E001E118E194CF8F3051F4D3
:10399000E695F0E0E45EFD4FE491CE2FD0E00EE43A
:1039A00018E188CF853149F4F0E0E75EFD4FE491FE
:1039B000CE2FD0E00BED18E17DCFC8E2D0E000E6DD
:1039C00019E1883109F476CF833239F4E7E1F2E086
:1039D000C591D49108EE16E16DCFC4EFD1E002EEAF
:1039E00019E1843209F466CFC0EDD7E00DED15E1A1
:1039F000853209F05FCF8E2F63E00E941E2EE92FE3
:103A0000F0E0EC5EFD4FE491CE2FD0E00FE11AE143
:103A100051CFFA01811101C0FB0109950895CF939F
:103A2000DF93C82FD62F0E9434168C1748F00E94BF
:103A300034168D1728F40E94A11BDF91CF910895B1
:103A40008C2F0E94B41BF9CF1F93CF93DF93EC010F
:103A5000FB01128111111BC00E948A0B8272CD3CA6
:103A6000FCE5DF0709F4A0C008F045C0C73CECE561
:103A7000DE0709F485C0F8F4C43C9CE5D90709F4D5
:103A800075C050F4C33CDC4509F46DC011E0812FD2
:103A9000DF91CF911F910895C53C9CE5D90709F4AA
:103AA0006AC045EC57E166EB77E1C63CDC4571F74F
:103AB0000E94091DECCFCA3CFCE5DF0709F46AC08F
:103AC00068F4C83CECE5DE0709F45FC046ED57E159
:103AD00067EE77E1C93CDC4559F3D8CFCB3C9CE598
:103AE000D90709F45CC048E656E160E576E1CC3CD4
:103AF000DC45F1F2CBCFC23DFCE5DF0709F463C042
:103B000098F4CF3C9CE5D90709F457C008F451C09C
:103B1000C03DFCE5DF0709F453C0C13DDC4509F0B9
:103B2000B5CF6EE089E01CC0C53D9CE5D90709F41E
:103B300050C058F4C33DFCE5DF0709F447C0C43D5D
:103B4000DC4509F0A3CF88E135C0C63D9CE5D90727
:103B500009F442C06AE285E2CE35DD4509F096CF30
:103B60000E940F1D94CF0E94C11B91CF40EB5BE1DF
:103B700061EA7BE19DCF41EA5BE160EB7BE198CFBD
:103B800046EB57E165EC77E193CF47EE57E166ED01
:103B900077E18ECF49E058E168EF77E189CF48EFD0
:103BA00057E169E078E184CF40E556E168E676E1E7
:103BB0007FCF81E00E94B41B6ACF65E082E0D0CF66
:103BC00068E086E0CDCF64E18FE0CACF67E185E1B0
:103BD000C7CF62E289E1C4CF83E2ECCF8091960344
:103BE0008170089586E090E00E946F2F0895682FFD
:103BF00086E090E00E94832F0895E6E9F3E080815B
:103C00008470896180830E94F71D089580919603D6
:103C100086958695869508950E94710C811104C041
:103C20000E941A0D0E94FD1D0E94F21D80939603B2
:103C3000803320F08770886280939603909196037A
:103C4000892F817090FF04C0892F8695869586956F
:103C50000E94151F089580919603982F969596952A
:103C60009695953040F49F5F990F990F990F877043
:103C7000892B8093960380919603816080939603AD
:103C80000E94F71D809196038695869586950E94E1
:103C9000151F089580919603982F987F79F088508A
:103CA00080939603887F91E009F490E080919603D9
:103CB00090FB80F9809396030E94F71D80919603F4
:103CC0008695869586950E94151F08958091960386
:103CD00080FD13C0816080939603813019F489E0E0
:103CE00080939603809196030E94F71D809196031E
:103CF0008695869586950E94151F08958091960356
:103D000080FF08C08E7F809396030E94F71D80E09D
:103D10000E94151F08958091960380FF03C00E94A2
:103D20007E1E08950E94661E089590919603892F25
:103D30008695869586958F5F8F7197708630E0F4B3
:103D4000880F880F880F892B8093960380919603A4
:103D5000887F91E009F490E08091960390FB80F9D0
:103D6000809396030E94F71D809196038695869511
:103D700086950E94151F089590939603E7CF86308D
:103D800008F085E0909196039770282F220F220F5C
:103D9000220F922B90939603987F21E009F420E064
:103DA0009091960320FB90F9909396030E94151F23
:103DB00008950E94BF1E809196030E94F71D0895EA
:103DC0009C01FB018281882349F12E3BFCE53F07E2
:103DD000C9F040F42C3BECE53E0769F02D3B3C4537
:103DE00079F00895203C9CE5390791F070F0213C72
:103DF0003C4589F0089585E00E94D91E80E0089531
:103E000080E0FACF0E944A1EF9CF0E942B1EF6CF07
:103E10000E948B1EF3CF0E94951EF0CF81E0089583
:103E2000259A2D9808952D9808958F929F92AF927C
:103E3000BF92EF92FF920F931F93CF93DF93C82F00
:103E40008630C0F5811137C0809180008F778093D4
:103E500080000E94131FA0918600B09187002C2F34
:103E600030E00E94902E25E030E040E050E00E94DB
:103E7000602E89019A0180918600909187006CE004
:103E800070E00E94382E60177107D8F0C80169E011
:103E900070E00E94382E7093890060938800DF9153
:103EA000CF911F910F91FF90EF90BF90AF909F9097
:103EB0008F900895C5E08091800080688093800095
:103EC000CACF8091860090918700E0908600F090A4
:103ED0008700E0918600F0918700C6E0D0E0BE0147
:103EE0000E94382E060F171F211D311D4801590150
:103EF00085E0880C991CAA1CBB1C8A95D1F7C701C8
:103F0000BE010E94382E9F0150E040E0260F371F6F
:103F1000411D511DC501B4010E94602E49015A0185
:103F2000E0918600F0918700CA01B9010E940E2E2F
:103F30009B01AC01DF010E94A62E9B01AC01C501D3
:103F4000B4010E940E2E2FE0969587957795679580
:103F50002A95D1F7009186001091870030E020E08B
:103F6000061717072807390708F095CF60918600D4
:103F70007091870090CF08950E94101F82E880936F
:103F8000800089E1809381008FEF9FEF90938700FD
:103F9000809386000E940C1E0895569A4BB14F7B69
:103FA0005BB15064EFB7F8949B01220F331F260FCB
:103FB000371F280F391F2817390741F4EFBF8FE546
:103FC00094E00197F1F700C000000895DC016D91C5
:103FD000CD0178E05BB9000000C067FF4BB9660F08
:103FE000000000C000C000C04BB900C07A9591F736
:103FF000E2CF0895FC01680F791F8FEF91E3E61778
:10400000F70709F408952191822728E030E087FF1F
:1040100006C0880F892721503109C9F7F0CF880FD2
:10402000FACFCF93DF93EC01FB018281882309F45F
:1040300064C1C430FDE5DF07E0F5CB3F9CE5D9075F
:1040400030F49E0122503C4524313105D8F50E94C0
:10405000860C9093560380935503C231ECE5DE073E
:1040600009F41FC108F06EC0C9308CE5D80709F407
:10407000F2C008F03FC0C530ECE5DE0709F4DBC054
:1040800058F5C3308CE5D80709F4CDC008F0CFC08F
:10409000809155038160C230DC4509F4AEC0809147
:1040A0005503909156030E94940C0E940E0780E0E5
:1040B00009C0C63AEDE5DE0751F238F4C2369DE597
:1040C000D90729F2DF91CF9108959E012E5A3D45DF
:1040D00023303105B8F7BBCF809155038062C730DC
:1040E000FCE5DF0709F489C008F4B1C080915503ED
:1040F000806483C0CD309CE5D90709F4BAC070F460
:10410000809155038E7FCB30FCE5DF0709F475C045
:1041100008F4A7C0809155038D7F6FC0CF309CE518
:10412000D90709F4B6C008F4A8C0C031FCE5DF0720
:1041300009F4B3C0C131DC4509F0B1CF809155031A
:104140008F7B5BC0C1159DE5D90709F4B4C098F514
:10415000CB3FFCE5DF0709F472C0B8F4C4319CE53D
:10416000D90709F4B6C008F4A2C0C531DC4509F08E
:1041700096CF8091550382FB992790F921E09227F1
:1041800090FB82F990FB83F938C0CD3F8CE5D807CE
:1041900009F477C008F457C0CE3FECE5DE0709F418
:1041A00074C0809156038360CF3FDC4509F077CF20
:1041B0008093560374CFC2368DE5D80709F496C0B4
:1041C00068F4C230EDE5DE0709F48CC008F477C06E
:1041D000C330DD4509F063CF80E085C0CE3A9DE570
:1041E000D907E9F068F490915503892F8E7F90FFED
:1041F0008160C63ADD4509F052CF809355034FCF19
:10420000CF3A8DE5D80789F1C03BDD4509F047CFAE
:1042100090915603892F877F93FF8860C9CF809143
:1042200056038860C5CF809155038260E6CF8091A8
:1042300055038460E2CF809155038860DECF809182
:1042400056038160B5CF809156038260B1CF8091D3
:1042500055038061D2CF0E940E078091550380687C
:10426000CCCF809155038C60C8CF80915603877F57
:104270009FCF809155038B7FC0CF80915503877F5F
:10428000BCCF809156038E7F93CF809156038D7F54
:104290008FCF809155038F7EB0CF809155038F7D56
:1042A000ACCF0E940E07809155038F77A6CF8091E7
:1042B0005503837FA2CF809156038C7F79CF809165
:1042C0005603982F909591708E7F892B90FB81F9E2
:1042D0006FCF0E940E0790915503892F97FB87F9A6
:1042E00080588BCF81E00E941D0DD9CE909155034F
:1042F000892F8F7E94FF806180CF81E0E3CE8FE8AD
:1043000091E00197F1F700C00000089581E0089561
:104310000F931F93CF93DF939091110181E0982722
:1043200090933103282F291B209330039091110182
:10433000809332039091110180932F03809111019A
:10434000811106C087EF80935E0186EF80935D0147
:1043500020915E01E22FE295EF70F0E061A12F70F5
:1043600081E090E0AC0101C0440F2A95EAF7342FB8
:104370003095362331A322A1242B22A320915D0165
:10438000E22FE295EF70F0E031A12F7001C0880FAD
:104390002A95EAF7982F9095932391A392A1892BC0
:1043A00082A30E947F216091320345E353E0CEE572
:1043B000D1E00DE511E0FA0126C02991822F829506
:1043C0008F7090E0DC0190968C9190E02F7002C08D
:1043D000959587952A95E2F78170D8019D918D0179
:1043E000292F22952F7030E0D90190962C9130E042
:1043F0009F7002C0359527959A95E2F790E020FDD1
:1044000092E0892B81938E2F841B8617B0F2DF9167
:10441000CF911F910F910895CF92DF92FF920F934A
:104420001F93CF93DF9310E000E084E0C82ED12CDF
:1044300080913203181748F0802FDF91CF911F91A0
:104440000F91FF90DF90CF900895C12FD0E0FE0133
:10445000E25AFE4F8081E82FE295EF70F0E0E0A194
:10446000F0E08F7002C0F595E7958A95E2F7E1706C
:10447000DE01A35ABE4F4C91A42FA295AF70B0E0BD
:1044800090968C9190E04F7002C0959587954A95D3
:10449000E2F780FD44C080E08E2BDE01AB5CBC4FB8
:1044A000EC919E2F93709817C1F1EE0FEE0FE82B51
:1044B000EC93F0903103F10EEF70F0E0EA5FFD4F06
:1044C000CD5CDC4F80819881890F888320E0843027
:1044D00064F0EF2DF0E0E35DFC4F80818F5F80831F
:1044E00060E08F2D0E94C80221E088818D3F64F436
:1044F000EF2DF0E0E35DFC4F80818150808361E02F
:104500008F2D0E94C80221E08881082E000C990B93
:10451000B6010E944C2E8883022B1F5F89CF82E058
:10452000BBCF4091320350E06091310370E0635D96
:104530007C4F0E94662F0895B0E0A0E0E2EAF2E22C
:104540000C94C32E6C01D0E080E090912F03D9171A
:1045500040F081110E94360DCDB7DEB7E8E00C9433
:10456000DF2EF0903003FD0E0F2D10E0035D1C4F89
:10457000F601ED0FF11DC081F8019081C91BEC2EF1
:104580001E1444F09C2FC7FD90E0C91BC1110DC043
:10459000DF5FDBCFEA94F80180818F5F808360E08A
:1045A0008F2D0E94C80281E0EBCFCF5FF8018081A0
:1045B0008150808361E08F2D0E94C80281E0E6CFA8
:1045C000CF93DF93EB0186319C4511F50E948A0B56
:1045D0009A81992399F08A7A91E009F490E0909376
:1045E0003703811109C089E20E94620B0E94CB0B44
:1045F00080E0DF91CF91089585E3F6CF8091370376
:10460000811104C089E20E946A0BF0CF85E3FBCFE1
:1046100081E0EFCF0F931F93CF93DF93C42FD22F5F
:10462000FC0182818823C9F040933A030E94C92685
:10463000909339038093380380E28C0F883040F4E4
:10464000C77081E001C0880FCA95EAF70E94BF04D5
:10465000DF91CF911F910F91089510913A03141398
:1046600032C080913803909139030E94E126883C42
:10467000910548F5C0E2CD0F1D17B9F080E2810F1A
:10468000883040F4177081E001C0880F1A95EAF76E
:104690000E94C604C83048F481E09D2F977001C085
:1046A000880F9A95EAF70E94BF04802F0E94B604F3
:1046B000C83070F6D77081E001C0880FDA95EAF74C
:1046C0000E94C604C5CF80E28C0F883008F6C77000
:1046D00081E001C0880FCA95EAF7F2CF0F939C01E1
:1046E000CB01243F4CE5340759F1A8F4293DFCE502
:1046F0003F0701F12A3D4CE53407D1F1283D3C4507
:1047000091F406E221EE41EE68ED7CE50E940A2379
:1047100080E00F910895263FFCE53F07E9F0B0F0F7
:10472000273F3C45F9F0FC018281882339F1109242
:104730003A03EFCF07E225EE45EE69ED7CE5E6CFE3
:1047400006E221EE40EE64EF7CE5E0CF07E225EEE5
:1047500044EE65EF7CE5DACF06E221EE42EE66EF4D
:104760007CE5D4CF07E225EE46EE67EF7CE5CECFC1
:1047700008E221E045EE6AED7CE5C8CF81E0C9CFD3
:104780008EE1489B02C08150E1F7489BFECF08951F
:10479000589880E28A95F1F7589A0895FC013BE019
:1047A0003A95F1F798E020E080E031E040E14A9569
:1047B000F1F7880F489B02C08160232742E04A95A9
:1047C000F1F7000040E14A95F1F7915079F790E157
:1047D0009A95F1F799B132E03A95F1F7000040E18E
:1047E0004A95F1F7917092272081920F9083089556
:1047F000A1E0B0E0EEEFF3E20C94C52E19828C013B
:104800007C01E60EF11C0E151F0541F481E0998133
:10481000911180E02196E6E00C94E12E0E94C023E5
:10482000CE0101960E94CE23F80181938F01EBCF38
:10483000509A589A08955098589AE89AE9E6F0E004
:1048400080818C7F808308956150770B91E001C057
:10485000990F6A95EAF720E031E0911108C0222310
:1048600091F0589A80E28A95F1F758980895492F67
:10487000482339F0589A232740E24A95F1F7969554
:10488000ECCF5898F9CF5898EDCFFF920F931F9324
:10489000CF93DF93EC018C01060F111DC017D107D8
:1048A00029F4CDB7DEB7E5E00C94E22EF9900E9432
:1048B000C82368E08F2D0E942424F0CF1F920F920E
:1048C0000FB60F9211240F931F932F933F934F9383
:1048D0005F936F937F938F939F93AF93BF93EF9368
:1048E000FF93CF93DF930F92CDB7DEB719820E946B
:1048F000C023CE0101960E94CE23082F069506956F
:104900000695282F22952570902F9570290F922FAC
:10491000937026952695920F982797708981982BEA
:1049200009F05CC0083008F059C080E18A95F1F7C1
:10493000589A509A82E08A95F1F700C0589888E01A
:10494000089F80011124D801AE5EBE4F1696ED91EE
:10495000FC9117973097A9F06091D9017091DA0115
:1049600014962D913C911597260F371F11968D9116
:104970009C911297680F791F13964C9113978C9105
:104980000995F801EE5EFE4F6381662351F0209198
:10499000D9013091DA0184819581820F931F0E94A1
:1049A00045240E94C82380E18A95F1F758985098D1
:1049B000589A80E18A95F1F7F801EE5EFE4F60812A
:1049C000662351F02091D9013091DA0181819281E1
:1049D000820F931F0E94F8230E94C0230F90DF9143
:1049E000CF91FF91EF91BF91AF919F918F917F9167
:1049F0006F915F914F913F912F911F910F910F9068
:104A00000FBE0F901F9018950F931F93CF93DF93B6
:104A1000EC0108970CF04CC0F894509A589885E037
:104A20008A95F1F700009C2F969595708C2F8570D4
:104A3000980F892F83709695969523E0CC0FDD1FF4
:104A40002A95E1F7980F8E01092B0E94C82300C018
:104A500068E0802F0E94242480E18A95F1F7509825
:104A6000589A489B1EC087E090E048991CC0FE0100
:104A7000EE5EFE4F63816623F9F02091D9013091FB
:104A8000DA0184819581820F931F0E94F82381119E
:104A900013C0509A589A7894DF91CF911F910F913B
:104AA000089500C0DECF019729F4509A589A78945F
:104AB00080E0F2CF00C0D9CF0E94C02380E28A9567
:104AC000F1F75898509A80E18A95F1F7CE5EDE4F63
:104AD0006881662351F02091D9013091DA018981F2
:104AE0009A81820F931F0E9445240E94C8237894C4
:104AF00081E0D2CF9093170280931602089590938D
:104B000041038093400308950E944612811103C01F
:104B100080913B030895E0914003F0914103309769
:104B200029F00190F081E02D0995089580E0089525
:104B3000E0914003F0914103309721F00280F3812E
:104B4000E02D0995089520913E0330913F032817E9
:104B5000390771F090933F0380933E03E091400347
:104B6000F0914103309721F00680F781E02D0995FF
:104B7000089520913C0330913D032817390771F0C7
:104B800090933D0380933C03E0914003F0914103F7
:104B9000309721F00084F185E02D099508959C015E
:104BA0002E5F3F4FAC01485F5F4F80E02417350711
:104BB00009F40895F90191919F019923B9F38F5F49
:104BC000F5CF662349F0FC0132960896219126170D
:104BD00029F0E817F907D1F780E0089581E00895FA
:104BE0009C01FC0132969FEF80E04191461751F005
:104BF0009F3F19F4411101C0982F8F5F8630A9F7AC
:104C00009F3F09F40895290F311D97FD3A95F90149
:104C100062830895FC01329608962191261303C001
:104C2000DF0111971C92E817F907B9F708950E9460
:104C3000F02508950E940A260895029626E0FC01B8
:104C400011922A95E9F7089508950E94242608955F
:104C5000811106C081E0809342030E9425260895B9
:104C600082E0F9CF83E0809342030E9425260895D5
:104C70000E942826089581E0809342030E94252601
:104C800008950E943B260895089508950E944526A0
:104C90000895089508950E9444260895CF930E9490
:104CA00049260E94C5110E944A26C0E08C2F0E940E
:104CB0006710811105C0CF5FCA30C1F7CF91089549
:104CC00081E0FCCF85B7806885BF85B7806885BFE8
:104CD00008951F921FB61F9211248F939F93AF9335
:104CE000BF9380914303811113C0809197039091EA
:104CF0009803A0919903B0919A034196A11DB11D0B
:104D00008093970390939803A0939903B0939A0389
:104D1000BF91AF919F918F911F901FBE1F901895CB
:104D200080919F03843031F10E94B10310924303BC
:104D300088E190E020E40FB6F894A8958093600095
:104D40000FBE2093600083B7817F846083BF83B7E9
:104D5000816083BF7894889583B78E7F83BF0FB6B9
:104D6000F894A8958091600088618093600010920B
:104D700060000FBE08950E940E070E94B9030895B7
:104D800082E084BD93E095BD9AEF97BD80936E005D
:104D900008952FB7F8948091970390919803A0916C
:104DA0009903B0919A032FBF08952FB7F89460919B
:104DB0009703709198038091990390919A032FBF64
:104DC00008959C014FB7F8948091970390919803B0
:104DD000A0919903B0919A034FBF821B930B089542
:104DE000CF92DF92EF92FF922FB7F894C090970383
:104DF000D0909803E0909903F0909A032FBFA701F9
:104E00009601261B370B480B590BCA01B901FF90BD
:104E1000EF90DF90CF90089578941F921FB61F9265
:104E200011248F939F93AF93BF9380919703909199
:104E30009803A0919903B0919A030196A11DB11D09
:104E40008093970390939803A0939903B0939A0348
:104E5000BF91AF919F918F911F901FBE1F9018958A
:104E600081E08093E00080E28093D8001092C90036
:104E70008FE19EE40197F1F700C0000087E090EB1E
:104E8000DC018093A8039093A903A093AA03B09395
:104E9000AB0388E19CE00FB6F894A895809360007E
:104EA0000FBE90936000FFCF88E19CE00FB6F894AE
:104EB000A895809360000FBE90936000FFCF809113
:104EC0004F0308950895CF93DF93EC0181E0809321
:104ED000E9008FEF9091E800815095FD06C095EDB7
:104EE0009A95F1F700008111F5CF8091E80085FFD8
:104EF00014C050E040E068E070E0CE010E947529E7
:104F00008091E8008E778093E80088E0FE01A7E4B6
:104F1000B3E001900D928A95E1F7DF91CF9108956A
:104F200080934403709346036093450380919F03ED
:104F3000843001F582E08093E9008FEF9091E800E2
:104F4000815095FD06C095ED9A95F1F7000081110D
:104F5000F5CF8091E80085FF0DC050E040E063E0B0
:104F600070E084E493E00E9475298091E8008E77D8
:104F70008093E8000895BC0184E00E949027089582
:104F8000BC0183E00E9490270895089580919E03BC
:104F9000811109C00E94052B0E94622B8091E200C2
:104FA00084608093E200089510929E0308950E9409
:104FB0003B26089560919B0381E0611101C080E070
:104FC0000E943226089590919F0381E0943009F069
:104FD00080E060919B030E943826089542E061ECD6
:104FE00081E00E94812A42E261EC82E00E94812AF3
:104FF00090919F0381E0943009F080E060919B03E1
:105000000E94282608958091A103833009F461C08D
:1050100030F48130D1F1823009F49EC008958A3095
:1050200009F48AC08B3009F46FC0893009F050C090
:105030008091A003813209F04BC08091A40390912C
:10504000A503029708F044C08091E800877F809311
:10505000E8008091E80082FF37C09091F3008091D2
:10506000F200029731F48091F100813011F0863026
:1050700021F48091F10080934F038091E8008B77B9
:105080008093E8000E94B52A23C08091A003813A52
:10509000F9F48091E800877F8093E8008091A40371
:1050A0009091A503892B61F468E087E493E070E0B8
:1050B0000E94C4298091E8008B778093E8000895CE
:1050C00060E090E080E0F3CF80919F038111C1CF39
:1050D00008958091A003813AD9F78091A40390911B
:1050E000A503892BA9F78091E800877F8093E800CA
:1050F0008091E80080FFFCCF80916B018093F100EC
:105100008091E8008E77BCCF8091A003813201F7B7
:105110008091A4039091A503892BD1F68091E8009A
:10512000877F8093E8000E94B52A8091A203809334
:105130006B010E940E0708958091A003813241F611
:105140008091E800877F8093E8000E94B52A8091D3
:10515000A3038093500308958091A003813A09F03E
:10516000B7CF8091E800877F8093E8008091E800C6
:1051700080FFFCCF80915003C1CF84B7877F84BF6D
:105180000FB6F894A89580916000886180936000C4
:10519000109260000FBE80E890E00FB6F894809304
:1051A0006100909361000FBE0E94412608950E9405
:1051B000052B0E94622BE2EEF0E080818460808308
:1051C00078940E94E12D08958FE591E00E947F255B
:1051D000089580919F03853031F480919F0385303D
:1051E00019F00E94BB2608950E94902680919D038D
:1051F000882399F30E944E26882379F30E945F2921
:105200000E940E07EACF08950E9407290895292FCA
:1052100033272330310519F168F42130310509F4C1
:1052200044C02230310509F445C090E080E030E010
:1052300020E025C02132310549F122323105A9F79C
:1052400080E490E02BED34E061157105C1F082E35C
:1052500090E029EA34E06130710589F0E6CF9927C2
:105260008130910581F0009729F00297F1F6EEE286
:10527000F4E002C0E8E5F4E0849190E09F01FA01D7
:10528000318320830895E8E4F4E0F6CF89E090E0EC
:105290002EE634E06115710591F389E090E027E88E
:1052A00034E06130710559F3C0CF82E190E027E925
:1052B00034E0E5CF8BE390E02CE534E0E0CF80E113
:1052C00089BD82E189BD09B400FEFDCF8091D8007F
:1052D0008F7D8093D8008091E00082608093E00011
:1052E0008091E00081FDFCCF0895AF92BF92CF92F4
:1052F000DF92FF920F931F93CF93DF936C01EB012B
:105300008A010E94D42AF82E811123C001151105AB
:1053100039F0F80180819181C81BD90BC80ED91EC4
:10532000B12CA12C2097A9F08091E80085FD22C026
:105330008091E8008E778093E80001151105A1F0B7
:10534000F80180819181A80EB91EB182A08285E00A
:10535000F82E8F2DDF91CF911F910F91FF90DF904D
:10536000CF90BF90AF9008950E94D42A8823D1F2A5
:10537000F82EEFCFF60181916F018093F100219714
:10538000FFEFAF1ABF0ACECFFC018091A603909128
:10539000A70386179707A0F06115710529F490916E
:1053A000E8009E779093E80090E06115710551F454
:1053B000911108C08091E80082FF34C080E0089518
:1053C000BC01F2CF80919F038823C1F18530C1F1E8
:1053D0008091E80083FD30C08091E80082FDEACF33
:1053E0008091E80080FFE1CF8091F3002091F200EE
:1053F000382F6115710519F02830310558F091E00A
:105400002830310509F090E02091E8002E772093B4
:10541000E800CBCF81918093F100615071092F5F3B
:105420003F4FE7CF80919F03882341F0853041F0C3
:105430008091E80083FFBECF81E0089582E0089567
:1054400083E00895FC018091A6039091A70386173D
:105450009707A0F06115710529F48091E8008E7717
:105460008093E80090E06115710551F4911108C036
:105470008091E80082FF35C080E00895BC01F2CF42
:1054800080919F038823C9F18530C9F18091E8009C
:1054900083FD31C08091E80082FDEACF8091E80071
:1054A00080FFE1CF8091F3002091F200382F611549
:1054B000710519F02830310558F091E02830310598
:1054C00009F090E08091E8008E778093E800CBCFE0
:1054D00084918093F1003196615071092F5F3F4FA5
:1054E000E6CF80919F03882341F0853041F0809181
:1054F000E80083FFBDCF81E0089582E0089583E056
:105500000895982F973028F08F708093E90081E0FC
:1055100008959093E900242F762F50E0981731F0EA
:105520007091EC002091ED005091F00021FD02C03F
:105530009F5FE8CF3091EB003E7F3093EB003091DE
:10554000ED003D7F3093ED003091EB003160309302
:10555000EB007093EC002093ED005093F00020914D
:10556000EE0027FDE5CF80E008958091A00387FF3E
:1055700013C08091E80082FF06C08091E8008B771D
:105580008093E80004C080919F038111F2CF0895B9
:1055900080919F038823D9F38091E80080FFF8CFA2
:1055A0008091E8008E77ECCF2091E4003091E50007
:1055B00095E6A9012091EC00822F817020FF06C0A2
:1055C0008091E80080FF06C080E008952091E80007
:1055D00022FD1AC080919F03882389F0853089F0CD
:1055E0008091EB0085FD0FC02091E4003091E50033
:1055F00042175307F9F29150E1F684E0089582E0F2
:10560000089583E0089581E008950E94742B0E941C
:105610007C2BE0EEF0E0808181608083E8EDF0E0BB
:1056200080818F77808319BCA7EDB0E08C918E7F4D
:105630008C9380818F7E808310929E0308950F93B8
:105640001F93CF93DF930E94742B0E947C2BC8ED95
:10565000D0E088818F77888388818068888388817B
:105660008F7D888319BC10929F0310929B03109228
:105670009D0310929C0300EE10E0F80180818B7F67
:10568000808388818160888342E060E080E00E94BE
:10569000812AE1EEF0E080818E7F8083E2EEF0E00F
:1056A000808181608083808188608083F80180812F
:1056B0008E7F8083888180618883DF91CF911F9165
:1056C0000F910895E8EDF0E080818F7E8083E7ED13
:1056D000F0E080818160808384E082BF81E08093FC
:1056E0009E030E941F2B0895E8EDF0E080818E7FDD
:1056F00080831092E20008951092DA001092E10087
:1057000008951F920F920FB60F9211242F933F937B
:105710004F935F936F937F938F939F93AF93BF93B9
:10572000EF93FF938091E10082FF0BC08091E20034
:1057300082FF07C08091E1008B7F8093E1000E948F
:10574000E02D8091DA0080FF19C08091D80080FFA1
:1057500015C08091DA008E7F8093DA008091D900A5
:1057600080FF96C080E189BD82E189BD09B400FE59
:10577000FDCF81E080939F030E94C6278091E100C6
:1057800080FF19C08091E20080FF15C08091E20087
:105790008E7F8093E2008091E20080618093E2003E
:1057A0008091D80080628093D80019BC85E08093F6
:1057B0009F030E94DA278091E10084FF2BC0809133
:1057C000E20084FF27C080E189BD82E189BD89B5FF
:1057D000982F917080FFFBCF8091D8008F7D8093B0
:1057E000D8008091E1008F7E8093E1008091E200FB
:1057F0008F7E8093E2008091E20081608093E200DE
:1058000080919B03882309F449C084E080939F031F
:105810000E94E3278091E10083FF29C08091E2008C
:1058200083FF25C08091E100877F8093E10082E0C3
:1058300080939F0310929B038091E1008E7F809361
:10584000E1008091E2008E7F8093E2008091E2008F
:1058500080618093E20042E060E080E00E94812A63
:105860008091F00088608093F0000E94D727FF911C
:10587000EF91BF91AF919F918F917F916F915F91C8
:105880004F913F912F910F900FBE0F901F90189541
:1058900019BC10929F030E94D42770CF8091E3001F
:1058A00087FD93E090939F03B3CF1F920F920FB6A3
:1058B0000F9211242F933F934F935F936F937F9396
:1058C0008F939F93AF93BF93CF93DF93EF93FF9308
:1058D000D091E900DF708091EC00C82FC17080FD8D
:1058E000C0E81092E9008091F000877F8093F0007B
:1058F00078940E94992C1092E9008091F0008860C1
:105900008093F000CD2BCF70C093E900FF91EF9111
:10591000DF91CF91BF91AF919F918F917F916F91C7
:105920005F914F913F912F910F900FBE0F901F905D
:105930001895AAE2B0E0EFE9FCE20C94C82E80EAE8
:1059400093E02091F100FC012193CF01F3E0883A2C
:105950009F07B9F70E9403288091E80083FF1EC1CA
:105960008091A0039091A1039A3008F017C1E92F0C
:10597000F0E0EC51F04D0C94822E803899F0823892
:1059800009F00CC18091A4038F70873008F006C124
:105990008093E9008091EB0085FB882780F91092C5
:1059A000E90006C080919C0390919D039111826053
:1059B0009091E800977F9093E8008093F100109217
:1059C000F1008091E8008E77E5C0882309F4D3C008
:1059D000823009F0E3C08091A2038111D6C080918A
:1059E000A4038F702FEF280F263008F0D7C08093C4
:1059F000E9002091EB0020FFC8C0933031F4809182
:105A0000EB0080628093EB00C0C09091EB0090614E
:105A10009093EB0021E030E001C0220F8A95EAF775
:105A20002093EA001092EA008091EB008860EACFB0
:105A30008111B4C01091A2031F778091E300807898
:105A4000812B8093E3008091E800877F8093E800BA
:105A50000E94B52A8091E80080FFFCCF8091E3008E
:105A600080688093E30082E0111183E080939F03BC
:105A700095C08058823008F091C08091A203909127
:105A8000A3038C3D23E09207A1F583E08A838AE299
:105A900089834FB7F894DE01139620E03EE051E28F
:105AA000E32FF0E050935700E49120FF03C0E2950C
:105AB000EF703F5FEF708E2F90E0EA30C0F0C79636
:105AC0008D939D932F5F243159F74FBF8091E8004C
:105AD000877F8093E8006AE270E0CE0101960E9421
