:100000000C94B3030C94AC2E0C94EB030C94EB0304
:100010000C94EB030C94EB030C94EB030C94EB03A8
:100020000C94EB030C94EB030C94E1270C949D27A8
:100030000C9434290C94EB030C94EB030C94EB0319
:100040000C94EB030C94EB030C94EB030C94EB0378
:100050000C94EB030C9410290C94EB030C94EB031D
:100060000C94EB030C94EB030C94EB030C94EB0358
:100070000C94EB030C94EB030C94EB030C94EB0348
:100080000C94EB030C94EB030C94EB030C94EB0338
:100090000C94EB030C94EB030C94EB030C94EB0328
:1000A0000C94EB030C94EB030C94EB030631FF0967
:1000B00074A1010975150026FF00952075088102BD
:1000C0000976150026FF00952075089102C00501EC
:1000D0000980A101850319012AB700150126B7007F
:1000E000950175108100C0050C0901A10185041955
:1000F000012AA002150126A002950175108100C0F9
:1001000005010906A101050719E029E715002501E8
:10011000950875018102950175088101050719008F
:1001200029FF150026FF00950675088100050819AE
:10013000012905950575019102950175039101C08D
:10014000726762206D617472697820746F67676C82
:1001500065205B25735D3A207267625F6D61747222
:1001600069785F636F6E6669672E656E61626C6544
:10017000203D2025750A0044454255473A206469D0
:100180007361626C65642E0A0044454255473A200B
:10019000656E61626C65642E0A004F6E6573686FF0
:1001A000743A206163746976653A2025640A000A0E
:1001B000002530325820006B6579626F6172645F90
:1001C0007265706F72743A200029001E001F0020B3
:1001D00000210022002B0014001A0008001500174F
:1001E00000E00004001600070009000A00E1001DFD
:1001F000001B0006001900050000000000E3002DB0
:1002000000015102512A0027002600250024002366
:10021000003100130012000C0018001C00340033E1
:10022000000F000E000D000B0028003800370036CC
:10023000001000110000000000F3002C00F100F29B
:100240000035003A003B003C003D003E0001003F0D
:10025000004000410042004300010044004500010D
:100260000001000100E100010001000100010001A6
:1002700000000000000100E200000000002E00016C
:1002800000010049000100010030002F004D005224
:10029000004A004B00010001004F00510050004E89
:1002A0000001000100010001000100010000000048
:1002B0000000000000F100F200C35CCE5C00000012
:1002C00000000000000000C45CC65CC85CCA5CCCD6
:1002D0005C0000C55CC75CC95CCB5CCD5C00000009
:1002E000000000000000000000000000000000000E
:1002F00000000000004C005400610060005F0058E6
:1003000000000055005E005D005C005800000056D3
:10031000005B005A005900580000005700000063BD
:1003200000620000000000000053000000F100F235
:100330000054617267657420636F6E6E65637465E7
:10034000640D0A0054617267657420646973636F99
:100350006E6E65637465642C207468726F74746C5F
:10036000696E6720636F6E6E656374696F6E20617E
:100370007474656D7074730D0A004661696C656410
:1003800020746F20657865637574652025730A0095
:100390007267625F6D61747269785F636F6E6669C0
:1003A000672E666C616773203D2025640A007267C2
:1003B000625F6D61747269785F636F6E6669672EE4
:1003C0007370656564203D2025640A007267625F72
:1003D0006D61747269785F636F6E6669672E6873AA
:1003E000762E76203D2025640A007267625F6D617B
:1003F000747269785F636F6E6669672E6873762EB4
:1004000073203D2025640A007267625F6D6174721B
:1004100069785F636F6E6669672E6873762E6820F1
:100420003D2025640A007267625F6D6174726978AD
:100430005F636F6E6669672E6D6F6465203D202572
:10044000640A007267625F6D61747269785F636FDE
:100450006E6669672E656E61626C65203D2025645D
:100460000A007267625F6D61747269785F636F6EB4
:1004700066696720454550524F4D0A007267625FBA
:100480006D61747269785F696E69745F64726976B0
:10049000657273207267625F6D61747269785F6301
:1004A0006F6E6669672E6D6F6465203D20302E206B
:1004B00057726974652064656661756C7420766135
:1004C0006C75657320746F20454550524F4D2E0A50
:1004D000007267625F6D61747269785F696E6974DA
:1004E0005F64726976657273206565636F6E6669B5
:1004F00067206973206E6F7420656E61626C65643D
:100500002E0A005B735D000A0025303862003A2035
:100510000025303258000A722F63203031323334D4
:100520003536370A000A0025303258006C65645FA2
:100530007461736B3A2000000101010101010101A6
:100540000102020202020202020203030303030386
:100550000303040404040404040505050505060654
:100560000606060707070707080808080909090912
:100570000A0A0A0B0B0B0C0C0C0D0D0D0E0E0E0FB8
:100580000F0F101011111112121313141415151648
:10059000161717181819191A1A1B1B1C1D1D1E1EB9
:1005A0001F2020212222232424252626272829290A
:1005B0002A2B2C2D2D2E2F30313232333435363735
:1005C00038393A3B3C3D3E3F404142434445464733
:1005D00048494A4C4D4E4F50515354555658595A0C
:1005E0005B5D5E5F616264656668696B6C6D6F70B0
:1005F00072737577787A7B7D7E8082838587888A1F
:100600008C8E8F91939596989A9C9EA0A2A3A5A755
:10061000A9ABADAFB1B3B5B7BABCBEC0C2C4C6C951
:10062000CBCDCFD1D4D6D8DBDDDFE2E4E7E9EBEE0A
:10063000F0F3F5F8FAFDFF6565636F6E6669675F55
:100640007570646174655F7267625F6D6174726911
:10065000785F64656661756C740A005B435D005B7E
:10066000445D005B535D005B575D005B525D0009BC
:10067000025B00030100A0FA09040000010301016C
:100680000009211101000122400007058103080033
:10069000010904010001030000000921110100010A
:1006A0002232000705820320000109040200020330
:1006B0000000000921110100012222000705830327
:1006C00020000107050303200001120100020000C1
:1006D000000810CB56620006010200011803490011
:1006E00072006900730020005200650076002E0041
:1006F0002000360000000E034B006500650062001C
:1007000069006F00000004030904726762206D61D4
:100710007472697820736574207370656564205BFA
:1007200025735D3A2025750A00726762206D617439
:100730007269782073657420687376205B25735D19
:100740003A2025752C25752C25750A0072676220C4
:100750006D6174726978206D6F6465205B25735DCF
:100760003A2025750A0011241FBECFEFDAE0DEBF64
:10077000CDBF04B603FE18C08091320590913305B9
:10078000A0913405B09135058730904BA740B04B10
:1007900059F41092320510923305109234051092DC
:1007A0003505E0E0F8E3099512E0A0E0B1E0EAE306
:1007B000F2E602C005900D92A43FB107D9F725E0FB
:1007C000A4EFB2E001C01D92A233B207E1F70E948C
:1007D0005B290C94E2300C940000FF93EF93E091BE
:1007E000F402F091F502309709F00995EF91FF912D
:1007F0000895FC018591803011F0EFDFFBCF089563
:10080000FF27E0E230E247FF0CC0419597FF09C0A7
:10081000EDE26095709580959095611D711D811D2B
:10082000911D27FF02C0219530E350E2AA27660FF1
:10083000771F881F991FAA1FA41710F0A41B639588
:100840005A95A9F7AA3008F0A95FA05DAF93F39578
:10085000611571058105910541F7ED3211F4EF93B2
:10086000F395F21718F43F93F395FBCF8F91B5DF13
:10087000FA95E1F70895E991F9918591803021F099
:10088000853219F0AADFF9CF089520E0E894559158
:100890005532C1F3503311F4689455915A3348F4EA
:1008A000505390F3220F022E220F220F200D250FFE
:1008B000F4CF0EF4219589919991533619F353375A
:1008C00029F1533559F1BC0188279927E8945C3602
:1008D00021F48991999168945591543639F446EFF1
:1008E0007EF077FF0DC08FEF9FEF0AC055374AE0CB
:1008F00039F0583540E121F0523642E009F00895D0
:10090000FF93EF937DDFEF91FF91B7CFFF93EF93CD
:10091000FC0181918030B9F360DFFBCFFF93EF934F
:1009200068DFF1CFDF93CF93CDB7DEB72596A3DF96
:10093000CF91DF910895E8EDF0E080818E7F808394
:100940001092E2001092DA001092E100A0EEB0E006
:100950008C9181608C9380818F77808319BCA7ED07
:10096000B0E08C918E7F8C9380818F7E80831092FB
:10097000E30408952091E4003091E50095E6A90193
:100980002091EC00822F817020FF06C08091E8004A
:1009900080FF06C080E008952091E80022FD1AC083
:1009A0008091F004882389F0853089F08091EB00F4
:1009B00085FD0FC02091E4003091E50042175307F8
:1009C000F9F29150E1F684E0089582E0089583E021
:1009D000089581E00895EF92FF920F931F93CF93B4
:1009E0007C018B010E94BA04C82F811117C080912D
:1009F000E80085FD0BC08091E8008E778093E800C9
:100A00000E94BA04882399F3C82F08C0F701819186
:100A10007F018093F1000150110949F78C2FCF918C
:100A20001F910F91FF90EF9008958091F20487FF3E
:100A300013C08091E80082FF06C08091E8008B77A8
:100A40008093E80004C08091F0048111F2CF0895F2
:100A50008091F0048823D9F38091E80080FFF8CFDB
:100A60008091E8008E77ECCF982F9093E900242FA7
:100A7000762F50E0891731F07091EC002091ED0055
:100A80005091F00021FD07C09F5F973071F7809370
:100A9000E90081E008953091EB003E7F3093EB0058
:100AA0003091ED003D7F3093ED003091EB003160EF
:100AB0003093EB007093EC002093ED005093F00026
:100AC0002091EE0027FDE0CF80E00895B0E0A0E0A7
:100AD000ECE6F5E00C94D22FC8EDD0E088818F7E53
:100AE0008883E7EDF0E080818160808384E082BFCD
:100AF00081E08093E30488818E7F888302EE10E09A
:100B0000F80110821092DA0081EEC82ED12CF60185
:100B1000108288818F778883888180688883888124
:100B20008F7D888319BC1092F0041092F10410920A
:100B3000EF041092EE0490EEE92EF12CF701808183
:100B40008B7F808388818160888342E060E080E0E1
:100B50000E943405F60180818E7F8083F8018081B8
:100B600081608083808188608083F70180818E7FAF
:100B70008083888180618883CDB7DEB7E8E00C94FC
:100B8000EE2FFC018091F8049091F90486179707E5
:100B9000A0F06115710529F49091E8009E7790937B
:100BA000E80090E06115710551F4911108C0809141
:100BB000E80082FF34C080E00895BC01F2CF80914C
:100BC000F0048823C1F18530C1F18091E80083FDF4
:100BD00030C08091E80082FDEACF8091E80080FF7C
:100BE000E1CF8091F3002091F200382F611571055B
:100BF00019F02830310558F091E02830310509F01E
:100C000090E02091E8002E772093E800CBCF8191EF
:100C10008093F100615071092F5F3F4FE7CF8091C2
:100C2000F004882341F0853041F08091E80083FF93
:100C3000BECF81E0089582E0089583E0089508958D
:100C400008958091E50408959C014FB7F894809130
:100C5000D9049091DA04A091DB04B091DC044FBF79
:100C6000821B930B08952FB7F8946091D90470916B
:100C7000DA048091DB049091DC042FBF08952FB734
:100C8000F8948091D9049091DA04A091DB04B0919A
:100C9000DC042FBF08959C01FC0132969FEF80E099
:100CA0004191461751F09F3F19F4411101C0982F0F
:100CB0008F5F8630A9F79F3F09F40895290F311DF2
:100CC00097FD3A95F901628308952091D6043091F9
:100CD000D7042817390771F09093D7048093D6046E
:100CE000E091D404F091D504309721F00084F1858F
:100CF000E02D099508952091D2043091D30428174E
:100D0000390771F09093D3048093D204E091D40416
:100D1000F091D504309721F00680F781E02D0995F8
:100D20000895FC01680F791F8FEF91E321918227CD
:100D300028E030E087FF09C0880F8927215031095A
:100D4000C9F7E617F70791F70895880FF7CFFA016B
:100D5000811101C0FB010995089580934B01809199
:100D60002C05837080934A010E94911483E0809344
:100D700050010895EF92FF920F939701201B3109C4
:100D80002F3F310519F010F02FEF30E02095382F6C
:100D9000320F08F43FEF832F0F91FF90EF900895EB
:100DA000EF92FF920F939701201B31092F3F3105DE
:100DB00019F010F02FEF30E0322F3095482F430F0D
:100DC00008F44FEF842F620F0F91FF90EF9008957A
:100DD000EF92FF920F93972F093438F4B701601BFD
:100DE00071096F3F710519F010F06FEF70E0485F07
:100DF0005F4F4131510540F0A901485F5F4F4131DC
:100E0000510510F06FEF70E06095482F460F08F421
:100E10004FEF842F37FF02C02D5F3F4F3595279549
:100E20003595279560912D05620F792F0F91FF90D1
:100E3000EF900895EF92FF920F931F930E0D1F2DC9
:100E4000111DF90137FF03C0F195E195F10924E087
:100E5000EE0FFF1F2A95E1F7EF3FF10519F014F0AF
:100E6000EFEFF0E09A0157FF03C03195219531096A
:100E700094E0220F331F9A95E1F72E173F070CF4E9
:100E8000F901E00FF11FEF3FF10519F010F0EFEF5E
:100E9000F0E0E095282F3E2F230F08F42FEF822F4C
:100EA0001F910F91FF90EF900895EF92FF920F9393
:100EB000970195E0099F200D311D11242F3F310529
:100EC00019F010F02FEF30E02095382F320F08F492
:100ED0003FEF832F0F91FF90EF90089522E8241B9E
:100EE00008F420E0620F08954095282F429F412D7D
:100EF0001124842F08950F931F9310E0F801EE0F33
:100F0000FF1FE95DFD4F9081905797FD9195000F70
:100F1000111FF801E551FE4F05AD0052110B2003E2
:100F2000F001219FF00D112408E310E0091B1109C5
:100F300097FD139540039001419F300D1124E20F5E
:100F4000F31F9F01220F331F2E0F3F1F37FF02C0D9
:100F500021583F4F220F232F221F330B620F1F9167
:100F60000F9108950F931F93522F10E0F801EE0F89
:100F7000FF1FE551FE4FA5ADA052BB0B9D015203D3
:100F8000F001539FF00D1124000F111FD801A95D2E
:100F9000BD4F0C910057110B40039001419F300D44
:100FA00011242E0F3F1F37FF02C0215C3F4F96E0F8
:100FB000359527959A95E1F7620F1F910F91089546
:100FC0000F931F93522F10E0F801EE0FFF1FE55112
:100FD000FE4FA5ADA052BB0B9D015203F001539FE4
:100FE000F00D1124000F111FD801A95DBD4F0C9108
:100FF0000057110B40039001419F300D11242E0F1B
:101000003F1F37FF02C021583F4F220F232F221FBF
:10101000330B620F1F910F910895EF920F93972F4B
:1010200023E0029FB0011124759567956E0D792F0D
:101030000F91EF900895322F50E0FA01EE0FFF1F4D
:10104000E551FE4F95AD905297FD9195440F551F78
:10105000FA01E95DFD4F2081231B330B290F311D60
:1010600097FD3A95620F0895E42FF0E0EE0FFF1F11
:10107000E551FE4F65AD621B0895E42FF0E0EE0FE1
:10108000FF1FE95DFD4F6081621B0895622F089587
:10109000E42FF0E0EE0FFF1FE95DFD4F408134EEDD
:1010A000439F412D1124E82FF0E050E0445E5F4F54
:1010B000DA01A21BB1099D01B7FF03C0319521954B
:1010C000310993E0220F331F9A95E1F7AF01421BDC
:1010D000530B9A0157FD20E0582F259F212D1124F5
:1010E000822F0895E42FF0E0EE0FFF1FE95DFD4F22
:1010F000408134EE439F412D1124E72FF0E050E072
:10110000445E5F4FDA01A21BB1099D01B7FF03C026
:1011100031952195310993E0220F331F9A95E1F71C
:10112000AF01421B530B9A0157FD20E0279F212D51
:101130001124722F08950E949F0A0895FF920F9321
:101140001F93CF93DF93182F062FF42ED0E0C0E02B
:101150002F2D402F612FCE010E949B082196C43471
:10116000D105B1F7CDB7DEB7E5E00C94F12FFC0166
:101170009B01009729F480E077FF2BC080E8089559
:10118000AC0197FF04C044275527481B590BB901F0
:10119000640F751F37FD10C0241B350BC901A5E076
:1011A000880F991FAA95E1F70E941F3080E2861BE5
:1011B000F7FF0FC081950895CB0165E0880F991F57
:1011C0006A95E1F7BA01621B730B0E941F3080E63B
:1011D000EECF0895EF920F93CF93DF93D72FC82FC1
:1011E000C9010E19BA010E94B708602F681B7D2F34
:1011F0008C2FDF91CF910F91EF9008950F93CF93A4
:10120000DF93D72FC82FC901BA010E94B708682FF2
:10121000600F7D2F8C2FDF91CF910F910895EF926A
:101220000F931F93CF93DF93D62FC72F182FC9018A
:101230000E19010FBA010E94B708081B202F219F29
:10124000212D1124822F6D2F7C2FDF91CF911F91A3
:101250000F91EF900895EF920F931F93CF93DF9329
:10126000D62F172FC82FC9010E19070FBA010E94D8
:10127000B708702F781B719F712D11246D2F8C2F43
:10128000DF91CF911F910F91EF9008950F931F93CE
:10129000CF93DF93D62FC72F182FC901212F201BE3
:1012A000022FBA010E94B708982F990F990F891B36
:1012B000800F282F219F212D1124822F6D2F7C2F0D
:1012C000DF91CF911F910F9108950F931F93CF93AB
:1012D000DF93D62F172FC82FC901272F201B022FCE
:1012E000BA010E94B708982F990F990F782F791B90
:1012F000700F719F712D11246D2F8C2FDF91CF9165
:101300001F910F910895E82F86FDE0952E2F2F70E5
:1013100086FD2F5FE695E695E695E670F0E0EC52E7
:10132000FE4F9181929F902D212D112492959F70B7
:101330002295207F922B2081920F87FD919580E846
:10134000890F0895AC018230910508F408959FEF4C
:10135000413E8EE1580740F49A0195E03695279575
:101360009A95E1F798E0920F61E0E62FE90FFF27E9
:10137000FF1F9F0135952795822F229FF001239F04
:10138000F00DF00D11244E175F0738F49FEF920F08
:10139000961758F78FEF860F08952F3FE9F361E016
:1013A000620FF6CF0F93CF93DF93D72FC82F47FD50
:1013B000419588E390E0841B910947FD9395889FB0
:1013C000B001899F700D700D1124229FC001239FD1
:1013D000900D900D1124860F971F0E94A209982F3F
:1013E000990F890F682F600F7D2F8C2FDF91CF9180
:1013F0000F91089530E020E0869F212D969F200DCB
:10140000311D1124C9010895AF92BF92CF92DF928E
:10141000FF920F931F93CF93DF93362F472FE82F21
:10142000F0E0E95CFA4F71110FC0E4918E2F2E2F7E
:101430006E2F722FDF91CF911F910F91FF90DF9050
:10144000CF90BF90AF900895C72FD0E02491F22E97
:10145000022F10E056E0659FC0011124EFEFF0E08D
:10146000BF010E940B30832F90E0880F991F35E554
:10147000369FD001379FB00D11248A1B9B0B982FEC
:10148000990F980F6F01CC1ADD0AC09ED001C19E42
:10149000B00DD09EB00D11248B2F499FA0011124B7
:1014A000452F55276F01C41AD50AC09EA001C19EC1
:1014B000500DD09E500D11245F01A91AB108AC9EA9
:1014C0006001AD9ED00CBC9ED00C1124CD2CDD242F
:1014D000EC19FD09E09FE001E19FD00DF09FD00DD8
:1014E0001124ED2F62307105A1F050F461157105E2
:1014F00009F49ECF6130710581F0EB2F852F98CFD5
:101500006430710569F080F06630710509F490CFA0
:10151000F4CFE22F2B2F8D2F8BCFE22F252F88CFCB
:10152000EB2F822F2D2F84CF2B2F8F2DE52F80CFC8
:1015300055985D9889B185FB882780F90895FF92B9
:101540000F931F93CF93DF93EC01F62E042F122FEE
:101550000E94980A81110FC0C232D1057CF0A29777
:10156000FE01EE0FFF1FEC0FFD1FEA5FFB4FF18244
:101570000083128303C0C232D10594F3CDB7DEB726
:10158000E5E00C94F12FCF93C82F0E94980A88238E
:1015900029F081E0C23228F080E003C081E0C43449
:1015A000D8F7CF910895A8E0B0E0E9EDFAE00C9407
:1015B000C82F282E7C836B8320914D018EE0289FBD
:1015C000802D11248D83825F8983853410F034E46B
:1015D00039830E94980A882329F08981833210F088
:1015E00092E299830E94980A811105C0ED81E2324E
:1015F00010F4F2E2FD832091FE042A839D81892F5D
:1016000090E098878F83880F991FFC01E551FE4F6A
:101610006F01822D90E09C012F5F3F4F3E832D8311
:1016200089819F81981730F00E94C30A2896E2E1D1
:101630000C94E42FEF81F885E155FD4F8081909166
:101640004E018923F9F030902D0540902E058D81B3
:101650009E8182509B4F3C01522C10E0FA815F1614
:10166000D8F020912F05129F112D1124632D742D78
:10167000812F0E94040A462F282F672F8F8198857B
:101680000E949B082F8138852F5F3F4F38872F831B
:1016900032E0C30ED11CC4CFF30181913F01F601AA
:1016A000A4ACA81ABB0885ACF3018781881A9908F5
:1016B000AA9C9001AB9C300D300D1124889CC00178
:1016C000899C900D900D1124820F931F0E94A209F6
:1016D000082F6091300521E0620F08F46FEFF301ED
:1016E000EE0FFF1FEE5FF440858996890E94FA098C
:1016F0007C019401A501632D742D812FEB81FC8168
:101700000995362E472E5394182FA8CFB0E0A0E0AD
:10171000ECE8FBE00C94D22F7C01C0914D018EE0EF
:10172000C89FC02D11241EE01C0F153408F014E4CE
:101730000E94980A882319F0133208F012E20E94DE
:10174000980A811103C0C23208F4C2E22091300528
:1017500031E0230F08F42FEF30E050E040E06FEF6E
:101760007FEF80E090E00E9433306901D0E001E03B
:101770002C2FC11740F0812F0E94C30ACDB7DEB7CE
:10178000E8E00C94EE2FFE01E155FD4F8081909131
:101790004E01892309F14091FE044150042E000CB2
:1017A000550B47FF1BC0C60160913005600F08F460
:1017B0006FEF0E94FA09AC0160912D0570912E0522
:1017C00080912F05F70109950E94040A462F282FC2
:1017D000672FCE010E949B082196CACFFA01E250E2
:1017E000FB4F818982130AC0FA01EE0FFF1FE250FE
:1017F000FB4F818D928D8C159D05B0F241505109A2
:10180000D0CFB0E0A0E0E7E0FCE00C94D02F6C017A
:10181000C0914D018EE0C89FC02D11241EE01C0F09
:10182000153408F014E40E94980A882319F0133242
:1018300008F012E20E94980A811103C0C23208F433
:10184000C2E260913005669566958091FA049091A8
:10185000FB040E94FA09F82E80E48F0D0E94830990
:1018600090E8B92EB80E8F2D0E94830920E8A22E91
:10187000A80ED0E0C11740F0812F0E94C30ACDB757
:10188000DEB7EAE00C94EC2FFE01E155FD4F8081BC
:1018900090914E018923A1F060912D0570912E0544
:1018A00080912F05EF2C0C2F2A2D4B2DF601099539
:1018B0000E94040A462F282F672FCE010E949B0802
:1018C0002196D8CFB0E0A0E0E8E6FCE00C94CC2F65
:1018D0005C01C0914D018EE0C89FC02D11241EE017
:1018E0001C0F153408F014E40E94980A882319F09C
:1018F000133208F012E20E94980A811103C0C2322A
:1019000008F4C2E26091300566958091FA049091E6
:10191000FB040E94FA09F82ED0E0CE01880F991F2F
:101920009C0125513E4F6901C11740F0812F0E9453
:10193000C30ACDB7DEB7EEE00C94E82FFE01E15507
:10194000FD4F808190914E01892379F1F60184AD9C
:10195000282F2057330B490185ADE82FE052FF0BAC
:101960003F01889C9001899C300D300D1124EE9F21
:10197000C001EF9F900D900D1124820F931F0E94C4
:10198000A209082F60912D0570912E0580912F05D9
:10199000EF2C9301A401F50109950E94040A462F3A
:1019A000282F672FCE010E949B08F2E0CF0ED11C9A
:1019B0002196BACFB0E0A0E0E0EEFCE00C94D12F8D
:1019C0006C01C0914D018EE0C89FC02D11241EE016
:1019D0001C0F153408F014E40E94980A882319F0AB
:1019E000133208F012E20E94980A811103C0C23239
:1019F00008F4C2E26091300566958091FA049091F6
:101A0000FB040E94FA09B82ED0E0CE01880F991F7E
:101A10009C0125513E4F7901C11740F0812F0E9452
:101A2000C30ACDB7DEB7E9E00C94ED2FFE01E15516
:101A3000FD4F808190914E018923C1F0F70125ADC2
:101A40002052330B44AD4057550B60912D057091DA
:101A50002E0580912F050B2DF60109950E94040A91
:101A6000462F282F672FCE010E949B08F2E0EF0E31
:101A7000F11C2196D1CFEF92FF920F931F93CF933A
:101A8000DF937C01C0914D018EE0C89FC02D1124D1
:101A90001EE01C0F153408F014E40E94980A8823F5
:101AA00019F0133208F012E20E94980A811103C063
:101AB000C23208F4C2E2609130056695669521E075
:101AC000620F08F46FEF8091FA049091FB040E947A
:101AD000FA09082FD0E0C11740F0812F0E94C30AF5
:101AE000CDB7DEB7E6E00C94F02FFE01E155FD4FD7
:101AF000808190914E01892391F060912D05709124
:101B00002E0580912F05202F4C2FF70109950E945B
:101B1000040A462F282F672FCE010E949B0821968A
:101B2000DACFB0E0A0E0E7E9FDE00C94D02F182F69
:101B300080914B01811323C090912C0593702091CB
:101B40004A0130E081E09217130609F480E08170C9
:101B500080934F018091310590914E01981739F093
:101B600080934E0140E060E080E00E949E081332C6
:101B700088F4E12FF0E0EC51FF4C0C94523081E0FE
:101B8000E6CF80914F01882389F140E060E080E05A
:101B90000E949E0880E02AC0C0914D018EE0C89F3F
:101BA000C02D11240EE00C0F053408F004E40E944F
:101BB000980A882319F0033208F002E20E94980A7A
:101BC000811103C0C23208F4C2E260912D05709108
:101BD0002E0580912F050E94040AF62EE72ED82E9E
:101BE000D0E0C017D8F0802F0E94C30A90914D0119
:101BF0009F5F90934D0181110CC082E08093500152
:101C000080914F01811105C0111103C083E08093C1
:101C10005001CDB7DEB7EAE00C94EC2FFE01E155A0
:101C2000FD4F808190914E01892331F02D2D4F2D54
:101C30006E2DCE010E949B082196D3CFC0914D01FD
:101C40008EE0C89FC02D11240EE00C0F053408F063
:101C500004E40E94980A882319F0033208F002E293
:101C60000E94980A811103C0C23208F4C2E2E090D7
:101C70002E05F0902F05D0912D056D2F7E2D8F2DE7
:101C80000E94040AD62EC72EB82E609130056D0F23
:101C90007E2D8F2D0E94040AF62EE72EA82ED0E06E
:101CA000C01708F0A0CFFE01E155FD4F9081809153
:101CB0004E01892359F02A2D4F2D6E2D90FD03C022
:101CC0002B2D4D2D6C2DCE010E949B082196E8CF27
:101CD000C0914D018EE0C89FC02D11240EE00C0F65
:101CE000053408F004E40E94980A882319F00332AE
:101CF00008F002E20E94980A811103C0C23208F47F
:101D0000C2E2E0902E05D0902F052091300550E4DE
:101D1000F52E3F2D329F312D1124F32ED0E0C01728
:101D200008F061CFFE01E155FD4F808190914E0199
:101D30008923B9F0FE01EE0FFF1FE551FE4F85AD7F
:101D400082958F7060912D058F9D600D11247E2DE1
:101D50008D2D0E94040A462F282F672FCE010E9446
:101D60009B082196DCCFC0914D018EE0C89FC02D0D
:101D700011240EE00C0F053408F004E40E94980AC8
:101D8000882319F0033208F002E20E94980A8111B8
:101D900003C0C23208F4C2E2E0902E05D0902F05B5
:101DA0002091300530E4F32E3F2D329F312D112448
:101DB000F32ED0E0C01708F016CFFE01E155FD4F1D
:101DC000808190914E018923D9F0FE01EE0FFF1F13
:101DD000E551FE4F64ADF69EB001112495E0759576
:101DE00067959A95E1F780912D05680F7E2D8D2DD1
:101DF0000E94040A462F282F672FCE010E949B08BD
:101E00002196D8CFC0914D018EE0C89FC02D1124DE
:101E10000EE00C0F053408F004E40E94980A8823B1
:101E200019F0033208F002E20E94980A811103C0FF
:101E3000C23208F4C2E2F0902D05D0912E05E09058
:101E40002F05609130056695669566958091FA0438
:101E50009091FB040E94FA090E948309805887FD33
:101E60008195880F282F3E2D239F212D1124822F0D
:101E70006F2D7D2F0E94040AF62EE72ED82ED0E07B
:101E8000C01708F0B0CEFE01E155FD4F8081909162
:101E90004E01892331F02D2D4F2D6E2DCE010E9444
:101EA0009B082196EDCF82E798E00E943B0D9ECEE5
:101EB00088E498E0FACF85E699E00E94DA0C96CEA5
:101EC00086E499E0FACF8BE299E00E94620C8ECE14
:101ED0008FE099E0FACF86E498E0E7CF8DE398E0D1
:101EE000E4CF84E398E0E1CF8BE198E0DECF8DE0B2
:101EF00098E0EBCF82ED99E0E0CF8EEF98E0DDCF78
:101F00008AEE98E0E2CF80EE97E00E94010C6ECE60
:101F100082EB97E0FACF8BE797E0F7CF84E797E083
:101F20000E94860B63CE8EE697E0FACF8091FE0486
:101F300021E0382F321B08F430E0832F65E577E08D
:101F40000E94D30A53CE65E577E080E0F9CF809117
:101F5000FE0421E0382F321B08F430E0832F6AE1C1
:101F600077E0EECF6AE177E0F0CF8091FE0421E0E8
:101F7000382F321B08F430E0832F68EE76E0E0CF94
:101F800068EE76E0E2CF8091FE0421E0382F321B2C
:101F900008F430E0832F60ED76E0D2CF60ED76E09C
:101FA000D4CF8091FE0421E0382F321B08F430E0BA
:101FB000832F6AEB76E0C4CF6AEB76E0C6CFF89465
:101FC000E82FE295EF70F0E031A1282F2F7081E02B
:101FD00090E001C0880F2A95EAF7982F90959323F7
:101FE00091A392A1892B82A3789408959091B7032D
:101FF00092FF06C0282F28712830F9F4877F84606B
:1020000093FF06C0282F28712831F1F4877E846160
:102010002091B80320FF06C0382F38713830D9F42A
:10202000877F816021FF06C0282F28712831D1F4D5
:10203000877E816194FD877E0895282F2471243046
:10204000F9F68B7F8860DCCF282F2471243101F7CB
:102050008B7E8861DDCF382F3171313019F78E7F5B
:102060008860E0CF282F2171213121F78E7E886191
:10207000E1CF972F7A30A8F4663098F470E026E02C
:10208000929F600D711D1124FB019CE3899FE00D5F
:10209000F11D1124EE0FFF1FE753FE4F8591949120
:1020A000089580E090E00895CF93DF93EC018238AB
:1020B0009105A9F1D8F58133910509F496C048F549
:1020C0008932910509F48AC08A9709F495C0C1152F
:1020D00022E5D20708F0B6C0C11531E5D30708F0F4
:1020E00026C1C83ED10508F09CC0C03ED10560F5B0
:1020F000C83AD10508F087C0C53AD10508F0EFC04D
:10210000C130D10509F12097F9F0C430D105E0F4D0
:1021100040C08533910509F45AC0C997C1F6809132
:10212000B703837089F0C0EED0E00EC0833E910506
:1021300099F170F4803E910501F1823E910539F6E6
:102140008091B70382FD21C0CE01DF91CF91089528
:10215000863E910561F1873E910571F1843E9105BE
:1021600009F0B5CF8091B80381FFEECF8091B7031E
:10217000C7EED0E084FD0DC0E7CF8091B70380FDAE
:1021800007C19091B80390FFDFCFC3EED0E084FF8A
:10219000DBCFD0E0C0E0D8CF8091B70382FDFBC099
:1021A0009091B80390FDBFCF84FFCECFF2CF809146
:1021B000B70383FDDDCFC8CF8091B70383FDEEC0A9
:1021C0009091B80391FFF0CFC4EED0E0BDCF8091E5
:1021D000B70385FFB9CFC9E2D0E0B6CF8091B7038E
:1021E00085FFB2CFC5E3D0E0AFCF8091B70386FFC4
:1021F000ABCFCAE2D0E0A8CF8091B70386FFA4CFCF
:10220000C1E3D0E0A1CFCF3BD10518F6C85AD0E04A
:10221000CC0FDD1FCC56DE4F0990D881C02DD46481
:1022200093CFC11540E5D40708F064C0C11580E420
:10223000D80708F05CC0CE019A9581159F4108F43B
:1022400083CFA7CFC11536E5D30718F5C11545E5EE
:10225000D40708F084C0C11584E5D80708F07AC017
:102260009C2F969596959E0123703327C115D345D3
:1022700008F462C0C1E0D0E002C0CC0FDD1F2A9597
:10228000E2F730E2939FC0011124C82BD92BDA6802
:102290005BCFC1158AE5D80778F4C11599E5D90750
:1022A00008F068C0C11528E5D20708F472CFDC2F0A
:1022B000CC27C06FD06A48CFCE019056811590428E
:1022C00008F067CF8D2F8F710E94F60F90E0982F46
:1022D000882788279F719C012C2BE90149C0C55A8A
:1022E000D0E0CF56DE4FC881D0E0D0642DCFDF7074
:1022F000D06A2ACFCE01E4E096958795EA95E1F77A
:1023000083702C2F26952695237040E2249F900100
:102310001124382B8C2F8370C1E0D0E002C0CC0F89
:10232000DD1F8A95E2F7C22BD32BDC680DCFDC2FA3
:10233000CC27C16FD06A08CFC1E0D0E002C0CC0F7B
:10234000DD1F2A95E2F720E2929FC0011124C82BDD
:10235000D92BEBCFDC2FCC27C46FD06AF5CE8C2FD6
:102360000E94F60FC82FD0E0DC2FCC27CC27DF71DE
:10237000D062EACE8C2F8F700E94F60F34E0D69593
:10238000C7953A95E1F7CF709C2FEC01D069DCCE70
:10239000C9E3D0E0D9CEC2EED0E0D6CEC6EED0E0D2
:1023A000D3CE0E943306089580916A038111109262
:1023B0006A03089580959091690398239093690327
:1023C000089580915E0390912D03981301C00895A4
:1023D0008F5F8770FACFB0E0A0E0E1EFF1E10C94FD
:1023E000D12F8C01C090B303D090B403E090B5031B
:1023F000F090B60380916B0390916C03A0916D03F4
:10240000B0916E03C82AD92AEA2AFB2ACFE1D0E08C
:10241000BC2ED701C6010C2E04C0B695A795979582
:1024200087950A94D2F780FD09C0219788F7B12CCF
:102430008B2DCDB7DEB7E9E00C94ED2FB8018C2FD2
:102440000E9439100E945410019779F3F1CFCF9375
:10245000DF93EC010E94EB11BE010E9439100E9433
:102460005410DF91CF910895292F9A3080F586304E
:1024700070F590E036E0239F800D911D1124682FA8
:10248000677023E0969587952A95E1F725E0289FC8
:10249000F001299FF00D1124E150FD4F50E040E084
:1024A00080E0219130E0062E02C0369527950A94EF
:1024B000E2F721703327042E01C0220F0A94EAF7B5
:1024C000822B4F5F5F4F4530510559F7089580E0EB
:1024D0000895292F9A30A0F5863090F590E036E0E7
:1024E000239F800D911D1124282F277041E001C0EA
:1024F000440F2A95EAF723E0969587952A95E1F708
:1025000025E0289FF001299FF00D1124E150FD4F97
:1025100030E020E070E05191DF011197CB01022EF5
:1025200002C0969587950A94E2F781708195852778
:10253000842385278C932F5F3F4F2530310559F732
:102540000895FC01808191810E94271292959F70CD
:10255000963091F058F4925F9F70923058F4803F1B
:1025600019F030F4883E30F481E008959A5FF4CF9A
:10257000843FD1F380E00895883EB0F3813FD1F7E6
:10258000F3CF829590E09C01220F331F220F331F5F
:102590002C7C95958795959587958373282B30E0AE
:1025A000C901880F991F8A7A359527952575822B41
:1025B000089590912C05937031F1811125C094609C
:1025C00090932C051092500180912A058160809390
:1025D0002A0580912B0580FF16C080912C058695D9
:1025E00086951F928F938FE591E09F938F938CE454
:1025F00097E09F938F930E9492040F900F900F90FB
:102600000F900F900F900895833210F09868D8CFF4
:10261000880F880F982BD4CF80912C0586958695AE
:10262000815009F482E20E94D912089580912C050C
:10263000869586958F5F833208F081E00E94D912DB
:10264000089520912C05237059F180932D056093F6
:102650002E05413A08F040EA40932F0520912A05C3
:10266000216020932A0520912B0520FF19C01F927D
:102670004F931F926F9399279F938F938FE591E0CC
:102680009F938F9389E297E09F938F930E94920488
:102690008DB79EB70A960FB6F8949EBF0FBE8DBF3A
:1026A0000895ECE2F5E0438120E1421B08F440E0AC
:1026B0008181628190E00E9421130895ECE2F5E0AF
:1026C000438120E1420F08F44FEF8181628190E065
:1026D0000E9421130895ECE2F5E0628120E1621B83
:1026E00008F460E08181438190E00E942113089505
:1026F000ECE2F5E0628120E1620F08F46FEF818186
:10270000438190E00E9421130895ECE2F5E081817D
:10271000438162818850990B0E9421130895ECE255
:10272000F5E0818190E04381628108960E94211347
:1027300008958093300590912A05916090932A0521
:1027400090912B0590FF12C01F928F938FE591E01F
:102750009F938F938AE097E09F938F930E949204B8
:102760000F900F900F900F900F900F900895809101
:10277000300520E1382F321B08F430E0832F0E940F
:10278000991308958091300520E1382F320F08F415
:102790003FEF832F0E94991308959FB7F8941092EA
:1027A000E1049FBF9091F004943009F048C020915B
:1027B000E9002F703091EC00932F917030FD90E87C
:1027C000922B23E02093E9002091EB0020FF34C0FE
:1027D0002091EE0027FF30C02091E004222321F059
:1027E0002091E80025FF28C01092E00426E03091F7
:1027F000E80035FF14C08093F1008091E80085FD6A
:1028000027C08091E80080FFFCCF8091E8008E77A0
:102810008093E8009F709093E90080E008953091E4
:10282000F004343049F43091EB0035FD05C02150FF
:1028300041F481E08093E0049F709093E9008FEF72
:102840000895EFE9FFE03197F1F700C00000CFCF26
:102850008FB7F89421E02093E1048FBFDBCF809302
:10286000DD047093DF046093DE048091F004843013
:1028700001F582E08093E9008FEF9091E8008150AC
:1028800095FD06C095ED9A95F1F700008111F5CF01
:102890008091E80085FF0DC050E040E063E070E00B
:1028A0008DED94E00E94EB048091E8008E77809398
:1028B000E8000895BC0184E00E942F140895BC0133
:1028C00083E00E942F140895CF93DF93EC0181E001
:1028D0008093E9008FEF9091E800815095FD06C04C
:1028E00095ED9A95F1F700008111F5CF8091E80000
:1028F00085FF14C050E040E068E070E0CE010E9427
:10290000EB048091E8008E778093E80088E0FE0178
:10291000A6EEB4E001900D928A95E1F7DF91CF9198
:1029200008956E9A3EB13F7B2EB120644FB7F89464
:1029300086E094E0FC015191CF0168E02EB90000DF
:1029400000C057FF3EB9550F000000C000C000C0D6
:102950003EB900C06A9591F7F4E0823D9F0751F7B8
:102960004FBF8FE594E00197F1F700C00000089594
:10297000B0E0A0E0EEEBF4E10C94CD2F7C015B0124
:10298000842E752E690180917A0301E010E08A306F
:1029900010F40AE010E0C1E0D0E0B501C701F60193
:1029A0000995982E811114C021960C171D07B4F4B7
:1029B00080912B0580FF0CC07F928F928AE793E075
:1029C0009F938F930E9492040F900F900F900F90FF
:1029D000892DCDB7DEB7EDE00C94E92FCC9F9001A7
:1029E000CD9F300D300D112490E080E045E34A95F5
:1029F000F1F70000019628173907C1F7CECF809173
:102A00007903811110C08091D80080618093D80033
:102A10008AE18A95F1F700C08091D90080FF0AC051
:102A200081E08093790381E090917903913009F0FE
:102A300080E0089582E0809379030E949B041092C5
:102A4000F004F1CF0E94FF14882359F0E091D404E0
:102A5000F091D504309729F00190F081E02D09958F
:102A6000089580E008950F931F930E94FF14882318
:102A700029F00E9433061F910F9108950E9433069A
:102A80000091A3031091A4032091A5033091A60304
:102A9000600F711F821F931FEECFCF92DF92EF92D4
:102AA000FF926B017C010E94FF148823A1F02FB7D5
:102AB000F8946091D9047091DA048091DB049091CC
:102AC000DC042FBF6C197D098E099F09FF90EF90E0
:102AD000DF90CF9008950E943315F4CF4F925F920C
:102AE0006F927F928F929F92AF92BF92CF92DF921E
:102AF000EF92FF92609101047091020480910304AF
:102B0000909104040E944D156B017C010E943315C5
:102B10004B015C018092010490920204A092030494
:102B2000B0920404A091D803E8EDF3E08A2F90E07E
:102B30004FEF5FEF60E070E04C195D096E097F09AF
:102B4000A91328C08093D80380910504811135C052
:102B500090912C05892F837019F0892F8695869581
:102B600090915001913009F441C0992341F1923084
:102B700009F43FC0933009F43FC0FF90EF90DF901D
:102B8000CF90BF90AF909F908F907F906F905F900D
:102B90004F900895218D328D2901712C612C44159F
:102BA00055056605770520F481509F5F3296C8CFA2
:102BB0002C0D3D1D328F218FF8CF80E0D1CF1092A8
:102BC0004D018092FA049092FB04A092FC04B09212
:102BD000FD0489E2E8EDF3E0AEEFB4E001900D9280
:102BE0008A95E1F781E080935001C7CF0E94910D53
:102BF000C4CF0E94AD06C1CF80912A05882351F031
:102C000046E050E06CE170E08CE295E00E94983084
:102C100010922A056091FA047091FB048091FC04E3
:102C20009091FD040E944D1560317105810591055B
:102C300008F4A3CF10925001A0CF80912B0580FF04
:102C400008C087E396E09F938F930E9492040F90B1
:102C50000F9085E380932C05809151019091520152
:102C6000A091530180932D0590932E05A0932F05DD
:102C70008FE7809330058FEF8093310546E050E079
:102C80006CE170E08CE295E00E94983010922A0589
:102C90000895CF9384E090E00E948A30C82F82E2AA
:102CA00090E00E948A30982F8C2FCF910895AFE04A
:102CB000B0E0EDE5F6E10C94CD2F8E010F5F1F4FD4
:102CC0008AE0D8011D928A95E9F786E3C82E81E053
:102CD000D82EF12CE12CAA24A394B12C26E3822E29
:102CE00021E0922EF60181916F018F3F09F442C0DD
:102CF000F894E82FE295EF70F0E021A18F70A50124
:102D000002C0440F551F8A95E2F7CA01922F982BF3
:102D100091A392A18095892382A3789400C0E0E3D7
:102D2000F1E0712C31E021912F3F09F46BC0A22F0B
:102D3000A295AF70B0E090968C9190E02F7002C099
:102D4000959587952A95E2F780FD5CC0832F782AB8
:102D5000330F8E169F0639F7F601319780818F3F2A
:102D600011F00E94DF0F50EA5A95F1F7F801EE0DCD
:102D7000FF1D70828FEFE81AF80A95E0E916F1045A
:102D800009F0B0CF4AE050E0B80187EA93E00E9432
:102D9000CC307C01892B41F08AE0F801A7EAB3E04E
:102DA00001900D928A95E1F71091B203E114F104BC
:102DB00059F181E0809371030E943F069093700364
:102DC00080936F0380916F03909170030E9424069B
:102DD000059778F0A7EAB3E0E12FF0E0E554FC4F67
:102DE0008CEA93E02D9121938A179B07D9F71092D3
:102DF000710381E090E0E114F10451F02F96EDE0D1
:102E00000C94E92F80E0A3CF809171038111DACF78
:102E10000E94FF14D82EE091B203DE011B967D01C3
:102E2000882309F495C085E01D928A95E9F70E2F55
:102E300010E005541C4FC0907A03B9E0BC1508F4AB
:102E400043C027EC3EE146E651E0B701C8010E94CD
:102E5000B814882309F45BC02EE63EE143E751E055
:102E6000B701C8010E94B814882309F450C023E7B1
:102E70003DE14BE751E0B701C8010E94B814882337
:102E800009F445C021E13DE146E851E0B701C80140
:102E90000E94B8148823D9F1F9E0FC1508F44FC05A
:102EA00010927A038091B10390E045E050E0B701C1
:102EB00085549C4F0E94CC3021E020937803892BCD
:102EC000C9F4D12C8D2D9ACF809172039091730308
:102ED0000E942406843F914008F0B3CF809178038C
:102EE000882309F4A3C085E0D7011D928A95E9F7EC
:102EF00010927803A091B103B0E0A554BC4F85E0D7
:102F0000FE013B9601900D928A95E1F7DBCF80910F
:102F10007A038F3F29F08F5F80937A038A3010F213
:102F20000E943F06909373038093720380912B0558
:102F300080FFD4CF84E493E00E94F903CFCF809147
:102F40002B0580FFADCF81E393E00E94F903A8CF6A
:102F5000F0E0E554FC4F85E0ADE8B3E001900D9260
:102F60008A95E1F765E070E08DE893E00E949106B4
:102F700080938C034091D40350E06091D30370E0C0
:102F800061537C4FC7010E94D9308B858093930396
:102F900061E070E0C7010E94910680939203C090A7
:102FA0009403D0909503E0909603F090970380915E
:102FB000740390917503A0917603B0917703C816BE
:102FC000D906EA06FB06D1F0C0927403D0927503CD
:102FD000E0927603F09277030E94FF1481110EC0F5
:102FE0000E943306C61AD70AE80AF90AC092A30358
:102FF000D092A403E092A503F092A60386E0E8E94C
:10300000F3E0ACE2B5E001900D928A95E1F7109102
:103010009E03112349F080910504811105C00E948F
:10302000910D80E00E94AD061093050480E0E6CE8D
:103030000F931F93CF93DF9380916903909168035F
:10304000892B8093F60290916A03992391F0892B42
:103050008093F60220E088EF92E0FC013191CF01ED
:1030600031112F5FF2E08E3F9F07B9F721110E94C7
:10307000D41148E050E060E673E086EF92E00E94F1
:10308000CC30892B09F441C088E0E6EFF2E0A0E6FD
:10309000B3E001900D928A95E1F7E091D404F091AC
:1030A000D504309791F10280F381E02D86EF92E014
:1030B000099580912B0582FF28C080FF04C087EB13
:1030C00091E00E94F903D0E0C0E001EB11E08091B3
:1030D0002B0580FF0EC0FE01EA50FD4F80811F923C
:1030E0008F931F930F930E9492040F900F900F9055
:1030F0000F902196C830D10551F780912B0580FFA4
:1031000004C08FEA91E00E94F903DF91CF911F91F3
:103110000F91089590E080E00E947B0690E080E0AF
:103120000E946506109268030E9418180895609323
:10313000B3037093B4038093B5039093B6030E94D6
:103140008A1808950F931F9341E050E060E070E00B
:1031500004C0440F551F661F771F8A95D2F7CB0115
:10316000BA0160957095809590950091B303109188
:10317000B4032091B5033091B603602371238223F9
:1031800093230E9497181F910F91089590915F03C8
:103190008095892380935F03282F277091F4282F2F
:1031A000082E000C330B9217130659F09091B803B8
:1031B00092FF07C08595859585950E94A21810926B
:1031C0005F0308950F931F9341E050E060E070E0CB
:1031D00004C0440F551F661F771F8A95D2F7809150
:1031E000B3039091B403A091B503B091B6038A01E3
:1031F0009B01082B192B2A2B3B2BC901B8010E94DC
:1032000097181F910F91089560936B0370936C034F
:1032100080936D0390936E030E948A180895109214
:103220006903E8EFF2E086E0DF011D928A95E9F795
:103230000E948A180895AAE2B0E0E1E2F9E10C9454
:10324000D72F82EF94E02091F100DC012D93CD0186
:10325000B4E08A3F9B07B9F78091F304833009F407
:1032600070C0B8F4813009F447C0823009F4B1C0AD
:103270008091E80083FF84C28091F2049091F3046E
:103280009A3008F07DC2E92FF0E0E95FFE4C0C9423
:1032900052308A3009F48CC08B3009F46FC0893009
:1032A00039F78091F204813219F78091F6049091F8
:1032B000F7040297E8F68091E800877F8093E800A2
:1032C0008091E80082FF38C09091F3008091F20075
:1032D000029731F48091F100813011F0863021F4B1
:1032E0008091F1008093E5048091E8008B778093D2
:1032F000E8000E941505BCCF8091F204813A09F0E4
:10330000B7CF8091E800877F8093E8008091F60432
:103310009091F704892B61F468E086EE94E070E008
:103320000E94C1058091E8008B778093E800A0CFD0
:1033300060E090E080E0F3CF8091F0048111C0CF95
:1033400097CF8091F204813A09F092CF8091F604F0
:103350009091F704892B09F08BCF8091E800877F4B
:103360008093E8008091E80080FFFCCF80914C01C1
:103370008093F1008091E8008E77B9CF8091F204BC
:10338000813209F075CF8091F6049091F704892B72
:1033900009F06ECF8091E800877F8093E8000E945B
:1033A00015058091F40480934C010E940F1960CFA1
:1033B0008091F204813209F05BCF8091E800877F31
:1033C0008093E8000E9415058091F5048093E40441
:1033D0004FCF8091F204813A09F04ACF8091E80002
:1033E000877F8093E8008091E80080FFFCCF809188
:1033F000E404BECF803899F0823809F0C1C18091D1
:10340000F6048F70873008F0BBC18093E90080918B
:10341000EB0085FB882780F91092E90006C08091B7
:10342000EE049091EF04911182609091E800977FF3
:103430009093E8008093F1001092F1008091E800F1
:103440008E779AC1882309F488C1823009F098C127
:103450008091F40481118BC18091F6048F702FEF5D
:10346000280F263008F08CC18093E9002091EB00F2
:1034700020FF7DC1933031F48091EB008062809316
:10348000EB0075C19091EB0090619093EB0021E00F
:1034900030E001C0220F8A95EAF72093EA001092EB
:1034A000EA008091EB008860EACF811169C1109138
:1034B000F4041F778091E3008078812B8093E300F0
:1034C0008091E800877F8093E8000E941505809135
:1034D000E80080FFFCCF8091E30080688093E300E8
:1034E00082E0111183E08093F0044AC18058823059
:1034F00008F046C12091F4043091F5042C3DE3E03E
:103500003E07A1F583E08A838AE289834FB7F89466
:10351000DE01139620E03EE051E2E32FF0E050930D
:103520005700E49120FF03C0E295EF703F5FEF701A
:103530008E2F90E0EA30C0F0C7968D939D932F5F59
:10354000243159F74FBF8091E800877F8093E800CE
:103550006AE270E0CE0101960E94C1058091E80008
:103560008B778093E8000CC1C096E7CF8091F6047A
:103570009091F704432F55274330510509F44AC071
:1035800078F54130510509F47AC08BE590E0EFE61B
:10359000F6E04230510509F0F3C02091E800277FA2
:1035A0002093E8002091F8043091F90482179307E2
:1035B00008F49C0140E02115310509F065C0411176
:1035C00063C08091E80082FDC9CF8091F004882318
:1035D00029F2853019F28091E80083FFF2CFBECF47
:1035E0004132510509F43CC04232510509F0C8C0CE
:1035F0008330910508F0C4C0FC01EE0FFF1FE152BB
:10360000FE4F0190F081E02D84529E4FDC018C91A1
:1036100090E01AC0332721303105D1F02115310552
:1036200061F02230310509F0ABC0ECEDF6E0E49139
:103630008E2F90E0ECEDF6E007C0E6E0F7E0E491D5
:103640008E2F90E0E6E0F7E0009709F499C0A5CF4F
:10365000E6EFF6E0E4918E2F90E0E6EFF6E0F4CFAF
:103660008330910508F08CC0880F991FFC01EB5145
:10367000FE4F0190F081E02D89E090E08ECF82E155
:1036800090E0EAECF6E089CF8091F004882309F419
:1036900065CF853009F462CF8091E80083FD5ECF6D
:1036A0008091E80082FD8DCF8091E80080FF83CF7C
:1036B0009091F3008091F2002115310519F08830C6
:1036C000910550F041E0089709F040E08091E80052
:1036D0008E778093E8006FCF44914093F10031964C
:1036E000215031090196E8CF803809F049C0809116
:1036F000E800877F8093E8008091F1048093F100D7
:103700009DCE81113DC01091F4041230C8F5809116
:10371000E800877F8093E8001093F1040E9415056C
:10372000112311F084E005C08091E30087FDFACFFA
:1037300081E08093F00442E061EC81E00E94340576
:1037400042E261EC82E00E94340542E261EC83E0F7
:103750000E9434058091F00413C08091F4048130FC
:1037600079F481E0933009F080E08093EF041092C7
:10377000E9008091E800877F8093E8000E941505AA
:103780008091E80083FF0AC08091E800877F8093E2
:10379000E8008091EB0080628093EB00AA96E3E062
:1037A0000C94F32F0E940F192FEF84E39CE021501B
:1037B00080409040E1F700C0000088E19CE00FB637
:1037C000F894A895809360000FBE90936000FFCF9F
:1037D000882321F00E94DA110E9418180895882386
:1037E00039F090916903982B909369030E941818FF
:1037F0000895882391F19CEF980F913A80F4E8EFB7
:10380000F2E02EEF32E09191891303C0DF011197AE
:103810001C922E173F07B9F70E941818089590E2DE
:10382000980F983050F4877091E001C0990F8A95F5
:10383000EAF7892F0E94DA11EFCF9BE5980F9330BA
:1038400028F490E080E00E947B060895885A873132
:1038500020F490E080E00E9465060895CF93C82F81
:103860008823B1F08CEF8C0F813A00F5E8EFF2E09D
:103870008EEF92E0DF012D91C21761F08A179B074E
:10388000D1F76C2F86EF92E00E944B060E94181829
:10389000CF9108952191C21303C0DF0111971C92AB
:1038A0008E179F07B9F70E941818EBCF80E28C0F94
:1038B000883068F4C77021E030E001C0220FCA955B
:1038C000EAF780916903822B80936903DFCFEBE5F0
:1038D000EC0FE33040F4F0E0EF56FE4F808190E0D3
:1038E0000E947B06D5CFC85AC73190F6EC2FF0E086
:1038F000EE0FFF1FEC56FE4F808191810E946506FE
:10390000C7CF1F93CF93DF93182FEB010E942E1C7C
:10391000209739F4812F0E94F91BDF91CF911F91DD
:1039200008958FE99FE00197F1F700C0000021970B
:10393000EFCF0F931F93CF93DF93C62FD42F022F78
:10394000FC0182818823A9F0609329050E943F062B
:103950009093280580932705C77081E001C0880FE8
:10396000CA95EAF70E94EF1BDF91CF911F910F914B
:10397000089580912905681334C08091270590919E
:1039800028050E942406883C910558F510E21D0F79
:10399000CD17B9F080E28C0F883040F4C77081E019
:1039A00001C0880FCA95EAF70E94E81B183048F456
:1039B00081E09D2F977001C0880F9A95EAF70E94C9
:1039C000EF1B70E060E0802F0E94811C183060F6D1
:1039D000D77081E001C0880FDA95EAF70E94E81BF2
:1039E000C3CFC77081E001C0880FCA95EAF7F6CF50
:1039F00081110CC070E0662331F060E089EA0E941A
:103A0000811C80E0089560E08AEAF9CF8130C9F72F
:103A100070E0662319F060E08EE4F1CF60E08BE4A3
:103A2000EECFA7E0B0E0E7E1FDE10C94D62F86E011
:103A3000ECE2F5E0DE01119601900D928A95E1F736
:103A4000809105048F8347E050E068E973E0CE0180
:103A500001960E94CC3000919F031091A003209109
:103A6000A1033091A203EFB7F8944091D90450918B
:103A7000DA046091DB047091DC04EFBF401B510B52
:103A8000620B730B443651056105710518F411E0A2
:103A9000892B21F18091290190912A0184579C4F13
:103AA0004091280150E04830510510F047E050E0C7
:103AB000BE016F5F7F4F0E94D93085E090E00E9489
:103AC000522F182F882351F00E94330660939F03D2
:103AD0007093A0038093A1039093A203812F279654
:103AE000E4E00C94F22FA4E0B0E0E9E7FDE10C94EF
:103AF000D72F409188035091890360918A03709178
:103B00008B032FB7F8948091D9049091DA04A09197
:103B1000DB04B091DC042FBF841B950BA60BB70B05
:103B200011E084369105A105B10570F10E943315AD
:103B30006E5F7F4F8F4F9F4F69837A838B839C8308
:103B4000809121019091220184579C4F4091200146
:103B500050E04530510510F044E050E0BE016F5F89
:103B60007F4F0E94D93084E090E00E94522F182F9E
:103B7000882351F00E943306609388037093890371
:103B800080938A0390938B03812F2496E3E00C9417
:103B9000F32F4F925F927F928F929F92AF92BF923C
:103BA000CF92DF92EF92FF920F931F93CF93DF9309
:103BB0000F92CDB7DEB7C62E4A015901482E880FA5
:103BC0005508C2010E94522F782E882309F480C024
:103BD000C20133E0880F991F3A95E1F7FC01E050EC
:103BE000FF4F438150E04115510511F041E050E095
:103BF00080509F4FFC016481758164577C4FCE01DA
:103C000001960E94D930F401408151816281738113
:103C10002FB7F8948091D9049091DA04A091DB0435
:103C2000B091DC042FBF841B950BA60BB70B843619
:103C30009105A105B10540F4B701C8010E949106A4
:103C40009981891709F444C00C2C000CDD08C601C9
:103C50000E94522F782E811113C0712C872D0F9046
:103C6000DF91CF911F910F91FF90EF90DF90CF9058
:103C7000BF90AF909F908F907F905F904F900895EE
:103C8000C60123E0880F991F2A95E1F7FC01E05057
:103C9000FF4F438150E0E416F50608F4A701805079
:103CA0009F4FFC016481758164577C4FC5010E9460
:103CB000D930B701C8010E94910699818913CDCFEF
:103CC0000E943306F4016083718382839383C6CF9D
:103CD000A701B801C5010E94D930C0CFA1E0B0E072
:103CE000E4E7FEE10C94D12FEE24E394F12C03E9F8
:103CF00013E09E012F5F3F4F44E853E063E082E012
:103D00000E94C91DC82E882339F100E080E01DC043
:103D1000D090BA03D00E2D2D30E0A90141535C4F55
:103D20007A01E1E0F0E0EC0FFD1FE00FF11D1081E2
:103D3000FA019081191BB12E1B149CF0912F17FDD5
:103D400090E0191B111118C00F5F9091B90309176A
:103D5000F8F281110E94D1118C2D2196E9E00C948A
:103D6000ED2FBA94F70180818F5F808360E08D2D05
:103D70000E94F81C8C2DE0CF1F5FF70180818150DD
:103D8000808361E08D2D0E94F81C8C2DDBCFA5E097
:103D9000B0E0EDECFEE10C94D22F6B0185E0E82E53
:103DA000F12C0DE813E09E012F5F3F4F40E853E0F8
:103DB00061E080E00E94C91D882349F095E0FE0182
:103DC0003196ABE7B3E001900D929A95E1F795E05B
:103DD000EBE7F3E0D60101900D929A95E1F7259675
:103DE000E8E00C94EE2F68EE7EEF90E080E00E9419
:103DF000C63060E082E090E00E94A83060E083E09E
:103E000090E00E94A83010926B0310926C03109205
:103E10006D0310926E0360E084E090E00E94A83091
:103E200064E082E290E00E94A83060E085E090E0EB
:103E30000E94A83060E086E090E00E94A8306FEF1A
:103E400087E090E00E94A83040E050E0BA0188E0AE
:103E500090E00E94BA3060E08DE090E00E94A830CF
:103E600040E050E0BA0188E190E00E94BA3060E0A2
:103E700087E190E00E94A83040E050E0BA018CE178
:103E800090E00E94BA3070E060E080E290E00E9432
:103E9000C63040E050E0BA0188E190E00E94BA30BC
:103EA00040E050E0BA018FE090E00E94BA3040E07C
:103EB00050E0BA0183E190E00E94BA300895CF93B8
:103EC000DF93D82FC091B803C2FB882780F98D17E4
:103ED00011F1D0FBC2F9C093B8036091B70384E03D
:103EE00090E00E94A8306C2F82E290E00E94A830FF
:103EF00082E00E94C61880912B0580FF0CC01F92A3
:103F0000DF938AE991E09F938F930E9492040F9030
:103F10000F900F900F90DF91CF910895A5E0B0E042
:103F2000E4E9FFE10C94CA2F7C01FC0183819481B8
:103F3000892B31F08081918189238F3F09F0D8C48A
:103F40002596E0E10C94E62F0E94EB11182F682FC4
:103F500089819A810E94691269817A81812F0E94E8
:103F600039108C01843FFCE59F0709F483C018F5E4
:103F7000893D9C4509F47AC00A3D8CE5180709F48F
:103F800089C0083D9CE5190709F526E241EE61EE7E
:103F9000C7010E94991C80915F03877089F2F70125
:103FA0008281882369F28091B80382FFC9CF82E0C1
:103FB0000E94C618C5CF863FECE59E0709F462C093
:103FC00008F45CC0873F9C4509F460C0F70182811A
:103FD000882309F49EC4109229050430FDE51F07CB
:103FE00008F05BC00B3F2CE5120730F4C80182508B
:103FF0009C45449708F05BC00E9449169093B80313
:104000008093B70301319CE5190709F42BC108F02F
:10401000A7C00930FCE51F0709F40EC108F072C003
:1040200005303CE5130709F4FFC008F057C0033022
:104030009CE5190709F4EEC008F0F2C08091B703BF
:1040400081600230FCE51F0709F4E7C06091B70307
:104050001091B80384E090E00E94A830612F82E2C2
:1040600090E00E94A8300E940F1995CF27E245EEFC
:1040700065EE8ECF26E241EE60EE8ACF27E245EE76
:1040800064EE86CF26E241EE62EE82CF27E245EE75
:1040900066EE7ECF28E241E0EBCF02363DE5130726
:1040A00009F4AACF063A8DE5180709F4A5CF063121
:1040B0002CE5120709F0B6C4809169038A7A91E071
:1040C00009F490E09093FE0269E2811165E386EFC6
:1040D00092E00E944B060E9418185DCF8091B703B2
:1040E000806207302CE5120709F497C08091B7036E
:1040F000806108303CE5130708F48FC08091B70356
:1041000080648BC00D308CE5180709F49FC0A0F4C3
:104110008091B7038E7F0B30ECE51E0709F47DC05C
:104120008091B7038C600C30FCE51F0708F475C064
:104130008091B7038D7F71C08091B7038F7E0F3060
:104140002CE5120709F469C08091B703877F00311D
:104150003CE5130708F461C08091B7038F7D5DC013
:104160000E3F8CE5180709F479C058F50531ECE5E8
:104170001E0709F481C098F48091B703837F03314F
:104180002CE5120709F449C008F470C00E940F1909
:104190009091B703892F97FB87F980583EC00C3F59
:1041A0008CE5180709F444C008F054C08091B803A6
:1041B00081600B3FECE51E0709F048CF8093B80300
:1041C00045CF0230FDE51F0709F462C090F48091ED
:1041D000B8038C7F01153DE5130781F398F18091B9
:1041E000B803982F909591708E7F892B90FB81F961
:1041F000E5CF02369DE5190709F450C0063AEDE512
:104200001E0709F452C00330FDE51F0709F01ECF59
:1042100060E03FC08091B70382608093B70316CF00
:104220008091B7038460F9CF8091B7038860F5CFA0
:104230008091B8038260C2CF0E940F198091B703AA
:104240008068EBCF8091B8038360B8CF8091B703CB
:104250008B7FE3CF8091B8038E7FB0CF8091B8037E
:104260008D7FACCF8091B7038F7BD7CF0E940F1982
:104270008091B7038F77D1CF8091B70382FB9927C5
:1042800090F921E0922790FB82F990FB83F9C5CF4A
:1042900061E08EE090E00E94A830D8CE9091B70304
:1042A000892F8F7E94FF8061B8CF9091B703892FBB
:1042B0008E7F90FF8160B1CF8091FE0281110FC08F
:1042C00089E2E8EFF2E02EEF32E09191891303C02A
:1042D000DF0111971C922E173F07B9F7FCCE85E33B
:1042E000F0CF4CE053E166E173E10E94A70653CEA4
:1042F00046E153E16CE073E1F8CF45E853E16FE844
:1043000073E1F3CF4FE853E165E873E1EECF4BE69D
:1043100053E168E773E1E9CF48E753E16BE673E106
:10432000E4CF4EE553E161E573E1DFCF47EB53E1C5
:1043300062EC73E1DACF42EC53E167EB73E1D5CF86
:1043400081E00E94D91227CE8DE0FBCF90912B0502
:10435000892F8E7F90FF816080932B0580FF05C0A1
:1043600089E891E00E94F90316CE87E791E0FACF41
:104370000E94F31E0E94D21B8091B80382FB882703
:1043800080F991E089270E945F1FF70182810081F7
:104390001181882309F445C0C8010E94EB11D82E71
:1043A000682FC8010E946912B8018D2D0E94391032
:1043B0000E9454108C01882EF701D280958092942F
:1043C0003FE0932280915F038770C1F0BD2CDD2018
:1043D000B1F0812F807F803421F080E2800F88301F
:1043E00068F08091B80382FF09C082E00E94C6187D
:1043F00080915F038770BB24B3948111B12CA12EEF
:10440000A2942FE0A222FBE0FA1508F476C0EA2D70
:10441000F0E0EF5EFE4C0C94523081E0B4CF80E0CF
:10442000B2CFC8010E943412D82EBECF212F2F70D8
:10443000C22E107F19F0C29490EFC922DD20B9F08E
:10444000CC2069F080E2800F883010F0811009C024
:1044500080916903C82AC09269030E941818802FAE
:104460004AC080916803C82AC0926803F6CF802FA3
:104470000E94F91BCC2009F440C0005E083010F007
:10448000811004C08C2D0E94DA1106C0C094809166
:104490006803C822C09268030E9418182EC0312FEA
:1044A0003F70C32E107F103219F0C29480EFC822E3
:1044B000882089F081E0881609F477C0DD2009F4AE
:1044C00081C0992009F477C0F701858180FFC7CFAB
:1044D0008F70858370C02091B80322FD43C0DD201A
:1044E000D9F1CC2039F080916903C82AC0926903C0
:1044F0000E94181880E00E942E1CEA2DE850FF0B45
:10450000349710F40E942215BB20A9F080915F031C
:1045100080FD11C0F70112828595859585950E94D1
:10452000E218C7010E948E1F80915F0385958595D3
:1045300085950E94A21885E0F701DE011196019091
:104540000D928A95E1F709811A81C8010E943412FF
:10455000B8010E943910F4CC80E00E94F91BCC20F5
:1045600061F290CFDD20A1F090916A038C2D892B10
:10457000911003C00E94EF1BC0CFE1E09E12FACF62
:1045800022FFBBCF981709F4B8CF80936A03B5CF49
:10459000911006C00E94D4118C2D0E94E81BADCF53
:1045A000F1E09F1609F4A9CFF5CFDD2031F025E029
:1045B000291508F4A2CF8C2DDDCF34E0391508F48D
:1045C0009CCFEACF992041F3F9E38F128AC12FEFF4
:1045D00037EE83E0215030408040E1F700C000001A
:1045E00080C1812F86958695837061F0813009F0B6
:1045F00084CFC8019370D11002C090E080E00E9487
:1046000065067BCFC8019370D11002C090E080E0B6
:104610000E947B0672CF812F837009F066C0D11093
:104620006CCF802F829586958770880F880F602FBA
:104630006F70462E512C712C612C082E04C0440C36
:10464000551C661C771C0A94D2F740E050E0BA0172
:1046500004FF0FC04FE050E060E070E004C0440F82
:10466000551F661F771F8A95D2F740955095609524
:104670007095812F869586958370823019F1D8F4D4
:1046800000916B0310916C0320916D0330916E03C8
:10469000813069F04429552966297729CB01BA016F
:1046A00060237123822393230E94041926CF402A7A
:1046B000512A622A732ACB01BA01642975298629F5
:1046C0009729F2CF442955296629772900916B0350
:1046D00010916C0320916D0330916E03CB01BA01F0
:1046E0006027712782279327DFCF8695DD2011F081
:1046F000812F8170882309F400CF802F82958695C1
:104700008770880F880F602F6F70462E512C712C88
:10471000612C082E04C0440C551C661C771C0A949E
:10472000D2F740E050E0BA0104FF0FC04FE050E084
:1047300060E070E004C0440F551F661F771F8A9524
:10474000D2F74095509560957095812F8695869506
:104750008370823019F1D8F40091B3031091B4033F
:104760002091B5033091B603813069F04429552971
:1047700066297729CB01BA01602371238223932311
:104780000E949718BACE402A512A622A732ACB0176
:10479000BA016429752986299729F2CF4429552918
:1047A000662977290091B3031091B4032091B503D2
:1047B0003091B603CB01BA01602771278227932776
:1047C000DFCF1F70DD2029F0812F0E94E218802F9B
:1047D000D1CE802F0E94E81B812F0E94A2188DCE7F
:1047E000802F92EF891609F43FC0981570F0E0EF22
:1047F0008E16D1F0F1EF8F1691F0DD2009F46CC028
:1048000091102DCE812F8F7133C023EF821699F135
:1048100034EF8312F2CF8091B80382FD3FC0812F25
:104820008F71DD20D1F224C0DD20C9F084E089152C
:1048300008F463CE1F7161E070E080E090E004C096
:10484000660F771F881F991F1A95D2F70091B3033F
:104850001091B4032091B5033091B603ADCF95E02C
:10486000991508F44ACEE6CF812F8F71D110B5CFBC
:104870000E94E21842CE60E070E0CB01DD2009F436
:104880007FCF1F7161E070E080E090E004C0660FB0
:10489000771F881F991F1A95D2F772CFDD2089F0F4
:1048A0001F71812F0E94E2188091B80382FF07C018
:1048B000E8E01E9FC0011124836080935F03812F75
:1048C000D7CF81E00E94C618F1E0F91508F015CEA7
:1048D00082E00E94C61811CE992039F0893309F47C
:1048E00076CE802F0E94F91B08CE812F8F7175CF55
:1048F00085E0DE01119601900D928A95E1F7F701AE
:10490000228189819A8121111FCB0E943412182F94
:1049100023CB0631FCE51F0709F4CECC8091690357
:1049200082720B3C2CE5120709F4FBCC08F050C056
:10493000063C9CE5190709F4E0CCA0F5043CFCE535
:104940001F0709F4CECC08F0D3CC033C3CE5130799
:1049500009F01BCD80912C05982F937021E09227B0
:104960008C7F892B80932C051092500180912A0511
:10497000816080932A0580912B0580FF0CCB1F92CC
:104980009F938FE591E09F938F9380E491E09F93B5
:104990008F930E9492040F900F900F900F900F90A2
:1049A0000F90F9CA083C9CE5190709F4B0CC08F44B
:1049B000A9CC093CFCE51F0709F4AECC41E553E165
:1049C0006EE573E10A3C2CE5120709F48ECCDDCCD0
:1049D000003D3CE5130709F4B7CC98F40D3CECE539
:1049E0001E0709F4A8CC08F4A1CC0E3C2CE5120754
:1049F00009F4A6CC85E00F3C3CE5130709F4A1CCF3
:104A0000C4CC073D8CE5180738F482E1023D9CE5F3
:104A1000190708F496CCBFCA0E35EDE51E0709F458
:104A2000BACAB3CC0B35FDE51F0709F4F6CC08F084
:104A30003DC001303CE5130709F488CC0F3D8CE5FF
:104A4000180709F495CC01151C4509F09ECC0E946D
:104A50000F193FEF84E39CE0315080409040E1F734
:104A600000C0000081E08093E00080E28093D800E5
:104A70001092C900EFE1FEE43197F1F700C00000A9
:104A800087E090EBDC018093320590933305A0938F
:104A90003405B093350588E19CE00FB6F894A895ED
:104AA000809360000FBE90936000FFCF0D35EDE561
:104AB0001E0709F461CC08F4B2CC083A1D4509F48C
:104AC00059CC63CC1F93CF93DF9380912C03807FCD
:104AD00009F049C080912903882309F444C08091DA
:104AE0005E03D0912D036091270370912803A0915C
:104AF0002A03B0912B03C62FC72316E0D81799F1CC
:104B000090E0109711F0CF3F19F401968770F6CF1F
:104B1000189F9001199F300D1124F901E25DFC4F9F
:104B200041814713F2CF40814613EFCF42814111BB
:104B3000ECCF438154814A1B5B0B483C510528F75D
:104B400080912C038F70806180932C03F901ED5CC0
:104B5000FC4F80818F708061808387E293E00E94A8
:104B60008E1F0E94E111DF91CF911F910895A1E165
:104B7000B0E0EDEBF5E20C94D02F8C0185E0F8016C
:104B8000DE011D9601900D928A95E1F7F801E28011
:104B900087E2A82E83E0B82E60912A0370912B0340
:104BA0006115710509F426C19091270340912803EE
:104BB000892F84238F3F09F41DC120813181C38057
:104BC000D480F0902903F601E61BF70BFF2009F4CF
:104BD000DCC080912C03582F507FE83CF10508F091
:104BE0009FC051116BC0FE2C431314C0921312C00E
:104BF000E11010C08F70806180932C03C5010E946A
:104C00008E1F80912C03F80185838F2D6196EAE039
:104C10000C94EC2FC114D10429F0822F83238F3FF1
:104C200009F003C180E0F82FF170DF2E80FF3CC057
:104C300080915E0340912D0356E0841315C02D87AB
:104C40003E878D859E850E942712292F22952F70E1
:104C50002230F0F0243018F59F70F1F0F8019581C2
:104C6000907FD1F4D12C1EC090E0589FF001599F45
:104C7000F00D1124E25DFC4F6181361306C06081A6
:104C8000261303C06281E6120FC001968770D5CF4C
:104C90009F7011F0882331F3805E883018F3C801CB
:104CA0000E948E1FFD2CB1CFEE2009F4AECF809173
:104CB0002C03816080932C03F12CA7CF431306C0F3
:104CC000921304C0F801EE2009F479C0C8010E94D3
:104CD000A112882309F1EE20F9F080912C03803293
:104CE00070F0209127033091280338872F8319868D
:104CF000DB86CA868C87CE0107960E948E1F86E0CF
:104D0000F801A7E2B3E001900D928A95E1F70E94C5
:104D10006225FF24F39479CFC8010E948E1FF9CF3A
:104D200051110AC087E293E00E948E1F86E0F501D0
:104D300011928A95E9F7C0CF43130FC092130DC0AB
:104D4000E1100BC0F8018583C8010E948E1F86E028
:104D5000F50111928A95E9F758CFC8010E94A11276
:104D60008823D1F2EE20C1F280912C03803238F2F8
:104D700020912703309128033A8329831B82DD8207
:104D8000CC828E83CE010196B8CFE83CF105F8F6CF
:104D9000FE2CEE2009F243131FC092131DC0809118
:104DA0002C0380FD10C0982F907F69F0F801858357
:104DB000903F31F0982F907F905F8F70892B858383
:104DC000C8010E948E1F86E0F801A7E2B3E00190BF
:104DD0000D928A95E1F719CFC8010E94A1128111A5
:104DE0008ECF80912C03816080932C03C8010E9498
:104DF0008E1F0BCFEE2009F48FCFC8010E94A112A5
:104E0000F82E882309F488CF86E0F801A7E2B3E002
:104E100001900D928A95E1F78091270390912803E4
:104E20000E9427120E946225F0CE81E08E25FBCEE3
:104E3000A7E1B0E0EEE1F7E20C94D72F4B8B5C8B4F
:104E40006D8B7E8B8F8B6111109268031A8A198A81
:104E500085E0FE017396DE011D9601900D928A9504
:104E6000E1F786E0FE013D96DE01179601900D9276
:104E70008A95E1F7CE0107960E94B725882359F05D
:104E800016E080915E0390912D03891343C06796CD
:104E9000E3E00C94F32F86E0FE013796DE011196D5
:104EA00001900D928A95E1F78A859B85892B41F3C4
:104EB0008F81988589238F3F19F320912D0330E04E
:104EC000C90101968770992740915E03481719061A
:104ED00071F40E940F1910922D0310925E0386E068
:104EE000E7E2F3E0DF011D928A95E9F7C9CF96E08A
:104EF000929FD001939FB00D1124A25DBC4FFE0183
:104F0000319601900D929A95E1F780932D030E94BE
:104F1000E111B6CF819FC0011124825D9C4F0E9498
:104F2000B725882309F4B3CF80915E0390E0019602
:104F30008770992780935E03A4CF1F920F920FB6BC
:104F40000F9211242F933F934F935F936F937F930F
:104F50008F939F93AF93BF93CF93DF93EF93FF9381
:104F6000D091E900DF708091EC00C82FC17080FD06
:104F7000C0E81092E9008091F000877F8093F000F4
:104F800078940E941B191092E9008091F0008860CB
:104F90008093F000CD2BCF70C093E900FF91EF918B
:104FA000DF91CF91BF91AF919F918F917F916F9141
:104FB0005F914F913F912F910F900FBE0F901F90D7
:104FC00018951F920F920FB60F9211242F933F93B3
:104FD0004F935F936F937F938F939F93AF93BF9301
:104FE000EF93FF938091E10082FF15C08091E20072
:104FF00082FF11C08091E1008B7F8093E1002091BE
:10500000E2042F5F822F62E30E94FF2F992309F4AD
:10501000C0C02093E2048091DA0080FF28C0809114
:10502000D80080FF24C08091DA008E7F8093DA0060
:105030008091D90080FFE3C080E189BD82E189BD14
:1050400009B400FEFDCF81E08093F0048BE596E08B
:105050000E94F9038091E304811109C00E949B041E
:105060000E9466058091E20084608093E200809156
:10507000E10080FF1BC08091E20080FF17C080919B
:10508000E2008E7F8093E2008091E2008061809355
:10509000E2008091D80080628093D80019BC85E03E
:1050A0008093F00483E696E00E94F9038091E1008A
:1050B00084FF2FC08091E20084FF2BC080E189BD76
:1050C00082E189BD89B5982F917080FFFBCF8091D7
:1050D000D8008F7D8093D8008091E1008F7E8093EF
:1050E000E1008091E2008F7E8093E2008091E200F7
:1050F00081608093E2008091F104882309F489C0E3
:1051000084E08093F00487E696E00E94F9038091A2
:10511000F0048091E10083FF2BC08091E20083FFC7
:1051200027C08091E100877F8093E10082E0809337
:10513000F0041092F1048091E1008E7F8093E100F1
:105140008091E2008E7F8093E2008091E200806196
:105150008093E20042E060E080E00E9434058091AC
:10516000F00088608093F0008BE696E00E94F903DF
:10517000FF91EF91BF91AF919F918F917F916F912F
:105180005F914F913F912F910F900FBE0F901F9005
:1051900018951092E2048091E104882309F43BCF32
:1051A0008091F0048430C1F49091E9009F702091C7
:1051B000EC00822F817020FD80E8892B93E0909392
:1051C000E9009091EB0090FF04C09091EE0097FDF4
:1051D00008C08F708093E9001092E1041CCF1092F8
:1051E000F1009091E80095FDFACF9091E80090FFD2
:1051F000F0CF9091E8009E779093E800EACF19BC39
:105200001092F0048FE596E00E94F9031092E304F7
:105210002ECF8091E30087FD93E09093F00473CF4D
:1052200078941F921FB61F9211248F939F93AF9370
:10523000BF938091D9049091DA04A091DB04B091DE
:10524000DC040196A11DB11D8093D9049093DA046A
:10525000A093DB04B093DC04BF91AF919F918F9139
:105260001F901FBE1F9018951F921FB61F921124EA
:105270008F939F93AF93BF938091D804811113C0F4
:105280008091D9049091DA04A091DB04B091DC0400
:105290004196A11DB11D8093D9049093DA04A09387
:1052A000DB04B093DC04BF91AF919F918F911F906D
:1052B0001FBE1F901895CDB7DEB72D970FB6F89487
:1052C000DEBF0FBECDBF85B7806885BF85B780685C
:1052D00085BF84B7877F84BF0FB6F894A895809167
:1052E0006000886180936000109260000FBE80E8CB
:1052F00090E00FB6F89480936100909361000FBE28
:105300008DEC93E19093F5028093F4020E949B044C
:105310000E9466058091E20084608093E2007894A8
:105320008091F0048823A1F01091E9001F70909102
:10533000EC00892F817090FD80E8182B1092E90015
:105340008091E80083FD0E941B191F701093E900F3
:1053500082E084BD93E095BD9AEF97BD80936E0087
:105360001092A3031092A4031092A5031092A60317
:105370000E94980A80933B010E94FF1481110E94B1
:10538000662E80913B0181112CC085E0E4E5F1E0BF
:10539000DE01179601900D928A95E1F78F81809337
:1053A00036018885809337018985809338018A8505
:1053B000809339018B8580933A0186E0E9E5F1E03D
:1053C000DE01119601900D928A95E1F7FE0131966A
:1053D000A0E3B1E0CE01079621912D938E179F0790
:1053E000D9F780913B0195E0811190E09093B20351
:1053F00085E0891B8093B10306E311E02BE3E22EE5
:1054000021E0F22ED8018D918D018F3F11F00E9485
:10541000DF0FE016F106B1F700E311E096E3E92EA5
:1054200091E0F92EF80181918F018F3F11F00E94D8
:10543000DF0FE016F106B1F78AE0EBEBF3E0DF01F6
:10544000282F1D922A95E9F7E7EAF3E0DF011D9284
:105450008A95E9F790E080E00E949230883E9E4F66
:1054600011F00E94F31E82E090E00E948A30809347
:105470002B050E9449169093B8038093B70383E0ED
:1054800090E00E948A30682F70E090E080E00E94F7
:1054900004191092FE048FEF9FEF909318058093EC
:1054A000170590931A058093190590931C05809316
:1054B0001B0590931E0580931D05909320058093F6
:1054C0001F059093220580932105909324058093D6
:1054D000230590932605809325051092D803909379
:1054E000F2038093F1039093F4038093F30390937A
:1054F000F6038093F5039093F8038093F70390935A
:10550000FA038093F9039093FC038093FB03909339
:10551000FE038093FD03909300048093FF0390E0CB
:1055200080E00E949230883E9E4F81F080912B0552
:1055300080FF08C081ED94E09F938F930E949204B6
:105540000F900F900E94F31E0E941D1646E050E03F
:105550006CE170E08CE295E00E947A3010922A05AE
:1055600080912C058C7F71F480912B0580FF08C001
:105570008CE794E09F938F930E9492040F900F907A
:105580000E941D1680912B0580FF89C082E694E061
:105590009F938F930E94920480912B050F900F9000
:1055A00080FF7DC080912C0583701F928F9383E4D0
:1055B00094E09F938F930E94920480912B050F900B
:1055C0000F900F900F9080FF6AC080912C058695F8
:1055D00086951F928F9386E294E09F938F930E940B
:1055E000920480912B050F900F900F900F9080FFE9
:1055F00056C080912D051F928F9388E094E09F9371
:105600008F930E94920480912B050F900F900F9022
:105610000F9080FF44C080912E051F928F938AEED9
:1056200093E09F938F930E94920480912B050F909B
:105630000F900F900F9080FF32C080912F051F9226
:105640008F938CEC93E09F938F930E9492048091B0
:105650002B050F900F900F900F9080FF20C080912E
:1056600030051F928F938EEA93E09F938F930E9451
:10567000920480912B050F900F900F900F9080FF58
:105680000EC0809131051F928F9380E993E09F9324
:105690008F930E9492040F900F900F900F90909113
:1056A0003B0181E098279093D303F82FF91BF093E7
:1056B000BA0390913B018093D40390913B01809376
:1056C000B90380913B01811106C083E380934901B6
:1056D00082E38093480180914901E82FE295EF70C1
:1056E000F0E061A18F7021E030E0A90101C0440F1A
:1056F0008A95EAF7942F9095962391A382A1842B03
:1057000082A390914801E92FE295EF70F0E041A16A
:105710009F70B90102C0660F771F9A95E2F7CB011F
:10572000962F9095942391A392A1892B82A38FE821
:1057300091E00197F1F700C000001091D40365EDEE
:1057400073E049E451E088E4E82E81E0F82EFB01A3
:1057500028C0DA012D91AD01822F82958F7090E0E3
:10576000DC0190968C9190E02F7002C09595879502
:105770002A95E2F78170D7019D917D01292F22950D
:105780002F7030E0D90190962C9130E09F7002C0CC
:10579000359527959A95E2F790E020FD92E0892BC8
:1057A00081938E2F861B8117A0F20E94FF14811116
:1057B00002C00E94692E8CE391E09093D5048093FF
:1057C000D40481E1482E85E0582E09E0602E05E0E2
:1057D000702E8091F004853081F483E095E00E9482
:1057E000F90300E112E18091F0048530A1F10E94FB
:1057F0000F190E942215109205040E94571681115C
:105800000E943306B5ECCB2EB3E0DB2E1BEBA12EB2
:1058100013E0B12E10E000E00D87D5013D905D0151
:10582000F60121906F0123105EC00F5F1F4F0A30F9
:10583000110591F78FEF8F83888719860E943F06A5
:105840008160782F9B878A874F81588569858B85F2
:105850000E941827D3C08091F004843009F432C02C
:105860000E946E1580910504811105C00E94910D62
:1058700080E00E94AD06B1E0B09305041092D80418
:10588000E8E1F0E020E40FB6F894A895E09360001A
:105890000FBE2093600083B7817F846083BF83B78E
:1058A000816083BF7894889583B78E7F83BF0FB65E
:1058B000F894A895809160008861809360001092B0
:1058C00060000FBE8091EF04882309F48CCF0E9402
:1058D0005716EBEBF3E0819181118AC153E0E53C6F
:1058E000F507C9F780CF80912B0581FDC5C0232422
:1058F000F12CEE24E394822D8E2109F403C10E9441
:10590000FF143E208823A1F0F9822D852A8381E0AF
:10591000311001C080E08B830E943F068160782FA8
:105920009D838C8349815A816B818D810E941827C8
:10593000F801EB53FC4F8081E826E082332089F0A8
:1059400086E0809FF001819FF00D1124E551FE4F0C
:10595000EF0DF11D8081312C8F3F19F08C8733249E
:105960003394032D10E08091D803800F912F911D67
:1059700009976CF188E090E07C01E01AF10AB80127
:1059800067527C4FA70189ED93E00E94D930B8019E
:105990006F517C4FA70181EE93E00E94D930A7019F
:1059A000440F551FB801660F771F6F507C4F81EF72
:1059B00093E00E94D930B80167517C4FA70189EE6E
:1059C00093E00E94D93088E083198093D8038091B6
:1059D000D80390E05C85A52FB0E09D01220F331F16
:1059E000295D3D4FAA0FBB1FBD01685D7D4F41E0A2
:1059F000480F931508F470C08093D8030E94FF14D9
:105A00000E946E15C12CB12C94E0E92EF12C8091EE
:105A1000D403C81608F47CC0B1100E94D1110E94B2
:105A20002215182F8091D703181709F4D2CE10939E
:105A3000D70380912B0582FFCCCE80FFCACE8CE2AB
:105A400095E00E94F90380912B0580FFC2CE1F9242
:105A50001F9387E295E09F938F930E949204809119
:105A60002B050F900F900F900F9080FFB2CE85E224
:105A700095E00E94F903A9CE86E195E00E94F90322
:105A8000ABEB8A2EA3E09A2EF12CE12CFF92EF9241
:105A90005F924F920E9492048EE095E00E94F9037B
:105AA000D4018D914D010E94C1121F928F937F925C
:105AB0006F920E94920487E095E00E94F903BFEF85
:105AC000EB1AFB0A0FB6F894DEBF0FBECDBFFAE0AB
:105AD000EF16F104D9F60BCF90E0FC01E852FC4F31
