:100000000C94B6020C94E4250C94FD020C94FD02B1
:100010000C94FD020C94FD020C94FD020C94FD0264
:100020000C94FD020C94FD020C94692D0C943B2E53
:100030000C94A4280C94FD020C94FD020C94FD0277
:100040000C94FD020C94FD020C94FD020C94FD0234
:100050000C94FD020C9419290C94FD020C94FD02E1
:100060000C94FD020C94FD020C94FD020C94FD0214
:100070000C94FD020C94FD020C94FD020C94FD0204
:100080000C94FD020C94FD020C94FD020C94FD02F4
:100090000C94FD020C94FD020C94FD020C94FD02E4
:1000A0000C94FD020C94FD020C94FD02070507055B
:1000B000390539058605BA06BA06BA06A405390611
:1000C0004A064A06AA06BA06BA06B30656075607ED
:1000D000680768075F0768076807680756075607D5
:1000E0006407680768076407A82ECF2EC72FCF2E96
:1000F000C72F1B2F3E2FC72F952FA42F29001E007F
:100100001F002000210022002B0014001A0008000C
:1001100015001700E30004001600070009000A009C
:10012000E1001D001B000600190005000000000092
:10013000E0002D00015102512A0027002600250071
:10014000240023003100130012000C0018001C00D2
:10015000340033000F000E000D000B0028003800A3
:10016000370036001000110000000000F5002C00E0
:10017000F100F30035000100010001000100010061
:100180003A003B003C003D003E003F004000410083
:10019000420043004400450001000100010001004D
:1001A000010001000000000000000000000000004D
:1001B0002E000100010049000100010030002F0065
:1001C0004F08520050084B00010001004F00510041
:1001D00050004E000100010001000100010001007B
:1001E000000000000000000000000000C35CCE5CC6
:1001F00000000000000000000000C45CC65CC85C99
:10020000CA5CCC5C0000C55CC75CC95CCB5CCD5CE7
:1002100000000000000000000000000000000000DE
:100220000000000000000000000000005600550023
:1002300054002A00000000005700610060005F00C9
:100240005800580085005E005D005C0058005800B2
:1002500067005B005A005900000000006300620064
:10026000000000001E0F0500047F3F1F643214646D
:100270003214783C1E1E140A052223252628292A1A
:100280002C2D2F3032333536383A3B3D3E404243F9
:100290004547494A4C4E5051535557595A5C5E6038
:1002A00062646668696B6D6F71737577797B7D7F4A
:1002B00081838587898A8C8E90929496989A9C9E49
:1002C0009FA1A3A5A7A8AAACAEAFB1B3B4B6B8B965
:1002D000BBBCBEBFC1C2C3C5C6C7C9CACBCCCDCECD
:1002E000D0D1D2D2D3D4D5D6D7D7D8D9D9DADADBB0
:1002F000DBDBDCDCDCDCDCDDDDDDDDDCDCDCDCDC3C
:10030000DBDBDBDADAD9D9D8D7D7D6D5D4D3D2D27A
:10031000D1D0CECDCCCBCAC9C7C6C5C3C2C1BFBE62
:10032000BCBBB9B8B6B4B3B1AFAEACAAA8A7A5A3CD
:10033000A19F9E9C9A98969492908E8C8A8987858C
:1003400083817F7D7B79777573716F6D6B6968666B
:100350006462605E5C5A5957555351504E4C4A493D
:1003600047454342403E3D3B3A3836353332302FE5
:100370002D2C2A292826252322FFAA7F554000015B
:100380000101010101010101020202020202020255
:100390000203030303030303030404040404040427
:1003A00005050505050606060606070707070708EB
:1003B000080808090909090A0A0A0B0B0B0C0C0C9E
:1003C0000D0D0D0E0E0E0F0F0F1010111111121238
:1003D00013131414151516161717181819191A1AB5
:1003E0001B1B1C1D1D1E1E1F202021222223242416
:1003F000252626272829292A2B2C2D2D2E2F303152
:100400003232333435363738393A3B3C3D3E3F4063
:100410004142434445464748494A4C4D4E4F50514E
:100420005354555658595A5B5D5E5F616264656608
:1004300068696B6C6D6F7072737577787A7B7D7E8F
:100440008082838587888A8C8E8F91939596989ADF
:100450009C9EA0A2A3A5A7A9ABADAFB1B3B5B7BAF7
:10046000BCBEC0C2C4C6C9CBCDCFD1D4D6D8DBDDCB
:10047000DFE2E4E7E9EBEEF0F3F5F8FAFDFF18034D
:100480004900720069007300200052006500760088
:100490002E002000350000000E034B0065006500B3
:1004A000620069006F0000000403090409023B00B8
:1004B000020100A0FA090400000103010100092162
:1004C000110100012240000705810308000A090408
:1004D0000100010300000009211101000122320086
:1004E0000705820320000A12010002000000081024
:1004F000CB565200050102000105010980A10185CA
:100500000319012AB700150126B70095017510815E
:1005100000C0050C0901A101850419012AA00215DA
:100520000126A002950175108100C005010906A1F0
:1005300001050719E029E7150025019508750181D6
:10054000029501750881010507190029FF1500268C
:10055000FF00950675088100050819012905950514
:1005600075019102950175039101C00011241FBE10
:10057000CFEFDAE0DEBFCDBF04B603FE27C0809127
:10058000AE039091AF03A091B003B091B103873057
:10059000904BA740B04BD1F41092AE031092AF0332
:1005A0001092B0031092B10314BE84B7877F84BF4A
:1005B0000FB6F894A89580916000886180936000E0
:1005C000109260000FBEE0E0F8E3099512E0A0E0B1
:1005D000B1E0E0E4F3E602C005900D92A232B1076B
:1005E000D9F723E0A2E2B2E001C01D92AE3AB20711
:1005F000E1F70E9436170C949E310C94000081E0C4
:10060000089581E008950C94010308950C94050366
:100610001F93CF93DF9300D000D01F92CDB7DEB7EA
:1006200049835A836B833091240289819A813111E5
:1006300014C0662359F0222349F00E94FC08182FA9
:10064000682F89819A810E94A30803C00E94CF0865
:10065000182F69817A81812F04C00E94FC0869816A
:100660007A810F900F900F900F900F90DF91CF91A4
:100670001F910C949B0FFC01262F408151816281B8
:10068000738184810C94080381E00895CF93DF93F4
:10069000EC0160E00E943B03BE01DF91CF910C941E
:1006A00006030E94AA110E94D2030E94B8210C9452
:1006B000E4110C94E01108950E9444070E945B032A
:1006C0002FEF84E39CE0215080409040E1F700C090
:1006D00000000C943F290F931F93CF93DF938C015D
:1006E00061E00E943B03EC01B8010E9403038823F0
:1006F00009F44BC0B801CE010E941921882309F4E6
:1007000044C0B801CE010E9495238823F1F1B801BD
:10071000CE010E94E7238823C1F1B801CE010E94D7
:100720001225882391F1B801CE010E94551F88231C
:1007300061F1F8018281882309F1CB358DE5D80775
:10074000C1F050F4C115FCE5DF0781F0CF3DDC4579
:10075000A9F40E94910E19C0CC35EDE5DE0761F0D9
:10076000CD35DD4559F40E941B0D08C00E945C0385
:100770000CC00E94240D02C00E94270DC801DF9109
:10078000CF911F910F910C94FF0280E0DF91CF91E8
:100790001F910F91089508950C94CB0381E0089563
:1007A0000C94CE030895CF93C82F0E94CC038C2FB6
:1007B0000E94D003CF910895CF93DF93CDB7DEB7DA
:1007C0002B970FB6F894DEBF0FBECDBF4F8358876F
:1007D00069877A878B8761110E944A0D9E012F5F7E
:1007E0003F4F86E0F90111928A95E9F785E0FE0115
:1007F0003796D90101900D928A95E1F789819A8106
:100800004C815D81452B31F09F3F31F491E08F3F6A
:1008100019F403C091E001C090E090FF09C0498144
:100820005A816B817C818D819E810E944A0C05C01A
:10083000C9010E9444038111F2CF2B960FB6F894A0
:10084000DEBF0FBECDBFDF91CF910895FC01808147
:1008500091810E943E090895CF93882309F448C0EE
:10086000C82F8CEF8C0F813AD0F46C2F809104014B
:10087000909105010E94BE27882349F06C2F80913A
:100880000401909105010E94F6270E947C0D6C2FB7
:1008900080910401909105010E94F4270CC080E230
:1008A0008C0F883058F4C77081E001C0880FCA955A
:1008B000EAF70E942D0DCF910C947C0DEBE5EC0F27
:1008C000E33040F4F0E0EF54FE4F808190E0CF91B0
:1008D0000C948627C85AC73158F4EC2FF0E0EE0F7D
:1008E000FF1FED57FE4F80819181CF910C949C2783
:1008F000CF910895882349F1682F8CEF860F813AB4
:1009000038F480910401909105010E94F6270CC0F3
:1009100080E2860F883050F4677081E001C0880F54
:100920006A95EAF70E94330D0C947C0D8BE5860FD7
:10093000833020F480E090E00C948627685A673179
:1009400020F480E090E00C949C2708951F93CF93AF
:10095000DF93182FEB010E942C04209741F08FE9C0
:100960009FE00197F1F700C000002197F6CF812F9B
:10097000DF91CF911F910C947A04893319F060E0D4
:1009800070E002C060E570E00C94A604882321F0BA
:100990000E942D0D0C947C0D0895882321F00E9457
:1009A000330D0C947C0D0895CF92DF92EF92FF925D
:1009B0000F931F93CF93DF937C01062FC72FFC016A
:1009C000D281158112951F700E94020D882399F023
:1009D000DD2389F08C2F807F803421F080E2800F2E
:1009E000883048F082E00E94CC0D0E94020D91E018
:1009F000D82ED92601C0D12CCC2EC2948FE0C8228B
:100A00008C2D90E0FC01EA5AFF4F0C9481308C2F22
:100A1000807FCF70882311F0C295C07FDD2399F0CD
:100A2000CC2309F482C180E2800F883010F00111DC
:100A300004C08C2F0E942D0D03C08C2F0E943D0DF1
:100A40000E947C0D72C1802F0E947A04CC2309F48D
:100A500091C180E2800F883010F0011104C08C2F0A
:100A60000E94330D03C08C2F0E94430D0E947C0D09
:100A700081C18C2F807FCF70803211F0C295C07FF2
:100A8000002319F00130C9F022C0DD2371F01123D9
:100A900041F0113031F40E945D0D8C2B0E94650DE8
:100AA00069C10E945D0D8C2B1DC0112319F01130FE
:100AB00009F460C10E94720D25C0DD2321F01630BB
:100AC00008F058C10EC0153008F054C11BC0DD231A
:100AD00061F0112331F0F701858180FF26C18F700D
:100AE00085838C2F0E94C60445C1112359F0093318
:100AF00009F02CC1FFEF27EE83E0F1502040804049
:100B0000E1F722C18C2F0E94CD0434C18C2F869531
:100B10008695837019F0813061F02CC1DD2321F0BE
:100B2000802F9C2F937002C080E090E00E94862767
:100B300029C1DD2321F0802F9C2F937002C080E01B
:100B400090E00E949C271EC18C2F837009F045C045
:100B5000D11114C1402F429546954770440F440F60
:100B6000602F6F70862F90E0A0E0B0E0042E04C0EC
:100B7000880F991FAA1FBB1F0A94D2F704FF10C049
:100B80000FE010E020E030E004C0000F111F221F32
:100B9000331F4A95D2F7009510952095309503C0E4
:100BA00000E010E09801C695C695C370BC01CD0168
:100BB000602B712B822B932BC23049F058F4C1303B
:100BC00019F00E94B907DAC00E94A707D7C00E9497
:100BD000CB07D4C00E94A507D1C0DD2319F08C2F0C
:100BE000817001C08695882309F4C8C0402F4295C2
:100BF00046954770440F440F602F6F70862F90E02A
:100C0000A0E0B0E0042E04C0880F991FAA1FBB1FEC
:100C10000A94D2F704FF10C00FE010E020E030E0AB
:100C200004C0000F111F221F331F4A95D2F70095F1
:100C300010952095309503C000E010E09801C6950E
:100C4000C695C370BC01CD01602B712B822B932BF9
:100C5000C23049F058F4C13019F00E947E088EC0AD
:100C60000E946C088BC00E94900888C00E94DF0719
:100C700085C0CF70DD2339F08C2F0E940508802FAE
:100C80000E94C6047BC0802F0E94CD048C2F0E943E
:100C9000260874C0023F01F128F4003F41F0013FF3
:100CA000A1F03FC0033FF9F0043F39F13AC0DD2322
:100CB00041F0153008F05EC08C2F8F710E944B08F8
:100CC00059C0163008F056C0F7CFDD2339F08C2F0D
:100CD0008F710E9405084EC0DD23C9F38C2F8F71E0
:100CE0000E94260847C0DD2329F08C2F8F710E94B7
:100CF000F00740C00E94EB073DC0DD2349F0CF71F3
:100D00008C2F0E94050863E08C2F0E94B10D32C029
:100D100081E00E94CC0D123068F182E00E94CC0D7F
:100D200029C0DD2331F0112391F2802F0E942C0481
:100D300021C0112399F2093349F49FEFE7EEF3E064
:100D40009150E040F040E1F700C00000802F0E9489
:100D50007A0410C04C2F4F70602FC7010E94970F6C
:100D60000E946C090FC04C2F4F70602FC7010E946A
:100D70009A0F08C088EF8C0D843020F40E946827F9
:100D80000E94D303DD20C9F00E94FE0C80FD15C037
:100D9000F70112820E94F80C0E940508C7010E9408
:100DA000FE060E94F80CDF91CF911F910F91FF90EA
:100DB000EF90DF90CF900C942608DF91CF911F9198
:100DC0000F91FF90EF90DF90CF9008950F931F93B6
:100DD000CF93DF93EC01688179818A810E94490970
:100DE0008C010E94A2080E949307B801CE010E94C4
:100DF000D404DF91CF911F910F910895CF93DF938A
:100E0000EC01988189812B813C81232B31F08F3F2C
:100E100031F481E09F3F19F403C081E001C080E01C
:100E200080FD19C0CE010E946B0381110CC00E948D
:100E3000020D882381F08A81882369F082E0DF91A6
:100E4000CF910C94CC0DCE010E94E606CE01DF912D
:100E5000CF910C944603DF91CF91089580E090E00C
:100E60000E94862780E090E00E949C270E944A0D05
:100E70000E945A0D0C947C0D809104019091050103
:100E80000E94F8270C942E070E943A0D0C943C0700
:100E9000E92FE295EF704E2F50E0FA013297EE30D5
:100EA000F105B0F4EA59FF4F0C948130803F91F086
:100EB00018F4883E68F40EC0843F51F40BC0883E9D
:100EC00048F0813F29F406C093FB882780F90895F4
:100ED00080E0089581E00895FC01808191810E9465
:100EE0003E090E9448070895CF93DF9300D000D0B9
:100EF0001F92CDB7DEB70F900F900F900F900F900D
:100F0000DF91CF910895CF93DF9300D000D000D030
:100F1000CDB7DEB726960FB6F894DEBF0FBECDBFB5
:100F2000DF91CF910895089508950C9494070C943F
:100F300095070E9497076093510270935202809325
:100F40005302909354020C942E070C9499070F931C
:100F50001F9300915102109152022091530230913F
:100F60005402602B712B822B932B1F910F910C94A9
:100F700099070F931F9300915102109152022091F3
:100F800053023091540260237123822393231F91D3
:100F90000F910C9499070F931F9300915102109198
:100FA0005202209153023091540260277127822708
:100FB00093271F910F910C9499070C9494070E940A
:100FC000DD0760934D0270934E0280934F02909321
:100FD00050020C942E0760E070E0CB010C94DF0708
:100FE0000F931F9341E050E060E070E08A019B01A5
:100FF00004C0000F111F221F331F8A95D2F7C901A9
:10100000B8011F910F910C94DF070F931F9341E0DC
:1010100050E060E070E004C0440F551F661F771F6A
:101020008A95D2F780914D0290914E02A0914F0285
:10103000B09150028A019B01082B192B2A2B3B2BC4
:10104000C901B8011F910F910C94DF070F931F93F3
:1010500041E050E060E070E004C0440F551F661F9F
:10106000771F8A95D2F7409550956095709580913D
:101070004D0290914E02A0914F02B09150028A0110
:101080009B01082319232A233B23C901B8011F917F
:101090000F910C94DF070F931F9341E050E060E045
:1010A00070E004C0440F551F661F771F8A95D2F762
:1010B00080914D0290914E02A0914F02B09150024A
:1010C0008A019B01082719272A273B27C901B80154
:1010D0001F910F910C94DF070F931F9300914D0206
:1010E00010914E0220914F0230915002602B712BD3
:1010F000822B932B1F910F910C94DF070F931F935B
:1011000000914D0210914E0220914F0230915002F9
:1011100060237123822393231F910F910C94DF0787
:101120000F931F9300914D0210914E0220914F0298
:101130003091500260277127822793271F910F91CA
:101140000C94DF070895292F220F920F990F890F12
:10115000E82FE695E695E695877051E001C0550FBA
:101160008A95EAF785E0E89FF0011124EB5DFD4FD9
:1011700020E030E070E04081CB01022E02C0969565
:1011800087950A94E2F781708195842785238427C7
:1011900081932F5F3F4F2530310569F70895292F3F
:1011A000220F920F990F890F682F669566956695A5
:1011B000982F977085E0689FB001112440E050E0BF
:1011C00080E0FB01E40FF51FEB5DFD4F208130E077
:1011D000092E02C0369527950A94E2F7217033272D
:1011E000042E01C0220F0A94EAF7822B4F5F5F4F53
:1011F0004530510531F70895BF92CF92DF92EF92BB
:10120000FF920F931F93CF93DF938C01C0904D02F9
:10121000D0904E02E0904F02F09050028091510227
:1012200090915202A0915302B0915402C82AD92A37
:10123000EA2AFB2ACFE1D0E0D701C6010C2E04C078
:10124000B695A795979587950A94D2F780FD04C027
:10125000219790F7B12C07C0BC2EB8018C2F0E94AB
:10126000CB100197A9F38B2DDF91CF911F910F9197
:10127000FF90EF90DF90CF90BF900895CF93DF93D2
:10128000EC010E94FC08BE010E94CB10DF91CF91BF
:1012900008951F93CF93DF93EB019091240299233C
:1012A00021F0CB010E943E0913C0882349F0CB01F5
:1012B0000E94FC08182F682FCE010E94A30804C0CA
:1012C000CB010E94CF08182FBE01812F0E94CB10A6
:1012D000DF91CF911F910895EF92FF920F931F938B
:1012E000CF93DF938C01892B09F46CC0F12CEE2491
:1012F000E394E8012196F8018491843740F4843026
:1013000008F051C0813081F0823019F15BC085371F
:1013100009F444C0A8F19CE7980F903708F052C038
:101320008F770E947A0441C00E5F1F4FFE018491A7
:1013300090E2980F983050F48770FE2D01C0FF0F97
:101340008A95EAF78F2F0E944D0D14C00E942C043D
:101350002DC00E5F1F4FFE01849190E2980F9830D0
:1013600060F48770FE2D01C0FF0F8A95EAF78F2F7A
:101370000E94530D0E947C0D19C00E947A0416C071
:101380000E5F1F4FFE01C491CC2381F08FE99FE0D7
:101390000197F1F700C00000C150F6CF0E5F1F4F5C
:1013A000FE01F49003C00E942C048E018F2D88232F
:1013B00009F49FCFEFE9FFE03197F1F700C000009B
:1013C0008150F5CFDF91CF911F910F91FF90EF905A
:1013D00008951F93CF93DF93C091550216E080913B
:1013E0005602C81799F0D0E01C9FF0011D9FF00D28
:1013F0001124E95AFD4F40815181628173818481BA
:1014000095810E9483072196C770E9CFDF91CF9124
:101410001F9108954091870250918802609189023E
:1014200070918A0280918B0290918C020C948307B8
:101430000F931F93CF93DF9380918C0282958F70CF
:1014400009F05DC080918902882309F458C0809119
:101450005502109156026091870270918802C091E6
:101460008A02D0918B0291E06F3F09F090E0292F22
:1014700006E0811709F443C0209721F07F3F21F057
:1014800030E003C031E001C0322F90E030FD34C0C5
:10149000089FF001099FF00D1124DF01A95ABD4FEB
:1014A00011963C911197371327C03C91361324C0F5
:1014B00012963C91129731111FC013964D915C9179
:1014C00014974C1B5D0B483C5105B0F480918C0285
:1014D0008F70806180938C02E45AFD4F80818F7001
:1014E0008061808387E892E00E94FE06DF91CF91C1
:1014F0001F910F910C94E90901968770BACFDF9183
:10150000CF911F910F9108959F92AF92BF92CF926A
:10151000DF92EF92FF920F931F93CF93DF93CDB79C
:10152000DEB761970FB6F894DEBF0FBECDBF8C015A
:1015300085E0F801DE011D9601900D928A95E1F794
:10154000F801E280909187026091880220918A02DE
:1015500030918B022115310531F06F3F31F481E07C
:101560009F3F19F403C081E001C080E0F82FF170C3
:101570009F2E80FD3FC1F80140815181A380B4803E
:1015800087E8C82E82E0D82EF0908902F501E21B90
:10159000F30BFF2009F4D9C080918C02E83CF105DF
:1015A00008F095C0282F207F09F052C0561313C0B1
:1015B000491311C0FE2CE1100EC08F708061809322
:1015C0008C020E940A0AC6010E94FE0680918C02CB
:1015D000F80185834CC1AB2831F05F3F31F481E0E5
:1015E0004F3F19F403C081E001C080E080FD03C0DB
:1015F00081E08E2502C080E090E0F82FF170FF2E90
:1016000080FF1CC0809155022091560236E082175F
:1016100009F40BC190E0389FF001399FF00D1124BF
:10162000E95AFD4F6181561306C06081461303C01D
:101630006281E61203C001968770E9CFFE2CEE208E
:1016400009F415C180918C02816080938C0254C092
:10165000561306C0491304C0E11002C0F80199C036
:10166000C8010E946C07882361F1EE2051F120919E
:101670008C02822F82958F7090E0029774F0809197
:1016800087029091880298878F831986BB86AA86E5
:101690002C87CE0107960E94FE0686E0F801A7E897
:1016A000B2E001900D928A95E1F70E94180A0E941B
:1016B0000A0A0AC0561711F1C8010E946C0781116D
:1016C0002CC0C8010E94FE06FF24F394D0C0282F2E
:1016D000207F81F77A2DB98AA88A6E2D89890E9488
:1016E000740787E892E00E94FE0686E0F6011192F8
:1016F0008A95E9F70E940A0AF12CB9C04913DCCF98
:10170000E110DACFF8018583C8010E94FE0686E069
:10171000F60111928A95E9F7AAC0EE2091F2209184
:101720008C02822F82958F7090E002970CF4B5CFD7
:1017300080918702909188029A8389831B82BD825F
:10174000AC822E83CE010196A6CFE83CF10508F0CD
:1017500044C0FE2CEE2009F4B4CF561330C0491318
:101760002EC020918C0220FD21C0822F82958F7087
:10177000482F50E041155105C9F0F80125834F303D
:10178000510541F08F5F982F9295907F822F8F7037
:10179000892B8583C8010E94FE0686E0F801A7E830
:1017A000B2E001900D928A95E1F73CC086E0F80125
:1017B000A7E8B2E001900D928A95E1F758C0C80100
:1017C0000E946C07811169CF80918C0281608093A7
:1017D0008C02C8010E94FE064AC07A2DB98AA88AE6
:1017E0006E2D89890E94740786E0F60111928A9510
:1017F000E9F718C0EE2009F464CFC8010E946C0715
:10180000F82E882309F45DCF86E0F801A7E8B2E05E
:1018100001900D928A95E1F787E892E00E942604F4
:101820000E94180A0E940A0A22C04D875E878D8591
:101830009E850E943E09292F22952F70223028F480
:101840009F7039F0811105C00BC0243028F49F70BF
:1018500049F4805E883020F0C8010E94FE069F2C6B
:10186000F92C05C0F8019581907F99F7F9CF8F2D5C
:1018700061960FB6F894DEBF0FBECDBFDF91CF915A
:101880001F910F91FF90EF90DF90CF90BF90AF909E
:101890009F9008951F93CF93DF93CDB7DEB72C971A
:1018A0000FB6F894DEBF0FBECDBF4F835887698750
:1018B0007A878B879C87CE0107960E94840A8823AB
:1018C000D1F09F8188852A853B85232B31F08F3F7E
:1018D00031F481E09F3F19F403C081E001C080E052
:1018E00080FD47C04F81588569857A858B859C85A9
:1018F0000E9483073EC086E0FE013796DE01119606
:1019000001900D928A95E1F7FF81E8856A857B85D4
:101910006115710531F0EF3F31F481E0FF3F19F4BB
:1019200003C081E001C080E080FD23C02091560209
:1019300030E0C9010196877099274091550250E027
:1019400084179507F1F1F983EA837D836C8396E030
:10195000929FD001939FB00D1124A95ABD4FFE0153
:10196000319601900D929A95E1F7809356020E946C
:10197000E90916E08091550290915602891771F19C
:10198000189FC0011124895A9D4F0E94840A882300
:1019900029F1E09155021E9FF0011124E95AFD4FF3
:1019A0004081518162817381848195810E94830786
:1019B0008091550290E00196877099278093550297
:1019C000D9CF0E9444071092560210925502E7E8C0
:1019D000F2E086E0DF011D928A95E9F72C960FB6BA
:1019E000F894DEBF0FBECDBFDF91CF911F91089558
:1019F00080918D02859585958595089580918D02BC
:101A00008770089590918D02977081E009F480E0CD
:101A100008959091570392FB222720F9281751F03F
:101A200080FB92F99093570380915603909157034E
:101A30000C940D0E08958091570382FB882780F93E
:101A400091E089270C94090D81E00C94090D80E048
:101A50000C94090D80919902089590919902892B17
:101A6000809399020895809590919902892380939B
:101A70009902089510929902089590919802892BE5
:101A8000809398020895809590919802892380937D
:101A90009802089510929802089590919702892BC8
:101AA000809397020895809590919702892380935F
:101AB0009702089510929702089580918E020895DA
:101AC00008950C94600D0C94610D9091570392FD54
:101AD00008C090918E02981721F080938E020C948A
:101AE000630D089580918E02882329F010928E0252
:101AF00080E00C94630D0895E0910401F0910501DC
:101B0000809199028083E0910401F0910501908118
:101B100080919802892B8083E0910401F091050166
:101B2000908180919702892B808380918E028823F7
:101B300081F0E0910401F09105019081892B80836F
:101B400080910401909105010E94B22781110E94A9
:101B5000720D80910401909105010C947B270C94E7
:101B6000600D9091570392FD10C098E0899F9001FD
:101B70001124262B20938D020E94050880918D024E
:101B80008595859585950C94AF0D0C94050810925C
:101B90008D0280E00C94AF0D20918D028095822300
:101BA00080938D02982F977041F430E0482F082ED3
:101BB000000C550B2417350721F49091570392FF21
:101BC00007C08595859585950E9426080C94C70DBC
:101BD000089580E090E00E94453121E0893E9E4FCB
:101BE00009F020E0822F089582E090E00C943731D4
:101BF00083E090E00C943731CF9384E090E00E9432
:101C00003731C82F82E290E00E9437312C2F30E02C
:101C1000A901582BCA01CF910895CF93C92F682FDE
:101C200084E090E00E944B316C2F82E290E0CF91F3
:101C30000C944B31AB01BC018FE090E00C945D3112
:101C4000AB01BC0183E190E00C945D3160E070E099
:101C5000CB010C94200E60E070E0CB010E941A0EC4
:101C60000C94260E69EE7EEF80E090E00E946931D0
:101C700060E082E090E00E944B3160E083E090E021
:101C80000E944B3110925102109252021092530254
:101C90001092540260E084E090E00E944B3160E0DA
:101CA00082E290E00E944B3160E085E090E00E948B
:101CB0004B3160E086E090E00E944B316FEF87E0AF
:101CC00090E00E944B3140E050E0BA0188E090E0A3
:101CD0000E945D3160E08DE090E00E944B3140E079
:101CE00050E0BA0188E190E00E945D3160E087E158
:101CF00090E00E944B3140E050E0BA018CE190E06E
:101D00000E945D3160E070E080E290E00E94693105
:101D100040E050E0BA0188E190E00E945D310C940F
:101D20002B0E0C94320E682F8EE090E00C944B3109
:101D30000E94E2286093AD027093AE028093AF02DE
:101D40009093B0026093A9027093AA028093AB02B1
:101D50009093AC0208950E94E2286093AD027093C4
:101D6000AE028093AF029093B0026093A50270938D
:101D7000A6028093A7029093A802089585B7806871
:101D800085BF85B7806885BF08950C94DB130895DF
:101D90000C94C70E0C94C70E0C94CA0E0C94C70E6C
:101DA0000C94CE0E0C94C70E0E94BE0E87EA91E1F1
:101DB0000E9463290E94D20E0C94D00E0E94C80E7D
:101DC0000C94C70E0E94CD280E94FF270E948A1201
:101DD0000E940A230E943D200E94351E0E94F72186
:101DE0000C94CC0E9F92AF92BF92CF92DF92EF9263
:101DF000FF920F931F93CF93DF93CDB7DEB72A9750
:101E00000FB6F894DEBF0FBECDBF0E9449138111FB
:101E10000E94980E8BE9A82E82E0B82E00E010E018
:101E2000902E802F0E94CE11D82EF501C1905F0117
:101E3000C826B1F40F5F1F4F0A30110589F78FEFE5
:101E400089838A831B820E94D6288160782F9D8394
:101E50008C8349815A816B818D810E94DC032FC064
:101E60008091B10281FD0E94D411E12CFF24F394F2
:101E70008C2D8F21F1F00E94C50E882399F0EE82FF
:101E80009F82DF2081E009F480E088870E94D628C5
:101E90008160782F9A8789874E815F8168858A85DE
:101EA0000E94DC03F801E556FD4F8081F826F082A0
:101EB00006C0E394FF0CF6E0EF12DACFBBCF0E942E
:101EC0006D1E0E94B7210E94582281110E94AB0E04
:101ED0000E94682790919A028917B9F00E9468279A
:101EE00080939A022A960FB6F894DEBF0FBECDBF3C
:101EF000DF91CF911F910F91FF90EF90DF90CF90E6
:101F0000BF90AF909F900C94D3032A960FB6F8948D
:101F1000DEBF0FBECDBFDF91CF911F910F91FF901C
:101F2000EF90DF90CF90BF90AF909F90089580E0AA
:101F300090E0089508952CE3829FC0011124FC01D4
:101F400026E0729FE00DF11D1124E60FF11DEE0F4A
:101F5000FF1FE450FF4F859194910895880F991FBA
:101F6000FC01EC59FD4F859194910895CF93DF9337
:101F70000E94D010EC01811520E5920708F041C0C5
:101F8000811540E4940708F0CBC0803E910520F510
:101F9000803C910508F0B8C0883A910570F4853A04
:101FA000910508F0A8C08130910509F4A1C008F49A
:101FB000EBC0049708F0EBC0E7C08F3B910508F039
:101FC000E3C0885AC82FD0E0CC0FDD1FCC54DE4FC1
:101FD000888199819464DCC0811550E2950750F4A2
:101FE000C11581E0D80708F0D2C0C83ED10508F479
:101FF000CEC0CAC0811520E3920708F08AC09F7046
:1020000085C0811545E5940708F046C0811554E563
:10201000950708F09DC0C11582E5D80718F5C115D0
:1020200021E5D20708F07FC0CE01F4E096958795B0
:10203000FA95E1F7282F23703C2F337081E090E070
:1020400002C0880F991F3A95E2F79C68922B2C2FBB
:102050002F702695269540E2249F90011124822B13
:10206000932B96C09E01237033279C2F96959695AF
:10207000C115D34508F05CC041E050E002C0440FF8
:10208000551F2A95E2F780E2989F90011124CA011A
:10209000822B932B9C687CC0811559E5950798F499
:1020A000C11588E5D80708F058C0C11526E5D20744
:1020B00008F06AC08C2F0E9464118F7190E0982FF5
:1020C0008827906265C081154AE5940708F44AC0E4
:1020D00090568115904208F057C08D2F8F710E9445
:1020E00064119E01332730628F71A901582B4AC0B9
:1020F00081E090E04DC0855AC82FD0E0CE51DE4F30
:10210000888190E0906444C0805C91090E94AE0F89
:102110003FC09927D3FF02C0986C3AC0906C38C07A
:102120009F70906A35C09C2F8827816F906A30C05D
:1021300041E050E002C0440F551F2A95E2F780E2CB
:10214000989F90011124CA01822B932B9A6820C07A
:10215000982F8827846F906A1BC09C2F8827806FD8
:10216000906A16C08F700E9464119E0194E03695AB
:1021700027959A95E1F72F7030E0322F22273069AA
:10218000A901482BCA0104C080E090E001C0CE0143
:10219000DF91CF9108950E949B0F0E94B60F089582
:1021A0008238910569F1B0F48133910509F46DC06D
:1021B00048F48932910509F463C08A32910509F423
:1021C00069C008958533910509F455C08933910597
:1021D000B9F00895833E910569F138F4803E910588
:1021E000B1F0823E910509F10895863E9105A9F16D
:1021F000873E9105B9F1843E910509F064C023C082
:102200002091560320FD4FC021FD4DC008958091BF
:10221000560380FD44C08091570380FF44C08091E5
:10222000560384FD42C083EE4DC08091560382FF69
:1022300038C0F5CF8091560382FD33C0809157039B
:1022400080FD31C0ECCF8091570381FF32C0809177
:10225000560384FD2AC087EE35C08091560383FF64
:1022600026C0F5CF8091560383FD21C0809157038E
:1022700081FD1FC0ECCF8091560385FD1CC01DC0A1
:102280008091560385FD19C016C08091560386FDC6
:1022900016C017C08091560386FD13C010C089E395
:1022A00011C082EE0FC080EE0DC080E00BC086EE44
:1022B00009C084EE07C089E205C085E303C08AE255
:1022C00001C081E390E008959091560392FF0DC004
:1022D000282F2871283019F4877F846006C0282FA2
:1022E0002471243011F48B7F886093FF0DC0282F58
:1022F0002871283119F4877E846106C0282F247143
:10230000243111F48B7E88612091570320FF0DC08A
:10231000382F3871383019F4877F816006C0382F24
:102320003171313011F48E7F886021FF0DC0282F6C
:102330002871283119F4877E816106C0282F217108
:10234000213111F48E7E886194FD877E089580E0AE
:10235000089508950E94E90D811102C00E94910E16
:102360000E94F40D8093B1020E94FC0D90935703DC
:10237000809356030E94A9110E94F80D682F70E007
:1023800080E090E00E94A50760914D0270914E029E
:1023900080914F02909150020C94DD07E82FF0E0FD
:1023A000EE59FC4F80810895089580EA8A95F1F7EF
:1023B000089500C008950C94D51108950C94DD1172
:1023C0000C94DE110C94DD110C94E211F894E82FBA
:1023D000E295EF70F0E031A1282F2F7081E090E0BE
:1023E00001C0880F2A95EAF7982F9095932391A31F
:1023F00092A1892B82A37894089508950C94FD11DD
:102400000F931F93CF93DF93CCE0D1E089918F3F5F
:1024100011F00E94E61181E0C131D807B9F7C6E09A
:10242000D1E00CE011E089918F3F11F00E94E6119C
:102430000C171D07C1F7DF91CF911F910F910895E0
:10244000CF92DF92EF92FF920F931F93CF93DF9380
:102450008C01C62FD0E0CE01845F9E4F7C01FC0131
:1024600090819F3F09F44DC0D62EF894E92FE29554
:10247000EF70F0E081A19F7021E030E001C0220FF9
:102480009A95EAF7822B81A382A12095282322A383
:1024900078940E94D911E6E0F1E020E030E0C12C10
:1024A00051E041914F3FB1F0A42FA295AF70B0E041
:1024B00090968C9190E04F7002C0959587954A95C3
:1024C000E2F780FD07C0852F022E01C0880F0A9415
:1024D000EAF701C080E0C82A2F5F3F4F2630310560
:1024E00001F7F70180818F3F11F00E94E61161E052
:1024F000C11001C060E08D2D0E94DB11C00FD11F03
:10250000C882DF91CF911F910F91FF90EF90DF90E4
:10251000CF900895CF93DF93CDB7DEB760970FB616
:10252000F894DEBF0FBECDBF0E94F3138091160159
:10253000811131C0FE0131962AE0DF011D922A95FA
:10254000E9F721E3298322E32A8322E92B8321EF80
:102550002C8324EF2D83CF01ECE0F1E09E01255F79
:102560003F4FDC014D91CD014193A217B307C9F74D
:1025700026E0EDE7F1E0DE011B9601900D922A9531
:10258000E1F7FC01A6E0B1E0CE01419621912D9347
:10259000E817F907D9F780911601811102C095E07B
:1025A00001C090E090936D0385E0891B80936C03DC
:1025B0000E940012E8E5F3E0A2E6B3E011921D925A
:1025C00083E0E236F807D1F785E00E949D130E9470
:1025D000510360960FB6F894DEBF0FBECDBFDF91FA
:1025E000CF910C9407140F931F93CF93DF9300D0D8
:1025F00000D01F92CDB7DEB70E94DB1360916D0350
:10260000882379F18E010F5F1F4F85E0F801119249
:102610008A95E9F7862F90E0B8018E599C4F0E9469
:102620001514E0916C039E012A5F3F4FF0E0EE59D4
:10263000FC4FD801882361F010E08D9190819817AC
:1026400011F0808311E03196A217B307B1F706C0ED
:1026500011921D92A217B307D9F711E00E945903F6
:102660000DC070E06E597C4F80916C0390E08E59E4
:102670009C4F0E94A5140E94FE1110E0812F0F9024
:102680000F900F900F900F90DF91CF911F910F91AE
:102690000895EF92FF920F931F93CF93DF93CDB7DF
:1026A000DEB72A970FB6F894DEBF0FBECDBF8E01FE
:1026B0000F5F1F4F8AE0F80111928A95E9F7F12C1C
:1026C0006F2DC8010E942012F394F5E0FF12F8CF9D
:1026D0004AE050E0B80188E593E00E9421317C0196
:1026E00021E0892B09F420E0E114F10441F08AE0B3
:1026F000F801A8E5B3E001900D928A95E1F76091A9
:102700006D0370E06E597C4F45E088E593E00E94D0
:102710009E13EF2819F40E94F31202C081E090E0AA
:102720002A960FB6F894DEBF0FBECDBFDF91CF91D2
:102730001F910F91FF90EF9008950895FF920F93CE
:102740001F93CF93DF938C01F62ED72FC42F222314
:1027500049F081E08093B4020E94D6289093B3029E
:102760008093B2028091B4028823C1F08091B202BA
:102770009091B3020E94EE28059780F0EF2DFD2F77
:10278000D8014C2F50E0CD01801B910B8417950789
:102790001CF48D918193F7CF1092B402DF91CF9109
:1027A0001F910F91FF90089555985D9889B185FB11
:1027B000882780F908958091B70281110DC00E9489
:1027C0000030811102C082E001C081E08093B70235
:1027D000823011F40E94FB2F81E09091B70291307A
:1027E00009F080E008950E94D4138093160180912F
:1027F000160166E0882311F080E001C086E00E94A7
:10280000D6170E94DB1381110C944D1408950E9479
:10281000DB13811102C00C944F14089581E0909154
:10282000B8029A3008F080E008950F931F93CF9379
:10283000DF93EC018B018091B8028A3038F4B80143
:10284000CE010E94A31481111DC00AC08091B5025F
:102850009091B6020E94EE28843F914080F715C007
:102860008091B8028F3F19F08F5F8093B8028091FA
:10287000B8028A3060F00E94D6289093B602809306
:10288000B50203C01092B80202C080E001C081E02E
:10289000DF91CF911F910F9108950C949E250C9478
:1028A000A125EF92FF920F931F93CF93DF937901AE
:1028B000C82F880FDD0B41155105A9F08AE08C9FC8
:1028C000F0018D9FF00D1124E95EFE4F838194810C
:1028D00087549D4F228130E04217530708F49A0134
:1028E000A9010E942E31CE010E94AB26892B09F549
:1028F0000115110501F18AE08C9FF0018D9FF00D0B
:102900001124E95EFE4F458150E00417150708F4D5
:10291000A8018AE08C9FF0018D9FF00D1124E95EE3
:10292000FE4F6681778167547D4FC7010E942E312B
:1029300002C080E001C081E0DF91CF911F910F9133
:10294000FF90EF9008950C9497160C94CB16AF92CD
:10295000BF92CF92DF92EF92FF920F931F93CF938C
:10296000DF93C82F7B01D42F69015801FB016081DF
:102970007181828193810E94FD28643671058105F1
:10298000910510F4DD23A1F000E010E020E030E03C
:10299000A501B6018C2F0E945114C82F882349F03D
:1029A0000E94E228F701608371838283938301C0D0
:1029B000C1E08C2FDF91CF911F910F91FF90EF908D
:1029C000DF90CF90BF90AF9008950F931F93CF9358
:1029D000DF93CDB7DEB728970FB6F894DEBF0FBEF2
:1029E000CDBFCE0101960E94281D41E0888581114E
:1029F00001C040E008E010E09E012F5F3F4F67EE0E
:102A000072E086E00E94A714182F81110E94251DF4
:102A1000812F28960FB6F894DEBF0FBECDBFDF9191
:102A2000CF911F910F9108950F931F93CF93DF9331
:102A30001F92CDB7DEB70E942220882319F00E9492
:102A4000372001C080E08983E091E501F091E60143
:102A500041E09485981301C040E001E010E09E0140
:102A60002F5F3F4F63EE72E085E00E94A7140F9046
:102A7000DF91CF911F910F9108950F931F93CF93E3
:102A8000DF9300D000D0CDB7DEB76091DF02709148
:102A9000E0028091E1029091E2020E94FD286436FA
:102AA00071058105910528F10E942528DC01CB01E3
:102AB0000296A11DB11D89839A83AB83BC8300E07C
:102AC00010E020E030E044E050E0BE016F5F7F4F57
:102AD00084E00E945114182F882361F00E94E2289C
:102AE0006093DF027093E0028093E1029093E20230
:102AF00001C011E0812F0F900F900F900F90DF9188
:102B0000CF911F910F9108957F928F929F92AF92D4
:102B1000BF92CF92DF92EF92FF920F931F93CF93CA
:102B2000DF931F92CDB7DEB7762E4A0159016801B7
:102B300001E010E09E012F5F3F4F40E050E060E079
:102B400070E00E945114182F882379F1F4016081FC
:102B50007181828193810E94FD286436710581050F
:102B60009105E0F08701950140E050E060E070E001
:102B7000872D0E945114182FB701C6010E940B2304
:102B800091E02981281390E01923A1F00E94E22806
:102B9000F40160837183828393830CC0B701C60103
:102BA0000E940B2399818913DDCFA701B601C501CE
:102BB0000E942E31812F0F90DF91CF911F910F91A5
:102BC000FF90EF90DF90CF90BF90AF909F908F904D
:102BD0007F900895EF92FF920F931F93CF93DF930F
:102BE0001F92CDB7DEB70091E5011091E601095FB4
:102BF0001F4FEE24E394F12C9E012F5F3F4F4BEDCE
:102C000052E063E082E00E948415182F882321F0AF
:102C1000CE0101960E94CB22812F0F90DF91CF91A0
:102C20001F910F91FF90EF900895CF92DF92EF9256
:102C3000FF920F931F93CF93DF9300D000D01F928A
:102C4000CDB7DEB76B010091E5011091E6010F5F92
:102C50001F4F85E0E82EF12C9E012F5F3F4F47ED7F
:102C600052E061E080E00E948415882349F095E0FD
:102C7000FE013196A2EDB2E001900D929A95E1F736
:102C800095E0E2EDF2E0D60101900D929A95E1F720
:102C90000F900F900F900F900F90DF91CF911F9199
:102CA0000F91FF90EF90DF90CF900895AF92BF9279
:102CB000CF92DF92EF92FF920F931F93CF93DF9308
:102CC0007C015B016A010E940E14811103C001E0C6
:102CD00010E002C00AE010E0C1E0D0E0F894B501D5
:102CE000C701F60109957894811115C021960C173A
:102CF0001D0794F0CC9F9001CD9F300D300D112415
:102D000080E090E045E34A95F1F7000001968217D4
:102D10009307C1F7E3CF81E0DF91CF911F910F912E
:102D2000FF90EF90DF90CF90BF90AF9008950F93FA
:102D30001F93CF93DF93EC018B0145E156E10E9495
:102D40005616882311F14AEE55E1B801CE010E94D2
:102D500056168823D1F04DE355E1B801CE010E940B
:102D60005616882391F044E155E1B801CE010E9446
:102D70005616882351F045EE54E1B801CE01DF919B
:102D8000CF911F910F910C94561680E0DF91CF9157
:102D90001F910F910895CF92DF92EF92FF920F93C0
:102DA0001F93CF93DF931F92CDB7DEB7F8940091B6
:102DB000E5011091E601C801019625E0FB01DC0167
:102DC00001900D922A95E1F765E070E00E940B23D7
:102DD000F80180837894F894CE0101960E94C22273
:102DE0008981F801878361E070E0CE0101960E943D
:102DF0000B23F80186837894F89460857185828529
:102E00009385C090CE02D090CF02E090D002F09097
:102E1000D1026C157D058E059F0551F06093CE02A1
:102E20007093CF028093D0029093D1020E94082821
:102E30007894F894F80184850E944E217894F8944F
:102E4000F8018489882339F060E0C8010D960E945A
:102E5000001EF801148A78940F90DF91CF911F9192
:102E60000F91FF90EF90DF90CF9008950E94492836
:102E70000E94A62A0E94BF2A0E94D12A0E94DE0E2A
:102E8000FBCFEF92FF920F931F93CF93DF938B01B2
:102E9000682F11110AC0442329F0E82FF0E0E2580E
:102EA000FC4F6491762F862F75C0212F30E0E82FDC
:102EB000F0E0442321F0E258FC4FE491F0E046E0DA
:102EC000049FC0011124CFEFD0E0BE010E94373033
:102ED0004BEA4603C001479F900D1124800F911DBE
:102EE000800F911D982F990F890FAE01421B530B34
:102EF0004E9FD0014F9FB00D5E9FB00D11249B2FB0
:102F0000189FA0011124452F55278E01041B150B76
:102F10000E9FA0010F9F500D1E9F500D11247E018A
:102F2000E81AF108E29E8001E39E100DF29E100D5A
:102F30001124212F3327C21BD30BCE9F9001CF9F8B
:102F4000300DDE9F300D112462307105A9F048F478
:102F50006115710569F061307105C9F48B2F752F0A
:102F60000DC06430710581F058F06630710579F458
:102F70007E2F8B2F932F0DC0832F7B2F9E2F09C069
:102F80008E2F7B2F952F05C08E2F732F02C07E2F83
:102F9000852F692FDF91CF911F910F91FF90EF90B7
:102FA000089541E00E94411708950895E0E6F1E098
:102FB0008083618308950E94D1170895CF93DF9392
:102FC000762FE901682F842F0E94DB1779836883AD
:102FD0008A83DF91CF91089580916F03282F2695E2
:102FE00030E02115310519F48170826005C02B3263
:102FF000310524F08170846580936F03089588E023
:1030000090E00C943F31CF92DF92EF92FF926B01F0
:103010007C010E94EC17B701A60188E090E0FF90C8
:10302000EF90DF90CF900C945D31EFE6F3E087E115
:10303000808311828FEF828380E883831482A4E3EC
:10304000B3E012968C911297836012968C936081F4
:103050007181828193810C94031880916F0380FFAA
:1030600002C08695089580E008959091730393308F
:1030700018F49F5F90937303882351F060916F035E
:103080007091700380917103909172030C940318F6
:10309000089581E00C94351890917303992319F0E9
:1030A000915090937303882351F060916F03709156
:1030B000700380917103909172030C94031808952A
:1030C00081E00C944C1870E00C94C821609161016F
:1030D00080916F0380FF0AC08091600123E0829F8E
:1030E000C00111248C589C4F0C946318809162018C
:1030F00090916301891780F7E82FF0E09F01220F7C
:10310000331FE20FF31FEC58FC4F11821082128222
:103110008F5FF0CF90916F0390FF16C09091620186
:1031200020916301921770F4E92FF0E0DF01AA0FFC
:10313000BB1FEA0FFB1FEC58FC4F81836083428367
:103140009F5FF0CF0C9466180895CF93DF9300D063
:103150001F92CDB7DEB790916F0390FF0AC09E011A
:103160002F5F3F4F0E94DE174B8169818A810E9449
:103170008A180F900F900F90DF91CF910895CF9301
:10318000DF93EC01EC81F0E0E758FD4F4491EFE66E
:10319000F3E0628181810E94A5188C818F5F8C830E
:1031A000DF91CF910895CF93DF93EC01EFE6F3E049
:1031B000438162818C810E94A5188C818F5F8C83F2
:1031C000DF91CF9108950F931F93CF93DF9300D09A
:1031D0001F92CDB7DEB78C018091EB0281110AC03E
:1031E0009E012F5F3F4F4FEF6FEF0E94DE178A81E6
:1031F0008093EB02F8018481813051F028F0823015
:1032000061F44091EB020AC08091EB0240E007C0FC
:103210006091EB0240E080E003C040E080E060E0CD
:103220000E948A18F801848190E0019663E070E0C2
:103230000E944B3084830F900F900F90DF91CF91BD
:103240001F910F910895AF92BF92CF92DF92EF92AC
:10325000FF920F931F93CF93DF9300D01F92CDB7B0
:10326000DEB7182FF62E042FE22E90916F0390FFF9
:103270007EC0E92FE695AE2FB0E0A951BE4F8C91EC
:10328000809334039E7F923061F49E012F5F3F4F05
:10329000812F0E94DE174B8169818A810E948A18E2
:1032A00043C0823019F4009172033EC0863019F495
:1032B0001091700339C08930D9F38931A9F5E951EA
:1032C0008E2F8170D82EE695F0E0E758FC4FA59040
:1032D000B490C12CBB2460916401C61618F52C2D46
:1032E00030E0A29EC001A39E900DB29E900D1124CD
:1032F00070E00E943730812FD11002C0860F01C0CC
:10330000861B90916201290F311DA901440F551FA1
:10331000240F351F2C583C4F402F6F2D0E94DE1775
:10332000C394D9CF0E94661880917003181308C007
:1033300080917103F81204C080917203081729F07C
:103340008091360382608093360310937003F0926D
:10335000710300937203EE2051F060916F0370913E
:10336000700380917103909172030E9403180F9073
:103370000F900F90DF91CF911F910F91FF90EF90E1
:10338000DF90CF90BF90AF900895EFE6F3E091818A
:10339000282F4381628188E0890F0C94231981E0F2
:1033A0000C94C519EFE6F3E09181282F43816281E7
:1033B00088EF890F0C94231981E00C94D219EFE661
:1033C000F3E0628121E1620F08F46FEF282F43815F
:1033D00081810C94231981E00C94DF19EFE6F3E06E
:1033E000628121E1621B08F460E0282F4381818122
:1033F0000C94231981E00C94EE19EFE6F3E043817D
:1034000021E1420F08F44FEF282F628181810C9453
:10341000231981E00C94FD19EFE6F3E0438121E1EB
:10342000421B08F440E0282F628181810C9423190B
:1034300081E00C940C1A20E00C942319FF920F9356
:103440001F93CF93DF93EC01F12C0FEF10E060910D
:103450006401F616F0F4809162012F2D30E0280F00
:10346000311DC901880F991F280F391F2C583C4F57
:1034700070E0C8010E944B30962F8C8140917203FE
:1034800060917103F99E800D11240E94DE17F39460
:10349000DECF0E9466189A818C8190FF02C08F5FF8
:1034A00001C081508C83DF91CF911F910F91FF90CC
:1034B00008958F929F92AF92BF92CF92DF92EF9238
:1034C000FF920F931F93CF93DF93EC018A8180FFCC
:1034D00003C0BB24BA9402C0BB24B3948C81811175
:1034E0000DC081E0B81206C08091640181508093C4
:1034F000ED0202C01092ED0281E08C83A12C4CE021
:10350000942E80916401A81608F044C08091620155
:10351000CA2CD12C8601080F111DC801880F991FD4
:10352000080F191F0C581C4FF801118210821282CB
:1035300034E0E32EF12C812C8091ED02880D8D304A
:103540002CF0692D0E942930892F05C087FF03C008
:1035500090916401890F082E000C990BC816D906AA
:1035600091F4809172038E9DA0018F9D500D1124C6
:1035700055954795559547959801609171038091B0
:1035800070030E94DE178B0CF1E0EF1AF108A1F630
:10359000A394B7CF0E9466188091ED0291E0B91212
:1035A0000EC0811107C08091640181508093ED02AB
:1035B0001C820FC081508093ED02BC820AC090E053
:1035C00001966091640170E00E944B308093ED029F
:1035D0008C83DF91CF911F910F91FF90EF90DF903F
:1035E000CF90BF90AF909F908F9008951F93CF93EF
:1035F000DF93EC018C81811109C081E08C831092F2
:10360000EC0292E090935F0180935E0180916201F1
:1036100090916301891770F4E82FF0E09F01220F69
:10362000331FE20FF31FEC58FC4F118210821282FD
:103630008F5FF0CF10E0609164011617C0F5E12FA5
:10364000F0E070E0CF010E944B3020916201820FC8
:103650002091EC02022E000C330B90E0E217F307EE
:10366000CCF020915F01022E000C330B2E173F0788
:103670008CF09C01220F331F820F931F9C012C584A
:103680003C4F4091720360917103809170030E94DE
:10369000DE170BC0FC01EE0FFF1F8E0F9F1FFC01FA
:1036A000EC58FC4F1182108212821F5FC4CF0E941F
:1036B000661880915E012091EC02280F2093EC02A5
:1036C00090915F01980F90935F0119165CF4022EA0
:1036D000000C330B4091640150E041505109241714
:1036E000350734F0819580935E01813009F41C82A6
:1036F000DF91CF911F9108958F929F92AF92BF92C9
:10370000CF92DF92EF92FF920F931F93CF93DF93AD
:103710008C01FC014481C42FD0E09E01DE010E9497
:103720008F309B01AC010E94A5306B017C01E0E26F
:10373000F0E0EC1BFD0BA5E5B0E09B01AC010E94A5
:10374000A5304B015C019F01DF010E9487309B0186
:10375000AC010E94B0309B01AC012C0D3D1D4E1DF3
:103760005F1DC501B4010E945F30C22FD22F2A32E3
:1037700028F4F3E02F9F900111240DC025E530E0DF
:103780002C1B3109C901880F991F280F391F37FFDA
:1037900002C02F5F3F4F35952795C22FC095F12C62
:1037A00085E5E82EED1A80916401F816C8F4F1FC65
:1037B00002C08E2D01C08D2F909162012F2D30E01F
:1037C000290F311DA901440F551F240F351F2C58F7
:1037D0003C4F4C2F609171030E94DE17F394E3CFAE
:1037E0000E946618F8018481811102C091E003C033
:1037F000803219F49FEF90935D0190915D01890FE4
:10380000F8018483DF91CF911F910F91FF90EF908A
:10381000DF90CF90BF90AF909F908F9008950F93BF
:103820001F93CF93DF93EC0100E010E080916401DF
:10383000282F30E00217130724F5909162019801B8
:10384000290F311DA901440F551F240F351F2C5876
:103850003C4F869590E04C81081719071CF44423CF
:1038600031F002C0411103C04091720301C040E039
:1038700060917103809170030E94DE170F5F1F4FEC
:10388000D5CF0E9466188C8190E0019681709927AF
:103890008C83DF91CF911F910F9108957F928F922A
:1038A0009F92AF92BF92CF92DF92EF92FF920F93CF
:1038B0001F93CF93DF93FC018280748081E0848327
:1038C000E9E7F2E09490E8EFF2E0E491A12CF5E072
:1038D000BF2ECC24CA94D12CE9190E2F10E0809170
:1038E0006401A81608F0A2C0EA2CF12C22E02815E9
:1038F00068F0BE9CF001BF9CF00D1124EF50FD4F0D
:1039000080917003808380917103818371100AC05C
:10391000BE9CF001BF9CF00D1124EF50FD4F1382AF
:1039200012826AC0BE9CE001BF9CD00D1124CF5012
:10393000DD4F8B818823F9F081508B832FEF829F9D
:10394000C00111246C8170E00E943730FB01FF2719
:10395000E758FD4F8491E82FE9192FEFE29FC0014E
:103960001124B8010E94373080917203689FB00122
:1039700011247A8341C00E9404312091720326955C
:10398000215830E0A901440F551F322F2227240F60
:10399000351F232F33278217930774F582E088158C
:1039A00088F40E940431B6010E944B3088830E9443
:1039B0000431209171032695622F70E00E944B30F4
:1039C000280F2983BE9CF001BF9CF00D1124EF50FD
:1039D000FD4F128280917203843120F0893C18F0EF
:1039E00088EC01C084E1BE9CF001BF9CF00D112465
:1039F000EF50FD4F84838383809162019701280FEC
:103A0000311DC901880F991F280F391F2C583C4FB1
:103A1000BE9CF001BF9CF00D1124EF50FD4F428180
:103A2000618180810E94DE17A39459CFDF91CF91ED
:103A30001F910F91FF90EF90DF90CF90BF90AF90CC
:103A40009F908F907F900C94661810923603089583
:103A500025E0EFE6F3E0DC0101900D922A95E1F715
:103A6000209134033091350340913603FC012583C6
:103A700036834783089560916F03669570E04BE04D
:103A800050E085E691E00E941431892B19F481E021
:103A9000809335030E94402890932E0380932D033A
:103AA000809136038460809336030895E4E3F3E065
:103AB0001182828184608283089590916F0390FFC8
:103AC0003AC09170811102C0926006C08B3210F032
:103AD000946502C0880F982B90936F0380913603F2
:103AE000816080933603662351F060916F0370917B
:103AF000700380917103909172030E94031860918A
:103B00006F03669570E04BE050E085E691E00E941F
:103B10001431892B19F00E94561D02C00E943B1DD2
:103B200081E0809330034091720360917103809132
:103B300070030C941B1A0895682F90916F0396954B
:103B400081E0890F8B3208F081E00C945D1D81E0EB
:103B50000C949C1D682F90916F0396958FEF890FA1
:103B600009F48AE20C945D1D81E00C94AA1D61E0C9
:103B70000C945D1DEFE6F3E0808181608083869583
:103B80000C94B71D60E00C945D1DEFE6F3E08081BE
:103B90008E7F808360817181828193810E9403186E
:103BA0000E94561DE4E3F3E08281816082832FEF5F
:103BB00080E792E0215080409040E1F700C0000093
:103BC0000C94661880916F0380FD0C94C51D0C94B5
:103BD000BA1DEFE6F3E080818E7F80830E94561D40
:103BE000E4E3F3E08281816082832FEF80E792E05B
:103BF000215080409040E1F700C000000C9466180E
:103C00001F93CF93DF93EC01162F8F8180FF0FC09E
:103C1000888180FF0AC080916F03816080936F0369
:103C2000888186950E945D1D02C00E94E91D8F81DA
:103C300081FF06C0212F4B816A8189810E9423194F
:103C40008F8182FF08C08E81882319F00E943B1D5E
:103C500002C00E94561D8F8183FF03C081E08093C4
:103C60003003DF91CF911F9108958091330381112B
:103C700033C00E94E90D811104C00E94910E0E9480
:103C800015180E94FF1760936F0370937003809361
:103C9000710390937203809136038360809336039F
:103CA0006E7F61F40E9415180E94FF1760936F03E6
:103CB0007093700380937103909372030E94EC17CA
:103CC0000E94561D80916F0380FF03C086950E945D
:103CD000C21D81E0809333030895EF92FF920F930A
:103CE0001F93CF93DF9380913503882309F4BBC0E2
:103CF00080913403E0916F03E695E81BE0932F0376
:103D0000823049F4F0E0EB58FD4FE491CE2FD0E043
:103D10000FEB18E159C0863049F4F0E0EE58FD4F42
:103D2000E491CE2FD0E003ED18E14EC0893051F47C
:103D3000E695F0E0E159FD4FE491CE2FD0E00EE1A1
:103D40001AE142C08F3051F4E695F0E0E459FD4F9E
:103D5000E491CE2FD0E009E51AE136C0853149F46F
:103D6000F0E0E759FD4FE491CE2FD0E006EF1AE1E5
:103D70002BC08831D9F0833239F4E7E6F2E0C591FF
:103D8000D49103EE18E120C08432A9F08532C1F449
:103D90008E2F63E00E941D30E92FF0E0EC59FD4FBB
:103DA000E491CE2FD0E00EE41CE10EC0C8E2D0E0DA
:103DB0000CE71BE109C0C4EFD1E00FE01CE104C037
:103DC000C0EDD7E005ED17E180913003882361F065
:103DD000109230030E94402890932E0380932D036D
:103DE00010923203109231030E944028E0912D037B
:103DF000F0912E039C012E1B3F0B2F3F3F4798F560
:103E00002091F0022223B1F01092F0022091EE02F4
:103E10003091EF02821B930B8F3F9F4758F4205D38
:103E20003A483093EF022093EE0280913603886087
:103E300080933603E0903103F0903203EC0FFD1FC6
:103E4000F0932E03E0932D038DE293E0F8010995A2
:103E50008091310390913203892B29F4EF2819F0D6
:103E600081E08093F002DF91CF911F910F91FF903D
:103E7000EF900895882311F0FA0101C0FB01099425
:103E8000CF93DF93C82FD62F0E942D188C1740F0A8
:103E90000E942D188D1720F4DF91CF910C94A71D4F
:103EA0008C2FDF91CF910C94B71D1F93CF93DF938D
:103EB000FB0112811111C1C0EC010E942A0D827216
:103EC000CD3CFCE5DF0709F49AC008F043C0C73CCD
:103ED000ECE5DE0709F47FC0D8F4C43C9CE5D907C3
:103EE00009F46DC038F4C33CDC4509F0A5C00E945C
:103EF000E21DA3C0C53C9CE5D90709F465C0C63CDA
:103F0000DC4509F099C04CED59E16FEC79E160C0F6
:103F1000CA3CFCE5DF0709F468C070F4C83CECE576
:103F2000DE0709F45DC0C93CDC4509F085C04BEEF5
:103F300059E16AEF79E14CC0CB3C9CE5D90709F423
:103F400059C0CC3CDC4509F077C040E658E169E453
:103F500078E13EC0C23DFCE5DF0709F45DC098F49E
:103F6000CF3C9CE5D90709F451C008F44DC0C03DD1
:103F7000FCE5DF0709F44DC0C13DDC4509F05CC03C
:103F80006EE089E056C0C53D9CE5D90709F44AC0FA
:103F900058F4C33DFCE5DF0709F441C0C43DDC45EE
:103FA00009F04AC088E142C0C63D9CE5D907E9F165
:103FB000CE35DD4509F040C06AE285E23AC044EB07
:103FC0005DE167EA7DE104C047EA5DE164EB7DE124
:103FD0000E943A1F32C04FEC59E16CED79E1F8CF05
:103FE0004AEF59E16BEE79E1F3CF48E15AE169E03C
:103FF0007AE1EECF49E05AE168E17AE1E9CF49E4BC
:1040000058E160E678E1E4CF81E010C065E082E04D
:1040100010C068E086E00DC064E18FE00AC067E18F
:1040200085E107C062E289E104C083E20E94B71D16
:1040300004C00E94401F01C011E0812FDF91CF9189
:104040001F910895809198038170089586E090E013
:104050000C943731682F86E090E00C944B318091BE
:10406000980384708961809398030C942A2080912E
:10407000980386958695869508950E94E90D81118D
:1040800004C00E94910E0E942F200E94262080933F
:104090009803282F26952695269530E02630310561
:1040A00024F087708862809398038091980380FF42
:1040B00004C086958695869501C080E00C944E21BB
:1040C00020919803822F869586958695482F50E0FB
:1040D0004530510554F48F5F982F990F990F990F20
:1040E000822F8770892B8093980380919803816039
:1040F000809398030E942A20809198038695869544
:1041000086950C944E2180919803982F96959695BC
:104110009695A1F0915E990F990F990F8770892B51
:1041200080939803887F91E009F490E08091980350
:1041300090FB80F9809398030E942A208091980335
:104140008695869586950C944E218091980380FDE6
:1041500013C0816080939803813019F489E08093C3
:104160009803809198030E942A2080919803869555
:10417000869586950C944E2108958091980380FF32
:1041800008C08E7F809398030E942A2080E00C94C0
:104190004E2108958091980380FD0C94BD200C94CD
:1041A000A52090919803892F8695869586958F5F97
:1041B0008F719770863038F4880F880F880F892B9D
:1041C0008093980302C09093980380919803887F0E
:1041D00091E009F490E08091980390FB80F980933E
:1041E00098030E942A20809198038695869586954B
:1041F0000C944E21863008F085E0909198039770DA
:10420000282F220F220F220F922B90939803987F32
:1042100021E009F420E09091980320FB90F990931D
:1042200098030C944E210E94FA20809198030C94DC
:104230002A209C01FB018281882349F12E3BFCE569
:104240003F07C9F040F42C3BECE53E0769F02D3BFD
:104250003C4561F00895203C9CE5390791F070F0F1
:10426000213C3C4589F0089585E001C080E00E9432
:10427000132180E008950E948320FBCF0E946020DC
:10428000F8CF0E94CA20F5CF0E94D120F2CF81E062
:104290000895259A2D9808952D980895CF92DF922C
:1042A000EF92FF92CF93C82F863050F4811109C04E
:1042B000809180008F77809380000E944C2106C0FF
:1042C000C5E0809180008068809380002C2F30E0D2
:1042D000AFEFBFEF0E948F3025E030E040E050E0CC
:1042E0000E945F30B42FA32F922F8827492F5A2F77
:1042F0006B2F7727CA014C3724E1520728F469E075
:1043000070E00E94373029C0DB01CA018A50974D06
:10431000AF4FBF4F6627782F892F9A2F25EF38E2AE
:1043200041E050E00E945F3069017A01CA01B901A1
:104330000E940D309B01AC01C701B6010E940D30F7
:10434000BB27A92F982F872F009721E0A207B1053F
:1043500011F0BC0102C06FEF7FEF70938900609392
:104360008800CF91FF90EF90DF90CF90089508954F
:104370000E94492182E88093800089E18093810036
:104380008FEF9FEF90938700809386000C943D20E1
:10439000569A2BB12F7B3BB130644FB7F894FC0198
:1043A000CB01880F991F680F791F6E0F7F1FE617CB
:1043B000F70789F0819198E03BB9000000C087FFC2
:1043C0002BB9880F000000C000C000C02BB900C08E
:1043D0009A9591F7ECCF4FBF8FE594E00197F1F7F5
:1043E00000C00000089581E008950C94F3218091AD
:1043F0001601882309F447C020917101A22FA295CC
:10440000AF70B0E091963C9191972F7081E090E071
:10441000AC01022E01C0440F0A94EAF7542F5095C4
:10442000352391963C93919792963C919297432B8A
:1044300092964C93929740917001E42FE295EF7021
:10444000F0E031A14F70042E01C0880F0A94EAF702
:10445000982F9095932391A392A1892B82A3909654
:104460008C9190E002C0959587952A95E2F781702E
:1044700020A130E002C0359527954A95E2F720FD4E
:1044800009C090E008C087EF8093710186EF8093A8
:104490007001B2CF92E0892B80933C03909116017A
:1044A00081E0982790933803891B80933703089500
:1044B000CF93E0913C035E2F550F550F2091710172
:1044C000E22FE295EF70F0E080A190E02F7002C043
:1044D000959587952A95E2F781709927409170010B
:1044E000E42FE295EF70F0E020A130E04F7002C0C1
:1044F000359527954A95E2F7F901E170FF2720FFEE
:1045000002C0E2E0F0E0E82BF92BE52BE0933C035E
:10451000C0913803EF70F0E0EE5EFD4F9081809126
:104520003B03890F80933B0384306CF0EC2FF0E069
:10453000E75CFC4F80818F5F808360E08C2F0E945E
:10454000F52121E001C020E080913B038D3F64F420
:10455000EC2FF0E0E75CFC4F80818150808361E0CC
:104560008C2F0E94F52121E080913B03082E000C46
:10457000990B64E070E00E944B3080933B03822FE4
:10458000CF910895E0913803F0E0E75CFC4F208183
:10459000FC0120830895FF920F931F93CF93DF9325
:1045A000D09137030D2F10E0075C1C4FFC01C08138
:1045B000F8018081C81BFC2E80E01F145CF4FA9483
:1045C000F80180818F5F808360E08D2F0E94F5214C
:1045D00081E0F3CF9C2FC7FD90E0C91BCC2359F09D
:1045E000CF5FF80180818150808361E08D2F0E9430
:1045F000F52181E0F3CF882339F0DF91CF911F912E
:104600000F91FF900C94AB0EDF91CF911F910F9102
:10461000FF9008950895FC01680F791F8FEF91E3D3
:10462000E617F70771F02191822728E030E087FF35
:1046300003C0880F892701C0880F21503109B9F7BD
:10464000EFCF08950F931F93CF93DF93C42FD22FF3
:10465000FC0182818823C9F040933F030E94D62841
:1046600090933E0380933D0380E28C0F883008F0E6
:1046700057C0C77081E001C0880FCA95EAF7DF9183
:10468000CF911F910F910C94C60480913F03481362
:1046900030C080913D0390913E030E94EE28883CFB
:1046A000910538F510E21D0FCD17B9F080E28C0F9F
:1046B000883040F4C77081E001C0880FCA95EAF7DE
:1046C0000E94CD04183028F581E09D2F977001C01D
:1046D000880F9A95EAF70E94C604802F0E94BD04B5
:1046E0001830F0F4D77081E001C0880FDA95EAF74E
:1046F0000AC080E28C0F883098F4C77081E001C056
:10470000880FCA95EAF7DF91CF911F910F910C9412
:10471000CD04802FDF91CF911F910F910C94BD0498
:10472000DF91CF911F910F9108950F939C01CB01C1
:10473000243F4CE5340731F188F4293DFCE53F077F
:10474000D9F02A3D4CE5340779F1283D3C45A9F5DF
:1047500006E221EE41EE68ED7CE52BC0263FFCE54C
:104760003F07E1F0A8F0273F3C4539F507E225EE89
:1047700046EE67EF7CE51DC007E225EE45EE69EDEC
:104780007CE517C006E221EE40EE64EF7CE511C047
:1047900007E225EE44EE65EF7CE50BC006E221EE74
:1047A00042EE66EF7CE505C008E221E045EE6AEDE9
:1047B0007CE50E94222380E008C0FC0182818823DE
:1047C00019F010923F0301C081E00F910895CF933B
:1047D000DF93EC01FB018281882309F41FC1C23001
:1047E000FCE5DF0708F41BC1C6319CE5D90738F0AA
:1047F0009E012B5F3C452930310508F010C10E9415
:10480000FC0D9093570380935603C031ECE5DE070F
:1048100009F4C3C008F041C0C8308CE5D80709F4DA
:104820009AC0F0F4C430ECE5DE0709F487C068F400
:10483000C2308CE5D80709F477C0C330DC4509F0F5
:10484000E3C080915603826076C0C630ECE5DE0797
:1048500009F46EC008F07BC08091560388606BC07D
:10486000CC308CE5D80709F485C068F4CA30ECE593
:10487000DE0709F474C008F079C00E9444078091F3
:104880005603806858C0CE308CE5D80709F476C04E
:1048900008F07FC0809156038BC0CC3FECE5DE076B
:1048A00009F44FC018F5C3318CE5D80709F47DC071
:1048B00078F4C131ECE5DE0709F473C0C231DC45A0
:1048C00009F0A2C00E944407809156038F7733C03D
:1048D000C5318CE5D80709F472C008F486C0CB3F17
:1048E000DC4509F091C0809157033EC0C115FDE53C
:1048F000DF0709F45FC058F4CE3F9CE5D90709F4FF
:1049000044C008F43FC08091570382602DC0C2307C
:10491000FDE5DF0709F475C008F45DC0C330DD456F
:1049200009F072C080E06EC080915603816003C0C0
:104930008091560380618093560366C08091560330
:1049400011C0809157038260809357035DC08091AE
:1049500056038062F0CF809156038064ECCF809143
:10496000560388608460E7CF8160EECF8091560364
:104970008E7FE1CF809156038D7FDDCF80915603EE
:10498000877FD9CF8091570318C0809157038D7FBF
:10499000DBCF809156038F7ECECF809156038F7DE3
:1049A000CACF809156038F7BC6CF80915603877FF5
:1049B0008B7FC1CF809157038D7F8E7FC5CF809134
:1049C000560382FB222720F991E0922790FB82F97F
:1049D00090FB83F9B0CF80915703982F90959170F9
:1049E0008E7F892B90FB81F9AFCF0E944407809185
:1049F000560387FB222720F991E0922790FB87F945
:104A00009ACF81E00E94930E8091560390915703B4
:104A10000E940D0E0E94440780E001C081E0DF91FA
:104A2000CF910895CF93DF9386319C4541F5EB01FB
:104A30000E942A0D982F8A8120910401309105014E
:104A4000882379F09A7A81E009F480E0809340032A
:104A5000911102C069E201C065E3C9010E94F42717
:104A60000AC080914003811102C069E201C065E380
:104A7000C9010E94F6270E947C0D80E001C081E000
:104A8000DF91CF9108958EE1489B02C08150E1F7FC
:104A9000489BFECF0895589880E28A95F1F7589A7E
:104AA0000895FC012AE02A95F1F728E090E080E0E3
:104AB00031E040E14A95F1F7880F489B02C08160E0
:104AC000932700C0000040E14A95F1F7215089F793
:104AD00020E12A95F1F729B100C0000030E13A95B4
:104AE000F1F7217092272081920F90830895EF9221
:104AF000FF920F931F93CF93DF931F92CDB7DEB733
:104B000019828C017C01E60EF11C0E151F0551F077
:104B10000E944325CE0101960E945125F801819300
:104B20008F01F3CF81E09981911180E00F90DF91A7
:104B3000CF911F910F91FF90EF900895509A589A3E
:104B400008955098589AE89AE9E6F0E080818C7FC1
:104B500080830895615091E001C0990F6A95EAF74A
:104B600020E031E0992361F0492F482319F0589A49
:104B7000232701C0589840E24A95F1F79695F2CF65
:104B8000222311F0589A01C0589880E28A95F1F7D3
:104B900058980895FF920F931F93CF93DF93EC01E2
:104BA0008C01060F111DC017D10741F0F9900E942A
:104BB0004B2568E08F2D0E94AA25F5CFDF91CF917C
:104BC0001F910F91FF9008951F920F920FB60F92B1
:104BD0001124EF92FF920F931F932F933F934F93C4
:104BE0005F936F937F938F939F93AF93BF93EF9355
:104BF000FF93CF93DF931F92CDB7DEB719820E9448
:104C00004325CE0101960E945125A82FA695A69571
:104C1000A6959A2F969595702A2F2570920F292F79
:104C2000237096959695920F877089137CC0898121
:104C3000811179C0A83008F076C080E18A95F1F73B
:104C4000589A509AB2E0BA95F1F700C05898EA2EF7
:104C5000F12CEAE0AE9FD0011124A95EBE4F189658
:104C6000ED91FC9119973097B1F06091E501709149
:104C7000E60116962D913C911797260F371F139634
:104C80008D919C911497680F791F15964C911597EB
:104C900012968C9109958AE08E9DF0018F9DF00D02
:104CA0001124E95EFE4F6581662351F08091E50194
:104CB0009091E60126813781820F931F0E94CA25B9
:104CC0000E944B25F0E1FA95F1F758985098589AC0
:104CD00080E18A95F1F78AE08E9D80018F9D100D0D
:104CE0001124095E1E4FD80112966C91129766230B
:104CF00099F08091E5019091E60113962D913C91F8
:104D00001497820F931F0E947725D801ED91FC9193
:104D1000811105C082E004C0D801ED91FC9188E0CA
:104D200080830E9443250F90DF91CF91FF91EF91F7
:104D3000BF91AF919F918F917F916F915F914F91B3
:104D40003F912F911F910F91FF90EF900F900FBE09
:104D50000F901F9018950F931F93CF93DF93883078
:104D600091050CF0A9C02AE0289FF001299FF00DC1
:104D70001124E95EFE4F20813181232B09F49CC070
:104D8000EC01F894509A589885E08A95F1F7000064
:104D90008C2F869585709C2F9570890F982F937016
:104DA000869586958E0123E0000F111F2A95E1F765
:104DB000890F082B0E944B25A4E0AA95F1F700C0AB
:104DC00068E0802F0E94AA25B0E1BA95F1F75098CB
:104DD000589A489902C000C0FCCF87E090E0489BF9
:104DE00017C0019799F4509A589A8AE08C9FF00165
:104DF0008D9FF00D1124E95EFE4F0190F081E02DB2
:104E000081E08083789481E090E058C000C0E7CFD3
:104E10008AE08C9F80018D9F100D1124095E1E4F2A
:104E2000F80165816623B9F08091E5019091E60172
:104E300026813781820F931F0E94772581110BC035
:104E4000509A589AD801ED91FC9182E08083789431
:104E500082E090E033C00E944325B0E2BA95F1F7BA
:104E60005898509AE0E1EA95F1F78AE08C9FF001BA
:104E70008D9FF00D1124E95EFE4F6281662351F093
:104E80008091E5019091E60123813481820F931F87
:104E90000E94CA250E944B258AE08C9FF0018D9FBD
:104EA000F00D1124E95EFE4F0190F081E02D10829B
:104EB000789480E090E002C084E090E0DF91CF91B0
:104EC0001F910F910895909347038093460308958F
:104ED0000E94DB13811103C0809141030895E0918A
:104EE0004603F0914703309721F00190F081E02DC7
:104EF000099480E00895E0914603F09147033097CC
:104F000021F00280F381E02D09940895209144035B
:104F1000309145032817390771F09093450380932A
:104F20004403E0914603F0914703309721F0068057
:104F3000F781E02D099408952091420330914303B5
:104F40002817390771F09093430380934203E0914F
:104F50004603F0914703309721F00084F185E02D5E
:104F600009940895FC01329697E080E0915029F071
:104F700021912223D9F38F5FF9CF0895662349F059
:104F8000FC01329608962191621729F0E817F9077B
:104F9000D1F780E0089581E008959C01FC013296EC
:104FA0009FEF80E04191461789F09F3F19F441112E
:104FB00001C0982F8F5F8630A9F79F3F39F0F90124
:104FC000E90FF11D97FDFA956283089508959C01FC
:104FD0002A5F3F4FFC014281461301C012820196B5
:104FE00082179307B9F708950C94CD270C94E727FF
:104FF000029626E0FC0111922A95E9F70895109295
:10500000990310929A0310929B0310929C030895A7
:10501000CF92DF92EF92FF926B017C010E94DB1333
:1050200081110EC00E94E228C61AD70AE80AF90ABE
:10503000C0929903D0929A03E0929B03F0929C0352
:10504000FF90EF90DF90CF9008950F931F930E94F1
:10505000DB13882321F01F910F910C94E2280E940A
:10506000E2280091990310919A0320919B033091BB
:105070009C03600F711F821F931F1F910F91089552
:105080000E94DB1381110C94D6280E942528CB01A5
:105090000895089508950C944A280C944A28CF93B3
:1050A0000E944D280E9449130E944B28C0E08C2F7B
:1050B0000E94CE11811104C0CF5FCA30C1F701C078
:1050C00081E0CF9108950C944A280C946328809134
:1050D000A503843061F10E94652880E00E944E2182
:1050E00080E00E94D3031092480320E488E190E01E
:1050F0000FB6F894A895809360000FBE20936000CF
:1051000083B7817F846083BF83B7816083BF7894D6
:10511000889583B78E7F83BF0FB6F894A89580914A
:105120006000886180936000109260000FBE089557
:105130000C944A280E9444070E943D200E94682740
:105140000E94D3030C9498281F920F920FB60F92CF
:1051500011248F939F93AF93BF9380914803811144
:1051600013C080919D0390919E03A0919F03B091E5
:10517000A0034196A11DB11D80939D0390939E03B2
:10518000A0939F03B093A003BF91AF919F918F9184
:105190000F900FBE0F901F90189582E084BD93E092
:1051A00095BD9AEF97BD80936E0008952FB7F89440
:1051B00080919D0390919E03A0919F03B091A003C5
:1051C0002FBF08952FB7F89460919D0370919E03AF
:1051D00080919F039091A0032FBF08959C014FB72A
:1051E000F89480919D0390919E03A0919F03B091AC
:1051F000A0034FBF821B930B0895CF92DF92EF92D3
:10520000FF922FB7F894C0909D03D0909E03E0903A
:105210009F03F090A0032FBFA7019601261B370B19
:10522000480B590BCA01B901FF90EF90DF90CF9066
:10523000089578941F920F920FB60F9211248F93B6
:105240009F93AF93BF9380919D0390919E03A091F4
:105250009F03B091A0030196A11DB11D80939D03F2
:1052600090939E03A0939F03B093A003BF91AF912F
:105270009F918F910F900FBE0F901F90189581E016
:105280008093E00080E28093D8001092C9008FE103
:105290009EE40197F1F700C0000087E090EBDC018D
:1052A0008093AE039093AF03A093B003B093B10388
:1052B0009CE088E10FB6F894A895809360000FBE3B
:1052C00090936000FFCF9093230280932202089571
:1052D0008091540308959091A503943031F5809303
:1052E000490370934B0360934A0382E08093E90083
:1052F0008FEF9091E800815095FD06C095ED9A954D
:10530000F1F700008111F5CF8091E80085FF0DC015
:1053100040E050E063E070E089E493E00E945D2BA0
:105320008091E8008E778093E8000895BC0184E0C6
:105330000C946B29BC0183E00C946B29CF93DF9311
:1053400021E02093E9002FEF3091E800215035FD56
:1053500006C035ED3A95F1F700002111F5CF209107
:10536000E80025FF14C0EC0140E050E068E070E088
:105370000E945D2B8091E8008E778093E80088E0A2
:10538000FE01ACE4B3E001900D928A95E1F7DF9164
:10539000CF91089508958091A403811109C00E94BE
:1053A000EE2C0E944B2D8091E20084608093E200FD
:1053B00008951092A403089508950895089542E071
:1053C00061EC81E00E94672C42E261EC82E00C9487
:1053D000672C8091A703833009F460C030F48130DA
:1053E00071F0823009F499C008958A3009F485C0BB
:1053F0008B3009F46BC0893009F0A7C020C08091C0
:10540000A603813A09F0A1C08091E800877F8093CC
:10541000E8008091AA039091AB03892B21F468E006
:105420008CE493E003C060E080E090E070E00E94D4
:10543000A82B8091E8008B778093E80008958091F5
:10544000A603813209F081C08091AA039091AB0339
:10545000029708F07AC08091E800877F8093E80087
:105460008091E80082FD05C08091A5038111F8CFED
:105470006CC02091F3008091F20090E0922B029793
:1054800029F48091F1008B7F813021F48091F1002B
:10549000809354038091E8008B7753C08091A603DA
:1054A000813A09F052C08091AA039091AB03892BF5
:1054B00009F04BC08091E800877F8093E8008091DD
:1054C000E80080FFFCCF80917C0136C08091A6036C
:1054D0008132D9F58091AA039091AB03892BA9F56C
:1054E0008091E800877F8093E8000E949C2C809147
:1054F000A80380937C010C9444078091A603813219
:1055000021F58091E800877F8093E8000E949C2C21
:105510008091A9038093550308958091A603813A51
:10552000A1F48091E800877F8093E8008091E800F3
:1055300080FFFCCF809155038093F1008091E800BB
:105540008E778093E8000C949C2C089584B7877F15
:1055500084BF0FB6F894A89580916000886180930D
:105560006000109260000FBE90E080E80FB6F894E3
:1055700080936100909361000FBE0C94D40E0E9442
:10558000EE2C0E944B2DE2EEF0E08081846080835F
:1055900078940E94E02F0E94E20E82E791E00C9442
:1055A00063278091A5038530A9F48091A5038530F8
:1055B00079F40E9467288091A3038823B1F30E94A5
:1055C0004F28882391F30E94472B0E944407EDCF78
:1055D0000E949A280C94F20E0C94EE2A292F33275D
:1055E00023303105C9F060F42130310581F02230DB
:1055F000310509F044C08BE390E02CEA34E043C06D
:1056000021323105E1F02232310549F138C082E121
:1056100090E027EE34E037C099278130910549F0BA
:1056200028F0029761F5EEE7F4E005C0E8EAF4E05F
:1056300002C0E8E9F4E0849190E09F0124C0611584
:10564000710541F061307105D1F489E090E027EDFA
:1056500034E019C089E090E02EEB34E014C061150D
:10566000710541F06130710551F482E390E029EF5A
:1056700034E009C080E490E02BE235E004C080E033
:1056800090E020E030E0FA0131832083089580E14A
:1056900089BD82E189BD09B400FEFDCF8091D800AB
:1056A0008F7D8093D8008091E00082608093E0003D
:1056B0008091E00081FDFCCF0895CF92DF92EF92C0
:1056C000FF920F931F93CF93DF93EC018B017A012D
:1056D0000E94BB2C811133C0E114F10439F0F701B1
:1056E00080819181081B190BC80FD91FC12CD12CA7
:1056F0000115110519F18091E80085FD16C0809112
:10570000E8008E778093E800E114F10449F0F70196
:1057100080819181C80ED91ED182C08285E00FC0E0
:105720000E94BB2C882321F30AC089918093F10049
:1057300001501109FFEFCF1ADF0ADACF80E0DF91C5
:10574000CF911F910F91FF90EF90DF90CF90089530
:105750002091AC033091AD032617370748F061154F
:10576000710539F42091E8002E772093E80001C0FC
:10577000B901FC0120E06115710579F18091A50363
:105780008823F1F18530F1F18091E80083FD3CC080
:105790008091E80082FD2EC08091E80080FFEBCF71
:1057A0002091F3008091F20090E0922B6115710539
:1057B00051F08830910538F421912093F100615027
:1057C00071090196F3CF21E0089709F020E080915C
:1057D000E8008E778093E800CECF2111CFCF0AC0AA
:1057E0008091A503882361F0853061F08091E80005
:1057F00083FD0AC08091E80082FFF2CF80E0089527
:1058000082E0089583E0089581E008952091AC033B
:105810003091AD032617370748F06115710539F44B
:105820002091E8002E772093E80001C0B901FC0127
:1058300020E06115710591F18091A503882309F499
:1058400040C0853009F43FC08091E80083FD3DC031
:105850008091E80082FD2FC08091E80080FFE9CFB1
:105860002091F3008091F20090E0922B6115710578
:1058700059F08830910540F424912093F10031963D
:10588000615071090196F2CF21E0089709F020E0FC
:105890008091E8008E778093E800CBCF2111CCCFA8
:1058A0000AC08091A503882361F0853061F0809162
:1058B000E80083FD0AC08091E80082FFF2CF80E01B
:1058C000089582E0089583E0089581E00895982F77
:1058D000973068F59093E900981739F07091EC00D3
:1058E0002091ED005091F00003C0242F762F50E05E
:1058F00021FD02C09F5FECCF3091EB003E7F3093E3
:10590000EB003091ED003D7F3093ED003091EB00E6
:1059100031603093EB007093EC002093ED005093D6
:10592000F0002091EE0027FDE5CF80E008958F7014
:105930008093E90081E008958091A60387FF11C05C
:105940008091E80082FD05C08091A5038111F8CF08
:1059500011C08091E8008B770BC08091A50388234C
:1059600049F08091E80080FFF8CF8091E8008E77C1
:105970008093E80008952091E4003091E50095E6D9
:105980004091EC00842F817040FF23C08091E8009B
:1059900080FD1DC08091A503882399F0853099F082
:1059A0008091EB0085FD11C04091E4005091E5002D
:1059B0002417350729F3915011F09A01E1CF84E0C3
:1059C000089582E0089583E0089581E0089580E0DD
:1059D00008954091E80042FFDDCF08950E945C2DBC
:1059E0000E94642DE0EEF0E0808181608083E8ED2C
:1059F000F0E080818F77808319BCA7EDB0E08C91B7
:105A00008E7F8C9380818F7E80831092A403089573
:105A10000F931F93CF93DF930E945C2D0E94642D00
:105A2000C8EDD0E088818F778883888180688883FB
:105A300088818F7D888319BC1092A5031092A103E1
:105A40001092A3031092A20300EE10E0F8018081EF
:105A50008B7F808388818160888342E060E080E082
:105A60000E94672CE1EEF0E080818E7F8083E2EE81
:105A7000F0E0808181608083808188608083F8018C
:105A800080818E7F8083888180618883DF91CF9140
:105A90001F910F910895E8EDF0E080818F7E808363
:105AA000E7EDF0E080818160808384E082BF81E067
:105AB0008093A4030C94082DE8EDF0E080818E7FA4
:105AC00080831092E20008951092DA001092E100B3
:105AD00008951F920F920FB60F9211242F933F93A8
